:100000000C94E0030C9475200C944E200C949C20CE
:100010000C949C200C949C200C9414210C940804A7
:100020000C9408040C9408040C9408040C94080420
:100030000C9408040C9408040C9408040C94080410
:100040000C9404200C9408040C94D21F0C94AC1F44
:100050000C9408040C9408040C9408040C940804F0
:100060000C9408040C940804AED580A83FD300403B
:100070008D142002A1C8DA12817FD9F1DB40A4A639
:10008000AF200054002D4E6577206D61795F736558
:100090006E645F646174612073746174653A2000FA
:1000A0003E3E2052656365697665642061636B6ED0
:1000B0006F776C656467656D656E7400637C777BD4
:1000C000F26B6FC53001672BFED7AB76CA82C97D54
:1000D000FA5947F0ADD4A2AF9CA472C0B7FD9326E5
:1000E000363FF7CC34A5E5F171D8311504C723C3E9
:1000F0001896059A071280E2EB27B27509832C1A2D
:100100001B6E5AA0523BD6B329E32F8453D100ED86
:1001100020FCB15B6ACBBE394A4C58CFD0EFAAFB6A
:10012000434D338545F9027F503C9FA851A3408F32
:10013000929D38F5BCB6DA2110FFF3D2CD0C13EC4A
:100140005F974417C4A77E3D645D197360814FDCDF
:10015000222A908846EEB814DE5E0BDBE0323A0AC3
:100160004906245CC2D3AC629195E479E7C8376D47
:100170008DD54EA96C56F4EA657AAE08BA78252E6C
:100180001CA6B4C6E8DD741F4BBD8B8A703EB566F5
:100190004803F60E613557B986C11D9EE1F89811E6
:1001A00069D98E949B1E87E9CE5528DF8CA1890DD5
:1001B000BFE6426841992D0FB054BB1631302E3046
:1001C0003A00322E353A002000540021204E4F20B4
:1001D000434F4E4E454354494F4E005700436F6EB8
:1001E0006E656374656420746F2067617465776100
:1001F00079210046494E45204455535400000005DE
:10020000072060000000000000005F000000070001
:100210000700147F147F14242A7F2A1223130864F2
:100220006236495620500008070300001C22410096
:100230000041221C002A1C7F1C2A08083E080800D6
:100240008070300008080808080000606000201076
:100250000804023E5149453E00427F400072494930
:1002600049462141494D331814127F102745454511
:10027000393C4A4949314121110907364949493632
:10028000464949291E0000140000004034000000C7
:1002900008142241141414141400412214080201F9
:1002A0005909063E415D594E7C1211127C7F494925
:1002B00049363E414141227F4141413E7F494949C2
:1002C000417F090909013E414151737F0808087FB8
:1002D00000417F41002040413F017F081422417FBF
:1002E000404040407F021C027F7F0408107F3E4157
:1002F00041413E7F090909063E4151215E7F0919AE
:100300002946264949493203017F01033F404040C5
:100310003F1F2040201F3F4038403F6314081463B4
:1003200003047804036159494D43007F4141410270
:1003300004081020004141417F04020102044040B2
:10034000404040000307080020545478407F284470
:1003500044383844444428384444287F385454545A
:100360001800087E090218A4A49C787F0804047869
:1003700000447D40002040403D007F1028440000A4
:10038000417F40007C047804787C08040478384479
:10039000444438FC1824241818242418FC7C08042D
:1003A0000408485454542404043F44243C4040204E
:1003B0007C1C2040201C3C4030403C4428102844F9
:1003C0004C9090907C4464544C44000836410000AA
:1003D00000770000004136080002010204023C26BA
:1003E00023263C68001980400048656C6C6F2C2007
:1003F0004920616D206120647573742073656E738C
:100400006F720064617461207472616E736D6973E0
:1004100073696F6E00322E35206D6963726F6D6582
:1004200074657273003130206D6963726F6D65742D
:10043000657273202620736D616C6C657200312EBD
:10044000310046696E6520647573742073656E7340
:100450006F720075672F6D330075672F6D33004124
:10046000766572616765207031303A2000417665AB
:10047000726167652070322E353A200053656E64D4
:10048000696E672066616B6520646174612C2073FE
:100490006F2061766572616765206973206E6F7485
:1004A000206368616E67696E672E0020004E6F20C2
:1004B000636F6E6E656374696F6E20746F20636F17
:1004C0006E74726F6C6C657221005700436F6E6EB4
:1004D000656374696F6E20746F20636F6E74726FE2
:1004E0006C6C6572206973206F6B2E002D3E20733B
:1004F000656E64696E672031302E303A20003C3CD6
:100500002073656E64696E672046414B452031302B
:100510002E303A20007031305F6164646974696F15
:100520006E203D20003C3C2073656E64696E672040
:10053000322E353A20003C3C2073656E64696E674C
:100540002046414B4520322E353A2000322E3520B0
:100550004164646974696F6E3A200057696C6C205D
:1005600073656E64207265616C20646174612061E2
:100570006761696E2E0053656E736F7220676F69D5
:100580006E6720746F20736C6565702E0042414465
:10059000202000504F4F5220004F4B20202000477A
:1005A0004F4F44200047524541540046414B45447B
:1005B00000424144202000504F4F5220004F4B201A
:1005C000202000474F4F44200047524541540046E9
:1005D000414B454400202020002020200057616925
:1005E00074696E6720666F72206461746100417384
:1005F0006B696E6720666F7220667265736820642F
:1006000061746120616761696E0041736B696E6737
:1006100020666F7220667265736820646174610081
:1006200053656E736F722077616B696E67207570AA
:10063000005F5F7374617274696E675F5F002000B2
:100640004E4554574F524B20544F47474C4544203A
:10065000544F200052096AD53036A538BF40A39EBA
:1006600081F3D7FB7CE339829B2FFF87348E434491
:10067000C4DEE9CB547B9432A6C2233DEE4C950BED
:1006800042FAC34E082EA16628D924B2765BA2494D
:100690006D8BD12572F8F66486689816D4A45CCC6C
:1006A0005D65B6926C704850FDEDB9DA5E1546573F
:1006B000A78D9D8490D8AB008CBCD30AF7E4580575
:1006C000B8B34506D02C1E8FCA3F0F02C1AFBD0381
:1006D00001138A6B3A9111414F67DCEA97F2CFCE52
:1006E000F0B4E67396AC7422E7AD3585E2F937E8ED
:1006F0001C75DF6E47F11A711D29C5896FB7620E2F
:10070000AA18BE1BFC563E4BC6D279209ADBC0FE0F
:1007100078CD5AF41FDDA8338807C731B1121059BC
:100720002780EC5F60517FA919B54A0D2DE57A9FAE
:1007300093C99CEFA0E03B4DAE2AF5B0C8EBBB3CA3
:1007400083539961172B047EBA77D626E169146327
:1007500055210C7D00030C0F30333C3FC0C3CCCF80
:10076000F0F3FCFF00000000240027002A00000036
:100770000000250028002B000000000023002600B8
:100780002900040404040404040402020202020214
:100790000303030303030102040810204080010245
:1007A00004081020010204081020000000080002C4
:1007B00001000003040700000000000000005224B4
:1007C00011241FBECFEFD8E0DEBFCDBF11E0A0E007
:1007D000B1E0EAEFF6E502C005900D92A63AB10746
:1007E000D9F724E0A6EAB1E001C01D92AF3CB20700
:1007F000E1F713E0C0EED3E004C02197FE010E94B0
:10080000442BCF3DD107C9F70E9427250C947B2BA1
:100810000C940000E3E5F2E0A089B18982E08C93BA
:10082000A485B5851C92A685B78580E18C93108E32
:10083000A489B58986E08C93A289B3898C91806163
:100840008C93A289B3898C9188608C93A289B38997
:100850008C9180688C930288F389E02D80818F7D54
:1008600080830895DB01FC01242F3C913083119695
:100870003C911197318312963C91129732831396D3
:100880003C9113973383245014963496243068F7A0
:100890002CEF240F2695269530E02F5F3F4F220F37
:1008A000331F220F331F4370DB01A20FB31FFC0164
:1008B000E20FF31F415018F08D918193FBCF089503
:1008C0004F925F926F927F928F929F92AF92BF9260
:1008D000CF92DF92EF92FF920F931F93CF93DF930C
:1008E00088248394912CB12CA12CD12CC12CF12CD7
:1008F000E12CD0E0C0E06AE0462E512C612C772438
:1009000073948091550390915603DC01ED91FC9115
:100910000084F185E02D0995181619060CF0A3C086
:100920008091550390915603DC01ED91FC91008478
:10093000F185E02D099592012C1B3D0B8217930741
:100940000CF491C08091550390915603DC01ED9118
:10095000FC910284F385E02D09959C013327CA3070
:10096000D10588F4FE01E954FB4F0C94442B020599
:100970000D05C10414051B051F05180518052405E0
:100980002F05890169012196CA30D10509F0B9CF37
:10099000B1E0AB16B10409F0B4CFB701FF0C880B7E
:1009A000990B0E945F2820E030E040E251E40E9471
:1009B0007E2A609347027093480280934902909385
:1009C0004A02B601DD0C880B990B0E945F2820E0DB
:1009D00030E040E251E40E947E2A60934B02709323
:1009E0004C0280934D0290934E02912C812CB12C9D
:1009F000A12C10E000E0D12CC12CF12CE12CD0E096
:100A0000C0E07FCFC1E0D0E02A3A310511F4D0E058
:100A1000C0E0D195C195D109B6CF203C310509F48C
:100A2000B2CFCFEFDFEFAFCF922F8827C80ED91EFE
:100A3000020F131FA8CF020F131F7901A4CF922F0B
:100A40008827E80EF91EF4CFC801B3010E94302BAD
:100A50002817390731F7AA24A394B12C94CF2B3A45
:100A60003105F9F690CFC401DF91CF911F910F911D
:100A7000FF90EF90DF90CF90BF90AF909F908F90BE
:100A80007F906F905F904F900895DC01ED91FC9105
:100A90000190F081E02D0994EF92FF920F931F9344
:100AA000CF93DF938C017B01D0E0C0E0F701EC0F26
:100AB000FD1F6491662361F0D801ED91FC910190D6
:100AC000F081E02DC8010995892B11F02196EECF18
:100AD000CE01DF91CF911F910F91FF90EF9008957C
:100AE000AF92BF92CF92DF92EF92FF920F931F933C
:100AF000CF93DF936C017B018B01040F151FEB017A
:100B00005E01AE18BF08C017D10759F06991D60130
:100B1000ED91FC910190F081E02DC6010995892BA2
:100B200079F7C501DF91CF911F910F91FF90EF9061
:100B3000DF90CF90BF90AF900895FC01538D448D0E
:100B4000252F30E0842F90E0821B930B541710F078
:100B5000CF96089501970895FC01918D828D981785
:100B600061F0A28DAE0FBF2FB11D5D968C91928D5D
:100B70009F5F9F73928F90E008958FEF9FEF08958E
:100B8000FC01918D828D981731F0828DE80FF11D57
:100B9000858D90E008958FEF9FEF0895FC01918D72
:100BA000228D892F90E0805C9F4F821B91098F736B
:100BB0009927089583E592E00E94CE0521E0892BD4
:100BC00009F420E0822F0895FC01A48DA80FB92F0D
:100BD000B11DA35ABF4F2C91848D90E001968F7365
:100BE0009927848FA689B7892C93A089B1898C9184
:100BF000837080648C93938D848D981306C00288D3
:100C0000F389E02D80818F7D80830895EF92FF929C
:100C10000F931F93CF93DF93EC0181E0888F9B8D1F
:100C20008C8D98131AC0E889F989808185FF15C0D9
:100C30009FB7F894EE89FF896083E889F9898081FC
:100C40008370806480839FBF81E090E0DF91CF91CB
:100C50001F910F91FF90EF900895F62E0B8D10E0ED
:100C60000F5F1F4F0F731127E02E8C8D8E110CC05C
:100C70000FB607FCFACFE889F989808185FFF5CFA7
:100C8000CE010E94E405F1CFEB8DEC0FFD2FF11D9D
:100C9000E35AFF4FF0829FB7F8940B8FEA89FB89E4
:100CA00080818062CFCFCF93DF93EC01888D882342
:100CB000B9F0AA89BB89E889F9898C9185FD03C0BF
:100CC000808186FD0DC00FB607FCF7CF8C9185FFA4
:100CD000F2CF808185FFEDCFCE010E94E405E9CF00
:100CE000DF91CF91089580E090E0892B29F00E9458
:100CF000DA0581110C9400000895833081F028F406
:100D0000813099F08230A9F008958730A9F08830B9
:100D1000C9F08430B1F4809180008F7D03C0809150
:100D200080008F7780938000089584B58F7784BD8D
:100D3000089584B58F7DFBCF8091B0008F7780932D
:100D4000B00008958091B0008F7DF9CFCF93DF93ED
:100D5000E0EBF7E08491ECE9F7E0D491E8E8F7E024
:100D6000C491CC23A1F081110E947D06EC2FF0E00C
:100D7000EE0FFF1FE858F84FA591B491EC91ED23C9
:100D800081E090E009F480E0DF91CF91089580E068
:100D900090E0FACF1F93CF93DF93282F30E0F90133
:100DA000E655F84F8491F901EA56F84FD491F901CC
:100DB000EE57F84FC491CC23A9F0162F81110E9451
:100DC0007D06EC2FF0E0EE0FFF1FE259F84FA591E2
:100DD000B4918FB7F894EC91111108C0D095DE232F
:100DE000DC938FBFDF91CF911F910895DE2BF8CF59
:100DF000CF93DF9390E0FC01EA56F84F24918E5791
:100E0000984FFC0184918823D1F090E0880F991FBE
:100E1000FC01EC59F84FA591B491FC01E259F84F4F
:100E2000C591D49161110EC09FB7F8948C91E22FB7
:100E3000E0958E238C932881E223E8839FBFDF9186
:100E4000CF9108958FB7F894EC91E22BEC938FBF7C
:100E5000F6CF3FB7F8948091430290914402A0915D
:100E60004502B091460226B5A89B05C02F3F19F058
:100E70000196A11DB11D3FBFBA2FA92F982F88271A
:100E8000BC01CD01620F711D811D911D42E0660FF5
:100E9000771F881F991F4A95D1F708958F929F92C7
:100EA000AF92BF92CF92DF92EF92FF926B017C01E3
:100EB0000E9429074B015C01C114D104E104F10433
:100EC000B9F00E942907681979098A099B09683EC7
:100ED00073408105910580F321E0C21AD108E10831
:100EE000F10888EE880E83E0981EA11CB11CE4CFA7
:100EF000FF90EF90DF90CF90BF90AF909F908F903A
:100F000008952FB7F89460913F027091400280914C
:100F10004102909142022FBF08950895CF93DF932D
:100F2000EC018D85882329F081508D87DF91CF9149
:100F300008959C818E819817C8F788896827E88171
:100F4000F9810084F185E02D42E0CE0109958C8184
:100F50008F5F8C83EBCF20913C0230913D022817AC
:100F6000390771F490913B0280913A02981741F051
:100F7000E0913B02F0E0E650FE4F808190E0089562
:100F80008FEF9FEF08950895EF92FF920F931F93B5
:100F9000CF93DF93DC015C96ED90FC905D97E114BC
:100FA000F10479F481E090E013969C938E9312976C
:100FB00090E080E0DF91CF911F910F91FF90EF9033
:100FC00008955196ED91FC91529750968C915097BF
:100FD000982F90950FB75E962C915E97122F1270F6
:100FE00021FD6095F8942081112319F1282B20838D
:100FF000E7012197F1F728E0462F50E0308160FFAC
:101000001AC0382B3083E7012197F1F7BA017595A3
:101010006795215089F7112381F08081892380838E
:101020000FBF5C968D919C910197F1F781E090E064
:10103000C1CF2923DCCF3923E5CF9081892BEFCF96
:1010400020913C0230913D022817390771F48091BC
:101050003A0220913B0290E0805C9F4F821B9109F5
:1010600060E470E00E94302B089590E080E00895E5
:1010700020913C0230913D0228173907B9F4909134
:101080003B0280913A02981789F0E0913B02F0E030
:10109000E650FE4F808120913B0230E02F5F3F4FB2
:1010A0002F73332720933B0290E008958FEF9FEF3B
:1010B0000895FC016093BC008091BC0087FFFCCFC9
:1010C0009091B900987F90830895DF92EF92FF92FC
:1010D0000F931F93CF93DF93EC01D62EF42E8C89C0
:1010E000882351F0411108C084E98093BC008091AD
:1010F000BC0084FDFCCF1C8A8E010E5E1F4F8C89C4
:1011000081111AC0EB8864EAC8010E9459088A89D3
:10111000883011F0803139F4EE0CE092BB0064E8C5
:10112000C8010E94590880E0F11080E48093BB0060
:1011300064E8C8010E945908D092BB0064E8C80165
:101140000E94590882E0F8120BC08C898F5F8C8B4B
:10115000DF91CF911F910F91FF90EF90DF90089555
:1011600084E98093BC008091BC0084FDFCCF1C8A84
:10117000EFCFDC01ED91FC910084F185E02D40E0A2
:1011800009940F931F93CF938C01FC016483C08556
:10119000C60F6C2F6F700E94B9086C2F62956F702C
:1011A0006061C801CF911F910F910C94B908FC01A7
:1011B0002781269526952695621738F46583238521
:1011C000620F6770606B0C94B90808951F93CF93FA
:1011D000DF93EC01142F8E81681718F4CE010E9462
:1011E000C108612FCE01DF91CF911F910C94D708D8
:1011F000CF92DF92EF92FF920F931F93CF93DF93E3
:10120000EC01F62EC42ED22E1D868F8186958695F2
:101210008695081710F00FEF080F1D2D011780F0AD
:10122000412F6F2DCE010E94E608EF2CCE1430F036
:101230006889CE010E948E07E394F8CF1F5FEECF3E
:101240004D2D6F2DCE01DF91CF911F910F91FF900A
:10125000EF90DF90CF900C94E6080F93DC01159689
:101260002C9115971E96ED91FC911F9700E03097F9
:1012700079F03396E491F0E0379683E0F595E795C1
:101280008A95E1F751960C9151970E9F002D1124EC
:10129000EFEFE20F0E0F16964C91169741501496F1
:1012A0006C911497CD010E94F8080F9108952F9228
:1012B0003F924F925F926F927F928F929F92AF92E6
:1012C000BF92CF92DF92EF92FF920F931F93CF9333
:1012D000DF9300D000D000D0CDB7DEB7FC0126856B
:1012E00037852115310509F44AC19E838D83F901A3
:1012F0003296649031964491E42EF12CF7E0EF0E93
:10130000F11C53E0F594E7945A95E1F7E982F9016D
:10131000349654913196E491651748F08E2F90E001
:10132000FC01E50FF11D6E171F060CF469C06D304E
:1013300031F5ED81FE81868181111BC081E090E055
:1013400026960FB6F894DEBF0FBECDBFDF91CF91CA
:101350001F910F91FF90EF90DF90CF90BF90AF90D3
:101360009F908F907F906F905F904F903F902F90C5
:10137000089560E08D819E810E94C108DFCF6A30B0
:1013800009F0FDC0ED81FE818681882321F060E0B7
:10139000CF010E94C108ED81FE8181898E9DE02CE4
:1013A000112465816E0D8485882349F09781969577
:1013B000969596958E2D891B860F18162CF08D818B
:1013C0009E810E94D708BACFED81FE812385820FCE
:1013D000877083879E199583CF010E942D09ED8127
:1013E000FE818485813009F0A9CF6385660F660F81
:1013F000660F6F7362876064CF010E94B9089ECF49
:1014000089010A5F1F4F651BED81FE81718551893E
:10141000759F502D11245C83F90154912F5F3F4F2C
:10142000F9012491352F2230310508F06AC06E9CF5
:10143000C0016F9C900D1124689FF001699FF00D11
:1014400011240E0F1F1F512CED81FE81F481FA83B0
:10145000ED81FE812580F585FB83862C912CAA24C5
:10146000A394B12C312C8981381608F086C0412C08
:10147000ED81FE818189481608F078C08B818587CF
:10148000311002C0442041F0ED81FE8145814F5F63
:101490006A81CF010E94E608D12CC12CC61408F045
:1014A00058C0F801EC0DFD1D7490552061F0EA1450
:1014B000FB0449F4E72DF0E0052C02C0F595E79513
:1014C0000A94E2F77E2EED81FE818189823081F4DB
:1014D000442009F43AC072948FE07822E72DF0E0BE
:1014E000EC5AF84F7490672D8D819E810E948E0773
:1014F000672D8D819E810E948E078FEFC81AD80AB2
:10150000CDCF477028E0522E541A411101C0512C02
:10151000F801612C30E020E0661631F04491240F90
:10152000311D63943196F8CF600E712E711CF3015A
:101530006490E29EF001E39EF00DF29EF00D112406
:101540008E0F9F1F080F191F7FCFF72DFF707F2E63
:10155000C5CFD12CEC81DE1639F060E08D819E8103
:101560000E948E07D394F6CF439482CF3394080D14
:10157000191DFFEFAF1ABF0A76CF622D20CF90E082
:1015800080E0DECEFC018381877088608383848164
:101590008F71806284836783CF010895E091EB01AE
:1015A000F091EC01309721F00280F381E02D099455
:1015B00008950F931F930E9481070091ED011091F0
:1015C000EE012091EF013091F001601B710B820B55
:1015D000930B1F910F9108959C018091EB019091C5
:1015E000EC0182179307F1F09091F5019F719093B0
:1015F000F5013093EC012093EB01E091EB01F091C8
:10160000EC01309721F00190F081E02D09950E94C6
:1016100081076093ED017093EE018093EF01909349
:10162000F00108958091F501805E8093F501E5CF8A
:101630000F931F930E94D90A2091F601207720373B
:1016400079F000E117E220E030E0061717072807DD
:10165000390758F481E291E01F910F910C94EC0A44
:1016600000E61AEE20E030E0F0CF1F910F910895D0
:101670008091F6018F70863020F088E191E00C9423
:10168000EC0A08958091F50184608093F5018091C2
:10169000F60180788093F601E091E701F091E8018E
:1016A000309709F009940895CF93C091F701CF3F87
:1016B000A1F00E9481076093F1017093F201809381
:1016C000F3019093F40180915102C813C093510229
:1016D00084E191E0CF910C94EC0A0E94D90A613D1B
:1016E00077408105910568F08091F501803618F406
:1016F00080E191E0EFCF877F8093F50188E191E071
:10170000E9CFCF91089580914F028F3F21F080E182
:1017100091E00C94EC0A0E94D90A613D7740810562
:10172000910550F08091F501803618F48CE091E03D
:10173000F0CF88E091E0EDCF08950E94D90A613D95
:1017400077408105910520F48091F50181FF17C054
:10175000809150028F3F49F08091F5018E7F8093F8
:10176000F5018CE091E00C94EC0A8091F501803653
:1017700018F488E191E0F7CF88E091E0F4CF089584
:10178000CF93DF93FC01EB01DA019C01205F3F4F17
:1017900088819C9189278083898111969C911197DA
:1017A000892781838A8112969C9112978927828347
:1017B0008B8113969C911397892783833496249663
:1017C0001496E217F30721F7DF91CF910895FC01FA
:1017D000DB019C01205F3F4F80819C9189278083A2
:1017E000818111969C91119789278183828112961C
:1017F0009C91129789278283838113969C911397DA
:101800008927838334961496E217F30729F70895FE
:10181000089590E080E008950E945E2BFB01019006
:101820000020E9F73197AF01461B570BDC01ED9122
:10183000FC910280F381E02D09948F929F92AF92E8
:10184000BF92EF92FF920F931F93CF93DF93CDB789
:10185000DEB7A1970FB6F894DEBF0FBECDBF7C01F7
:10186000FA01CB0119A2223008F42AE08E010F5DA3
:101870001F4F822E912CB12CA12CBF01A5019401E8
:101880000E94E029F901CA016A300CF5605DD801B7
:101890006E938D01232B242B252B79F790E080E08C
:1018A000109721F0BD01C7010E940E0CA1960FB642
:1018B000F894DEBF0FBECDBFDF91CF911F910F9186
:1018C000FF90EF90BF90AF909F908F900895695CCC
:1018D000DECFCF92DF92EF92FF92CF93DF936C0136
:1018E000990FEE08FF08F7FE23C06DE283E592E052
:1018F0000E944505EC0144275527BA014C195D09A2
:101900006E097F092AE083E592E00E941D0CC80F52
:10191000D91F6AE771E083E592E00E940E0C8C0FFC
:101920009D1FDF91CF91FF90EF90DF90CF900895B2
:101930002AE0B701A60183E592E00E941D0CEC01AC
:10194000E8CF2F923F924F925F926F927F928F9249
:101950009F92AF92BF92CF92DF92EF92FF921F932E
:10196000CF93DF93EC016A017B01722EAB019601EC
:10197000CB01B6010E942B2B6DE771E0811126C0CF
:1019800046015701E894B7F82FEF3FEF4FE75FE7C5
:10199000C501B4010E942B2B81110CC02FEF3FEF2A
:1019A0004FE75FE7C501B4010E94582861E871E084
:1019B000181664F02FEF3FEF4FE75FE4C701B60161
:1019C0000E94262B1816B4F465E871E0CE01DF9171
:1019D000CF911F91FF90EF90DF90CF90BF90AF908D
:1019E0009F908F907F906F905F904F903F902F903F
:1019F0000C940E0C2FEF3FEF4FE75FECC701B601E1
:101A00000E94582887FDE0CF20E030E0A901C701FF
:101A1000B6010E945828312C212C87FF09C06DE2A5
:101A2000CE010E9445051C01F7FAF094F7F8F094F6
:101A300010E060E070E080E09FE3711641F020E08C
:101A400030E040E251E40E947E2A1F5FF6CFA701FA
:101A500096010E94122A2B013C010E94F72A4B0199
:101A60005C012AE0BC01A401CE010E941D0C7C0196
:101A7000E20CF31C1123C1F1C501B4010E945D28E1
:101A80009B01AC01C301B2010E94112A4B015C0110
:101A90006EE2CE010E944505E80EF91E115020F1BC
:101AA00020E030E040E251E4C501B4010E94BE28CC
:101AB0002B013C010E94F72A4B01B12CA12C2AE0FA
:101AC000B501A401CE010E941D0CE80EF91EC5014E
:101AD000B4010E945D289B01AC01C301B2010E94C8
:101AE000112A4B015C01DACFC701DF91CF911F9121
:101AF000FF90EF90DF90CF90BF90AF909F908F902E
:101B00007F906F905F904F903F902F900895CF936C
:101B1000DF93AB01BC0122E083E592E00E94A10CBF
:101B2000EC016AE771E083E592E00E940E0C8C0FF5
:101B30009D1FDF91CF9108950F931F93CF93DF9354
:101B4000EC010E944C058C016AE771E0CE010E9415
:101B50000E0C800F911FDF91CF911F910F9108956F
:101B6000E5EFF1E08081877F8F7E80831092F10125
:101B70001092F2011092F3011092F40144E050E04F
:101B800070E060E08FE492E00C947C29EF92FF9289
:101B90000F93CF93DF9383E08093530384E080938C
:101BA00054038FE190E00E940A26EC011B821A8206
:101BB00088EE93E0A0E0B0E08C839D83AE83BF838A
:101BC00089E391E0998388831F8A1E8A198E188E73
:101BD0001B8E1A8E1D8E1C8E6E8D6E7F6D7F6E8F8E
:101BE0006695617081E0682784E00E94CA0661E022
:101BF00084E00E94F806EAE9F7E0E491E88BE6E881
:101C0000F7E0E491F0E0EE0FFF1FE259F84F859105
:101C100094919A8B898B60E083E00E94F8068E8D08
:101C200081FD04C061E083E00E94CA0683E08C87E6
:101C3000E9E9F7E0E491ED87E5E8F7E0E491F0E029
:101C4000EE0FFF1FE858F84F859194919F878E877C
:101C50008DE991E09D8F8C8F8DEB90E09F8B8E8B2B
:101C60008BE991E0998F888F8CE291E09B8F8A8F2E
:101C7000809168008460809368009C852DE630E048
:101C8000983050F02BE630E09E3030F02CE630E01B
:101C9000963110F030E020E03C8B2B8B292F30E088
:101CA000983008F06DC081E001C0880F9A95EAF77E
:101CB0008D8B8C8D9D8D0197F1F78A8D9B8D892B56
:101CC00009F1E0913C02F0913D02CE17DF07D1F01F
:101CD000309739F0A389B4899C91858980958923AF
:101CE0008C938E8D8E7F8E8F10923A0210923B02D3
:101CF000D0933D02C0933C02EB89FC8980819D8991
:101D0000892B8083D0935603C09355030E940A0405
:101D100069EE73E083E592E00E949C0D10926B03E4
:101D20008CE380936A031092B9008CE08093B80032
:101D300010925B0310925C03E3EEF3E0E590F49005
:101D4000E5EEF3E00491E6EEF3E0E491E0935D0369
:101D5000E7EEF3E0E491E0935E03E8EEF3E0E49174
:101D6000E0935F03D0E0C0E0C017B8F4FE01EE0DD1
:101D7000FF1D649187E593E00E94B9082196F4CF96
:101D80009E3040F42850310981E001C0880F2A9527
:101D9000EAF78ECF2E503109F7CF109262031092DE
:101DA000610360E487E593E00E94B90800915E0357
:101DB000069506950695015040915D03415020E03F
:101DC00060E087E593E00E94F808EDEFF1E0F09322
:101DD0006603E09365038491EEEFF1E0E491F82F60
:101DE000319709F065C0109260036FEA87E593E0D0
:101DF0000E94B9081092630340E060E087E593E039
:101E00000E94E60863EF71E087E593E00E944C05CD
:101E10008091F50182FF50C06DED71E083E592E0A5
:101E20000E949C0D40E060E587E593E00E94E60893
:101E30006BED71E087E593E00E944C0540E066E4BD
:101E400087E593E00E94E60880911C0169EC71E04F
:101E5000811102C067EC71E087E593E00E944C05B8
:101E600042E060E087E593E00E94E60862EC71E002
:101E700087E593E00E944C0545E060E087E593E04C
:101E80000E94E6086CEB71E087E593E00E944C0548
:101E900088E199E20FB6F894A895809360000FBE90
:101EA00090936000DF91CF910F91FF90EF90089594
:101EB00081E08093600399CF6BEC71E083E592E061
:101EC0000E949C0DBBCFEF92FF920F931F93CF9375
:101ED000DF93EC017B0180E06115710531F0CB01EE
:101EE0000E9418288931910518F5082F10E09B8170
:101EF0009770980143E0220F331F4A95E1F7922B28
:101F00009B839C819F719C83882331F0A801B7013A
:101F1000CE0107960E942128FE01E00FF11F1782D3
:101F2000CE01DF91CF911F910F91FF90EF90089517
:101F300089E1DBCF91E59CBD91E09DBD2998E3E26D
:101F4000F0E03197F1F78EBD00000DB407FEFDCF34
:101F50008EB5FB019FEF4150C8F0222361F09EBD7A
:101F600000000DB407FEFDCF8EB56115710599F324
:101F700080833196F0CFDF01119680818EBD000005
:101F80000DB407FEFDCF8EB5FD01E5CF299AE3E242
:101F9000F0E03197F1F70895CF93DF931F92CDB71B
:101FA000DEB7698320E041E0BE016F5F7F4F0E9492
:101FB0009A0F0F90DF91CF9108958091F601982F9D
:101FC0009077903759F0982F92959F709F5F9770F8
:101FD0009295907F8F78892B8093F6018091F501FF
:101FE0008B7F8F7E8093F5012A986CE080E20C94C1
:101FF000CC0F6FE080E20E94CC0F609125016F3F13
:1020000019F08AE20E94CC0F2A9A0895CF93C82F24
:1020100080934F028F3F51F08093250163E082E26D
:102020000E94CC0F61E081E20E94CC0F0E94F90F68
:102030006C2F90E080E00E949C2981E0CF91089570
:1020400021E041E070E060E00C949A0F20E040E075
:1020500070E060E00C949A0F0F931F93CF93DF937F
:10206000EC01E0E06115710551F0FB0101900020E9
:10207000E9F73197E61BF70BE931F10500F50E2F73
:1020800010E08B818770980193E0220F331F9A959F
:10209000E1F7822B8B838C818F718C83EE2329F067
:1020A000A801CE0107960E946C2BFE01E00FF11FE4
:1020B0001782CE01DF91CF911F910F910895E9E131
:1020C000DECFFC012481229526952770213011F462
:1020D00087810895211104C007960E94D32708958F
:1020E00080E008952F923F924F925F926F927F927D
:1020F0008F929F92AF92BF92CF92DF92EF92FF9218
:102100000F931F93CF93DF93CDB7DEB7A2970FB690
:10211000F894DEBF0FBECDBFB82E80914F02FB01F9
:102120008083138112FDEDC0169516951695195FE3
:10213000F0915202F9A3F170FAA3412F113208F085
:1021400040E250E087EA91E00E94632B1092A804DD
:102150001092A9041092AA041092AB041092AC043D
:102160001092AD041092AE041092AF041092B0041D
:102170001092B1041092B2041092B3041092B404FD
:102180001092B5041092B6041092B7041092A004F5
:102190001092A1041092A2041092A3041092A4041D
:1021A0001092A5041092A6041092A70400E2902EAB
:1021B000113110F410E1912EE92CE294FFE0EF22AE
:1021C000F12CA7EACA2EA1E0DA2E8E010F5E1F4F76
:1021D000BBE1AB2EB60188EA94E00E94E70B809148
:1021E000AE039091AF03892B09F40BC140EB53E090
:1021F00068EA74E0C8010E94C00B88248394482DCB
:1022000050E08091AE039091AF03481759070CF04E
:102210007AC09801DE0111966FE0362E7AE0572ED3
:10222000E5E04E2EF801E40DF11D708084E0840D90
:102230008F70482EF801E50DF11D808194E0950D19
:102240009F70592EF801E30DF11D908164E0630D3C
:102250006F70362EF9016081E62FF0E0E454FF4FF5
:102260007491E72DF0E0E454FF4F6491E82FF0E023
:10227000E454FF4F8491E92FF0E0E454FF4F949130
:10228000672E660C77FD6A24E62FEE0F67FDEA25C0
:10229000282E220C87FD2A24792E770C97FD7A248C
:1022A000F62FF827F927F625FE27FC93F72FF827B6
:1022B000F927FE27F2251196FC9311976727962799
:1022C0002926272412962C92129786276826762490
:1022D00013967C9213972C5F3F4F14960A171B0797
:1022E00009F0A0CF94E0440F551F9A95E1F74055AF
:1022F0005C4FBE016F5F7F4FC8010E94C00B83948B
:102300007ECF10E215CFE989F0E0E454FF4FE4916D
:10231000E98BED89F0E0E454FF4FE491ED8BE98D1A
:10232000F0E0E454FF4FE491E98FED8DF0E0E454E8
:10233000FF4FE491ED8F8A89EE89F0E0E454FF4F7E
:10234000E491EA8BEA8DF0E0E454FF4FE491EE8BE8
:10235000EE8DF0E0E454FF4FE491EA8FE82FF0E0D7
:10236000E454FF4FE491EE8F8B89EB8DF0E0E45461
:10237000FF4FE491EB8BE82FF0E0E454FF4FE49142
:10238000EB8F8F89EF8DF0E0E454FF4FE491EF8BFA
:10239000E82FF0E0E454FF4FE491EF8F88A1EC8D3B
:1023A000F0E0E454FF4FE491E8A3E88DF0E0E4545A
:1023B000FF4FE491EC8FEC89F0E0E454FF4FE4919F
:1023C000E88FE82FF0E0E454FF4FE491EC8B84E0D9
:1023D000440F551F8A95E1F740555C4FB80188EAD4
:1023E00094E00E94C00B40E168EA74E0C6010E94DC
:1023F0003204F0E1CF0ED11C81E0E81AF10809F0B7
:10240000E9CE2A9883E092E00197F1F76EE080E24E
:102410000E94CC0F8BE891E00197F1F76B2D8AE2D7
:102420000E94CC0F6B2D80E30E94CC0F81EE0E94A6
:102430002610EFEFBE1619F0FAA180EAF11180EB39
:1024400020E0492D67EA71E00E949A0F2A9AF12C48
:10245000E12C8FEF0E942610182F807321F481E069
:10246000E81AF108B1F72A9860E387E20E94CC0FDE
:1024700014FF03C081EE0E9426100E94F90F15FF81
:1024800002C0E1E0E9A391E0FFEFBF1290E089A173
:102490008170892BA2960FB6F894DEBF0FBECDBF18
:1024A000DF91CF911F910F91FF90EF90DF90CF9030
:1024B000BF90AF909F908F907F906F905F904F9064
:1024C0003F902F9008950F931F93CF938C01FC01A1
:1024D00082819091F50190FF04C08F3F51F5CFEFBD
:1024E00004C0811116C0C0915002B8018C2F0E9407
:1024F0007210909150029C1313C09091F6018111BB
:1025000013C021E0290F2F70907F922B9093F6013A
:1025100007C08F3F21F3B8010E947210882319F37E
:10252000CF911F910F910895907F9093F60181E0D4
:10253000F7CF80E0F5CF2091F50122FD0C946312D6
:1025400080E00895ECE6F3E090914F0291831282CF
:10255000868365838481807E8483BA01CF010E9453
:10256000630F0C949B1220914F02FC012183F8E031
:102570006F9FB00111246160FC012481207F622BD8
:1025800064832091EA0120FD0C949B1280E0089561
:10259000CF93DF93EC018C8184FF09C060EA70E087
:1025A00083E592E00E949C0D81E08093E1018D81A2
:1025B000823009F041C08E818230F1F5CE010E9457
:1025C000611091E0811101C090E090931C0182E0C4
:1025D0008093F6028091F302877088608093F30203
:1025E0008091F4028F7180628093F4029093F702DD
:1025F00060E080EF92E00E94B31265E870E083E54E
:1026000092E00E944C0580911C0190E00E94690CB0
:1026100040E066E487E593E00E94E60880911C01B3
:1026200063E870E0811102C061E870E087E593E043
:10263000DF91CF910C944C05DF91CF910895EF92EB
:10264000FF921F93CF93DF93CCE6D3E08FE4E82E85
:1026500082E0F82EF701808189831A821FEF1E83A2
:102660008BE08D838C81807E83608C8362E474E058
:10267000CE010E94630F0E949B12F7018081898323
:102680001A821E838CE08D838C81807E83608C8394
:102690006EE374E0CE010E94630F0E949B1245E23C
:1026A00054E068E180E00E94A21266E970E080E0F8
:1026B00090E00E944E0745E154E068E181E00E940D
:1026C000A21266E970E080E090E00E944E0743E0CD
:1026D00054E063E082E00E94A21281E08093200136
:1026E000DF91CF911F91FF90EF900895FF920F938C
:1026F0001F93CF93DF93CCE6D3E00FE412E0F80111
:10270000808189831A82FF24FA94FE828FE08D8370
:102710008C81807E83608C836CE771E0CE010E94A7
:102720002C108B81877080618B838C818F71806C82
:102730008C8381E08F831886CE010E949B128FE0EC
:102740000E94AA17F801808189831A82FE8281E1A2
:102750008D838C81807E8C8369E871E0CE010E943C
:102760002C100E949B12F801808189831A82FE82BC
:1027700086E08D838C81807E83608C836181CE0135
:102780000E94C20A0E949B1286E00E94AA17DF9153
:10279000CF911F910F91FF900C941F132F923F9296
:1027A0004F925F926F927F928F929F92AF92BF9261
:1027B000CF92DF92EF92FF920F931F93CF93DF930D
:1027C000CDB7DEB7E9970FB6F894DEBF0FBECDBF29
:1027D00026E02BAB1BE187E10E94201080FD9BC30C
:1027E0003BA931503BAB332309F495C321E041E0D1
:1027F00070E060E080E60E949A0F082F813220F09E
:1028000082EE0E94261000E021E0402F6DE873E088
:1028100081E60E949A0F60E487E20E94CC0F10923A
:10282000A8041092A9041092AA041092AB0410926A
:10283000AC041092AD041092AE041092AF0410924A
:10284000B0041092B1041092B2041092B30410922A
:10285000B4041092B5041092B6041092B70410920A
:10286000A0041092A1041092A2041092A30410924A
:10287000A4041092A5041092A6041092A70401319A
:1028800008F463C182E090E09AAB89ABEDE82E2EAC
:10289000E3E03E2EE9A9FAA93197FAABE9AB31960C
:1028A00009F471C140E1B101CE0181960E94320468
:1028B0004091AE035091AF034115510509F463C136
:1028C00074E0440F551F7A95E1F740555C4FB10114
:1028D000CE0141960E94C00BE989F0E0EC5AF94F15
:1028E000E491E98BED89F0E0EC5AF94FE491ED8B3E
:1028F000E98DF0E0EC5AF94FE491E98FED8DF0E0CD
:10290000EC5AF94FE491ED8F8E8DEA8DF0E0EC5AA0
:10291000F94FE491EE8FEE89F0E0EC5AF94FE49133
:10292000EA8FEA89F0E0EC5AF94FE491EE8BE82F58
:10293000F0E0EC5AF94FE491EA8B8B89EB8DF0E0F3
:10294000EC5AF94FE491EB8BE82FF0E0EC5AF94F99
:10295000E491EB8F8F89EF8DF0E0EC5AF94FE49121
:10296000EF8BE82FF0E0EC5AF94FE491EF8F8C8970
:10297000E88DF0E0EC5AF94FE491EC8BEC8DF0E04F
:10298000EC5AF94FE491E88FE8A1F0E0EC5AF94FE6
:10299000E491EC8FE82FF0E0EC5AF94FE491E8A3D2
:1029A0000091AE031FAA1EAA8FEF800FA82FB0E0E0
:1029B000B9AFA8AF015009F4CDC048AD59ADEEA9EB
:1029C000FFA94E1B5F0B64E0440F551F6A95E1F7AA
:1029D00040555C4FBE016F5E7F4FCE0101960E9455
:1029E000C00B9E012F5F3F4F7901CE0141969DABF9
:1029F0008CABA5E0B0E0F701908181813281238129
:102A0000792F770F97FD7127B82EBB0C87FDB12664
:102A1000C32ECC0C37FDC126622F660F27FD612720
:102A2000472F440F77FD41274B2C440CB7FE04C0C1
:102A30005B2D550F452E41269C2C990CC7FC9126E9
:102A4000A62EAA0C67FDA126D42EDD0C47FF04C0DC
:102A5000542F550FD52ED126542D550F47FC5127F5
:102A6000F92DFF0F97FCF127EA2DEE0FA7FCE127C8
:102A7000792E7D24582E5526832E8F26622E6E2683
:102A80004D2554259F26AE26E32FE727EB25E42787
:102A9000E525E925E625F0E0EC5AF94F3491ECA95B
:102AA000FDA93083E22FEB25EC25E725E527E82576
:102AB000EA25F0E0EC5AF94FD490FD01EF70FF27C2
:102AC00021E130E02C0F3D1FE20FF31FD0829C2547
:102AD00096274927542695246924E62DF0E0EC5AE0
:102AE000F94F6490FD013596EF70FF2721E130E04A
:102AF0002C0F3D1FE20FF31F6082E82FE727E62728
:102B0000E7255E27E52FE825AE26EA2DF0E0EC5A12
:102B1000F94FA490FD013A96EF70FF27E20FF31FE3
:102B2000A08294E0E90EF11C2CA93DA92C5F3F4F37
:102B30003DAB2CAB1496A531B10509F05CCF8EA945
:102B40009FA901969FAB8EAB35CFA1E0B0E0BAABA9
:102B5000A9AB9CCE40EB53E0BE016F5E7F4FC1013D
:102B60000E94C00B68EA74E0C1010E94E70B40E1DB
:102B7000BE016F5D7F4F88EA94E00E94320490E1CD
:102B8000290E311C87CE30919003832F83708230C1
:102B900009F021CE20919103A22FA770EA2E009177
:102BA0009203F0908E0380918D0340918F0390915A
:102BB000F60190689093F60190914F02491376C107
:102BC000832F8695869586958A3108F089E190E075
:102BD0003770BC0153E0660F771F5A95E1F7362B2B
:102BE0003093900383579C4FFC01178223FF15C03D
:102BF00081E2EDE8F3E0ACE6B3E001900D928A9556
:102C0000E1F7277F20612093700340936D03F092DA
:102C10006E038CE693E00E949B129091910394FDC9
:102C20003DC1F3E0EF123AC18091920321EF280FEA
:102C3000233008F4D0CD0430C1F4809193039091F7
:102C40002601891719F08F3F09F0C5CD8DE893E073
:102C50000E9461109FEF980F9E3F18F40E9406108B
:102C6000BACD8FEF80934F02B6CD0830D9F40091E2
:102C7000F50100FFB0CD8DE893E00E9461108F3F19
:102C800009F4A9CD8F5F8F3F09F4A5CD9091510232
:102C9000891708F0A0CD01FD9ECD80935102F092DE
:102CA000500299CD0831C1F480914F0280936D0399
:102CB000F0926E038FEF8093720389E1809371032A
:102CC00080917003807E83608093700361E08CE666
:102CD00093E00E94C20A32C0093171F48091F5017B
:102CE00083FF79CD877F8093F5018DE893E00E9483
:102CF00061108093F7016FCD0E3109F46CCD0D3169
:102D000001F580914F0280936D0310926E038FEF57
:102D1000809372038FE18093710383E48093700347
:102D200080916F038770806180936F0380E09FEFD5
:102D300090937403809373038CE693E00E94631274
:102D40004ACD20918E032111AEC08D3059F488E117
:102D500098E00FB6F894A895809360000FBE90930A
:102D60006000FFCF8B3179F48DE893E00E94611011
:102D700091E0811101C090E08091EA0190FB80F91F
:102D80008093EA0128CD863099F49091940381E0F4
:102D9000992319F09D3409F080E08093E90141E026
:102DA00050E063E071E089EE91E00E948C2913CD40
:102DB000833119F40E9476130ECD823121F50E94E1
:102DC000D90A20914F0220936D0310926E032FEFCA
:102DD0002093720326E12093710323EA209370036A
:102DE00020916F032770206220936F036093730319
:102DF0007093740380937503909376038CE693E04D
:102E00000E949B12E8CC823009F590914F0290937A
:102E10006D0310926E039FEF909372038093710382
:102E200083EA8093700380916F0387708062809340
:102E30006F038FEF91E0A3E0B2E080937303909370
:102E40007403A0937503B0937603D8CF813001F556
:102E500020E030E0232B09F4BECC92959695977034
:102E6000953059F460919403709195038091960385
:102E7000909197030E940000AECC911105C084E9A7
:102E800093E00E94F127F6CF60E070E0CB01F2CF33
:102E90008A3009F4A0CC8C3109F49DCC8DE893E004
:102EA0000E94C81298CC8A31C9F795CC4F3F09F0DF
:102EB00092CC93E0A9132AC09091F50192FF03C030
:102EC000073009F488CC043109F085CC9091500288
:102ED000891381CC0E9481077370882799270E94EB
:102EE0004E0780914F0280936D03F0926E038FEF37
:102EF0008093720385E18093710380917003807EDB
:102F000083608093700360915002E1CE90915002F3
:102F1000891361CCC3CFE9960FB6F894DEBF0FBE1C
:102F2000CDBFDF91CF911F910F91FF90EF90DF9078
:102F3000CF90BF90AF909F908F907F906F905F9059
:102F40004F903F902F9008958091F50184FD0C944F
:102F5000CE130895CF92DF92EF92FF92CF93DF933B
:102F6000D82F0E9481076B017C0110929203C0E070
:102F70000E9481076C197D098E099F09603D774089
:102F80008105910590F4C11110C0A8950E94CE0A48
:102F90000E94A417809191038770833049F7C1E0A4
:102FA000809192038D13E3CFE3CF8C2FDF91CF91EC
:102FB000FF90EF90DF90CF9008958F929F92AF9205
:102FC000BF92CF92DF92EF92FF924B015C010E9481
:102FD00081076B017C010E9481076C197D098E09B4
:102FE0009F09681579058A059B0530F4A8950E940C
:102FF000CE0A0E94A417EFCFFF90EF90DF90CF9002
:10300000BF90AF909F908F9008958F929F92AF92B4
:10301000BF92CF92DF92EF92FF920F931F93CF93C5
:10302000DF9380912001882309F49EC01092200133
:103030001092170369E574E081E193E00E94630F49
:1030400060E00E94B31266E970E080E090E00E94C8
:103050004E0780911C01882359F11092380340914A
:103060004702509148026091490270914A02809152
:103070003503877088628093350380913603806EB4
:10308000809336034093390350933A0360933B0394
:1030900070933C0381E080933D0360E082E393E022
:1030A0000E94B31266E970E080E090E00E944E0753
:1030B000C1E0C093170363E574E081E193E00E94EF
:1030C000630F60E00E94B31266E970E080E090E078
:1030D0000E944E07D0911C01DD2351F1C0933803AB
:1030E00040914B0250914C0260914D0270914E0202
:1030F0008091350387708862809335038091360311
:10310000806E809336034093390350933A03609363
:103110003B0370933C03C0933D0360E082E393E084
:103120000E94B31266E970E080E090E00E944E07D2
:1031300082E08093F6028091F3028770886080932A
:10314000F3028091F4028F7180628093F402D09335
:10315000F70260E080EF92E00E94B31266E970E04F
:1031600080E090E00E94DD170E94A60620911F01DA
:103170002817190691F16AE070E080E090E00E9463
:10318000DD170E94A60621E0892B09F420E0209398
:103190001F0160E476E083E592E00E944C05809197
:1031A0001F0190E00E94690C80911F0181110FC0E6
:1031B00081E08093680340E060E587E593E00E944A
:1031C000E6086EE376E087E593E00E944C056AE04E
:1031D00070E080E090E00E94DD170E94810700917E
:1031E000E3011091E4012091E5013091E6016B01CA
:1031F0007C01C01AD10AE20AF30A97018601093E4E
:1032000013402105310508F474C06093E301709305
:10321000E4018093E5019093E60180911D01909176
:103220001E01019690931E0180931D016FE871E0CD
:1032300083E592E00E940E0C80911D0190911E0189
:103240000E94690C80911D0190911E01CD9784F020
:103250006AE771E083E592E00E940E0C61E376E09C
:1032600083E592E00E949C0D10921E0110921D01B8
:10327000A89581E08093680340E064E687E593E0E9
:103280000E94E60880911D0190911E012CE3C22E40
:10329000D12CC81AD90A0D2C000CEE08FF082AE020
:1032A000B701A601F7FE0DC06DE287E593E00E942D
:1032B000450544275527BA014C195D096E097F0958
:1032C0002AE087E593E00E941D0C87E593E00E94C9
:1032D0002D0980911D0190911E018B30910509F4FB
:1032E000FAC0A4F48130910509F4B8C00A9709F432
:1032F000DEC0DF91CF911F910F91FF90EF90DF9093
:10330000CF90BF90AF909F908F9008958D30910592
:1033100009F41AC30CF430C20E9759F78091C70113
:103320009091C8014CE3489F9001499F300D1124B2
:1033300020313E402CF401969093C8018093C70140
:103340008091E201811102C4C0904B02D0904C02E6
:10335000E0904D02F0904E028090DD019090DE01F1
:10336000A090DF01B090E001C091C701D091C801E9
:10337000C230D10594F0C430D1050CF0A6C3A5012C
:103380009401C701B6010E94122A20E030E040E01B
:103390005FE30E94BE286B017C01C092DD01D092E8
:1033A000DE01E092DF01F092E001C0904702D09090
:1033B0004802E0904902F0904A028090D901909032
:1033C000DA01A090DB01B090DC01C230D10594F0AD
:1033D000C430D1050CF09AC3A5019401C701B60110
:1033E0000E94122A20E030E040E05FE30E94BE2805
:1033F0006B017C01C092D901D092DA01E092DB012D
:10340000F092DC016DE674E083E592E00E944C05E9
:103410006091DD017091DE018091DF019091E0010A
:103420000E94870D6FE574E083E592E00E944C05F1
:103430006091D9017091DA018091DB019091DC01FA
:10344000DF91CF911F910F91FF90EF90DF90CF9080
:10345000BF90AF909F908F900C94870D60E276E0C4
:1034600083E592E00E949C0D809155039091560354
:10347000DC01ED91FC910190F081E02D61E0099576
:103480008091550390915603DC01ED91FC910680EB
:10349000F781E02DDF91CF911F910F91FF90EF9079
:1034A000DF90CF90BF90AF909F908F9009946AE08B
:1034B00076E083E592E00E949C0DDF91CF911F9111
:1034C0000F91FF90EF90DF90CF90BF90AF909F90C3
:1034D0008F900C9460046EEE75E083E592E00E949C
:1034E0009C0D0E946004892B69F46DED75E083E505
:1034F00092E00E949C0D6AE070E080E090E00E9403
:103500004E07EFCF82E08093680343E060E087E5F9
:1035100093E00E94E60840914B0250914C0260916A
:103520004D0270914E0222E087E593E00E94A10CCB
:1035300069ED75E087E593E00E949C0D46E060E050
:1035400087E593E00E94E6084091470250914802C7
:103550006091490270914A0222E087E593E00E945F
:10356000A10C65ED75E087E593E00E949C0D43E0BA
:1035700066E487E593E00E94E6088091E2016FEC43
:1035800075E08111B2C0C0904B02D0904C02E09027
:103590004D02F0904E0220E030E0A901C701B601D3
:1035A0000E945828811164C087E593E00E942D098C
:1035B00046E066E487E593E00E94E6088091E20138
:1035C0006BEA75E08111D3C0C0904702D0904802E9
:1035D000E0904902F0904A0220E030E0A901C701E2
:1035E000B6010E945828811185C087E593E00E94AA
:1035F0002D0966E775E083E592E00E949C0DC7E423
:10360000D1E00AE511E0809155039091560369914C
:10361000DC01ED91FC910190F081E02D09950C17F2
:103620001D0789F78091550390915603DC01ED91B8
:10363000FC910680F781E02D0995809155039091CA
:103640005603DC01ED91FC910084F185E02D099594
:10365000181619060CF04DCE809155039091560323
:10366000DC01ED91FC910284F385E02D0995E5CF15
:1036700020E030E040E450E4C701B6010E94582841
:1036800069EC75E018168CF520E030E040EA50E473
:10369000C701B6010E94582863EC75E018162CF596
:1036A00020E030E040E051E4C701B6010E94582814
:1036B0006DEB75E01816CCF420E030E040E651E404
:1036C000C701B6010E94582867EB75E018166CF424
:1036D00020E030E040EA51E4C701B6010E94262B09
:1036E00018160CF065CF61EB75E087E593E00E945A
:1036F0004C055ECF20E030E040EA50E4C701B6015F
:103700000E94582865EA75E018168CF520E030E034
:1037100040E251E4C701B6010E9458286FE975E004
:1037200018162CF520E030E040EA51E4C701B6015C
:103730000E94582869E975E01816CCF420E030E0C2
:1037400040EF51E4C701B6010E94582863E975E0D3
:1037500018166CF420E030E040EF51E4C701B601E8
:103760000E94262B18160CF044CF6DE875E087E513
:1037700093E00E944C053DCF1092E1018091E2015F
:10378000882341F06BE575E083E592E00E944C05EB
:103790001092E2018091E201882309F4B9C020E08F
:1037A00030E543EC57E46091D5017091D6018091EA
:1037B000D7019091D8010E94BE280E94F02A6B0187
:1037C0007C01C114D104E104F10441F00E947B2783
:1037D000A70196010E94AE296B017C01C701B601C9
:1037E0000E945F2820E030E543EC57E40E947E2AE7
:1037F0006093C9017093CA018093CB019093CC016F
:103800000E947B2722E030E040E050E00E94AE2999
:10381000672B682B692B89F08091C9019091CA01AF
:10382000A091CB01B091CC01B0588093C901909385
:10383000CA01A093CB01B093CC016CE475E083E5A1
:1038400092E00E944C056091C9017091CA0180917B
:10385000CB019091CC010E94870D2091DD01309128
:10386000DE014091DF015091E0016091C90170914A
:10387000CA018091CB019091CC010E94122A6093E1
:10388000C9017093CA018093CB019093CC0166E388
:1038900075E083E592E00E944C056091C90170914A
:1038A000CA018091CB019091CC010E94870D91E0DB
:1038B000909338034091C9015091CA016091CB01A6
:1038C0007091CC01809135038770886280933503B5
:1038D00080913603806E8093360340933903509372
:1038E0003A0360933B0370933C0390933D0361E084
:1038F00082E393E0DF91CF911F910F91FF90EF90C2
:10390000DF90CF90BF90AF909F908F900C94B312A8
:1039100065E275E083E592E00E944C0560914B0200
:1039200070914C0280914D0290914E020E94870D41
:1039300091E09093380340914B0250914C0260917A
:103940004D0270914E02BECF8091E201882309F4AE
:103950007DC02091CD013091CE014091CF01509199
:10396000D0016091D1017091D2018091D3019091E9
:10397000D4010E94BE286B017C0165E175E083E5FE
:1039800092E00E944C05C701B6010E94870D20916C
:10399000D9013091DA014091DB015091DC01C7017E
:1039A000B6010E94122A6B017C016EEF74E083E580
:1039B00092E00E944C05C701B6010E94870D8091DC
:1039C0001C018823E9F091E090933803809135033E
:1039D000877088628093350380913603806E809370
:1039E0003603C0923903D0923A03E0923B03F0923F
:1039F0003C0390933D0361E082E393E00E94B312A5
:103A000081E08093680340E060E587E593E00E94F1
:103A1000E6088091E101882309F44EC06CEC74E063
:103A200083E592E00E949C0D6AEC74E087E593E0E8
:103A3000DF91CF911F910F91FF90EF90DF90CF908A
:103A4000BF90AF909F908F900C944C056CEE74E0FB
:103A500083E592E00E944C05609147027091480214
:103A60008091490290914A020E94870D80911C0129
:103A7000882331F210923803409147025091480256
:103A80006091490270914A02809135038770886283
:103A90008093350380913603806E80933603409384
:103AA000390350933A0360933B0370933C0381E0E6
:103AB00080933D0360E0A0CF6DEA74E083E592E07F
:103AC0000E949C0D6BEA74E0B1CFBE016150710998
:103AD000072E000C880B990B0E945F28A50194010A
:103AE0000E94BE28A70196010E94122A6B017C0148
:103AF000BE010D2E000C880B990B0E945F289B01C4
:103B0000AC01C701B6010E947E2A45CCBE016150BE
:103B10007109072E000C880B990B0E945F28A501E4
:103B200094010E94BE28A70196010E94122A6B01EF
:103B30007C01BE01DD0F880B990B0E945F289B0161
:103B4000AC01C701B6010E947E2A52CC6CE774E03A
:103B500083E592E00E944C0555CC1F93CF93DF93F1
:103B60008091EA0181FD2DC00E9476138091EA01C7
:103B700081608093EA01C4E0DFEF1AE180914F0297
:103B800080936D0310926E03D093720310937103B0
:103B900080917003807E83608093700362E08CE686
:103BA00093E00E94C20A0E949B128BE10E94AA1716
:103BB000811102C0C15011F78091EA0182608093A7
:103BC000EA01DF91CF911F9108958FEF8093F70164
:103BD000E5EFF1E0908198609083ECE6F3E090915E
:103BE0004F0291831282868388E185838481807E5F
:103BF0008360848361E0CF010E94C20A0C94631247
:103C000080914F028F3F21F50E9481076F3FE9F0BD
:103C1000609326018091260190914F0290936D034D
:103C200010926E038093720383E0809371038091FE
:103C30007003807E8360809370036CE771E08CE694
:103C400093E00E942C100C94631210922601E2CF94
:103C50000895E5EFF1E08081897F81608083AFE4A2
:103C6000B2E08FEF12968C93129711968C93119766
:103C7000ECE6F3E09C9191838283868387E08583E1
:103C80008481807E836084836CE771E0CF010E9431
:103C90002C100C9463128F929F92AF92BF92CF928E
:103CA000DF92EF92FF920F931F93CF93DF93CDB7E5
:103CB000DEB764970FB6F894DEBF0FBECDBF8E019E
:103CC0000F5F1F4F80E1F80111928A95E9F760E1DB
:103CD00070E08CE991E00E943028AC016CE971E061
:103CE000C8010E94632B8AE090E09093AF03809319
:103CF000AE0340E1B80180EB93E00E94320450E053
:103D000040E080E190E0FF24F39420E1E22EBE0148
:103D10006B5E7F4F3BE1B32ED82EFC01E455FC4F88
:103D20009E012F5E3F4FD901C190CD92A617B707D4
:103D3000D9F7DE1020C0D988F0E1EF0EEA89F0E073
:103D4000E454FF4FE491EF25E98BEB89F0E0E45474
:103D5000FF4FE491EA8BEC89F0E0E454FF4FE491EB
:103D6000EB8BED2DF0E0E454FF4FE491EC8BF7FE8C
:103D7000CFC0FF0CFB24FC01E055FC4F4F01F901C3
:103D8000A1909F016401C81AD90AC40ED51EF6017C
:103D9000D080DA24F401D1924F012A173B0779F73A
:103DA00004964C5F5F4F803B910509F0B5CF80E1F1
:103DB000F80111928A95E9F7229A219A2A98299A6C
:103DC0001FB7F8948091A601811127C0ECE8F7E0B5
:103DD0008491E0EAF7E09491E82FF0E0EE0FFF1F06
:103DE000EC59F84FA591B491EC91E92321F461E0ED
:103DF0008AE00E94CA0661E08AE00E94F8068CB55B
:103E000080618CBD8CB580648CBD61E08DE00E94CA
:103E1000F80661E08BE00E94F8068091A6018F5FB2
:103E20008093A6011FBF2A986EE080E20E94CC0F0B
:103E30008BE496E40197F1F763E083E20E94CC0FF4
:103E40006FE584E20E94CC0F6CE485E20E94CC0F07
:103E500067E086E20E94CC0F64E08DE30E94CC0F05
:103E60008DE10E942010843041F063E780E50E94DC
:103E7000CC0F64E08DE30E94CC0F86E00E942010FE
:103E8000873009F04FC085E00E9420108C3409F083
:103E900049C062E082E20E94CC0F60E081E20E94B1
:103EA000CC0F63E08CE30E94CC0F1FEF1093030153
:103EB00020E045E063E071E08BE20E949A0F20E091
:103EC00045E063E071E08AE20E949A0F20E045E05D
:103ED00063E071E080E30E949A0F82EE0E94261058
:103EE00081EE0E94261060E787E20E94CC0F80914D
:103EF000F50180618093F501809152028E7F80935D
:103F0000520280914F028F3F29F488E191E00CC06A
:103F1000FF0C31CF9FEF980F9E3FD8F40E94061000
:103F20008111F3CF88E091E00E94EC0A64960FB60D
:103F3000F894DEBF0FBECDBFDF91CF911F910F91DF
:103F4000FF90EF90DF90CF90BF90AF909F908F90B9
:103F5000089510934F02E6CF1F920F920FB60F9263
:103F600011242F933F934F935F936F937F938F937E
:103F70009F93AF93BF93EF93FF9383E592E00E94EB
:103F8000E405FF91EF91BF91AF919F918F917F9148
:103F90006F915F914F913F912F910F900FBE0F90B6
:103FA0001F9018951F920F920FB60F9211242F9306
:103FB0008F939F93EF93FF93E0916302F0916402DC
:103FC0008081E0916902F0916A0282FD1BC09081BC
:103FD00080916C028F5F8F7320916D02821741F088
:103FE000E0916C02F0E0ED5AFD4F958F80936C02EA
:103FF000FF91EF919F918F912F910F900FBE0F9096
:104000001F9018958081F4CF1F920F920FB60F92D8
:1040100011242F933F938F939F93AF93BF938091DE
:104020003F0290914002A0914102B0914202309132
:104030003E0223E0230F2D3758F50196A11DB11D37
:1040400020933E0280933F0290934002A09341024E
:10405000B09342028091430290914402A0914502A4
:10406000B09146020196A11DB11D80934302909329
:104070004402A0934502B0934602BF91AF919F9135
:104080008F913F912F910F900FBE0F901F90189519
:1040900026E8230F0296A11DB11DD2CF1F920F92C9
:1040A0000FB60F9211242F933F934F935F936F930B
:1040B0007F938F939F93AF93BF93EF93FF93E09181
:1040C0002901F0912A010995FF91EF91BF91AF91DC
:1040D0009F918F917F916F915F914F913F912F9120
:1040E0000F900FBE0F901F9018951F920F920FB652
:1040F0000F9211242F933F934F935F936F937F936E
:104100008F939F93AF93BF93EF93FF93E09127011A
:10411000F09128010995FF91EF91BF91AF919F9187
:104120008F917F916F915F914F913F912F910F9060
:104130000FBE0F901F9018951F920F920FB60F92FF
:1041400011242F933F934F935F936F937F938F939C
:104150009F93AF93BF93EF93FF93E0913C02F09155
:104160003D02309749F0A685B7858585968D91FFEC
:1041700014C09C918923A1F4FF91EF91BF91AF915D
:104180009F918F917F916F915F914F913F912F916F
:104190000F900FBE0F901F9018959C91892361F787
:1041A000A389B4899C918589809589238C9386897C
:1041B00097890197F1F7608D718DA685B785558533
:1041C00038E020E0CB010197F1F7822F90E0959540
:1041D0008795282F4C91452309F02068315091F79D
:1041E000868D81FD209580913A0290E001968F7333
:1041F000992730913B02381799F0A0913A02B0E02C
:10420000A650BE4F2C9380933A02828D938D0197D6
:10421000F1F7A389B4898C919589892B8C93ACCFC4
:10422000868D8160868FF1CF1F920F920FB60F920D
:1042300011240F900FBE0F901F901895DB01FC0109
:1042400058E0149744E018960E9001924A95E1F7D1
:104250005A95C1F708958F929F92AF92BF92CF92D5
:10426000DF920F931F93EDB7FEB7B8970FB6F89490
:10427000EDBF0FBEFEBF9F938F9331968F01490113
:104280005A016B01C801AAD2BB2011F4AA2059F02F
:10429000C801B601A1D030E4C30ED11C32E0931A9C
:1042A000A108B108F1CFC801B601A40115D08F91C2
:1042B0009F91B801C3DFEDB7FEB7B8960FB6F8947B
:1042C000EDBF0FBEFEBF1F910F91DF90CF90BF904B
:1042D000AF909F908F900895523090F09F938F935E
:1042E0007F936F935F934F9377D04F915F916F91CF
:1042F0007F918F919F91525030E4630F711DECCFED
:10430000EDB7FEB70FB6E054F040F894EDBF0FBE26
:10431000FEBF3196242F26952695269550FB25F92C
:10432000DB01222329F0122E0D9001921A94E1F75D
:1043300030E8032E37E0342329F006943A95E9F764
:104340003C91032A01922395293308F421C030E4DB
:10435000321B19F011923A95E9F7FF973197BF0197
:10436000FF93EF939F938F935F934F9335D04F912C
:104370005F918F919F91EF91FF91DC0191963C911C
:1043800032503D9326E03C9130403D932A95D9F739
:1043900038E3321B21F0112411923A95E9F7DC0140
:1043A000909638960D90040E02920D90051E029282
:1043B00036E00D90011C02923A95D9F7F897BF01AB
:1043C0000BD0EDB7FEB70FB6FF963196F894EDBF60
:1043D0000FBEFEBF112408954F925F926F927F929D
:1043E0008F929F92AF92BF92CF92DF92EF92FF9205
:1043F0000F931F93CF93DF934DB75EB79A01FB01E5
:1044000040525140DA010FB6F8944DBF0FBE5EBF67
:104410002F933F938F939F93119640E171916191F8
:10442000319121912D933D936D937D934A95B1F7F1
:1044300040E3142EFD01FF973197019111912191D5
:104440003191C190D190E190F1906D2D7E2D8F2D05
:104450009C2D41E0E9D14B015C01B701C60142E06E
:10446000F9D186269726A826B92673E0F694E79414
:10447000D794C7947A95D1F78C249D24AE24BF2479
:10448000080D191D2A1D3B1D648D758D868D978D18
:10449000060F171F281F391FC0A8D1A8E2A8F3A82C
:1044A000B701C60141E0D6D15C014B0142E0D2D157
:1044B00086269726A826B92672E0F694E794D79424
:1044C0007A95D9F78D249E24AF24080D191D2A1D35
:1044D0003B1D0D931D932D933D931A9409F0AACF84
:1044E000FF91EF91EF93FF9390E211901D929A95B7
:1044F000E1F79097ED01ECEDF6E4BA9590E4192E12
:104500004C885D886E887F88688979898A899B89CB
:10451000C88CD98CEA8CFB8C4622572268227922DF
:104520006095709580959095C622D722E822F92251
:104530004C245D246E247F24F888C988DA88EB88AF
:10454000B601C70142E070D14B015C01B601C70161
:1045500043E080D186269726A826B926B701C60152
:1045600041E078D186269726A826B926480C591C02
:104570006A1C7B1C8C8C9D8CAE8CBF8C480C591C8F
:104580006A1C7B1C8D909D90AD90BD90480C591C71
:104590006A1C7B1C85909590A590B590480C591C81
:1045A0006A1C7B1C688179818A819B818C809D80BB
:1045B000AE80BF8086229722A822B922C884D984DF
:1045C000EA84FB846C217D218E219F2186269726FB
:1045D000A826B9266C817D818E819F816C217D21E9
:1045E0008E219F2186269726A826B926C880D980A5
:1045F000EA80FB80B601C70142E02CD18B019C010F
:10460000B701C60143E010D106271727282739270D
:104610006F2D7C2D8D2D9E2D42E006D1062717276C
:1046200028273927080D191D2A1D3B1D5CE16C96B2
:104630009A919C835A95E1F7C888D988EA88FB88C3
:10464000C40CD51CE61CF71CC88AD98AEA8AFB8AE6
:10465000040D151D261D371D088319832A833B83EE
:104660001A9409F04DCFFF91EF9158E0008111812C
:10467000228133816991799189919991060F171F50
:10468000281F391F01931193219331935A9571F784
:10469000319652E066E04081450F4193552728F45A
:1046A0004081451F41936A95D1F75F914F910FB6B5
:1046B000F8944DBF0FBE5EBF1124DF91CF911F91C3
:1046C0000F91FF90EF90DF90CF90BF90AF909F90B1
:1046D0008F907F906F905F904F900895982F8A42AF
:1046E00091443771CFFBC0B5A5DBB5E95BC2563944
:1046F000F111F159A4823F92D55E1CAB98AA07D85C
:10470000015B8312BE853124C37D0C55745DBE727E
:10471000FEB1DE80A706DC9B74F19BC1C1699BE4FE
:104720008647BEEFC69DC10FCCA10C246F2CE92D8E
:10473000AA84744ADCA9B05CDA88F97652513E98B2
:104740006DC631A8C82703B0C77F59BFF30BE0C6B9
:104750004791A7D55163CA0667292914850AB72747
:1047600038211B2EFC6D2C4D130D385354730A65E4
:10477000BB0A6A762EC9C281852C7292A1E8BFA2BB
:104780004B661AA8708B4BC2A3516CC719E892D123
:10479000240699D685350EF470A06A1016C1A419A6
:1047A000086C371E4C774827B5BCB034B30C1C39A5
:1047B0004AAAD84E4FCA9C5BF36F2E68EE828F7464
:1047C0006F63A5781478C8840802C78CFAFFBE907E
:1047D000EB6C50A4F7A3F9BEF27871C6DC01EEEEE3
:1047E000F7E468E275917D936A95E1F7089567E6CD
:1047F000096A85AE67BB72F36E3C3AF54FA57F52EE
:104800000E518C68059BABD9831F19CDE05B00006E
:10481000000000000000483038F0592F982F872FF3
:10482000762F652F4850F7CF55278894442339F0C9
:10483000661F771F881F991F551F4A95C9F7652B5B
:104840000895483038F0562F672F782F892F952FED
:104850004850F7CF55278894442339F0979587958A
:104860007795679557954A95C9F7952B0895AB01AC
:10487000692F782F852F942F0895CF93DF93FC0114
:10488000108211821282148215821682DC01179620
:104890008AE1ED0119928A95E9F782E08383DF913D
:1048A000CF9108950F931F93CF93DF93CDB7DEB7CA
:1048B00028970FB6F894DEBF0FBECDBFE3E5F2E058
:1048C0001382128288EE93E0A0E0B0E084839583A7
:1048D000A683B7838EE591E09183808385EC90E099
:1048E0009587848784EC90E09787868780EC90E0BA
:1048F000918B808B81EC90E0938B828B82EC90E0AB
:10490000958B848B86EC90E0978B868B118E128E24
:10491000138E148E28E0CE010196DC01E22F1D9249
:10492000EA95E9F7E0EAF4E011E0108311821282DF
:10493000138214821582168217821092AF0310928E
:10494000AE031092B9041092B8041092BB041092F6
:10495000BA04E0EBF3E030EFDF011D923A95E9F79E
:10496000188738E0FC01A8EAB4E001900D923A956E
:10497000E1F738E0FC01A0EBB4E001900D923A952C
:10498000E1F71093BC0402E00093BD0483E0809340
:10499000BE0484E08093BF0485E08093C00486E079
:1049A0008093C10487E08093C2042093C30489E00C
:1049B0008093C4048AE08093C5048BE08093C6048E
:1049C0008CE08093C7048DE08093C8048EE08093D0
:1049D000C9048FE08093CA048DE893E00E943D24CF
:1049E0008CE693E00E943D24E7E5F3E01382128217
:1049F0001486158617861686108A118B80E791E03B
:104A00009183808382E393E00E943D24E2E3F3E01C
:104A1000168285E2858381E193E00E943D24E1E1F5
:104A2000F3E016828BE2858380EF92E00E943D24C2
:104A3000E0EFF2E00683058328960FB6F894DEBF18
:104A40000FBECDBFDF91CF911F910F910895CF93EE
:104A5000DF93CDB7DEB7CA55D1090FB6F894DEBFE4
:104A60000FBECDBF789484B5826084BD84B581606B
:104A700084BD85B5826085BD85B5816085BD809129
:104A80006E00816080936E001092810080918100A1
:104A90008260809381008091810081608093810099
:104AA000809180008160809380008091B10084605B
:104AB0008093B1008091B00081608093B0008091BC
:104AC0007A00846080937A0080917A00826080937B
:104AD0007A0080917A00816080937A0080917A00D8
:104AE000806880937A001092C100A89580E090E0E1
:104AF000892B11F00E9400000E940A048091EA01B3
:104B00008D7F8093EA0180E090E0892B11F00E9474
:104B1000000040E250E063E671E0CE0101960E94A1
:104B20007C2940E150E06CE871E0CE0181960E9462
:104B30007C2949E050E063E871E0CE01C1960E9413
:104B40007C2941E050E06AE171E0CE01865A9F4F36
:104B50000E947C2928EC31E040E050E0BE016F5F0C
:104B60007F4FCE01CA960E942B2141E050E063E0C6
:104B700071E089EE91E00E947C296FEF81E090E086
:104B80000E949C298091F6018F788093F601109203
:104B9000EC011092EB0181E291E00E94EC0A8DEAB7
:104BA0009DE19093E8018093E7010E9481076B01EA
:104BB0007C010E9481076C197D098E099F09603173
:104BC000774281059105C8F00E94C60DA89500E0C6
:104BD00010E0A8950E94CE0A8091F50184FD0E9404
:104BE000CE130E9405180115110599F30E94DA05EC
:104BF000882379F30E940000ECCF0E94CE0A0E9425
:104C0000A4178091F50182FB882780F9A89581116E
:104C1000DBCFCFCF0F931F93CF93DF9382309105DC
:104C200010F482E090E0E091CD04F091CE0430E009
:104C300020E0B0E0A0E0309799F42115310509F4A7
:104C40004AC0281B390B24303105D8F58A819B8155
:104C50006115710589F1FB0193838283FE0111C007
:104C6000408151810281138148175907E0F04817AC
:104C7000590799F4109761F012960C9312971396B6
:104C80001C933296CF01DF91CF911F910F91089520
:104C90000093CD041093CE04F4CF2115310551F0CB
:104CA0004217530738F0A901DB019A01BD01DF016A
:104CB000F801C1CFEF01F9CF9093CE048093CD04DA
:104CC000CDCFFE01E20FF31F819391932250310962
:104CD00039832883D7CF2091CB043091CC04232B68
:104CE00041F420912D0130912E013093CC0420937A
:104CF000CB0420912B0130912C012115310541F479
:104D00002DB73EB740912F0150913001241B350B38
:104D1000E091CB04F091CC04E217F307A0F42E1B32
:104D20003F0B2817390778F0AC014E5F5F4F24170F
:104D3000350748F04E0F5F1F5093CC044093CB04CF
:104D4000819391939FCFF0E0E0E09CCFCF93DF93EE
:104D50000097E9F0FC01329713821282A091CD04F2
:104D6000B091CE04ED0130E020E01097A1F4208155
:104D70003181820F931F2091CB043091CC042817EE
:104D8000390709F061C0F093CC04E093CB04DF91C4
:104D9000CF910895EA01CE17DF07E8F54A815B81DC
:104DA0009E0141155105B1F7E901FB83EA83499161
:104DB0005991C40FD51FEC17FD0761F480819181D3
:104DC0000296840F951FE9019983888382819381DC
:104DD0009B838A83F0E0E0E012968D919C9113977B
:104DE0000097B9F52D913C911197CD010296820F54
:104DF000931F2091CB043091CC042817390739F642
:104E0000309751F51092CE041092CD04B093CC049B
:104E1000A093CB04BCCFD383C28340815181840F44
:104E2000951FC817D90761F44E5F5F4F888199813C
:104E3000480F591F518340838A819B8193838283CA
:104E40002115310509F0B0CFF093CE04E093CD04E5
:104E50009ECFFD01DC01C0CF13821282D7CF8F928B
:104E60009F92AF92BF92CF92DF92EF92FF92CF9339
:104E7000DF93EC01688179818A819B8161157105DD
:104E80008105910521F464E279ED8BE597E02DE150
:104E900033EF41E050E00E94AE2949015A019B01E5
:104EA000AC01A7EAB1E40E94CD296B017C01ACEE14
:104EB000B4EFA50194010E94DB29C60ED71EE81E9F
:104EC000F91EF7FE06C081E0C81AD108E10880E8A3
:104ED000F80AC882D982EA82FB82C701B6019F77AD
:104EE000DF91CF91FF90EF90DF90CF90BF90AF9088
:104EF0009F908F9008958F929F92AF92BF92CF9282
:104F0000DF92EF92FF9260913101709132018091B6
:104F1000330190913401611571058105910521F4EA
:104F200064E279ED8BE597E02DE133EF41E050E06D
:104F30000E94AE2949015A019B01AC01A7EAB1E4E4
:104F40000E94CD296B017C01ACEEB4EFA501940168
:104F50000E94DB29C60ED71EE81EF91EF7FE06C00A
:104F600081E0C81AD108E10880E8F80AC09231014E
:104F7000D0923201E0923301F0923401C701B601C0
:104F80009F77FF90EF90DF90CF90BF90AF909F9072
:104F90008F900895609331017093320180933301B3
:104FA000909334010895FC0188279927E894219172
:104FB0002032E9F3293010F02E30C8F32B3241F0C3
:104FC0002D3239F4689404C00E945028820F911D3C
:104FD000219120532A30C0F31EF4909581959F4F64
:104FE00008951F93FC0199278827BC01E89411912B
:104FF0001032E9F3193010F01E30C8F31B3251F0B3
:105000001D3249F4689406C00E943B28610F711D4F
:10501000811D911D119110531A30B0F33EF49095FB
:105020008095709561957F4F8F4F9F4F1F91089589
:10503000FC0105900020E9F7809590958E0F9F1F49
:105040000895FB01DC014150504048F005900D925D
:105050000020C9F701C01D9241505040E0F708956B
:10506000FC016150704001900110D8F78095909537
:105070008E0F9F1F0895592F482F372F262F660F09
:10508000771F881F991F660F771F881F991F620F50
:10509000731F841F951F660F771F881F991F089520
:1050A0007AE0979F902D879F802D910D1124089570
:1050B0000E949A2808F481E00895E89409C097FBBB
:1050C0003EF490958095709561957F4F8F4F9F4FDF
:1050D0009923A9F0F92F96E9BB279395F695879523
:1050E00077956795B795F111F8CFFAF4BB0F11F4E6
:1050F00060FF1BC06F5F7F4F8F4F9F4F16C088238D
:1051000011F096E911C0772321F09EE8872F762FC2
:1051100005C0662371F096E8862F70E060E02AF003
:105120009A95660F771F881FDAF7880F96958795EF
:1051300097F90895990F0008550FAA0BE0E8FEEFC4
:1051400016161706E807F907C0F012161306E4074B
:10515000F50798F0621B730B840B950B39F40A2644
:1051600061F0232B242B252B21F408950A2609F422
:10517000A140A6958FEF811D811D08950E94D12821
:105180000C9442290E94342938F00E943B2920F0D7
:10519000952311F00C942B290C94312911240C9493
:1051A00076290E94532970F3959FC1F3950F50E023
:1051B000551F629FF001729FBB27F00DB11D639FC9
:1051C000AA27F00DB11DAA1F649F6627B00DA11D6F
:1051D000661F829F2227B00DA11D621F739FB00D15
:1051E000A11D621F839FA00D611D221F749F332785
:1051F000A00D611D231F849F600D211D822F762F1E
:105200006A2F11249F5750409AF0F1F088234AF0FA
:10521000EE0FFF1FBB1F661F771F881F9150504066
:10522000A9F79E3F510580F00C942B290C94762908
:105230005F3FE4F3983ED4F3869577956795B795ED
:10524000F795E7959F5FC1F7FE2B880F911D969507
:10525000879597F9089597F99F6780E870E060E077
:1052600008959FEF80EC089500240A9416161706FF
:1052700018060906089500240A9412161306140647
:1052800005060895092E0394000C11F4882352F0AA
:10529000BB0F40F4BF2B11F460FF04C06F5F7F4F62
:1052A0008F4F9F4F089557FD9058440F551F59F049
:1052B0005F3F71F04795880F97FB991F61F09F3F03
:1052C00079F087950895121613061406551FF2CF2C
:1052D0004695F1DF08C0161617061806991FF1CF7C
:1052E00086957105610508940895E894BB276627A3
:1052F0007727CB0197F90895DC01CB01FC01F999DF
:10530000FECF06C0F2BDE1BDF89A319600B40D9211
:1053100041505040B8F70895DC01A40FB51F41502B
:10532000504048F0CB01840F951F2E910E949D297B
:1053300041505040D0F70895262FF999FECF92BDE5
:1053400081BDF89A019700B4021639F01FBA20BD4A
:105350000FB6F894FA9AF99A0FBE0895052E97FBA6
:105360001EF400940E94C52957FD07D00E94E02931
:1053700007FC03D04EF40C94C52950954095309508
:1053800021953F4F4F4F5F4F0895909580957095B1
:1053900061957F4F8F4F9F4F08950E94022AA59FCE
:1053A000900DB49F900DA49F800D911D1124089520
:1053B000B7FF0C94CD290E94CD29821B930B089531
:1053C000A1E21A2EAA1BBB1BFD010DC0AA1FBB1F09
:1053D000EE1FFF1FA217B307E407F50720F0A21B7B
:1053E000B30BE40BF50B661F771F881F991F1A94E8
:1053F00069F760957095809590959B01AC01BD0112
:10540000CF010895A29FB001B39FC001A39F700D6B
:10541000811D1124911DB29F700D811D1124911DBC
:1054200008955058BB27AA270E94292A0C94422984
:105430000E94342938F00E943B2920F039F49F3F24
:1054400019F426F40C9431290EF4E095E7FB0C9442
:105450002B29E92F0E94532958F3BA1762077307C3
:105460008407950720F079F4A6F50C9475290EF4BD
:10547000E0950B2EBA2FA02D0B01B90190010C0164
:10548000CA01A0011124FF27591B99F0593F50F47C
:10549000503E68F11A16F040A22F232F342F4427D4
:1054A000585FF3CF469537952795A795F0405395CC
:1054B000C9F77EF41F16BA0B620B730B840BBAF09C
:1054C0009150A1F0FF0FBB1F661F771F881FC2F707
:1054D0000EC0BA0F621F731F841F48F4879577951B
:1054E0006795B795F7959E3F08F0B0CF9395880FD5
:1054F00008F09927EE0F9795879508950E94922AB4
:105500000C9442290E943B2958F00E94342940F013
:1055100029F45F3F29F00C942B2951110C94762922
:105520000C9431290E94532968F39923B1F3552330
:1055300091F3951B550BBB27AA27621773078407A6
:1055400038F09F5F5F4F220F331F441FAA1FA9F33C
:1055500035D00E2E3AF0E0E832D091505040E6952A
:10556000001CCAF72BD0FE2F29D0660F771F881F8B
:10557000BB1F261737074807AB07B0E809F0BB0B7E
:10558000802DBF01FF2793585F4F3AF09E3F510592
:1055900078F00C942B290C9476295F3FE4F3983E25
:1055A000D4F3869577956795B795F7959F5FC9F77B
:1055B000880F911D9695879597F90895E1E0660FFC
:1055C000771F881FBB1F621773078407BA0720F075
:1055D000621B730B840BBA0BEE1F88F7E0950895DE
:1055E0000E94F72A6894B1110C94762908950E94BC
:1055F0005B2988F09F5798F0B92F9927B751B0F0E1
:10560000E1F0660F771F881F991F1AF0BA95C9F746
:1056100014C0B13091F00E947529B1E008950C9446
:105620007529672F782F8827B85F39F0B93FCCF3F9
:10563000869577956795B395D9F73EF490958095C3
:10564000709561957F4F8F4F9F4F08950E949A28C4
:1056500008F48FEF08950E949A28880B990B0895FB
:1056600097FB072E16F4009407D077FD09D00E940F
:105670004A2B07FC05D03EF4909581959F4F0895E5
:10568000709561957F4F0895EE0FFF1F0590F4917F
:10569000E02D0994AA1BBB1B51E107C0AA1FBB1F29
:1056A000A617B70710F0A61BB70B881F991F5A95AE
:1056B000A9F780959095BC01CD01089581E090E017
:1056C000F8940C947B2BFB01DC0102C001900D923D
:1056D00041505040D8F70895FB01DC014150504043
:1056E00048F001900D920020C9F701C01D92415071
:0A56F0005040E0F70895F894FFCF52
:1056FA00FFFFFF00FCE1A8A8DD0F180B001E830BBB
:10570A00E51D540B420B380B291E9D0B013C000171
:10571A0001B00D4B1EFFFF8D078D070000CF0480DF
:10572A00000100000000000000C4077005090CC356
:10573A000720083808AB07AAB406010000000000D9
:10574A00000000000000FFFF05AB00000000060695
:10575A0070059D055306CE05AC05C0050000000086
:10576A0057097005090C080C65080D0A006E616E70
:10577A0000696E66006F766600322E332E31006C39
:10578A006F6F70636F756E7465723A00736D6172D4
:06579A0074686F6D6500EC
:00000001FF
