:100000000C944F030C94A6220C947F220C94CD22C6
:100010000C94CD220C94CD220C9464240C94770380
:100020000C9477030C9477030C9477030C94770368
:100030000C9477030C9477030C9477030C94770358
:100040000C9435220C9477030C9403220C94DD213C
:100050000C9477030C9477030C9477030C94770338
:100060000C9445230C94770300407A10F35A00A0B7
:10007000724E18090010A5D4E80000E87648170071
:1000800000E40B54020000CA9A3B000000E1F505B1
:10009000000080969800000040420F000000A086FB
:1000A00001000000102700000000E803000000002D
:1000B0006400000000000A000000000001000000D1
:1000C00000002C76D888DC674F0823DFC1DFAE59EB
:1000D000E1B1B796E5E3E453C63AE651997696E87E
:1000E000E6C28426EB898C9B62ED407C6FFCEFBC02
:1000F0009C9F40F2BAA56FA5F490055A2AF75C932D
:100100006B6CF9676DC11BFCE0E40D47FEF520E662
:10011000B500D0ED902E0300943577050080841E45
:10012000080000204E0A000000C80C333333330FA0
:10013000986E12831141EF8D2114893BE65516CF3D
:10014000FEE6DB18D1844B381BF77C1D901DA4BB49
:10015000E424203284725E228100C9F124ECA1E5FE
:100160003D2752096AD53036A538BF40A39E81F39A
:10017000D7FB7CE339829B2FFF87348E4344C4DE58
:10018000E9CB547B9432A6C2233DEE4C950B42FA48
:10019000C34E082EA16628D924B2765BA2496D8B86
:1001A000D12572F8F66486689816D4A45CCC5D6597
:1001B000B6926C704850FDEDB9DA5E154657A78DC2
:1001C0009D8490D8AB008CBCD30AF7E45805B8B333
:1001D0004506D02C1E8FCA3F0F02C1AFBD030113CD
:1001E0008A6B3A9111414F67DCEA97F2CFCEF0B4B7
:1001F000E67396AC7422E7AD3585E2F937E81C75F5
:10020000DF6E47F11A711D29C5896FB7620EAA18F2
:10021000BE1BFC563E4BC6D279209ADBC0FE78CD81
:100220005AF41FDDA8338807C731B112105927804F
:10023000EC5F60517FA919B54A0D2DE57A9F93C9EE
:100240009CEFA0E03B4DAE2AF5B0C8EBBB3C83531E
:100250009961172B047EBA77D626E169146355217C
:100260000C7D8D01020408102040801B36637C77D2
:100270007BF26B6FC53001672BFED7AB76CA82C9A4
:100280007DFA5947F0ADD4A2AF9CA472C0B7FD93DC
:1002900026363FF7CC34A5E5F171D8311504C723D4
:1002A000C31896059A071280E2EB27B27509832CD2
:1002B0001A1B6E5AA0523BD6B329E32F8453D100A8
:1002C000ED20FCB15B6ACBBE394A4C58CFD0EFAAC7
:1002D000FB434D338545F9027F503C9FA851A34015
:1002E0008F929D38F5BCB6DA2110FFF3D2CD0C13F6
:1002F000EC5F974417C4A77E3D645D197360814F1E
:10030000DC222A908846EEB814DE5E0BDBE0323A3F
:100310000A4906245CC2D3AC629195E479E7C837F8
:100320006D8DD54EA96C56F4EA657AAE08BA78257B
:100330002E1CA6B4C6E8DD741F4BBD8B8A703EB57B
:10034000664803F60E613557B986C11D9EE1F898DF
:100350001169D98E949B1E87E9CE5528DF8CA1891F
:100360000DBFE6426841992D0FB054BB162D526562
:1003700071756573746564207374617475733A2064
:10038000002D41636B00494E434F4D494E47204D70
:1003900045535341474520666F72206368696C641A
:1003A000202300212053656E736F72206572726F77
:1003B000720021204E4F5420434F4E4E454354452A
:1003C0004420544F204741544557415900436F6ED4
:1003D0006E656374656420746F206761746577610E
:1003E00079210004200000EF0402FFFFEF03040066
:1003F000EF48656C6C6F2C204920616D2061206393
:100400006C696D6174652073656E736F7200536300
:100410007265656E00466F72656361737400416951
:10042000722070726573737572650048756D6964CA
:100430006974790054656D706572617475726500D8
:10044000312E300057656174686572207374617471
:10045000696F6E007468726F77696E67206177618B
:1004600079206C656674206F76657220746F756391
:10047000685F73637265656E5F73657269616C2036
:10048000627974653A00444953504C41594E554D78
:10049000424552202800436C6F75647900434C4FED
:1004A000554459005468756E64657273746F726D4B
:1004B000005448554E44455253544F524D005375C5
:1004C0006E6E790053554E4E5900556E73746162CD
:1004D0006C6500554E535441424C45005374616263
:1004E0006C6500535441424C4500556E6B6E6F77FE
:1004F0006E00554E4B4E4F574E0053656E64696EFD
:1005000067207072657373757265200053656E6441
:10051000696E672068756D69646974792000536538
:100520006E64696E672074656D703A2000071177FC
:1005300000200000EF0054656D7065726174757283
:10054000650000000000000000000148756D69644E
:100550006974790000000000000000000000000243
:100560004261726F6D6574657200000000000000EA
:100570000000000003535441424C450000000000BD
:100580000000000000000000000453554E4E5900CA
:100590000000000000000000000000000000054313
:1005A0006C6F75647900000000000000000000001E
:1005B00000000006556E737461626C6500000000F7
:1005C0000000000000000000075468756E6465724A
:1005D00073746F726D000000000000000008556E1B
:1005E0006B6E6F776E0000000000000000000000DE
:1005F0000000546F7563682073637265656E2064D4
:100600006964206E6F7420726573706F6E642074FD
:100610006F20636F6D6D616E64000306FFEF03066C
:1006200000EF53657474696E672073637265656E5D
:10063000206261636B6C6963687420746F3A200098
:1006400000000000240027002A000000000800022B
:10065000010000030407000000000000000000008B
:1006600000002300260029000000000025002800CB
:100670002B00040404040404040402020202020223
:100680000303030303030102040810204080010256
:1006900004081020010204081020A1278429112435
:1006A0001FBECFEFD8E0DEBFCDBF11E0A0E0B1E0CC
:1006B000E0EDF3E602C005900D92A23BB107D9F739
:1006C00025E0A2EBB1E001C01D92A939B207E1F724
:1006D00013E0CEE4D3E004C02197FE010E94BD31B7
:1006E000CD34D107C9F70E94A1280C94DB310C94BA
:1006F0000000EAEEF3E0A089B18982E08C93A48542
:10070000B5851C92A685B78580E18C93108EA4894F
:10071000B58986E08C93A289B3898C9180618C9392
:10072000A289B3898C9188608C93A289B3898C91BA
:1007300080688C930288F389E02D80818F7D80838F
:100740000895942FE7E5F5E03091E6033183828345
:10075000668325834481487F492B477E4483CF01AC
:10076000089520919C0381E0213208F044C08091DB
:10077000C3038111FCCF80919B0392E09093C3034C
:1007800091E09093C2039FEF9093C1031092C00336
:100790002093BF03ABE7B3E0EDE9F3E090E029136A
:1007A00031C01092BE039091BE03880F892B8093B5
:1007B000BE038091BD03813049F51092BD03809145
:1007C000BE038093BB008091BC0083FDF8CF85EC15
:1007D0008093BC008091C3038230E1F38091C10318
:1007E0008F3FB1F08091C1038032A1F08091C103AD
:1007F000803391F084E010927A0310929C0310925F
:10080000790308953D9131939F5FC9CF85EEE0CF85
:1008100080E0F1CF82E0EFCF83E0EDCF8091C403A1
:100820009091C503891B990B0895AF92BF92CF9207
:10083000DF92EF92FF920F931F93CF93DF936C01A0
:100840007B018B01040F151FEB015E01AE18BF0881
:10085000C017D10759F06991D601ED91FC91019033
:10086000F081E02DC6010995892B79F7C501DF914B
:10087000CF911F910F91FF90EF90DF90CF90BF909D
:10088000AF900895FC01538D448D252F30E0842FC7
:1008900090E0821B930B541710F0CF9608950197A8
:1008A0000895FC01918D828D981761F0A28DAE0F95
:1008B000BF2FB11D5D968C91928D9F5F9F73928F1C
:1008C00090E008958FEF9FEF0895FC01918D828D48
:1008D000981731F0828DE80FF11D858D90E0089515
:1008E0008FEF9FEF0895FC01918D228D892F90E06D
:1008F000805C9F4F821B91098F73992708958AEE20
:1009000093E00E94730421E0892B09F420E0822FF8
:100910000895FC01A48DA80FB92FB11DA35ABF4F94
:100920002C91848D90E001968F739927848FA689EE
:10093000B7892C93A089B1898C91837080648C9342
:10094000938D848D981306C00288F389E02D8081F1
:100950008F7D80830895EF92FF920F931F93CF9323
:10096000DF93EC0181E0888F9B8D8C8D98131AC0EA
:10097000E889F989808185FF15C09FB7F894EE89D1
:10098000FF896083E889F98980818370806480832E
:100990009FBF81E090E0DF91CF911F910F91FF9079
:1009A000EF900895F62E0B8D10E00F5F1F4F0F7321
:1009B0001127E02E8C8D8E110CC00FB607FCFACFDC
:1009C000E889F989808185FFF5CFCE010E948904ED
:1009D000F1CFEB8DEC0FFD2FF11DE35AFF4FF082AD
:1009E0009FB7F8940B8FEA89FB8980818062CFCF13
:1009F0000F931F93CF93DF938C01D0E0C0E0F801F9
:100A0000EC0FFD1F6491662341F08AEE93E00E9493
:100A1000AB04892B11F02196F2CFCE01DF91CF915B
:100A20001F910F910895CF93DF93EC01888D882358
:100A3000B9F0AA89BB89E889F9898C9185FD03C041
:100A4000808186FD0DC00FB607FCF7CF8C9185FF26
:100A5000F2CF808185FFEDCFCE010E948904E9CFDE
:100A6000DF91CF91089580E090E0892B29F00E94DA
:100A70007F0481110C940000089590E0FC01E65B76
:100A8000F94F2491FC01EA57F94F3491FC01EE58DB
:100A9000F94FE491EE23C9F0222339F0233001F11C
:100AA000A8F4213019F1223029F1F0E0EE0FFF1FF8
:100AB000E859F94FA591B4918FB7F894EC91611171
:100AC00026C030953E233C938FBF08952730A9F070
:100AD0002830C9F0243049F7809180008F7D03C011
:100AE000809180008F7780938000DFCF84B58F77EF
:100AF00084BDDBCF84B58F7DFBCF8091B0008F7735
:100B00008093B000D2CF8091B0008F7DF9CF3E2B83
:100B1000DACFCF93DF9390E0FC01EA57F94F2491AD
:100B20008E58994FFC0184918823D1F090E0880F72
:100B3000991FFC01E05CF94FA591B491FC01E859C3
:100B4000F94FC591D49161110EC09FB7F8948C9163
:100B5000E22FE0958E238C932881E223E8839FBFC8
:100B6000DF91CF9108958FB7F894EC91E22BEC933D
:100B70008FBFF6CF3FB7F894809150039091510307
:100B8000A0915203B091530326B5A89B05C02F3FF7
:100B900019F00196A11DB11D3FBFBA2FA92F982FA3
:100BA0008827BC01CD01620F711D811D911D42E09E
:100BB000660F771F881F991F4A95D1F708952FB7A1
:100BC000F89460914C0370914D0380914E03909185
:100BD0004F032FBF089508952091490330914A0390
:100BE0002817390771F490914803809147039817AB
:100BF00041F0E0914803F0E0E95FFC4F808190E034
:100C000008958FEF9FEF08950895EF92FF920F934D
:100C10001F93CF93DF93DC015C96ED90FC905D9782
:100C2000E114F10479F481E090E013969C938E93A3
:100C3000129790E080E0DF91CF911F910F91FF908C
:100C4000EF9008955196ED91FC91529750968C91AA
:100C50005097982F90950FB75E962C915E97122F14
:100C6000127021FD6095F8942081112319F1282B31
:100C70002083E7012197F1F728E0462F50E03081EB
:100C800060FF1AC0382B3083E7012197F1F7BA01D2
:100C900075956795215089F7112381F0808189230B
:100CA00080830FBF5C968D919C910197F1F781E055
:100CB00090E0C1CF2923DCCF3923E5CF9081892B68
:100CC000EFCF2091490330914A032817390771F477
:100CD000809147032091480390E0805C9F4F821BE6
:100CE000910960E470E00E945D30089590E080E03A
:100CF00008952091490330914A0328173907B9F420
:100D00009091480380914703981789F0E091480338
:100D1000F0E0E95FFC4F80812091480330E02F5FD5
:100D20003F4F2F7333272093480390E008958FEFB0
:100D30009FEF089585ED8093BC008091BC0084FDF9
:100D4000FCCF1092C30308952091E202260F3327AF
:100D5000331F21323105ECF42091C303FC0190E0F4
:100D600080E0243069F082E00895A091E2022191B0
:100D7000AC0140545D4FA40FB52FB11D2C930196CB
:100D8000861798F38091E202680F6093E20280E098
:100D9000089581E0089508950895E091C503809134
:100DA000C403E81730F4F0E0EA53FC4F808190E090
:100DB00008958FEF9FEF08959091C5038091C4032C
:100DC0002FEF3FEF981748F4E92FF0E0EA53FC4F7C
:100DD000208130E09F5F9093C503C9010895CF92B1
:100DE000DF92EF92FF920F931F93CF93DF937C01DB
:100DF000CB018A0120917903222389F0EB016B0159
:100E0000C40ED51ECC15DD0569F06991D701ED91B1
:100E1000FC910190F081E02DC7010995F3CF642F7B
:100E20000E94A406C801DF91CF911F910F91FF90FE
:100E3000EF90DF90CF900895CF93DF931F92CDB7BF
:100E4000DEB76983209179032223F9F020919C0376
:100E5000203258F021E030E0FC013383228390E01F
:100E600080E00F90DF91CF91089580917A03E82F71
:100E7000F0E0E558FC4F998190838F5F80937A036F
:100E800080939C0381E090E0ECCF61E0CE0101967D
:100E90000E94A406F7CFCF93C62F91E090937903D9
:100EA00096E790939B0310927A0310929C03682F0D
:100EB00087E894E00E941C076C2F87E894E00E946A
:100EC0001C07CF910C94B10390E080E00895CF937C
:100ED000DF93CCEDD1E060E070E0CB012991399156
:100EE000499159910E940F2F21E0C03FD207B1F7DD
:100EF00020E030E040EA50E40E947B2FDF91CF9168
:100F00000895FC01938197706A3108F069E188E0E7
:100F1000689FB0011124692B6383CF0108950F935B
:100F20001F93CF93DF93EC018B0162E00E94810756
:100F30008C818F7180648C8318870F83CE01DF9141
:100F4000CF911F910F9108951F93CF93DF93EC01E1
:100F5000162F61E00E9481078C818F7180628C83E3
:100F60001F83CE01DF91CF911F910895E091B302CD
:100F7000F091B402309721F00280F381E02D0994C2
:100F800008950F931F930E94DF050091B502109101
:100F9000B6022091B7023091B802601B710B820B30
:100FA000930B1F910F9108959C018091B302909132
:100FB000B40282179307F1F09091BD029F71909354
:100FC000BD023093B4022093B302E091B302F091DA
:100FD000B402309721F00190F081E02D09950E9434
:100FE000DF056093B5027093B6028093B7029093C9
:100FF000B80208958091BD02805E8093BD02E5CF66
:101000000F931F930E94C1072091BE0220772037C3
:1010100079F000E117E220E030E006171707280713
:10102000390758F482E291E01F910F910C94D40794
:1010300000E61AEE20E030E0F0CF1F910F91089506
:101040008091BE028F70863020F088E191E00C9490
:10105000D40708958091BD0284608093BD02809181
:10106000BE0280788093BE02E091DA01F091DB014C
:10107000309709F009940895CF93C091BF02CF3FF4
:10108000A1F00E94DF056093B9027093BA028093C9
:10109000BB029093BC028091E803C813C093E8039D
:1010A00084E191E0CF910C94D4070E94C107613D87
:1010B00077408105910568F08091BD02803618F473
:1010C00080E191E0EFCF877F8093BD0288E191E0DE
:1010D000E9CFCF9108958091E6038F3F21F080E121
:1010E00091E00C94D4070E94C107613D77408105CF
:1010F000910550F08091BD02803618F48CE091E0AB
:10110000F0CF88E091E0EDCF08950E94C107613DE6
:1011100077408105910520F48091BD0281FF17C0C1
:101120008091E7038F3F49F08091BD028E7F8093CD
:10113000BD028CE091E00C94D4078091BD02803612
:1011400018F488E191E0F7CF88E091E0F4CF0895BA
:101150009C0194E0D90180E0EC91F0E0EE59FE4F63
:10116000E491EC938F5F14968430B1F791502F5F28
:101170003F4F9111EFCF0895982F991F9927991FED
:101180002BE1929F902D1124880F892708959C01AF
:1011900094E0D90180E0EC91F0E0E359FD4FE49157
:1011A000EC938F5F14968430B1F791502F5F3F4FCF
:1011B0009111EFCF08951F93CF93DF9320E1829F8A
:1011C000C0011124480F591F30E020E0FB01E20F5D
:1011D000F31FD901A40FB51F80E091911D91EF017C
:1011E0002197912798838F5F8430B9F72C5F3F4F09
:1011F0002031310559F7DF91CF911F9108958EBDB0
:1012000000000DB407FEFDCF8EB508959091C30385
:101210009111FCCF282F91E09093C3039093C203C8
:101220003FEF3093C1031092C003380F3093BF03D8
:101230009093BE039091BE039C6E9093BE039091D9
:10124000BD03913019F51092BD039091BE039093A8
:10125000BB009091BC0093FDF8CF95EC9093BC003F
:101260009091C3039130E1F39091C003981710F46B
:101270002091C003ADE9B3E0E6ECF3E080E0821337
:1012800007C01092C5038093C403089595EEE6CF7E
:101290009D9191938F5FF3CFCF9391E090937903DA
:1012A00096E790939B0310927A0310929C03682F09
:1012B00087E894E00E941C070E94B10382E090E05E
:1012C0000E9406098091C4039091C503891B990B64
:1012D00082309105ECF387E894E00E94DC06C82F89
:1012E00087E894E00E94DC0620E03C2FA901482B0F
:1012F000CA01CF9108950E944C0998278927982701
:10130000089591E09093790396E790939B03109250
:101310007A0310929C03682F87E894E00E941C07D0
:101320000E94B10381E090E00E9406099091C403FD
:101330008091C5039817F1F387E894E00E94DC06DA
:1013400008958F929F92AF92BF92CF92DF92EF92C9
:10135000FF9291E09093790396E790939B0310920C
:101360007A0310929C03682F87E894E00E941C0780
:101370000E94B10383E090E00E9406098091C403BB
:101380009091C503891B990B83309105ECF387E895
:1013900094E00E94DC06092E000CAA0BBB0B8824EB
:1013A000982EA92EBA2E87E894E00E94DC06092E1A
:1013B000000CAA0BBB0B6C017D01C828D928EA28B8
:1013C000FB28FE2CED2CDC2CCC2487E894E00E943A
:1013D000DC06BC01990F880B990B6C297D298E299D
:1013E0009F29FF90EF90DF90CF90BF90AF909F909C
:1013F0008F9008958F929F92AF92BF92CF92DF927B
:10140000EF92FF928AEF0E94A109E4E5F3E02081C8
:101410003181C72ED82EE92EFF24E7FCFA94C21A98
:10142000D30AE108F10857E0959587957795679578
:101430005A95D1F7220F331F4B015C01821A930A90
:10144000A108B108A5019401A281B3810E949E2E3A
:101450004B015C01BBE0B594A79497948794BA952F
:10146000D1F7A7019601C701B6010E942D309B015B
:10147000AC018CE055954795379527958A95D1F71E
:10148000A481B5810E949E2E9B01AC019EE05595E2
:101490004795379527959A95D1F7280D391D4A1DFF
:1014A0005B1D21A332A343A354A3A5E0B0E00E9497
:1014B000932E60587F4F8F4F9F4F672F782F892F24
:1014C000992787FD9A950E94252D20E030E048EC71
:1014D00052E40E947B2FFF90EF90DF90CF90BF905F
:1014E000AF909F908F9008952F923F924F925F926E
:1014F0006F927F928F929F92AF92BF92CF92DF9224
:10150000EF92FF920F931F93CF93DF93CDB7DEB788
:101510006B970FB6F894DEBF0FBECDBF0E94FA09DD
:1015200087EF0E94A1096E8B7F8B888F998F8091A6
:10153000750390917603A0917703B09178036C01C5
:101540007D01FF0CCC08DC2C76019C01AD016C2DDB
:101550007C2D8C2D9C2D345F41405109610971090E
:101560008109910929873A874B87652E762E872E28
:10157000982E9B8F5901C42ED52EE62EF72E082FBC
:10158000192F0E947130322E232E488B598B6A8B73
:101590007B8B8C8B9D8B30915D0320915C03932F13
:1015A000990F990B492F592F692F792F892F0E9455
:1015B00071300CE00E94693129833C874A8F5D8736
:1015C0006E877F87582E492E30915F0320915E03EE
:1015D000932F990F990BA32CB22CC888D988EA882D
:1015E000FB880C891D89492F592F692F792F892F45
:1015F0000E94713008E00E948231A980BC84CA8CAC
:10160000DD84EE84FF84052D142D0E949F317058D7
:101610008F4F9F4FE0915A03F0915B035F01D12CF4
:10162000C12CE12CF12C8701E983BA82CB82DC82C8
:10163000ED82FE820F831887C12CD12CE12CF12C76
:1016400000E010E00E94713001E20E9482312A8F96
:10165000532E49835C876D877E878F87492EA0E054
:101660000E94B13109F434C13091650320916403C3
:10167000932F990F990BA32CB22CC888D988EA888C
:10168000FB880C891D89492F592F692F792F892FA4
:101690000E9471301901488B598B6A8B7B8B8C8B24
:1016A0009D8B3091630320916203932F990F990BC7
:1016B000A984BA84CB84D62CE72CF82C092D1B8D59
:1016C000492F592F692F792F892F0E94713001E1FD
:1016D0000E9469315101C888D988EA88FB880C8941
:1016E0001D890E949F3159016A017B01382E192FF3
:1016F0004E895F89688D798D84E0759567955795DA
:1017000047958A95D1F780E090E0A0E1B0E0841B96
:10171000950BA60BB70B3C014D01990C6608762C76
:1017200043019C01AD01662D762D862D962D0FE18E
:101730000E946931722E832E942E5987B62FA72FBF
:10174000F82FE92F3091610320916003932F990FB7
:10175000990B492F592F692F792F892F03E20E9466
:101760006931032D0E949F3159016A017B018C016F
:10177000272D382D492D59856B2F7A2F8F2F9E2F8E
:101780000E94A831E5E3AE2EFCE0BF2EC12CD12C87
:10179000E12CF12C00E010E00E947130AA8CB52CF5
:1017A000C980DC84ED84FE840F85142D0E94CB302B
:1017B0002F873E8749875A876B8779838C879D87D8
:1017C0000DE00E948231922E832E742E652E562EAD
:1017D000472E382E292E30916B0320916A03932FC8
:1017E000990F990BA92CB82CC72CD62CE52CF42CCE
:1017F000032D122D492F592F692F792F892F0E94E0
:1018000071300E94713009E10E948231AF84BE8440
:10181000C984DA84EB84F9800C851D850E949F3190
:1018200019012A013B014C013091690320916803A1
:10183000932F990F990B492F592F692F792F892FA2
:101840000E94713003E10E94823159016A017B01DB
:101850008C019101A201B301C4010E949F3108E0F3
:101860000E94823159016A017B01E82F192F3091C2
:10187000670320916603932F990F990B492F592FD6
:10188000692F792F892F04E00E9469310E2F0E9461
:101890009F3149015A0199278B2D7A2D692D6B961D
:1018A0000FB6F894DEBF0FBECDBFDF91CF911F9171
:1018B0000F91FF90EF90DF90CF90BF90AF909F90EF
:1018C0008F907F906F905F904F903F902F900895F2
:1018D00060E070E0CB01E3CFFC0101900020E9F76C
:1018E0003197AF01481B590BBC018AEE93E00C9471
:1018F000150488E395E00E946106892B51F088E386
:1019000095E00E947906682F8AEE93E00E94AB046E
:10191000F0CF87E691E00C946C0CCF93DF930E949C
:10192000F804EC0187E691E00E946C0C8C0F9D1F7F
:10193000DF91CF9108958F929F92AF92BF920F93B4
:101940001F93CF93DF93CDB7DEB7A1970FB6F8946F
:10195000DEBF0FBECDBF19A2423008F44AE08E01AF
:101960000F5D1F4F842E912CB12CA12CA501940149
:101970000E94DD2EE62FB901CA01EA30F4F4E05DE1
:10198000D801EE938D01232B242B252B79F790E0A2
:1019900080E0109719F0CD010E946C0CA1960FB653
:1019A000F894DEBF0FBECDBFDF91CF911F910F9195
:1019B000BF90AF909F908F900895E95CE1CFCF9258
:1019C000DF92EF92FF92CF93DF936C01990FEE08B5
:1019D000FF08F7FE1FC06DE28AEE93E00E94AB04A1
:1019E000EC0166277727CB016C197D098E099F09C9
:1019F0004AE00E949B0CC80FD91F87E691E00E9425
:101A00006C0C8C0F9D1FDF91CF91FF90EF90DF90BA
:101A1000CF9008954AE0C701B6010E949B0CEC01EB
:101A2000ECCFCF93DF93682F70E090E080E04AE046
:101A30000E949B0CEC0187E691E00E946C0C8C0FDD
:101A40009D1FDF91CF910895BF92CF92DF92EF92C9
:101A5000FF920F931F93CF93DF937B01042FB22E3E
:101A600091E59CBD91E09DBD2998E3E2F0E03197BE
:101A7000F1F70E94FF08182FE7010150A8F0BB20E2
:101A800051F08FEF0E94FF08182FE114F104A9F321
:101A900088832196F2CF6E018FEFC81AD80A888109
:101AA0000E94FF08E601E9CF299A83E290E00197BE
:101AB000F1F7812FDF91CF911F910F91FF90EF9060
:101AC000DF90CF90BF900895CF93DF931F92CDB753
:101AD000DEB7698320E041E0BE016F5F7F4F0E9467
:101AE000240D0F90DF91CF9108958091BE02982F21
:101AF0009077903759F0982F92959F709F5F9770CD
:101B00009295907F8F78892B8093BE028091BD0241
:101B10008B7F8F7E8093BD022A986CE080E20C94CC
:101B2000640D6FE080E20E94640D609127016F3FB9
:101B300019F08AE20E94640D2A9A0895CF93C82F63
:101B40008093E6038F3F51F08093270163E082E2A8
:101B50000E94640D61E081E20E94640D0E94910D7B
:101B60006C2F90E080E00E94622E81E0CF9108957A
:101B700021E041E070E060E00C94240D20E040E0C2
:101B800070E060E00C94240DEDEBF2E08081877F43
:101B90008F7E80831092B9021092BA021092BB021B
:101BA0001092BC0244E050E070E060E086EE93E00A
:101BB0000C94422E0F931F93CF93DF93EC018B0174
:101BC00080E06115710519F0CB010E94A72A682FEA
:101BD000CE010E9481078C818F718C834B81469549
:101BE000469546954A3108F049E150E0B801CE01EA
:101BF00007960E94B02AEB81E695E695E695EA31D4
:101C000008F0E9E1EC0FFD2FF11D1782CE01DF9105
:101C1000CF911F910F910895EF92FF920F931F9311
:101C2000CF93DF938C017B0160E0E114F10439F084
:101C3000F70101900020E9F731976E2F6E19C80166
:101C40000E948107F80184818F718483C381C695C6
:101C5000C695C695CA3108F0C9E1D0E0AE01B7011A
:101C6000C80107960E94CC31C00FD11F1F82C80146
:101C7000DF91CF911F910F91FF90EF900895FC019C
:101C80002481229526952770213011F487810895AB
:101C9000211104C007960E94622A089580E00895E9
:101CA0002F923F924F925F926F927F928F929F926C
:101CB000AF92BF92CF92DF92EF92FF920F931F935A
:101CC000CF93DF93CDB7DEB7C855D1090FB6F894DF
:101CD000DEBF0FBECDBF9091E603DB019C93139650
:101CE0001C9112FD44C01695169516951A3108F0F0
:101CF00019E1195F9091E9033324339490FD03C0F7
:101D00008F3F09F0312C6115710509F4C3C1699643
:101D10008FAF6997E12EF12CFE0131966F01A7017B
:101D2000CF010E94C331FE01EF5BFF4F80E1DF0175
:101D30001D928A95E9F71131E0F4B0E16396BFAFE7
:101D40006397EC0CFD1C812C912C540193946396A9
:101D5000FFAD63971F1790F40E940A2AA501940112
:101D60000E94742ED7016D937D011F5FF0CF10E2AA
:101D7000C1CFE0E26396EFAF6397E3CF80E1FE016E
:101D8000EF5BFF4FA1EAB2E001900D928A95E1F777
:101D90006396BFAD63974B2E512C712C612C4E0175
:101DA000E1E18E0E911CE1EAF2E08601C8018C1996
:101DB0009D09B0E0A0E084159505A605B70508F0DB
:101DC000F7C05801D5018D915D0191911197892737
:101DD0008C93A814B904B1F741EF51E0B80180E049
:101DE0000E94DB08B1E06296BFAF6297C8010E9413
:101DF000C708F801818195819183918595839585A7
:101E00009187858782819285928382878681968554
:101E10009683868783819785938393859787978118
:101E2000938787837801D701BC916496BFAF64978D
:101E3000F701F1816596FFAF65978B2F8F27D7014B
:101E40001296BC916696BFAF6697F701F3816796CD
:101E5000FFAF6797BF276896BFAF68972B2E2826DE
:101E60000E94BC0864962FAD649782278225D70113
:101E70008C9365968FAD65976696BFAD66978B27F9
:101E80000E94BC086596EFAD65978E278225D70125
:101E900011968C9368968FAD68970E94BC086696E1
:101EA000BFAD66978B278225F701828364968FAD3D
:101EB00064976796FFAD67978F270E94BC08679667
:101EC0002FAD679782278225D70113968C93B4E0B4
:101ED000EB0EF11CAE14BF0409F0A5CF41EF51E0A9
:101EE000B80162968FAD62970E94DB086296EFADF3
:101EF0006297EF5F6296EFAF6297EA3009F076CFB4
:101F0000C8010E94C708D80111968C9111971596A7
:101F10009C91159711969C93119719969C911997DE
:101F200015969C9315971D969C911D9719969C93B9
:101F300019971D968C931D9712968C9112971A964D
:101F40009C911A9712969C9312971A968C931A97B3
:101F500016968C9116971E969C911E9716969C939A
:101F600016971E968C931E9713968C9113971F9617
:101F70009C911F9713969C9313971B969C911B976C
:101F80001F969C931F9717969C9117971B969C934F
:101F90001B9717968C9341EF51E0B8018AE00E949D
:101FA000DB08B0E18B0E911CF801005F1F4FFECEE5
:101FB00080E1A1EAB2E001900D928A95E1F72A98BA
:101FC00083E092E00197F1F76EE080E20E94640DF9
:101FD0008BE891E00197F1F769966FAD69978AE216
:101FE0000E94640D69966FAD699780E30E94640D4D
:101FF00081EE0E94BE0D332021F060E584E20E9454
:10200000640D20E063964FAD6397B60180EA0E94AD
:10201000240D2A9A10E000E08FEF0E94BE0D80731D
:1020200039F40F3F100721F0A8950F5F1F4FF4CF31
:102030002A9860E787E20E94640D182F84FF03C08E
:1020400081EE0E94BE0D332021F06FE584E20E94F4
:10205000640D0E94910D15FF02C033243394832D2B
:10206000C85ADF4F0FB6F894DEBF0FBECDBFDF9169
:10207000CF911F910F91FF90EF90DF90CF90BF9085
:10208000AF909F908F907F906F905F904F903F9018
:102090002F900895312CE3CF0F931F93CF938C0192
:1020A000FC0182819091BD0290FF04C08F3F51F5E9
:1020B000CFEF04C0811116C0C091E703B8018C2F87
:1020C0000E94500E9091E7039C1313C09091BE02A2
:1020D000811113C021E0290F2F70907F922B9093D4
:1020E000BE0207C08F3F21F3B8010E94500E882323
:1020F00019F3CF911F910F910895907F9093BE0295
:1021000081E0F7CF80E0F5CF2091BD0222FD0C9455
:102110004C1080E00895CF93DF93262FEA0150E022
:1021200040E0682F80E00E94A103BE010E94DA0D0A
:10213000DF91CF910C9484102091E603FC01218360
:10214000F8E06F9FB00111246160FC012481207FC1
:10215000622B64832091B20220FD0C94841080E0F5
:1021600008952BE043E050E06FEF80E00E94A10370
:1021700064E474E00E94DA0D0E9484102CE043E0D5
:1021800050E06FEF80E00E94A10360E474E00E94E1
:10219000DA0D0E94841064E670E080E090E00E9416
:1021A000031544E354E066E070E080E00E948B1089
:1021B00064E670E080E090E00E9403154BE254E09A
:1021C00067E070E081E00E948B1064E670E080E0E0
:1021D00090E00E9403154EE154E068E070E082E078
:1021E0000E948B1064E670E080E090E00E9403158E
:1021F00045E154E064E270E083E00E948B1064E605
:1022000070E080E090E00E9403154EE054E063E04F
:1022100070E084E00E948B1064E670E080E090E063
:102220000E94031581E08093210108952FE043E08F
:1022300050E06FEF80E00E94A10369E671E00E9428
:102240000C0E62E087E595E00E948107E7E5F5E086
:1022500084818F71806C848381E087831086CF01B5
:102260000E9484108FE00E94CD1421E150E040E0F4
:102270006FEF80E00E94A1036AE671E00E940C0EFD
:102280000E94841026E043E050E06FEF80E00E945F
:10229000A1036091E7030E94A4070E94841086E0D6
:1022A0000E94CD140C94B1102F923F924F925F92E6
:1022B0006F927F928F929F92AF92BF92CF92DF9256
:1022C000EF92FF920F931F93CF93DF93CDB7DEB7BB
:1022D0006D970FB6F894DEBF0FBECDBF26E0298FF5
:1022E00087E10E94B80D80FD39C3398D3150398F97
:1022F000332309F433C321E041E070E060E080E67D
:102300000E94240D182F813220F082EE0E94BE0D13
:1023100010E021E0412F68E775E081E60E94240D7E
:1023200060E487E20E94640DA1EAB2E0E0E11D9260
:10233000EA95E9F7212F30E050E040E02A8F3B8F0B
:102340004C8F5D8F48E855E0588F4F8B08E715E0BC
:102350001C8B0B8BC80188579540B0E0A0E02A8DFC
:102360003B8D4C8D5D8D82179307A407B50708F050
:1023700046C180E1F801DE01119601900D928A9527
:10238000E1F741EF51E0B8018AE00E94DB0839E053
:10239000398BD8011D968C911D9719969C91199790
:1023A0001D969C931D9715969C91159719969C9335
:1023B000199711969C91119715969C9315971196C4
:1023C0008C93119712968C9112971A969C911A974A
:1023D00012969C9312971A968C931A9716968C9134
:1023E00016971E969C911E9716969C9316971E966E
:1023F0008C931E9713968C91139717969C91179711
:1024000013969C9313971B969C911B9717969C93DE
:1024100017971F969C911F971B969C931B971F962F
:102420008C93C8010E94A80841EF51E0B801898946
:102430000E94DB084801F401B080C180D280738023
:102440008B2D0E94BC088D8B0E94BC08E82E0E9438
:10245000BC08F82E8C2D0E94BC088E8B0E94BC08F4
:10246000482E0E94BC088A8B8D2D0E94BC08282E05
:102470000E94BC08382E0E94BC08A82E872D0E94FE
:10248000BC08582E0E94BC08682E0E94BC089D897A
:102490009E259F25FE899F272A89922793259A2585
:1024A00098279C259D259725D4019C939F2F9F2598
:1024B0009425922792259A25962598279B259D2538
:1024C000972511969C931197EF24E2262E2432240F
:1024D0003A24352438263B243C24732412967C92DB
:1024E000BD89FB264F24922F9425A9265A246524C2
:1024F0008625B826CB24CD24F401C382F4E08F0EC8
:10250000911C2F89388D2815390509F094CF398908
:102510003150398B31113DCFD8011D968C911D97CB
:1025200019969C9119971D969C931D9715969C91B1
:10253000159719969C93199711969C91119715963A
:102540009C93159711968C93119712968C911297D4
:102550001A969C911A9712969C9312971A968C939E
:102560001A9716968C9116971E969C911E97169602
:102570009C9316971E968C931E9713968C91139787
:1025800017969C91179713969C9313971B969C9163
:102590001B9717969C9317971F969C911F971B96B6
:1025A0009C931B971F968C93C8010E94A80841EF2B
:1025B00051E0B80180E00E94DB08E1EAF2E0AB897B
:1025C000BC898D91BC8BAB8B9191119789278C9392
:1025D0002B893C898216930691F780E1FE013196A2
:1025E000A1EAB2E001900D928A95E1F7005F1F4FDA
:1025F0004F89588D405F5F4F588F4F8BA9CEE09128
:102600007B058E2F8370823009F06ACE80917C0525
:10261000582F5770F52E00917D0510917905209166
:10262000780590917A053091BE0230683093BE02F1
:102630003091E603931342C1E695E695E695EA31BB
:1026400008F0E9E1F0E0E858FA4F178283FF15C07F
:1026500021E2E8E7F5E0A7E5B5E001900D922A95C3
:10266000E1F7877E806180935B0590935805109316
:10267000590587E595E00E94841090917C0594FDB2
:1026800015C183E0F81212C180917D0521EF280F5A
:10269000233008F425CE0430A9F480917E05909172
:1026A0002801891719F08F3F09F01ACE88E795E0C5
:1026B0000E943F0E9FEF980F9E3F08F011CE0E94A0
:1026C0009E0D0ECE0830D9F40091BD0200FF08CE59
:1026D00088E795E00E943F0E8F3F09F401CE8F5F9F
:1026E0008F3F09F4FDCD9091E803891708F0F8CDEC
:1026F00001FDF6CD8093E8031093E703F1CD083197
:1027000059F429E143E050E06FEF812F0E94A103CB
:1027100061E00E94A40720C0093171F48091BD02DC
:1027200083FFDECD877F8093BD0288E795E00E941E
:102730003F0E8093BF02D4CD0E3109F4D1CD0D31BF
:1027400071F42FE143E050E06FEF80E00E94A103BD
:1027500060E07FEF0E948F070E944C10C1CD209156
:1027600079052111A8C08D3059F488E198E00FB6A1
:10277000F894A895809360000FBE90936000FFCFFF
:102780008B3179F488E795E00E943F0E91E081114A
:1027900001C090E08091B20290FB80F98093B20278
:1027A0009FCD863099F490917F0581E0992319F0AF
:1027B0009D3409F080E08093B10241E050E063E095
:1027C00071E081EB92E00E94522E8ACD833119F4A0
:1027D0000E94161185CD823101F50E94C1076B015F
:1027E0007C0126E143E050E06FEF80E00E94A1030E
:1027F0008C0164E00E948107D80114968C91149793
:102800008F71806A14968C93F801C782D086E18616
:10281000F286C8010E94841063CD8230F9F422E070
:1028200043E050E06FEF80E00E94A1038C0164E080
:102830000E948107D80114968C9114978F71806A39
:1028400014968C9314972FEF32E043E052E01796E2
:102850002D933D934D935C931A97DBCF813001F517
:10286000E0E0F0E0EF2B09F43BCD92959695977060
:10287000953059F460917F057091800580918105B4
:10288000909182050E9400002BCD911105C08FE729
:1028900095E00E94802AF6CF60E070E0CB01F2CF95
:1028A0008A3009F41DCD8C3109F41ACD88E795E002
:1028B0000E94FA1515CD8A31C9F712CD9F3F09F054
:1028C0000FCDF3E05F1345C08091BD0282FF03C0CE
:1028D000073009F405CD043109F002CD8091E703FA
:1028E0002813FECC0E94DF056B017C0123E0D2227D
:1028F000EE24FF240E94BA054B015C01C114D104EF
:10290000E104F104D1F425E143E050E06FEF812FC1
:102910000E94A1036091E703FCCE31E0C31AD10805
:10292000E108F10848EE840E43E0941EA11CB11C9E
:10293000C114D104E104F10409F30E94BA05681935
:1029400079098A099B09683E73408105910528F73A
:10295000D5CF8091E7032813C3CCA8CF6D960FB6CF
:10296000F894DEBF0FBECDBFDF91CF911F910F91C5
:10297000FF90EF90DF90CF90BF90AF909F908F909F
:102980007F906F905F904F903F902F90089580912F
:10299000BD0284FD0C9454110895CF92DF92EF9202
:1029A000FF92CF93DF93D82F0E94DF056B017C014C
:1029B00080917C05876080937C05C0E00E94DF05E4
:1029C0006C197D098E099F09603D7740810591054D
:1029D00090F4C11110C0A8950E94B6070E94C714B8
:1029E00080917C058770833049F7C1E080917D0537
:1029F0008D13E3CFE3CF8C2FDF91CF91FF90EF903A
:102A0000DF90CF9008958F929F92AF92BF92CF9216
:102A1000DF92EF92FF924B015C010E94DF056B0198
:102A20007C010E94DF056C197D098E099F096815DC
:102A300079058A059B0530F4A8950E94B6070E9487
:102A4000C714EFCFFF90EF90DF90CF90BF90AF9083
:102A50009F908F900895CF93C0E088E395E00E9407
:102A60006106892B51F4CA3F41F0CF5F61E070E00D
:102A700080E090E00E940315F0CF88E395E00E948B
:102A800061061816190694F46AE070E080E090E0A0
:102A90000E94031588E395E00E9461061816190646
:102AA00064F488E395E00E947906F4CFCA3F29F4E4
:102AB00082EF95E0CF910C948D0CCF910895EF9219
:102AC000FF920F931F93CF93DF93CDB7DEB760973D
:102AD0000FB6F894DEBF0FBECDBF9EE799839EE090
:102AE0009A839CE29B839FEE988B1C828D831E822F
:102AF0006F83188649871A8622502B871C861D866D
:102B00001E870F878E010F5F1F4F7E0181E1E80E48
:102B1000F11C0E151F0541F0F80161918F0188E34A
:102B200095E00E940506F5CF60960FB6F894DEBFDB
:102B30000FBECDBFDF91CF911F910F91FF90EF900E
:102B40000C942B15EF92FF920F931F93CF937C0160
:102B500088E395E00E946106892B11F00E94790CB0
:102B60006EE788E395E00E940506C0E087010C0F40
:102B7000111DF801649188E395E00E940506F801B3
:102B800004910F3E09F4C0E1CF5FC03178F3CF91DB
:102B90001F910F91FF90EF900C942B15CF93C82F9E
:102BA00082E296E00E94F8048C2F90E00E94DF0CF5
:102BB000CC23A1F08FEF809326018AE196E00E945A
:102BC000A21584E08093990461E070E083E994E0C9
:102BD0000E948F0760E0CF910C949C101092260108
:102BE0008EE196E00E94A21584E08093990470E043
:102BF00060E0ECCFCF93DF93EC0186E893E00E9496
:102C0000F8048E810E94110D8C8184FF0AC081E836
:102C100093E00E948D0C81E08093F001DF91CF91D1
:102C200008958D818230D1F78E818430B9F7CE013D
:102C30000E943F0EC1E0811101C0C0E08DE693E02B
:102C40000E94F8048C2F90E00E94DF0C8C2FDF9103
:102C5000CF910C94CE15EF92FF920F931F93CF93C9
:102C6000DF9300D000D01F92CDB7DEB79EE79983E7
:102C700093E09A839B839FEE9D838C838E010F5FED
:102C80001F4F7E0186E0E80EF11C0E151F0541F076
:102C9000F80161918F0188E395E00E940506F5CF68
:102CA0000F900F900F900F900F90DF91CF911F9189
:102CB0000F91FF90EF900C942B15EF92FF920F93D2
:102CC0001F93CF93DF93CDB7DEB728970FB6F89455
:102CD000DEBF0FBECDBF9EE7998396E09A8391E059
:102CE0009B839FEE98871C828D831E826F838E014B
:102CF0000F5F1F4F7E0189E0E80EF11C0E151F05C6
:102D000041F0F80161918F0188E395E00E9405068A
:102D1000F5CF28960FB6F894DEBF0FBECDBFDF917A
:102D2000CF911F910F91FF90EF900C942B150F9363
:102D30001F938091F001882379F06AE070E082EDC2
:102D400090E00E945D1681E00E942B168DE295E0D6
:102D50001F910F910C94A21510E000E029E130E0E2
:102D600042E350E070E060E08EEB90E00E945F157F
:102D70001F910F910895FF920F931F93CF93DF93AD
:102D8000F82E192F062F6EE788E395E00E940506BE
:102D900062E0600F88E395E00E94050661E188E348
:102DA00095E00E940506CF2DD12F0C0F1D2F111D70
:102DB000C017D10731F0699188E395E00E940506BC
:102DC000F7CF6FEE88E395E00E940506DF91CF9183
:102DD0001F910F91FF900C942B15FF920F931F934F
:102DE000CF93DF9395E1899F800111240A5C1A4FEC
:102DF000C8010E94A72AF82E6EE788E395E00E949A
:102E0000050662E06F0D88E395E00E94050661E12A
:102E100088E395E00E940506D0E0C0E0CF1550F4AD
:102E2000F801EC0FFD1F649188E395E00E94050610
:102E30002196F4CF6FEE88E395E00E940506DF91BE
:102E4000CF911F910F91FF900C942B15EF92FF9251
:102E50000F931F93CF93DF93CDB7DEB72C970FB6A9
:102E6000F894DEBF0FBECDBF9EE799839AE09A83A8
:102E700098E29B839FEE9C871C828D837E836F8369
:102E8000188649873A872B878E010F5F1F4F7E0177
:102E90008DE0E80EF11C0E151F0541F0F80161915F
:102EA0008F0188E395E00E940506F5CF2C960FB6BA
:102EB000F894DEBF0FBECDBFDF91CF911F910F9170
:102EC000FF90EF900C942B150F931F93CF93DF93EC
:102ED0000E94790381EF93E00E948D0C60ED77E012
:102EE00080E090E00E940315109253051092520565
:102EF000109251051092500510924F0510924E05F8
:102F00008DE991E090935505809354059091440587
:102F1000963108F047C02DEB30E030934F052093F9
:102F20004E052BE931E030935105209350052CE2FA
:102F300031E030935305209352052091680084E0DE
:102F4000983048F031E09E3008F430E081E001C074
:102F5000880F3A95EAF7822B809368002DE630E0DF
:102F6000983050F02BE630E09E3030F02CE630E028
:102F7000963110F030E020E030934C0520934B0563
:102F8000292F30E0983008F0DEC081E001C0880FC2
:102F90009A95EAF780934D058091540590915505D7
:102FA0000197F1F78091520590915305892B49F1D2
:102FB000E0914903F0914A0385E0E833F80709F10D
:102FC000309739F0A389B4899C91858980958923AC
:102FD0008C93809156058E7F8093560510924703FF
:102FE0001092480388E395E090934A038093490345
:102FF000E0914B05F0914C05808190914D05892B16
:10300000808360ED77E080E090E00E9403158AE124
:1030100096E00E94A2158DEE93E00E94A21588EE24
:1030200093E00E94A21583EE93E00E94A21581E036
:103030000E942B166AE070E08AE090E00E945D1624
:1030400080E00E94ED1602E810E120E530E040EF5C
:1030500050E060E570E090E080E00E945F156AE576
:1030600070E08AE090E00E945D1681E00E94ED161B
:103070006AEA70E08AE090E00E945D1682E00E94B9
:10308000ED168091BD0282FF6BC08DEC93E00E9433
:103090008D0C81E08093F0019091B102911101C0FB
:1030A00080E080931F011092C5031092C403109218
:1030B0007A0310929C031092C30381E08093C203B1
:1030C0001092BD0361E082E10E943D0561E083E171
:1030D0000E943D058091B9008E7F8093B900809158
:1030E000B9008D7F8093B90088E48093B80085E4AF
:1030F0008093BC008BEC96E09093E1028093E00219
:103100008CEC96E09093E5028093E40280ED0E94BF
:103110008109803651F183EA93E00E948D0C6CE0C6
:1031200080E791E00E94BB1688E19FE00FB6F8941B
:10313000A895809360000FBE90936000DF91CF91BF
:103140001F910F9108959E3040F42850310981E07D
:1031500001C0880F2A95EAF71DCF2E503109F7CF0D
:1031600082EB93E00E948D0C9ECF88E80E947B0941
:1031700090935503809354038AE80E947B099093AF
:103180005703809356038CE80E947B099093590360
:10319000809358038EE80E947B0990935B03809391
:1031A0005A0380E90E947B0990935D0380935C033E
:1031B00082E90E947B0990935F0380935E0384E918
:1031C0000E947B09909361038093600386E90E94CB
:1031D0007B09909363038093620388E90E947B09D3
:1031E00090936503809364038AE90E947B0990931E
:1031F0006703809366038CE90E947B0990936903BF
:10320000809368038EE90E947B0990936B038093FF
:103210006A0381EA0E94810980936C0381EE0E9417
:103220007B0990936E0380936D0383EE0E94810966
:1032300080936F0384EE0E948109C82F85EE0E945F
:10324000810990E1C99F900111248F70282B309340
:1032500071032093700386EE0E948109C82F85EECA
:103260000E94810990E1C99FE001112490E024E0CF
:10327000959587952A95E1F78C2B9D2B9093730359
:103280008093720387EE0E9481098093740365E046
:1032900082EF0E944B0767EB84EF0E944B0744CFFD
:1032A0004F925F926F927F928F929F92AF92BF9256
:1032B000CF92DF92EF92FF920F931F93CF93DF9302
:1032C000CDB7DEB72A970FB6F894DEBF0FBECDBFDD
:1032D000809121018823A1F01092210184E0809344
:1032E000990461E070E083E994E00E948F0760E058
:1032F0000E949C1064E670E080E090E00E9403155C
:1033000088E395E00E9461069A87898789859A8576
:1033100005970CF446C088E395E00E94EC058E37D3
:10332000A1F510E000E001C001E088E395E00E9413
:103330006106892BB1F188E395E00E9479060023AC
:1033400061F0E12FF0E0ED54FE4F8F3E49F08083B5
:103350001F5F183008F017E001E08E3731F7E4CF37
:1033600010828091B3018630E1F68091B4018730FC
:10337000C1F680912601811106C081E00E94CE1520
:103380000E94790CCECF80E0F9CF88E395E00E94CF
:103390007906182F84E594E00E94F804812F0E949A
:1033A000110D0E94DF050091D6011091D7012091E7
:1033B000D8013091D901601B710B820B930B683ED1
:1033C000734081059105D0F00E94DF056093D6011E
:1033D0007093D7018093D8019093D90180912001F7
:1033E0008C3318F110922001A89580912001813032
:1033F00009F4D5C1F0F0823009F427C32A960FB63C
:10340000F894DEBF0FBECDBFDF91CF911F910F911A
:10341000FF90EF90DF90CF90BF90AF909F908F90F4
:103420007F906F905F904F9008958F5F8093200101
:10343000DBCF0E94FA096B017C01C092D201D092CD
:10344000D301E092D401F092D50120E030E04EEFBC
:1034500052EC0E941E2D882389F220E030E04AEAD7
:1034600052E4C701B6010E941E2D882339F2209133
:10347000CE013091CF014091D0015091D101C701CF
:10348000B6010E941E2D882309F4B8CFC092CE0148
:10349000D092CF01E092D001F092D10180911F0132
:1034A00081111CC020E030E040E151E4C701B601C9
:1034B0000E94842D20E030E040EA50E40E947B2FFF
:1034C00020E030E040E052E40E940F2F6093D201F0
:1034D0007093D3018093D4019093D5018EE195E050
:1034E0000E94F804C090D201D090D301E090D401A2
:1034F000F090D501A7019601C701B6010E942830BE
:10350000882309F471C08DE791E00E946C0C87E676
:1035100091E00E946C0C1092F001C090D201D0900A
:10352000D301E090D401F090D50165E087E195E00A
:103530000E94810780911B05806E80931B05C092BD
:103540001E05D0921F05E0922005F092210581E032
:103550008093220561E087E195E00E949C100E9423
:10356000971610E000E027E330E040EF50E069E11B
:1035700070E090E080E00E945F1563E270E08AE016
:1035800090E00E945D1684E00E942B166091D201AB
:103590007091D3018091D4019091D5018E010F5F7C
:1035A0001F4F21E040E00E94A029C090D201D0909E
:1035B000D301E090D401F090D50120E030E0A901E2
:1035C000C701B6010E94233018160CF09FC020E0FE
:1035D00030E040E251E4C701B6010E941E2D13E025
:1035E00087FDA9C014E0A7C046015701E894B7F8C9
:1035F0002FEF3FEF4FE75FE7C501B4010E9428308E
:1036000081110DC02FEF3FEF4FE75FE7C501B40118
:103610000E941E2D18161CF481E891E076CF2FEF42
:103620003FEF4FE75FE4C701B6010E942330181651
:103630001CF485E891E069CF2FEF3FEF4FE75FEC97
:10364000C701B6010E941E2D87FDF3CF20E030E0B8
:10365000A901C701B6010E941E2D87FF09C06DE2B6
:103660008AEE93E00E94AB04F7FAF094F7F8F09436
:103670002AE037ED43EA5BE3C701B6010E940F2F52
:103680004B015C010E94F42F6B017C010E94232DF1
:103690009B01AC01C501B4010E940E2F4B015C01DE
:1036A0004AE0C701B6010E949B0C6EE28AEE93E0ED
:1036B0000E94AB0420E030E040E251E4C501B401D7
:1036C0000E94842D4B015C010E94F42F6B01F12CB0
:1036D000E12C4AE0C701B6010E949B0CC701B6016C
:1036E0000E94232D9B01AC01C501B4010E940E2F45
:1036F00020E030E040E251E40E94842D0E94F42F4B
:1037000090E080E04AE00E949B0C01CF20E030E096
:1037100040E251ECC701B6010E94233013E01816B5
:103720000CF014E020E030E0A901C701B6010E94CE
:10373000233018162CF520E030E046EC52E4C701A7
:10374000B6010E94233018162CF120E030E0A901C8
:10375000C701B6010E941E2D87FD1F5F612FCE019C
:1037600001960E94BB1682E00E942B1680911F01D9
:1037700061E0882389F089E891E00E94BB163ECE83
:1037800020E030E046EC52ECC701B6010E941E2D4D
:1037900087FFDBCF15E0D9CF8BE891E0EECF0E9419
:1037A000FA098DEF0E944C09809075039090760382
:1037B000A0907703B09078033CE2931A31E0A30A1B
:1037C000B108B0E0A0E06C017D013EE0CC0CDD1C56
:1037D000EE1CFF1C3A95D1F7809170039091710314
:1037E000092E000CAA0BBB0B44E1880F991FAA1FDE
:1037F000BB1F4A95D1F7C81AD90AEA0AFB0AA09159
:103800007203B0917303A50194010E949E2EC61A03
:10381000D70AE80AF90A80E4D80EE11CF11C6FE02F
:10382000F594E794D794C7946A95D1F7A0916F0364
:10383000B0E00E94932E2B013C017BE075946794CD
:10384000579447947A95D1F790E8590E611C711CF2
:10385000A09174030A2E000CBB0B0E949E2EEAE07E
:103860009595879577956795EA95D1F7A30192018C
:103870000E942D309B01AC01FAE055954795379594
:103880002795FA95D1F7405E5F4FA0916D03B091F7
:103890006E030E949E2E705E8F4F9F4FAEE09595F7
:1038A000879577956795AA95D1F7A70196010E940C
:1038B0002D306B017C01BFE09595879577956795D5
:1038C000BA95D1F79B01AC010E942D309B01AC0150
:1038D00017E055954795379527951A95D1F7A091FB
:1038E0006C03B0E00E94932E04E095958795779540
:1038F00067950A95D1F7C61AD70AE80AF90AF7FEBA
:1039000003C0C12CD12C7601C701B601613071050D
:103910008105E9E19E0724F060E070E080E099E134
:103920002CE095958795779567952A95D1F70E9414
:10393000232D20E030E040E85AE30E94842D0E94CD
:10394000F42F162F6093CD018091CC01181709F444
:1039500055CD1093CC018CE095E00E94F804812FA6
:103960000E94110D6091CD0186EF94E00E94A407A2
:1039700060E00E949C100E94971602E810E127E385
:1039800030E040EF50E069E670E090E080E00E94B7
:103990005F1563E770E08AE090E00E945D1684E0C6
:1039A0000E942B161091CD01E12EF12C86E894E0B7
:1039B0000E94F804C7010E94DF0C8DE891E00E948C
:1039C0006C0CC7010E94DF0C1C821B828EE789836E
:1039D00086E08A8383E18B838AE08D838FEE8887FC
:1039E0001E821F838E010F5F1F4F7E01F9E0EF0ED5
:1039F000F11CE016F10641F0F80161918F0188E3B6
:103A000095E00E940506F5CF0E942B1582E00E94EA
:103A10002B1661E085E991E00E94BB1684E00E94CC
:103A20002B168091CD019FEF980F9D3120F464E01B
:103A300087E991E0A2CE813420F465E08CE991E041
:103A40009CCE66E082EA91E098CE0E94740A0E94C1
:103A5000740A24E630E040E050E00E94DD2ECA0106
:103A6000B9010E94232D20E030E040E05FE30E9496
:103A70000F2F0E94ED2F6B017C017093CB0160939F
:103A8000CA018AEF94E00E94F804C701B6018827B2
:103A900099274AE00E949B0C87E691E00E946C0CFB
:103AA0006091CA017091CB0190E080E00E94232DCB
:103AB0006B017C0165E085ED94E00E9481078091B7
:103AC000D904806E8093D904C092DC04D092DD04C6
:103AD000E092DE04F092DF0481E08093E00460E095
:103AE00085ED94E00E949C10A090CA01B090CB019B
:103AF0001091C701812F65E00E943D30F4E09F9F47
:103B0000C00111249C0124523E4F7901C50164E695
:103B100070E00E94493090E080E00E94232DF70180
:103B200060837183828393831F5F1A3B08F08CC08C
:103B30001093C7018091C701853009F089C00E94A8
:103B400067076093C3017093C4018093C50190938C
:103B5000C60180911C01882309F49FC085E08093F1
:103B60001E012091C8013091C901A216B30629F4A3
:103B700090911D01981709F441CCB092C901A0920F
:103B8000C80180931D0110E000E027E830E040EF1D
:103B900050E069EB70E090E080E00E945F1563EC1C
:103BA00070E08AE090E00E945D1682E00E942B1691
:103BB0009E012F5F3F4F790186E0F90111928A95AE
:103BC000E9F76091CA017091CB0190E080E00E941A
:103BD000232D870120E040E00E94A02964E0C70176
:103BE0000E94BB166CED70E08AE090E00E945D16CA
:103BF00080911E01853081F482EF94E00E948D0C4B
:103C00006AEE74E084EB94E00E94DA0D60E00E94BA
:103C10009C1088E00E94ED1680911E0181116BC1FD
:103C200083EE94E00E948D0C6CED74E084EB94E0E4
:103C30000E94DA0D60E00E949C1084E00E942B1626
:103C400083E00E94ED16DACB86E08093C70172CF45
:103C50008332B9F50E9467072091C3013091C401F6
:103C60004091C5015091C6010E940E2F2DEC3CECF5
:103C70004CEC5DE30E94842D20911C01222309F469
:103C800058C09B01AC010E940F2F6093BF0170933D
:103C9000C0018093C1019093C201C090BF01D09038
:103CA000C001E090C101F090C20120E030E040E8A6
:103CB0005EEBC701B6010E941E2D87FFCCC084E0D9
:103CC0004ECF8134E9F40E9467072091C3013091FF
:103CD000C4014091C5015091C6010E940E2F2DECE8
:103CE0003CEC4CEC5DE30E94842D20911C012111E1
:103CF000CCCF20E030E040E05FE30E94842DC5CFD0
:103D00008F35F1F40E9467072091C3013091C401FF
:103D10004091C5015091C6010E940E2F2DEC3CEC44
:103D20004CEC5DE30E94842D20911C01222309F4B8
:103D300044C020E030E040EC5FE30E947B2FA5CF41
:103D40008D3719F50E9467076093BB017093BC0122
:103D50008093BD019093BE012091C3013091C401B5
:103D60004091C5015091C6010E940E2F2DEC3CECF4
:103D70004CEC5DE30E94842D20911C012111B9CFF0
:103D800020E030E040E450E4D8CF8B3901F50E94C8
:103D900067072091C3013091C4014091C501509142
:103DA000C6010E940E2F2DEC3CEC4CEC5DE30E9412
:103DB000842D20911C01222329F020E030E040E2F4
:103DC00050E4BBCF20E030E040E650E4B6CF893B82
:103DD000F1F50E9467072091C3013091C401409121
:103DE000C5015091C6010E940E2F2DEC3CEC4CEC0D
:103DF0005DE30E94842D20911C01222309F120E023
:103E000030E040E450E40E947B2F6093BF01709348
:103E1000C0018093C1019093C2018091BB01909138
:103E2000BC01A091BD01B091BE018093C3019093EC
:103E3000C401A093C501B093C60110921C012DCFFF
:103E400020E030E040E85EE30E94842DDECF833244
:103E500008F47FCE22CF20E030E040E85EE3C701E7
:103E6000B6010E94233018160CF43FC020E030E069
:103E700040E85EEBC701B6010E942330181654F4E7
:103E80002DEC3CEC4CE45DEBC701B6010E941E2D0D
:103E900087FD2DC02DEC3CEC4CE45DE3C701B60181
:103EA0000E942330181654F420E030E040E85EE32E
:103EB000C701B6010E941E2D87FD1BC02DEC3CECF6
:103EC0004CE45DEBC701B6010E94233018160CF0DC
:103ED00045CE2DEC3CEC4CE45DE3C701B6010E94FD
:103EE0001E2D87FF3BCE80E03ACE83E038CE82E0C5
:103EF00036CE81E034CE833091F483ED94E00E949D
:103F00008D0C6AEC74E084EB94E00E94DA0D60E0C2
:103F10000E949C1084E00E942B1686E092CE813095
:103F200031F584EC94E00E948D0C6EEB74E084EB30
:103F300094E00E94DA0D60E00E949C1020EE3FEFBA
:103F400048E250E060EF70E088E790E00E942617BA
:103F500026E63EEF4EE150E060EF70E088E790E04B
:103F60000E94261781E00E942B1684E06ACE8230E0
:103F7000B1F100E018EF843009F040CA980148E23E
:103F800050E060EF70E088E790E00E94261798010B
:103F90004EE150E06AEF70E080E590E00E94261765
:103FA000980144E150E064E071E080EA90E00E9412
:103FB000261781E00E942B1680911E01843091F417
:103FC00081EB94E00E948D0C64EA74E084EB94E051
:103FD0000E94DA0D60E00E949C1087E032CE0FEF65
:103FE0001FEFCCCF8DE994E00E948D0C66E974E060
:103FF00084EB94E00E94DA0D60E00E949C1085E062
:1040000020CECF938091B20281FD20C00E94161174
:104010008091B20281608093B202C4E02AE143E061
:1040200050E06FEF80E00E94A10362E00E94A407CD
:104030000E9484108BE10E94CD14811102C0C150F6
:1040400069F78091B20282608093B202CF910895A5
:104050008FEF8093BF02EDEBF2E080818860808378
:1040600028E143E050E06FEF80E00E94A10361E0AF
:104070000E94A4070C944C108091E6038F3FB9F482
:104080000E94DF056F3F81F06093280123E043E049
:1040900050E06091280180E00E94A10369E671E090
:1040A0000E940C0E0C944C1010922801EFCF089532
:1040B000EDEBF2E08081897F81608083E6EEF3E0C2
:1040C0008FEF8283818327E043E050E06FEF0E940F
:1040D000A10369E671E00E940C0E0C944C100F9342
:1040E0001F93CF93DF93CDB7DEB760970FB6F894E9
:1040F000DEBF0FBECDBF8E010F5F1F4F80E1F80105
:1041000011928A95E9F760E170E089EA91E00E94F6
:10411000BF2AAC0169EA71E0C8010E94C331229A4A
:10412000219A2A98299A1FB7F8948091B201811197
:1041300027C0ECE7F6E08491E0E9F6E09491E82FFF
:10414000F0E0EE0FFF1FE05CF94FA591B491EC9108
:10415000E92321F461E08AE00E943D0561E08AE004
:104160000E9489058CB580618CBD8CB580648CBD46
:1041700061E08DE00E94890561E08BE00E94890585
:104180008091B2018F5F8093B2011FBF2A986EE0C9
:1041900080E20E94640D8BE496E40197F1F763E0FE
:1041A00083E20E94640D6FE584E20E94640D6CE47A
:1041B00085E20E94640D67E086E20E94640D64E07F
:1041C0008DE30E94640D8DE10E94B80D843041F0B2
:1041D00063E780E50E94640D64E08DE30E94640D56
:1041E00086E00E94B80D873009F496C090E089817E
:1041F0008093F1018A818093F2018B818093F30196
:104200008C818093F4018D818093F5018E81809360
:10421000F6018F818093F70188858093F801898565
:104220008093F9018A858093FA018B858093FB0145
:104230008C858093FC018D858093FD018E85809314
:10424000FE018F858093FF01888980930002A1EF92
:10425000B1E024E030E01C968C911C971D967C9177
:104260001D971E965C911E971F964C911F97F90102
:10427000E370FF27EF2BF1F4E72FF0E0E359FD4F58
:104280006491E52FF0E0E359FD4F7491E42FF0E0E5
:10429000E359FD4F5491E82FF0E0E359FD4F44916D
:1042A000F901F695E795F695E795EE59FD4FE491FE
:1042B000862F8E27EC91E8275096EC935097119615
:1042C0008C911197872751968C9351971296EC9168
:1042D0001297E5275296EC9352971396EC91139709
:1042E000E4275396EC9353972F5F3F4F14962C324D
:1042F000310509F0B0CF911145C088E091E00E94EE
:10430000D40760960FB6F894DEBF0FBECDBFDF9125
:10431000CF911F910F91089585E00E94B80D8C34C4
:1043200009F064CF62E082E20E94640D60E081E205
:104330000E94640D63E08CE30E94640D8FEF809314
:10434000030120E045E063E071E08BE20E94240D70
:1043500020E045E063E071E08AE20E94240D20E065
:1043600045E063E071E080E30E94240D82EE0E944C
:10437000BE0D81EE0E94BE0D60E787E20E94640DD3
:1043800091E035CF8091BD0280618093BD02809124
:10439000E9038E7F8093E9038091E6038F3F19F450
:1043A00088E191E0ACCF9FEF980F9E3F08F0A5CF3A
:1043B0000E949E0D8111F4CFA0CF1F920F920FB6D5
:1043C0000F9211242F933F934F935F936F937F939B
:1043D0008F939F93AF93BF93EF93FF938AEE93E0F6
:1043E0000E948904FF91EF91BF91AF919F918F91AE
:1043F0007F916F915F914F913F912F910F900FBEE1
:104400000F901F9018951F920F920FB60F921124C4
:104410002F938F939F93EF93FF93E091FA03F09183
:10442000FB038081E0910004F091010482FD1BC038
:104430009081809103048F5F8F7320910404821711
:1044400041F0E0910304F0E0E651FC4F958F80933A
:104450000304FF91EF919F918F912F910F900FBEC9
:104460000F901F9018958081F4CF1F920F920FB676
:104470000F9211242F933F938F939F93AF93BF93EA
:1044800080914C0390914D03A0914E03B0914F0346
:1044900030914B0323E0230F2D3758F50196A11DD2
:1044A000B11D20934B0380934C0390934D03A09335
:1044B0004E03B0934F038091500390915103A0910C
:1044C0005203B09153030196A11DB11D8093500377
:1044D00090935103A0935203B0935303BF91AF91B4
:1044E0009F918F913F912F910F900FBE0F901F9032
:1044F000189526E8230F0296A11DB11DD2CF1F9259
:104500000F920FB60F9211242F933F934F935F9307
:104510006F937F938F939F93AF93BF93EF93FF938B
:10452000E0912B01F0912C010995FF91EF91BF9142
:10453000AF919F918F917F916F915F914F913F913B
:104540002F910F900FBE0F901F9018951F920F92F2
:104550000FB60F9211242F933F934F935F936F9356
:104560007F938F939F93AF93BF93EF93FF93E091CC
:104570002901F0912A010995FF91EF91BF91AF9127
:104580009F918F917F916F915F914F913F912F916B
:104590000F900FBE0F901F9018951F920F920FB69D
:1045A0000F9211242F933F934F935F936F937F93B9
:1045B0008F939F93AF93BF93EF93FF93E091490342
:1045C000F0914A03309749F0A685B7858585968D89
:1045D00091FF14C09C918923A1F4FF91EF91BF91A9
:1045E000AF919F918F917F916F915F914F913F918B
:1045F0002F910F900FBE0F901F9018959C918923BB
:1046000061F7A389B4899C918589809589238C93CE
:10461000868997890197F1F7608D718DA685B78599
:10462000558538E020E0CB010197F1F7822F90E02B
:1046300095958795282F4C91452309F02068315096
:1046400091F7868D81FD20958091470390E001963A
:104650008F73992730914803381799F0A091470339
:10466000B0E0A95FBC4F2C9380934703828D938D5C
:104670000197F1F7A389B4898C919589892B8C9343
:10468000ACCF868D8160868FF1CF1F920F920FB6CF
:104690000F9211242F933F934F935F936F937F93C8
:1046A0008F939F93AF93BF93EF93FF938091B90044
:1046B000887F803609F44AC0F0F5883209F4A7C033
:1046C00018F5803109F49BC0B8F4882309F4F9C0C7
:1046D000883009F494C0FF91EF91BF91AF919F9101
:1046E0008F917F916F915F914F913F912F910F909B
:1046F0000FBE0F901F901895883109F488C0803242
:1047000051F78093C10314C0803409F49DC040F474
:104710008033B9F38833F9F68093C10385ECB0C0D8
:10472000803509F485C0883509F496C0883499F637
:104730000E949A06D0CF883909F48CC038F58837A2
:1047400029F050F4883611F0803729F683E0809301
:10475000C3031092060357C0883809F47BC0803920
:1047600019F0803809F0B7CF80910603803208F045
:1047700071C0E091060381E08E0F80930603809163
:10478000BB00F0E0EA51FD4F80833DC0803B39F033
:10479000E0F4803A09F479C0883A09F09CCF84E0CB
:1047A0008093C3031092E3021092E202E091E002D0
:1047B000F091E10209958091E20281110FC081E040
:1047C0008093E2021092C00209C0803C09F4A6CF97
:1047D000883C09F4A3CF883B09F07DCFE091E30248
:1047E00081E08E0F8093E302F0E0E054FD4F808182
:1047F0008093BB009091E3028091E20229C08091F6
:10480000BE038093BB0085EC8093BC0064CF909185
:10481000C0038091BF03981758F5E091C00381E071
:104820008E0F8093C003F0E0E356FC4F8081E9CF08
:10483000E091C00381E08E0F8093C0038091BB00A4
:10484000F0E0E356FC4F80839091C0038091BF035A
:104850009817C8F285E8D8CFE091C00381E08E0FA9
:104860008093C0038091BB00F0E0E356FC4F80834F
:104870008091C20381115CCF81E08093BD0384EA03
:104880008093BC001092C30326CF85EC8093BC00BC
:104890001092C30380910603803230F4E091060346
:1048A000F0E0EA51FD4F10826091060370E0E09164
:1048B000E402F091E50286EE92E00995109206037B
:1048C0000ACF1092C10334CF1F920F920FB60F92EE
:1048D00011240F900FBE0F901F901895DB01FC0163
:1048E00058E0149744E018960E9001924A95E1F72B
:1048F0005A95C1F708958F929F92AF92BF92CF922F
:10490000DF920F931F93EDB7FEB7B8970FB6F894E9
:10491000EDBF0FBEFEBF9F938F9331968F0149016C
:104920005A016B01C801AAD2BB2011F4AA2059F088
:10493000C801B601A1D030E4C30ED11C32E0931AF5
:10494000A108B108F1CFC801B601A40115D08F911B
:104950009F91B801C3DFEDB7FEB7B8960FB6F894D4
:10496000EDBF0FBEFEBF1F910F91DF90CF90BF90A4
:10497000AF909F908F900895523090F09F938F93B7
:104980007F936F935F934F9377D04F915F916F9128
:104990007F918F919F91525030E4630F711DECCF46
:1049A000EDB7FEB70FB6E054F040F894EDBF0FBE80
:1049B000FEBF3196242F26952695269550FB25F986
:1049C000DB01222329F0122E0D9001921A94E1F7B7
:1049D00030E8032E37E0342329F006943A95E9F7BE
:1049E0003C91032A01922395293308F421C030E435
:1049F000321B19F011923A95E9F7FF973197BF01F1
:104A0000FF93EF939F938F935F934F9335D04F9185
:104A10005F918F919F91EF91FF91DC0191963C9175
:104A200032503D9326E03C9130403D932A95D9F792
:104A300038E3321B21F0112411923A95E9F7DC0199
:104A4000909638960D90040E02920D90051E0292DB
:104A500036E00D90011C02923A95D9F7F897BF0104
:104A60000BD0EDB7FEB70FB6FF963196F894EDBFB9
:104A70000FBEFEBF112408954F925F926F927F92F6
:104A80008F929F92AF92BF92CF92DF92EF92FF925E
:104A90000F931F93CF93DF934DB75EB79A01FB013E
:104AA00040525140DA010FB6F8944DBF0FBE5EBFC1
:104AB0002F933F938F939F93119640E17191619152
:104AC000319121912D933D936D937D934A95B1F74B
:104AD00040E3142EFD01FF9731970191119121912F
:104AE0003191C190D190E190F1906D2D7E2D8F2D5F
:104AF0009C2D41E0E9D14B015C01B701C60142E0C8
:104B0000F9D186269726A826B92673E0F694E7946D
:104B1000D794C7947A95D1F78C249D24AE24BF24D2
:104B2000080D191D2A1D3B1D648D758D868D978D71
:104B3000060F171F281F391FC0A8D1A8E2A8F3A885
:104B4000B701C60141E0D6D15C014B0142E0D2D1B0
:104B500086269726A826B92672E0F694E794D7947D
:104B60007A95D9F78D249E24AF24080D191D2A1D8E
:104B70003B1D0D931D932D933D931A9409F0AACFDD
:104B8000FF91EF91EF93FF9390E211901D929A9510
:104B9000E1F79097ED01ECE7FDE4BA9590E4192E6A
:104BA0004C885D886E887F88688979898A899B8925
:104BB000C88CD98CEA8CFB8C462257226822792239
:104BC0006095709580959095C622D722E822F922AB
:104BD0004C245D246E247F24F888C988DA88EB8809
:104BE000B601C70142E070D14B015C01B601C701BB
:104BF00043E080D186269726A826B926B701C601AC
:104C000041E078D186269726A826B926480C591C5B
:104C10006A1C7B1C8C8C9D8CAE8CBF8C480C591CE8
:104C20006A1C7B1C8D909D90AD90BD90480C591CCA
:104C30006A1C7B1C85909590A590B590480C591CDA
:104C40006A1C7B1C688179818A819B818C809D8014
:104C5000AE80BF8086229722A822B922C884D98438
:104C6000EA84FB846C217D218E219F218626972654
:104C7000A826B9266C817D818E819F816C217D2142
:104C80008E219F2186269726A826B926C880D980FE
:104C9000EA80FB80B601C70142E02CD18B019C0168
:104CA000B701C60143E010D1062717272827392767
:104CB0006F2D7C2D8D2D9E2D42E006D106271727C6
:104CC00028273927080D191D2A1D3B1D5CE16C960C
:104CD0009A919C835A95E1F7C888D988EA88FB881D
:104CE000C40CD51CE61CF71CC88AD98AEA8AFB8A40
:104CF000040D151D261D371D088319832A833B8348
:104D00001A9409F04DCFFF91EF9158E00081118185
:104D1000228133816991799189919991060F171FA9
:104D2000281F391F01931193219331935A9571F7DD
:104D3000319652E066E04081450F4193552728F4B3
:104D40004081451F41936A95D1F75F914F910FB60E
:104D5000F8944DBF0FBE5EBF1124DF91CF911F911C
:104D60000F91FF90EF90DF90CF90BF90AF909F900A
:104D70008F907F906F905F904F900895982F8A4208
:104D800091443771CFFBC0B5A5DBB5E95BC256399D
:104D9000F111F159A4823F92D55E1CAB98AA07D8B5
:104DA000015B8312BE853124C37D0C55745DBE72D8
:104DB000FEB1DE80A706DC9B74F19BC1C1699BE458
:104DC0008647BEEFC69DC10FCCA10C246F2CE92DE8
:104DD000AA84744ADCA9B05CDA88F97652513E980C
:104DE0006DC631A8C82703B0C77F59BFF30BE0C613
:104DF0004791A7D55163CA0667292914850AB727A1
:104E000038211B2EFC6D2C4D130D385354730A653D
:104E1000BB0A6A762EC9C281852C7292A1E8BFA214
:104E20004B661AA8708B4BC2A3516CC719E892D17C
:104E3000240699D685350EF470A06A1016C1A419FF
:104E4000086C371E4C774827B5BCB034B30C1C39FE
:104E50004AAAD84E4FCA9C5BF36F2E68EE828F74BD
:104E60006F63A5781478C8840802C78CFAFFBE90D7
:104E7000EB6C50A4F7A3F9BEF27871C6DC01EEE842
:104E8000FEE468E275917D936A95E1F7089567E61F
:104E9000096A85AE67BB72F36E3C3AF54FA57F5247
:104EA0000E518C68059BABD9831F19CDE05B0000C8
:104EB000000000000000483038F0592F982F872F4D
:104EC000762F652F4850F7CF55278894442339F023
:104ED000661F771F881F991F551F4A95C9F7652BB5
:104EE0000895483038F0562F672F782F892F952F47
:104EF0004850F7CF55278894442339F097958795E4
:104F00007795679557954A95C9F7952B0895AB0105
:104F1000692F782F852F942FCF93DF93FC01108278
:104F200011821282148215821682DC0117968AE1A0
:104F3000ED0119928A95E9F782E08383DF91CF91A1
:104F40000895CF92DF92EF92FF92CF93DF9310926A
:104F5000ED031092EC0398EEC92E93E0D92EE12CCC
:104F6000F12CC092EE03D092EF03E092F003F092A6
:104F7000F10385E391E09093EB038093EA0385ECE2
:104F800090E09093F7038093F60384EC90E0909385
:104F9000F9038093F80380EC90E09093FB038093F7
:104FA000FA0381EC90E09093FD038093FC0382EC84
:104FB00090E09093FF038093FE0386EC90E0909343
:104FC00001048093000410920304109204041092D0
:104FD00005041092060410928A0410928904C0926B
:104FE0008B04D0928C04E0928D04F0928E0487E4BE
:104FF00091E0909388048093870488E795E00E946D
:105000008C2787E595E00E948C2710923B05109233
:105010003A05C0923C05D0923D05E0923E05F092E3
:105020003F0589E591E0909339058093380510920A
:105030004F0510924E051092510510925005109296
:105040005305109252051092550510925405609127
:1050500056056E7F6D7F609356056695617081E0A1
:10506000682786E00E943D0561E086E00E94890590
:10507000ECE8F6E0E491E0934805E8E7F6E0E49137
:10508000F0E0EE0FFF1FE859F94F8591949190934E
:105090004A058093490560E085E00E94890580917A
:1050A000560581FD04C061E085E00E943D0585E074
:1050B00080934405EBE8F6E0E491E0934505E7E7EB
:1050C000F6E0E491F0E0EE0FFF1FE25AF94F859110
:1050D0009491909347058093460587E195E00E945F
:1050E0008C2710921D0510921C0586EF94E00E94FB
:1050F0008C2781E08093FC048093FB0485ED94E091
:105100000E948C27C2E0C093DB04D4E0D093DA0481
:1051100084EB94E00E948C2783E08093BA048FE2B2
:105120008093B90483E994E00E948C27D09399047A
:10513000C0939804DF91CF91FF90EF90DF90CF90D4
:105140000895CF93DF93CDB7DEB7CA55D1090FB617
:10515000F894DEBF0FBECDBF789484B5826084BD65
:1051600084B5816084BD85B5826085BD85B581606B
:1051700085BD80916E00816080936E0010928100E9
:1051800080918100826080938100809181008160A4
:105190008093810080918000816080938000809165
:1051A000B10084608093B1008091B00081608093F1
:1051B000B00080917A00846080937A0080917A00B8
:1051C000826080937A0080917A00816080937A0077
:1051D00080917A00806880937A001092C100A8952F
:1051E00080E090E0892B11F00E9400000E9479037A
:1051F0008091B2028D7F8093B20280E090E0892B93
:1052000011F00E94000040E250E063E671E0CE0140
:1052100001960E94422E40E150E06CE871E0CE0120
:1052200081960E94422E49E050E063E871E0CE0191
:10523000C1960E94422E41E050E06AE171E0CE0149
:10524000865A9F4F0E94422E28EC31E040E050E009
:10525000BE016F5F7F4FCE01CA960E947B2441E062
:1052600050E063E071E081EB92E00E94422E6FEF2C
:1052700081E090E00E94622E8091BE028F78809340
:10528000BE021092B4021092B30282E291E00E9438
:10529000D40781E090E29093DB018093DA010E94D1
:1052A000DF056B017C010E94DF056C197D098E0909
:1052B0009F096031774281059105C8F00E9464170B
:1052C000A89500E010E0A8950E94B6078091BD0265
:1052D00084FD0E9454110E9450190115110599F383
:1052E0000E947F04882379F30E940000ECCF0E9483
:1052F000B6070E94C7148091BD0282FB882780F9FF
:10530000A8958111DBCFCFCF89E591E09093390546
:10531000809338058091490390914A0388539540C2
:1053200071F4E0914B05F0914C05908180914D0511
:1053300080958923808310924A031092490308952F
:10534000EF920F931F93CF93DF93E80134E047FD73
:1053500034E1042E000C550B57FF03C051954195C5
:105360005109E32E022F242FAE010E94E72ACE011D
:10537000DF91CF911F910F91EF9008958F929F929F
:10538000AF92BF92CF92DF92EF92FF92CF93DF93D3
:10539000EC01688179818A819B81611571058105A4
:1053A000910521F464E279ED8BE597E02DE133EF8F
:1053B00041E050E00E94742E49015A019B01AC016A
:1053C000A7EAB1E40E94932E6B017C01ACEEB4EF2E
:1053D000A50194010E94A12EC60ED71EE81EF91E3B
:1053E000F7FE06C081E0C81AD108E10880E8F80A93
:1053F000C882D982EA82FB82C701B6019F77DF911A
:10540000CF91FF90EF90DF90CF90BF90AF909F90A3
:105410008F9008958F929F92AF92BF92CF92DF921A
:10542000EF92FF9260912D0170912E0180912F01DA
:1054300090913001611571058105910521F464E2B7
:1054400079ED8BE597E02DE133EF41E050E00E94EC
:10545000742E49015A019B01AC01A7EAB1E40E94F4
:10546000932E6B017C01ACEEB4EFA50194010E9478
:10547000A12EC60ED71EE81EF91EF7FE06C081E05B
:10548000C81AD108E10880E8F80AC0922D01D0922C
:105490002E01E0922F01F0923001C701B6019F77F3
:1054A000FF90EF90DF90CF90BF90AF909F908F9044
:1054B000089560932D0170932E0180932F01909396
:1054C00030010895FC0188279927E8942191203222
:1054D000E9F3293010F02E30C8F32B3241F02D3291
:1054E00039F4689404C00E94DF2A820F911D219133
:1054F00020532A30C0F31EF4909581959F4F089554
:105500001F93FC0199278827BC01E8941191103260
:10551000E9F3193010F01E30C8F31B3251F01D3280
:1055200049F4689406C00E94CA2A610F711D811D4A
:10553000911D119110531A30B0F33EF4909580955F
:10554000709561957F4F8F4F9F4F1F910895FC017C
:1055500005900020E9F7809590958E0F9F1F089584
:10556000FB01DC014150504048F005900D920020B5
:10557000C9F701C01D9241505040E0F70895FC0169
:105580006150704001900110D8F7809590958E0F72
:105590009F1F0895592F482F372F262F660F771FEB
:1055A000881F991F660F771F881F991F620F731F2F
:1055B000841F951F660F771F881F991F08957AE033
:1055C000979F902D879F802D910D11240895A9E01C
:1055D000B0E0EDEEFAE20C94AC2E6A01F22EB02EA1
:1055E000102FFBE3AF2EA01608F41BE31F5F012F63
:1055F00027E0AE014F5F5F4F0E94462CBC018981BE
:10560000982F9970913009F43FC09BE2E1FC04C0EF
:105610009E2D9170E0FC3AC05E2D5071E82FE8702D
:1056200083FF46C084E0911101C083E0EF2DE81BA9
:105630008F1508F0E0E0D6018E2F20E2552351F1BE
:10564000992329F0D6019C93C60101966C0196011D
:105650002D5F3F4FE2FE24C08EE4D6018C9391E48F
:1056600011969C93119712968C93D9018E2F90E2EC
:1056700081111BC0E20FF32FF11D10828EEF9FEFFF
:105680002996ECE00C94C82E9DE2C6CF90E2C4CFE0
:105690002D9381508111FCCFCE0ED11CE0E0D0CFF4
:1056A0008EE6D6018C9391E6DBCF9D938150E0CFBF
:1056B000482F447082FF3DC084E0911101C083E017
:1056C0008F1510F4EF2DE81BD6018E2F20E2552305
:1056D00009F1992329F0D6019C93C60101966C012A
:1056E00096012D5F3F4FE2FE1BC089E4D6018C93EB
:1056F0008EE411968C93119786E412968C93D901BF
:105700008E2F90E2882309F4B5CF9D938150FACF74
:105710002D9381508111FCCFCE0ED11CE0E0D9CF6A
:1057200089E6D6018C938EE611968C93119786E6C6
:10573000E4CF9B0177FF02C030E020E0A1E0B0E0C1
:10574000911102C0B0E0A0E0F9013196AE0FBF1F89
:105750008B2C912CBB2009F461C05401EFEFAE1AE1
:10576000BE0AAA0DBB1DFA161B0619F014F04F2D28
:105770004A1B511188C0E3FC59C07601A42FB0E246
:10578000A1114FC0C40ED11C992309F45BC040E0A5
:10579000D6011196F60190836D01552309F448C096
:1057A000012F060F9A81582F507184FF03C0913347
:1057B00009F4015010160CF047C0093008F008E059
:1057C000EEE2FE2E5B01A01AB1088501919481944E
:1057D00091082F3F320729F4D601FC92F601319649
:1057E0006F016217730794F1021713077CF5DB0151
:1057F000A21BB30BAA24A394B12CAC0EBD1EAA0D00
:10580000BB1D11968C9121503109D6011196281596
:105810003905F4F0F60180836D01DBCFB12CA12CAA
:10582000A0CFF701B1937F01A150AACF9111B0CFC2
:10583000D601942F50E302C05D9391509111FCCF9B
:10584000C40ED11C40E0ACCF01E0BACF80E3DBCF87
:105850006217730731F4963388F4953311F45523A6
:1058600069F0F6018083FD01842F90E2811108C068
:10587000A40FB11D1C9290E080E002CF81E3F1CF34
:1058800091938150F3CF911183CF8ACF283008F0C4
:1058900027E03327DA01990F311D87FD91600096CB
:1058A0006105710539F432602E5F3D9330E32A952E
:1058B000E1F708959F3F30F080387105610509F0E8
:1058C0003C5F3C5F3D93913008F08068911DDF9311
:1058D000CF931F930F93FF92EF92192F987F969576
:1058E000E92F96959695E90FFF27EE53FF4F9927DD
:1058F0003327EE24FF24A701E701059008940794BD
:1059000028F4360FE71EF81E491F511D660F771F3A
:10591000881F991F0694A1F70590079428F4E70EB5
:10592000F81E491F561FC11D770F881F991F661F3C
:105930000694A1F70590079428F4F80E491F561F06
:10594000C71FD11D880F991F661F771F0694A1F7E7
:105950000590079420F4490F561FC71FD81F990FB1
:10596000661F771F881F0694A9F7849110951770FA
:1059700041F0D695C79557954795F794E7941A95B2
:10598000C1F7E8E6F0E068941590159135916591BE
:10599000959105907FE27395E118F10A430B560B40
:1059A000C90BD009C0F7E10CF11E431F561FC91FD8
:1059B000D01D7EF4703311F48A95E6CFE89401503F
:1059C00030F0080F0AF40027021708F4202F23955F
:1059D000022F7A3328F079E37D932A95E9F710C0F6
:1059E0007D932A9589F6069497956795379517952F
:1059F0001794E118F10A430B560BC90BD00998F024
:105A000023957E9173957A3308F070E37C9320138D
:105A1000B8F77E9170617D9330F0839571E37D934B
:105A200070E32A95E1F71124EF90FF900F911F91F9
:105A3000CF91DF91992787FD909508950E94602D61
:105A400008F481E00895E89409C097FB3EF490952E
:105A50008095709561957F4F8F4F9F4F9923A9F047
:105A6000F92F96E9BB279395F695879577956795D6
:105A7000B795F111F8CFFAF4BB0F11F460FF1BC01A
:105A80006F5F7F4F8F4F9F4F16C0882311F096E9AD
:105A900011C0772321F09EE8872F762F05C066235B
:105AA00071F096E8862F70E060E02AF09A95660F14
:105AB000771F881FDAF7880F9695879597F90895CD
:105AC000990F0008550FAA0BE0E8FEEF161617060F
:105AD000E807F907C0F012161306E407F50798F077
