:100000000C94E4040C9440210C9419210C94672165
:100010000C9467210C9467210C94DF210C940C053F
:100020000C940C050C940C050C940C050C940C050C
:100030000C940C050C940C050C940C050C940C05FC
:100040000C94CF200C940C050C949D200C947720DC
:100050000C940C050C940C050C940C050C940C05DC
:100060000C940C050C940C05AED580A83FD3004031
:100070008D142002A1C8DA12817FD9F1DB40A4A639
:10008000AF2D4E6577206465736972656420747264
:10009000616E736D697373696F6E207374617465DB
:1000A0003A20002D476F74206563686F003E3E2044
:1000B000726563656976696E67206D6573736167E4
:1000C0006500637C777BF26B6FC53001672BFED7D1
:1000D000AB76CA82C97DFA5947F0ADD4A2AF9CA4D1
:1000E00072C0B7FD9326363FF7CC34A5E5F171D841
:1000F000311504C723C31896059A071280E2EB272F
:10010000B27509832C1A1B6E5AA0523BD6B329E351
:100110002F8453D100ED20FCB15B6ACBBE394A4C31
:1001200058CFD0EFAAFB434D338545F9027F503CB1
:100130009FA851A3408F929D38F5BCB6DA2110FFDD
:10014000F3D2CD0C13EC5F974417C4A77E3D645DDA
:10015000197360814FDC222A908846EEB814DE5E67
:100160000BDBE0323A0A4906245CC2D3AC629195BB
:10017000E479E7C8376D8DD54EA96C56F4EA657AF7
:10018000AE08BA78252E1CA6B4C6E8DD741F4BBD98
:100190008B8A703EB5664803F60E613557B986C145
:1001A0001D9EE1F8981169D98E949B1E87E9CE5562
:1001B00028DF8CA1890DBFE6426841992D0FB0540C
:1001C000BB16434F322050504D3A0021204E4F2055
:1001D000434F4E4E454354494F4E00436F6E6E653C
:1001E0006374656420746F20676174657761792139
:1001F00000434152424F4E000000050720600000BE
:1002000000000000005F00000007000700147F14DA
:100210007F14242A7F2A1223130864623649562049
:10022000500008070300001C2241000041221C006E
:100230002A1C7F1C2A08083E08080080703000082D
:1002400008080808000060600020100804023E5101
:1002500049453E00427F4000724949494621414993
:100260004D331814127F1027454545393C4A4949FA
:100270003141211109073649494936464949291E64
:100280000000140000004034000000081422411453
:1002900014141414004122140802015909063E41A5
:1002A0005D594E7C1211127C7F494949363E4141CD
:1002B00041227F4141413E7F494949417F09090926
:1002C000013E414151737F0808087F00417F410092
:1002D0002040413F017F081422417F404040407F41
:1002E000021C027F7F0408107F3E4141413E7F098E
:1002F0000909063E4151215E7F09192946264949CF
:10030000493203017F01033F4040403F1F2040200E
:100310001F3F4038403F631408146303047804030C
:100320006159494D43007F414141020408102000BA
:100330004141417F0402010204404040404000032B
:1003400007080020545478407F28444438384444F7
:100350004428384444287F385454541800087E09EF
:100360000218A4A49C787F0804047800447D40000F
:100370002040403D007F1028440000417F40007C29
:10038000047804787C080404783844444438FC1821
:1003900024241818242418FC7C0804040848545405
:1003A000542404043F44243C4040207C1C20402032
:1003B0001C3C4030403C44281028444C9090907C99
:1003C0004464544C440008364100000077000000AB
:1003D0004136080002010204023C2623263C680044
:1003E0001980400048656C6C6F2C204920616D209D
:1003F0006120636172626F6E2073656E736F72004D
:100400004F70696E696F6E00436172626F6E206437
:10041000696F786964650044617461207472616E0B
:10042000736D697373696F6E00312E3000436172B2
:10043000626F6E2073656E736F720070706D002155
:1004400020436F727275707465642064617461001A
:1004500021204E6F6E2D73656E736F722064617410
:100460006100212049732074686520434F32207356
:10047000656E736F7220636F6E6E65637465643F43
:100480000052657175657374696E6720646174618B
:100490002066726F6D20434F322073656E736F72EA
:1004A000206D6F64756C65002E0054002E00660090
:1004B00046002E0057004E6F7420616C6C6F77659C
:1004C0006420746F2073656E642074686520434FE8
:1004D0003220646174610042616400506F6F720089
:1004E0004F4B00476F6F640047726561740053653E
:1004F0006E64696E6720434F322076616C75653A91
:100500002000576169742E2E0042414400504F4F25
:1005100052004F4B00474F4F440047524541540053
:1005200044415441204552524F5200434845434BA9
:1005300020574952450020207B7D7B7D7B7D2046D6
:10054000616B6520434F322076616C75653A2000FF
:1005500066616B6520434F32206164646974696F22
:100560006E20616674657220626F756E64732063BD
:100570006865636B3A20006C6173745F6D61783AF3
:1005800020006C6173745F6D696E3A200066616B68
:100590006520434F32206A69747465722061667405
:1005A0006572206D6F76656D656E7420666163742B
:1005B0006F723A200061637475616C206D6F7665AF
:1005C0006D656E7420666163746F723A2000636FAC
:1005D000325F66616B655F646174615F6D6F7665E4
:1005E0006D656E745F666163746F723A2000666C4D
:1005F000697070656420636F696E3A200066616B94
:100600006520434F32206164646974696F6E3A20DB
:100610000046616B696E672068617320656E646572
:10062000640073746F7070696E672066616B696EC9
:10063000672C206D6F76656D656E742066616374DE
:100640006F722073657420746F202D302C393A201E
:100650000073746F7070696E672066616B696E6796
:100660002C206D6F76656D656E7420666163746FA6
:10067000722073657420746F20302C393A20006921
:100680006E6974696174696E672066616B65206468
:1006900061746100557365722077616E74732074A4
:1006A0006F2067656E65726174652066616B652099
:1006B000646174612E0061637475616C206D696E94
:1006C0002D6D61782072616E67653A2000706F74DD
:1006D000656E7469616C206D696E2D6D6178207234
:1006E000616E67653A20006E657720636F32207611
:1006F000616C75657320776173206E6F7420626919
:1007000067676572206F7220736D616C6C65722013
:100710007468616E20726563656E74206D656173C7
:100720007572656D656E74732E006E657720636FEC
:10073000322076616C756520776173206269676726
:100740006572207468616E206D6178696D756D20C9
:10075000666F756E642E006E657720636F3220764B
:10076000616C75652077617320736D616C6C657267
:10077000207468616E206D696E696D756D20666F9D
:10078000756E642E0052657374617274696E6720B1
:100790006D696E2D6D617820616E616C797369731E
:1007A0002061726F756E6420636F322076616C75A4
:1007B00065206F6620006D6561737572656D656E8D
:1007C00074735F66616B656E6573735F72616E678C
:1007D000655F636F756E746572203D20006672659B
:1007E000736820636F322076616C75653A20005F14
:1007F0005F7374617274696E675F5F0053656E64E6
:10080000696E67206E65772064617461207472611F
:100810006E736D697373696F6E2073746174653A7A
:10082000200044617461207472616E736D6973732A
:10083000696F6E20627574746F6E20707265737369
:100840006564200046414B45204441544120544FAB
:1008500047474C454420544F200052096AD5303652
:10086000A538BF40A39E81F3D7FB7CE339829B2F41
:10087000FF87348E4344C4DEE9CB547B9432A6C256
:10088000233DEE4C950B42FAC34E082EA16628D9A3
:1008900024B2765BA2496D8BD12572F8F664866826
:1008A0009816D4A45CCC5D65B6926C704850FDED92
:1008B000B9DA5E154657A78D9D8490D8AB008CBCE5
:1008C000D30AF7E45805B8B34506D02C1E8FCA3FAB
:1008D0000F02C1AFBD0301138A6B3A9111414F67FB
:1008E000DCEA97F2CFCEF0B4E67396AC7422E7ADB3
:1008F0003585E2F937E81C75DF6E47F11A711D295D
:10090000C5896FB7620EAA18BE1BFC563E4BC6D2F5
:1009100079209ADBC0FE78CD5AF41FDDA833880712
:10092000C731B11210592780EC5F60517FA919B50A
:100930004A0D2DE57A9F93C99CEFA0E03B4DAE2A6E
:10094000F5B0C8EBBB3C83539961172B047EBA7793
:10095000D626E169146355210C7D00030C0F30335A
:100960003C3FC0C3CCCFF0F3FCFF000000002400EC
:1009700027002A000000000800020100000304070D
:10098000000000000000000000000000230026001E
:10099000290000000000250028002B0004040404A6
:1009A0000404040402020202020203030303030319
:1009B00001020408102040800102040810200102F6
:1009C000040810201D25782711241FBECFEFD8E082
:1009D000DEBFCDBF11E0A0E0B1E0EAEEF7E502C076
:1009E00005900D92A43AB107D9F724E0A4EAB1E04A
:1009F00001C01D92A43FB207E1F714E0C3EED4E0BA
:100A000004C02197FE010E94C52BC23ED107C9F741
:100A10000E9495260C94E82B0C940000E0E4F2E090
:100A2000A089B18982E08C93A485B5851C92A685A6
:100A3000B78580E18C93108EA489B58986E08C936C
:100A4000A289B3898C9180618C93A289B3898C919E
:100A500088608C93A289B3898C9180688C9302887A
:100A6000F389E02D80818F7D80830895DB01FC0177
:100A7000242F3C91308311963C911197318312962B
:100A80003C911297328313963C91139733832450F1
:100A900014963496243068F72CEF240F269526956B
:100AA00030E02F5F3F4F220F331F220F331F437061
:100AB000DB01A20FB31FFC01E20FF31F415018F03E
:100AC0008D918193FBCF0895EF92FF920F931F9327
:100AD000CF93DF938C017B01D0E0C0E0F701EC0FF6
:100AE000FD1F6491662361F0D801ED91FC910190A6
:100AF000F081E02DC8010995892B11F02196EECFE8
:100B0000CE01DF91CF911F910F91FF90EF9008954B
:100B1000AF92BF92CF92DF92EF92FF920F931F930B
:100B2000CF93DF936C017B018B01040F151FEB0149
:100B30005E01AE18BF08C017D10759F06991D60100
:100B4000ED91FC910190F081E02DC6010995892B72
:100B500079F7C501DF91CF911F910F91FF90EF9031
:100B6000DF90CF90BF90AF900895FC01538D448DDE
:100B7000252F30E0842F90E0821B930B541710F048
:100B8000CF96089501970895FC01918D828D981755
:100B900061F0A28DAE0FBF2FB11D5D968C91928D2D
:100BA0009F5F9F73928F90E008958FEF9FEF08955E
:100BB000FC01918D828D981731F0828DE80FF11D27
:100BC000858D90E008958FEF9FEF0895FC01918D42
:100BD000228D892F90E0805C9F4F821B91098F733B
:100BE0009927089580E492E00E94E60521E0892B90
:100BF00009F420E0822F0895FC01A48DA80FB92FDD
:100C0000B11DA35ABF4F2C91848D90E001968F7334
:100C10009927848FA689B7892C93A089B1898C9153
:100C2000837080648C93938D848D981306C00288A2
:100C3000F389E02D80818F7D80830895EF92FF926C
:100C40000F931F93CF93DF93EC0181E0888F9B8DEF
:100C50008C8D98131AC0E889F989808185FF15C0A9
:100C60009FB7F894EE89FF896083E889F9898081CC
:100C70008370806480839FBF81E090E0DF91CF919B
:100C80001F910F91FF90EF900895F62E0B8D10E0BD
:100C90000F5F1F4F0F731127E02E8C8D8E110CC02C
:100CA0000FB607FCFACFE889F989808185FFF5CF77
:100CB000CE010E94FC05F1CFEB8DEC0FFD2FF11D55
:100CC000E35AFF4FF0829FB7F8940B8FEA89FB89B4
:100CD00080818062CFCFCF93DF93EC01888D882312
:100CE000B9F0AA89BB89E889F9898C9185FD03C08F
:100CF000808186FD0DC00FB607FCF7CF8C9185FF74
:100D0000F2CF808185FFEDCFCE010E94FC05E9CFB7
:100D1000DF91CF91089580E090E0892B29F00E9427
:100D2000F20581110C9400000895833081F028F4BD
:100D3000813099F08230A9F008958730A9F0883089
:100D4000C9F08430B1F4809180008F7D03C0809120
:100D500080008F7780938000089584B58F7784BD5D
:100D6000089584B58F7DFBCF8091B0008F778093FD
:100D7000B00008958091B0008F7DF9CFCF93DF93BD
:100D8000282F30E0F901EC58F64F8491F901E05535
:100D9000F64FD491F901E456F64FC491CC23A1F05B
:100DA00081110E949506EC2FF0E0EE0FFF1FE8572F
:100DB000F64FA591B491EC91ED2381E090E009F418
:100DC00080E0DF91CF91089580E090E0FACF1F930B
:100DD000CF93DF93282F30E0F901EC58F64F849140
:100DE000F901E055F64FD491F901E456F64FC4915C
:100DF000CC23A9F0162F81110E949506EC2FF0E06C
:100E0000EE0FFF1FEE56F64FA591B4918FB7F894F1
:100E1000EC91111108C0D095DE23DC938FBFDF91D8
:100E2000CF911F910895DE2BF8CFCF93DF9390E001
:100E3000FC01E055F64F24918456964FFC018491B5
:100E40008823C9F090E0880F991FFC01E659F64FFE
:100E5000A591B491FC01EE56F64FC591D491611164
:100E60000DC09FB7F8948C91209582238C93888134
:100E7000282328839FBFDF91CF910895623051F4DA
:100E80009FB7F8943C91822F809583238C93E881BF
:100E90002E2BEFCF8FB7F894EC912E2B2C938FBF86
:100EA000EACF3FB7F8948091380290913902A0912F
:100EB0003A02B0913B0226B5A89B05C02F3F19F01E
:100EC0000196A11DB11D3FBFBA2FA92F982F8827CA
:100ED000BC01CD01620F711D811D911D42E0660FA5
:100EE000771F881F991F4A95D1F708958F929F9277
:100EF000AF92BF92CF92DF92EF92FF926B017C0193
:100F00000E9451074B015C01C114D104E104F104BA
:100F1000B9F00E945107681979098A099B09683E4E
:100F200073408105910580F321E0C21AD108E108E0
:100F3000F10888EE880E83E0981EA11CB11CE4CF56
:100F4000FF90EF90DF90CF90BF90AF909F908F90E9
:100F500008952FB7F8946091340270913502809112
:100F60003602909137022FBF08950895CF93DF93F3
:100F7000EC018D85882329F081508D87DF91CF91F9
:100F800008959C818E819817C8F788896827E88121
:100F9000F9810084F185E02D42E0CE0109958C8134
:100FA0008F5F8C83EBCF2091310230913202281772
:100FB000390771F49091300280912F02981741F017
:100FC000E0913002F0E0E151FE4F808190E0089521
:100FD0008FEF9FEF08950895EF92FF920F931F9365
:100FE000CF93DF93DC015C96ED90FC905D97E1146C
:100FF000F10479F481E090E013969C938E9312971C
:1010000090E080E0DF91CF911F910F91FF90EF90E2
:1010100008955196ED91FC91529750968C9150976E
:10102000982F90950FB75E962C915E97122F1270A5
:1010300021FD6095F8942081112319F1282B20833C
:10104000E7012197F1F728E0462F50E0308160FF5B
:101050001AC0382B3083E7012197F1F7BA01759553
:101060006795215089F7112381F08081892380833E
:101070000FBF5C968D919C910197F1F781E090E014
:10108000C1CF2923DCCF3923E5CF9081892BEFCF46
:1010900020913102309132022817390771F4809182
:1010A0002F022091300290E0805C9F4F821B9109BB
:1010B00060E470E00E949D2B089590E080E0089528
:1010C000209131023091320228173907B9F49091FA
:1010D000300280912F02981789F0E0913002F0E001
:1010E000E151FE4F80812091300230E02F5F3F4F71
:1010F0002F7333272093300290E008958FEF9FEFF6
:101100000895FC016093BC008091BC0087FFFCCF78
:101110009091B900987F90830895DF92EF92FF92AB
:101120000F931F93CF93DF93EC01D62EF42E8C896F
:10113000882351F0411108C084E98093BC0080915C
:10114000BC0084FDFCCF1C8A8E010E5E1F4F8C8973
:1011500081111AC0EB8864EAC8010E9481088A895B
:10116000883011F0803139F4EE0CE092BB0064E875
:10117000C8010E94810880E0F11080E48093BB00E8
:1011800064E8C8010E948108D092BB0064E8C801ED
:101190000E94810882E0F8120BC08C898F5F8C8BD3
:1011A000DF91CF911F910F91FF90EF90DF90089505
:1011B00084E98093BC008091BC0084FDFCCF1C8A34
:1011C000EFCFDC01ED91FC910084F185E02D40E052
:1011D00009940F931F93CF938C01FC016483C08506
:1011E000C60F6C2F6F700E94E1086C2F62956F70B4
:1011F0006061C801CF911F910F910C94E108FC012F
:101200002781269526952695621738F465832385D0
:10121000620F6770606B0C94E10808951F93CF9381
:10122000DF93EC01142F8E81681718F4CE010E9411
:10123000E908612FCE01DF91CF911F910C94FF0837
:10124000CF92DF92EF92FF920F931F93CF93DF9392
:10125000EC01F62EC42ED22E1D868F8186958695A2
:101260008695081710F00FEF080F1D2D011780F05D
:10127000412F6F2DCE010E940E09EF2CCE1430F0BD
:101280006889CE010E94B607E394F8CF1F5FEECFC6
:101290004D2D6F2DCE01DF91CF911F910F91FF90BA
:1012A000EF90DF90CF900C940E090F93DC01159610
:1012B0002C9115971E96ED91FC911F9700E03097A9
:1012C00079F03396E491F0E0379683E0F595E79571
:1012D0008A95E1F751960C9151970E9F002D11249C
:1012E000EFEFE20F0E0F16964C91169741501496A1
:1012F0006C911497CD010E9420090F9108952F92AF
:101300003F924F925F926F927F928F929F92AF9295
:10131000BF92CF92DF92EF92FF920F931F93CF93E2
:10132000DF9300D000D000D0CDB7DEB7FC0126851A
:1013300037852115310509F44AC19E838D83F90152
:101340003296649031964491E42EF12CF7E0EF0E42
:10135000F11C53E0F594E7945A95E1F7E982F9011D
:10136000349654913196E491651748F08E2F90E0B1
:10137000FC01E50FF11D6E171F060CF469C06D30FE
:1013800031F5ED81FE81868181111BC081E090E005
:1013900026960FB6F894DEBF0FBECDBFDF91CF917A
:1013A0001F910F91FF90EF90DF90CF90BF90AF9083
:1013B0009F908F907F906F905F904F903F902F9075
:1013C000089560E08D819E810E94E908DFCF6A3038
:1013D00009F0FDC0ED81FE818681882321F060E067
:1013E000CF010E94E908ED81FE8181898E9DE02C6C
:1013F000112465816E0D8485882349F09781969527
:10140000969596958E2D891B860F18162CF08D813A
:101410009E810E94FF08BACFED81FE812385820F55
:10142000877083879E199583CF010E945509ED81AE
:10143000FE818485813009F0A9CF6385660F660F30
:10144000660F6F7362876064CF010E94E1089ECFD0
:1014500089010A5F1F4F651BED81FE8171855189EE
:10146000759F502D11245C83F90154912F5F3F4FDC
:10147000F9012491352F2230310508F06AC06E9CA5
:10148000C0016F9C900D1124689FF001699FF00DC1
:1014900011240E0F1F1F512CED81FE81F481FA8360
:1014A000ED81FE812580F585FB83862C912CAA2475
:1014B000A394B12C312C8981381608F086C0412CB8
:1014C000ED81FE818189481608F078C08B8185877F
:1014D000311002C0442041F0ED81FE8145814F5F13
:1014E0006A81CF010E940E09D12CC12CC61408F0CC
:1014F00058C0F801EC0DFD1D7490552061F0EA1400
:10150000FB0449F4E72DF0E0052C02C0F595E795C2
:101510000A94E2F77E2EED81FE818189823081F48A
:10152000442009F43AC072948FE07822E72DF0E06D
:10153000E65AF64F7490672D8D819E810E94B60702
:10154000672D8D819E810E94B6078FEFC81AD80A39
:10155000CDCF477028E0522E541A411101C0512CB2
:10156000F801612C30E020E0661631F04491240F40
:10157000311D63943196F8CF600E712E711CF3010A
:101580006490E29EF001E39EF00DF29EF00D1124B6
:101590008E0F9F1F080F191F7FCFF72DFF707F2E13
:1015A000C5CFD12CEC81DE1639F060E08D819E81B3
:1015B0000E94B607D394F6CF439482CF3394080D9C
:1015C000191DFFEFAF1ABF0A76CF622D20CF90E032
:1015D00080E0DECEFC018381877088608383848114
:1015E0008F71806284836783CF010895E091E00169
:1015F000F091E101309721F00280F381E02D099410
:1016000008950F931F930E94A9070091E201109182
:10161000E3012091E4013091E501601B710B820B25
:10162000930B1F910F9108959C018091E00190917F
:10163000E10182179307F1F09091EA019F71909375
:10164000EA013093E1012093E001E091E001F091A3
:10165000E101309721F00190F081E02D09950E9481
:10166000A9076093E2017093E3018093E4019093F2
:10167000E50108958091EA01805E8093EA01E5CF5B
:101680000F931F930E94010B2091EB0120772037CD
:1016900079F000E117E220E030E00617170728078D
:1016A000390758F485E391E01F910F910C94140BC6
:1016B00000E61AEE20E030E0F0CF1F910F91089580
:1016C0008091EB018F70863020F088E191E00C94DE
:1016D000140B08958091EA0184608093EA0180915F
:1016E000EB0180788093EB01E091DC01F091DD016A
:1016F000309709F009940895CF93C091EC01CF3F42
:10170000A1F00E94A9076093E6017093E70180931E
:10171000E8019093E90180913E02C813C0933E0214
:1017200084E191E0CF910C94140B0E94010B613D78
:1017300077408105910568F08091EA01803618F4C0
:1017400080E191E0EFCF877F8093EA0188E191E02B
:10175000E9CFCF91089580913C028F3F21F080E145
:1017600091E00C94140B0E94010B613D77408105C0
:10177000910550F08091EA01803618F48CE091E0F8
:10178000F0CF88E091E0EDCF08950E94010B613D1C
:1017900077408105910520F48091EA0181FF17C00F
:1017A00080913D028F3F49F08091EA018E7F8093C6
:1017B000EA018CE091E00C94140B8091EA018036F0
:1017C00018F488E191E0F7CF88E091E0F4CF089534
:1017D000CF93DF93FC01EB01DA019C01205F3F4FC7
:1017E00088819C9189278083898111969C9111978A
:1017F000892781838A8112969C91129789278283F7
:101800008B8113969C911397892783833496249612
:101810001496E217F30721F7DF91CF910895FC01A9
:10182000DB019C01205F3F4F80819C918927808351
:10183000818111969C9111978927818382811296CB
:101840009C91129789278283838113969C91139789
:101850008927838334961496E217F30729F70895AE
:10186000089590E080E008950E94CB2BFB01019049
:101870000020E9F73197AF01461B570BDC01ED91D2
:10188000FC910280F381E02D0994CF93DF93BC019A
:1018900080E492E00E946405EC016EE771E080E470
:1018A00092E00E94360C8C0F9D1FDF91CF9108951E
:1018B0008F929F92AF92BF92EF92FF920F931F93DE
:1018C000CF93DF93CDB7DEB7A1970FB6F894DEBF05
:1018D0000FBECDBF7C01FA01CB0119A2223008F462
:1018E0002AE08E010F5D1F4F822E912CB12CA12C6E
:1018F000BF01A50194010E944D2AF901CA016A3075
:101900000CF5605DD8016E938D01232B242B252BC4
:1019100079F790E080E0109721F0BD01C7010E94A7
:10192000360CA1960FB6F894DEBF0FBECDBFDF9187
:10193000CF911F910F91FF90EF90BF90AF909F902C
:101940008F900895695CDECFCF92DF92EF92FF9285
:101950000F931F93CF93DF93EC016A017B01E88122
:10196000F9810190F081E02D6DE209958C01442709
:101970005527BA014C195D096E097F092AE0CE018D
:101980000E94580C800F911FDF91CF911F910F91F2
:10199000FF90EF90DF90CF900895CF93DF93AC014D
:1019A000990F660B770B77FF10C080E492E00E94DE
:1019B000A40CEC016EE771E080E492E00E94360C2A
:1019C0008C0F9D1FDF91CF9108952AE080E492E073
:1019D0000E94580CEECFAB01770F660B770B77FDAB
:1019E0000C94A40C2AE00C94580C4F925F926F92C6
:1019F0007F928F929F92AF92BF92CF92DF92EF929F
:101A0000FF926B017C01AC019B010E94982B61E865
:101A100071E081111AC046015701E894B7F82FEF21
:101A20003FEF4FE75FE7C501B4010E94982B81119A
:101A300026C02FEF3FEF4FE75FE7C501B4010E94DB
:101A4000BD281816E4F465E871E080E492E00E9495
:101A5000360C7C016EE771E080E492E00E94360C67
:101A60008E0D9F1DFF90EF90DF90CF90BF90AF90B5
:101A70009F908F907F906F905F904F9008952FEF81
:101A80003FEF4FE75FE4C701B6010E94932B1816A2
:101A90001CF469E871E0D9CF2FEF3FEF4FE75FEC1F
:101AA000C701B6010E94BD2887FDF3CF20E030E0DA
:101AB000A901C701B6010E94BD28B12CA12C87FF46
:101AC0000AC06DE280E492E00E941E065C01F7FA13
:101AD000F094F7F8F0942AE037ED43EA5BE3C701AE
:101AE000B6010E947F2A2B013C010E94642B6B01EE
:101AF0007C010E94C2289B01AC01C301B2010E947B
:101B00007E2A2B013C012AE0B701A60180E492E085
:101B10000E94580C7C01EA0CFB1C6EE280E492E00F
:101B20000E941E06E80EF91E20E030E040E251E47B
:101B3000C301B2010E9423292B013C010E94642BA6
:101B40004B01B12CA12C2AE0B501A40180E492E064
:101B50000E94580CE80EF91EC501B4010E94C2286B
:101B60009B01AC01C301B2010E947E2A20E030E05B
:101B700040E251E40E9423290E94642BAB0170E0F3
:101B800060E02AE080E492E00E94580CE80EF91E22
:101B900061CFCF93DF93BC0180E492E00E94360CCA
:101BA000EC016EE771E080E492E00E94360C8C0F4D
:101BB0009D1FDF91CF910895EAEEF1E08081877F4C
:101BC0008F7E80831092E6011092E7011092E80167
:101BD0001092E90144E050E070E060E08CE392E0B4
:101BE0000C94E129EF92FF920F931F93CF93DF9311
:101BF000EC017B0180E06115710531F0CB010E94A1
:101C00007D288931910518F5082F10E09B81977088
:101C1000980143E0220F331F4A95E1F7922B9B83F3
:101C20009C819F719C83882331F0A801B701CE016C
:101C300007960E948628FE01E00FF11F1782CE0151
:101C4000DF91CF911F910F91FF90EF90089589E15F
:101C5000DBCF91E59CBD91E09DBD2998E3E2F0E0EA
:101C60003197F1F78EBD00000DB407FEFDCF8EB5A4
:101C7000FB019FEF4150C8F0222361F09EBD0000A0
:101C80000DB407FEFDCF8EB56115710599F3808304
:101C90003196F0CFDF01119680818EBD00000DB42A
:101CA00007FEFDCF8EB5FD01E5CF299AE3E2F0E016
:101CB0003197F1F70895CF93DF931F92CDB7DEB739
:101CC000698320E041E0BE016F5F7F4F0E94290ED3
:101CD0000F90DF91CF9108958091EB01982F90772D
:101CE000903759F0982F92959F709F5F97709295BB
:101CF000907F8F78892B8093EB018091EA018B7F15
:101D00008F7E8093EA012A986CE080E20C945B0E4F
:101D10006FE080E20E945B0E609139016F3F19F025
:101D20008AE20E945B0E2A9A0895CF93C82F80936F
:101D30003C028F3F51F08093390163E082E20E94C0
:101D40005B0E61E081E20E945B0E0E94880E6C2FA8
:101D500090E080E00E94092A81E0CF91089521E07F
:101D600041E070E060E00C94290E20E040E070E07B
:101D700060E00C94290E0F931F93CF93DF93EC0137
:101D8000E0E06115710551F0FB0101900020E9F7D9
:101D90003197E61BF70BE931F10500F50E2F10E046
:101DA0008B818770980193E0220F331F9A95E1F79A
:101DB000822B8B838C818F718C83EE2329F0A80179
:101DC000CE0107960E94D92BFE01E00FF11F17826A
:101DD000CE01DF91CF911F910F910895E9E1DECF00
:101DE000FC012481229526952770213011F48781EA
:101DF0000895211104C007960E943828089580E0B4
:101E00000895CF93DF93EC018DEA90E00E94450C9A
:101E100081E08093C5018C8184FF06C083EA90E055
:101E2000DF91CF910C94450C8D818230C9F48E8165
:101E30008330B1F4CE010E94F00E91E0811101C017
:101E400090E09093330161E870E080E492E00E94BA
:101E500064058091330190E0DF91CF910C94CD0C1B
:101E6000DF91CF9108952F923F924F925F926F92A0
:101E70007F928F929F92AF92BF92CF92DF92EF921A
:101E8000FF920F931F93CF93DF93CDB7DEB7A29747
:101E90000FB6F894DEBF0FBECDBFB82E80913C02C6
:101EA000FB018083138112FDEDC0169516951695E2
:101EB000195FF0913F02F9A3F170FAA3412F11329B
:101EC00008F040E250E085EA91E00E94D02B1092A9
:101ED000D1041092D2041092D3041092D404109220
:101EE000D5041092D6041092D7041092D804109200
:101EF000D9041092DA041092DB041092DC041092E0
:101F0000DD041092DE041092DF041092E0041092BF
:101F1000C9041092CA041092CB041092CC041092FF
:101F2000CD041092CE041092CF041092D00400E29F
:101F3000902E113110F410E1912EE92CE294FFE083
:101F4000EF22F12CA5EACA2EA1E0DA2E8E010F5E57
:101F50001F4FBBE1AB2EB60181ED94E00E940F0C48
:101F60008091D7039091D803892B09F40BC149EDD7
:101F700053E061ED74E0C8010E94E80B882483946B
:101F8000482D50E08091D7039091D8034817590706
:101F90000CF07AC09801DE0111966FE0362E7AE0DF
:101FA000572EE5E04E2EF801E40DF11D708084E01F
:101FB000840D8F70482EF801E50DF11D808194E0AD
:101FC000950D9F70592EF801E30DF11D908164E08D
:101FD000630D6F70362EF9016081E62FF0E0EE534D
:101FE000FF4F7491E72DF0E0EE53FF4F6491E82F1F
:101FF000F0E0EE53FF4F8491E92FF0E0EE53FF4FF6
:102000009491672E660C77FD6A24E62FEE0F67FD2C
:10201000EA25282E220C87FD2A24792E770C97FD9D
:102020007A24F62FF827F927F625FE27FC93F72FB9
:10203000F827F927FE27F2251196FC9311976727B9
:1020400096272926272412962C92129786276826EF
:10205000762413967C9213972C5F3F4F14960A17A1
:102060001B0709F0A0CF94E0440F551F9A95E1F7A4
:1020700047525C4FBE016F5F7F4FC8010E94E80B63
:1020800083947ECF10E215CFE989F0E0EE53FF4F45
:10209000E491E98BED89F0E0EE53FF4FE491ED8B95
:1020A000E98DF0E0EE53FF4FE491E98FED8DF0E024
:1020B000EE53FF4FE491ED8F8A89EE89F0E0EE5305
:1020C000FF4FE491EA8BEA8DF0E0EE53FF4FE4918D
:1020D000EE8BEE8DF0E0EE53FF4FE491EA8FE82FA8
:1020E000F0E0EE53FF4FE491EE8F8B89EB8DF0E043
:1020F000EE53FF4FE491EB8BE82FF0E0EE53FF4FF0
:10210000E491EB8F8F89EF8DF0E0EE53FF4FE49178
:10211000EF8BE82FF0E0EE53FF4FE491EF8F88A1B3
:10212000EC8DF0E0EE53FF4FE491E8A3E88DF0E092
:10213000EE53FF4FE491EC8FEC89F0E0EE53FF4F4C
:10214000E491E88FE82FF0E0EE53FF4FE491EC8B41
:1021500084E0440F551F8A95E1F747525C4FB80160
:1021600081ED94E00E94E80B40E161ED74E0C6016E
:102170000E943605F0E1CF0ED11C81E0E81AF1088B
:1021800009F0E9CE2A9883E092E00197F1F76EE03A
:1021900080E20E945B0E8BE891E00197F1F76B2DD6
:1021A0008AE20E945B0E6B2D80E30E945B0E81EE43
:1021B0000E94B50EEFEFBE1619F0FAA180EAF111F8
:1021C00080EB20E0492D65EA71E00E94290E2A9AF1
:1021D000F12CE12C8FEF0E94B50E182F807321F4A3
:1021E00081E0E81AF108B1F72A9860E387E20E94DB
:1021F0005B0E14FF03C081EE0E94B50E0E94880E94
:1022000015FF02C0E1E0E9A391E0FFEFBF1290E00B
:1022100089A18170892BA2960FB6F894DEBF0FBEFC
:10222000CDBFDF91CF911F910F91FF90EF90DF9085
:10223000CF90BF90AF909F908F907F906F905F9066
:102240004F903F902F9008950F931F93CF938C0141
:10225000FC0182819091EA0190FF04C08F3F51F50B
:10226000CFEF04C0811116C0C0913D02B8018C2F80
:102270000E94330F90913D029C1313C09091EB018B
:10228000811113C021E0290F2F70907F922B909322
:10229000EB0107C08F3F21F3B8010E94330F882361
:1022A00019F3CF911F910F910895907F9093EB01B7
:1022B00081E0F7CF80E0F5CF2091EA0122FD0C9478
:1022C000241180E00895E5E9F3E090913C029183C8
:1022D0001282868365838481807E8483BA01CF01E4
:1022E0000E94F20D0C945C1120913C02FC012183B0
:1022F000F8E06F9FB00111246160FC012481207F10
:10230000622B64832091DF0120FD0C945C1180E03E
:102310000895EF92FF921F93CF93DF93C5E9D3E027
:102320008CE3E82E82E0F82EF701808189831A82FF
:102330001FEF1E838BE08D838C81807E83608C8376
:102340006DE274E0CE010E94F20D0E945C11F70173
:10235000808189831A821E838CE08D838C81807EAC
:1023600083608C8369E274E0CE010E94F20D0E94CA
:102370005C1164E670E080E090E00E94531647E153
:1023800054E063E083E00E94631164E670E080E063
:1023900090E00E94531648E054E066E182E00E941B
:1023A000631164E670E080E090E00E94531640E024
:1023B00054E064E285E00E94631164E670E080E02E
:1023C00090E00E94531681E080933401DF91CF9119
:1023D0001F91FF90EF900895FF920F931F93CF935B
:1023E000DF93C5E9D3E00CE312E0F8018081898333
:1023F0001A82FF24FA94FE828FE08D838C81807E86
:1024000083608C8360E871E0CE010E94BB0E8B81FB
:10241000877080618B838C818F71806C8C8381E06D
:102420008F831886CE010E945C118FE00E942016D7
:10243000F801808189831A82FE8281E18D838C81FB
:10244000807E8C836DE871E0CE010E94BB0E0E94FD
:102450005C11F801808189831A82FE8286E08D8377
:102460008C81807E83608C836181CE010E94EA0A28
:102470000E945C1186E00E942016DF91CF911F918F
:102480000F91FF900C9489112F923F924F925F927F
:102490006F927F928F929F92AF92BF92CF92DF9274
:1024A000EF92FF920F931F93CF93DF93CDB7DEB7D9
:1024B000E9970FB6F894DEBF0FBECDBF26E02BAB79
:1024C0001BE187E10E94AF0E80FD9BC33BA9315009
:1024D0003BAB332309F495C321E041E070E060E0B9
:1024E00080E60E94290E082F813220F082EE0E94A1
:1024F000B50E00E021E0402F66EB73E081E60E941C
:10250000290E60E487E20E945B0E1092D1041092C3
:10251000D2041092D3041092D4041092D5041092D5
:10252000D6041092D7041092D8041092D9041092B5
:10253000DA041092DB041092DC041092DD04109295
:10254000DE041092DF041092E0041092C90410928D
:10255000CA041092CB041092CC041092CD041092B5
:10256000CE041092CF041092D004013108F463C15C
:1025700082E090E09AAB89ABE6EB2E2EE3E03E2EB4
:10258000E9A9FAA93197FAABE9AB319609F471C11F
:1025900040E1B101CE0181960E9436054091D703FA
:1025A0005091D8034115510509F463C174E0440FFB
:1025B000551F7A95E1F747525C4FB101CE01419624
:1025C0000E94E80BE989F0E0E65AF74FE491E98BC5
:1025D000ED89F0E0E65AF74FE491ED8BE98DF0E0FC
:1025E000E65AF74FE491E98FED8DF0E0E65AF74FA8
:1025F000E491ED8F8E8DEA8DF0E0E65AF74FE4918D
:10260000EE8FEE89F0E0E65AF74FE491EA8FEA891F
:10261000F0E0E65AF74FE491EE8BE82FF0E0E65A4F
:10262000F74FE491EA8B8B89EB8DF0E0E65AF74F98
:10263000E491EB8BE82FF0E0E65AF74FE491EB8F53
:102640008F89EF8DF0E0E65AF74FE491EF8BE82F9A
:10265000F0E0E65AF74FE491EF8F8C89E88DF0E0D7
:10266000E65AF74FE491EC8BEC8DF0E0E65AF74F29
:10267000E491E88FE8A1F0E0E65AF74FE491EC8F9F
:10268000E82FF0E0E65AF74FE491E8A30091D70372
:102690001FAA1EAA8FEF800FA82FB0E0B9AFA8AF76
:1026A000015009F4CDC048AD59ADEEA9FFA94E1BAC
:1026B0005F0B64E0440F551F6A95E1F747525C4F8A
:1026C000BE016F5E7F4FCE0101960E94E80B9E0116
:1026D0002F5F3F4F7901CE0141969DAB8CABA5E0BA
:1026E000B0E0F7019081818132812381792F770FCA
:1026F00097FD7127B82EBB0C87FDB126C32ECC0CDD
:1027000037FDC126622F660F27FD6127472F440F33
:1027100077FD41274B2C440CB7FE04C05B2D550FB1
:10272000452E41269C2C990CC7FC9126A62EAA0C5E
:1027300067FDA126D42EDD0C47FF04C0542F550F92
:10274000D52ED126542D550F47FC5127F92DFF0FBB
:1027500097FCF127EA2DEE0FA7FCE127792E7D24C7
:10276000582E5526832E8F26622E6E264D255425F3
:102770009F26AE26E32FE727EB25E427E525E9256D
:10278000E625F0E0E65AF74F3491ECA9FDA9308335
:10279000E22FEB25EC25E725E527E825EA25F0E003
:1027A000E65AF74FD490FD01EF70FF2721E130E0AA
:1027B0002C0F3D1FE20FF31FD0829C25962749273F
:1027C000542695246924E62DF0E0E65AF74F6490EC
:1027D000FD013596EF70FF2721E130E02C0F3D1F02
:1027E000E20FF31F6082E82FE727E627E7255E2741
:1027F000E52FE825AE26EA2DF0E0E65AF74FA49043
:10280000FD013A96EF70FF27E20FF31FA08294E0DC
:10281000E90EF11C2CA93DA92C5F3F4F3DAB2CAB21
:102820001496A531B10509F05CCF8EA99FA9019638
:102830009FAB8EAB35CFA1E0B0E0BAABA9AB9CCEDD
:1028400049ED53E0BE016F5E7F4FC1010E94E80B6E
:1028500061ED74E0C1010E940F0C40E1BE016F5DAB
:102860007F4F81ED94E00E94360590E1290E311CE6
:1028700087CE3091B903832F8370823009F021CE47
:102880002091BA03A22FA770EA2E0091BB03F0900B
:10289000B7038091B6034091B8039091EB01906823
:1028A0009093EB0190913C02491376C1832F86955A
:1028B000869586958A3108F089E190E03770BC01F1
:1028C00053E0660F771F5A95E1F7362B3093B90323
:1028D0008A549C4FFC01178223FF15C081E2E6EB6E
:1028E000F3E0A5E9B3E001900D928A95E1F7277F27
:1028F00020612093990340939603F092970385E912
:1029000093E00E945C119091BA0394FD3DC1F3E005
:10291000EF123AC18091BB0321EF280F233008F456
:10292000D0CD0430C1F48091BC0390913A01891755
:1029300019F08F3F09F0C5CD86EB93E00E94F00EB1
:102940009FEF980F9E3F18F40E94950EBACD8FEF1F
:1029500080933C02B6CD0830D9F40091EA0100FF23
:10296000B0CD86EB93E00E94F00E8F3F09F4A9CD25
:102970008F5F8F3F09F4A5CD90913E02891708F033
:10298000A0CD01FD9ECD80933E02F0923D0299CDF7
:102990000831C1F480913C0280939603F092970332
:1029A0008FEF80939B0389E180939A038091990331
:1029B000807E83608093990361E085E993E00E94C3
:1029C000EA0A32C0093171F48091EA0183FF79CDBE
:1029D000877F8093EA0186EB93E00E94F00E80935C
:1029E000EC016FCD0E3109F46CCD0D3101F5809104
:1029F0003C0280939603109297038FEF80939B0382
:102A00008FE180939A0383E48093990380919803E4
:102A1000877080618093980380E09FEF90939D037F
:102A200080939C0385E993E00E9424114ACD209174
:102A3000B7032111AEC08D3059F488E198E00FB68C
:102A4000F894A895809360000FBE90936000FFCF2C
:102A50008B3179F486EB93E00E94F00E91E08111C6
:102A600001C090E08091DF0190FB80F98093DF014D
:102A700028CD863099F49091BD0381E0992319F017
:102A80009D3409F080E08093DE0141E050E063E096
:102A900071E08EED91E00E94F92913CD833119F494
:102AA0000E94EC110ECD823121F50E94010B209184
:102AB0003C0220939603109297032FEF20939B03E1
:102AC00026E120939A0323EA209399032091980307
:102AD000277020622093980360939C0370939D035A
:102AE00080939E0390939F0385E993E00E945C117D
:102AF000E8CC823009F590913C02909396031092B5
:102B000097039FEF90939B0380939A0383EA8093AC
:102B100099038091980387708062809398038FEF68
:102B200091E0A3E0B2E080939C0390939D03A09377
:102B30009E03B0939F03D8CF813001F520E030E0B1
:102B4000232B09F4BECC929596959770953059F445
:102B50006091BD037091BE038091BF039091C0034B
:102B60000E940000AECC911105C08DEB93E00E9455
:102B70005628F6CF60E070E0CB01F2CF8A3009F43E
:102B8000A0CC8C3109F49DCC86EB93E00E94010F20
:102B900098CC8A31C9F795CC4F3F09F092CC93E09D
:102BA000A9132AC09091EA0192FF03C0073009F4EB
:102BB00088CC043109F085CC90913D02891381CCF9
:102BC0000E94A9077370882799270E947607809131
:102BD0003C0280939603F09297038FEF80939B03C0
:102BE00085E180939A0380919903807E836080932E
:102BF000990360913D02E1CE90913D02891361CC31
:102C0000C3CFE9960FB6F894DEBF0FBECDBFDF91FC
:102C1000CF911F910F91FF90EF90DF90CF90BF90D9
:102C2000AF909F908F907F906F905F904F903F906C
:102C30002F9008958091EA0184FD0C944412089528
:102C4000CF92DF92EF92FF92CF93DF93D82F0E9423
:102C5000A9076B017C011092BB03C0E00E94A90789
:102C60006C197D098E099F09603D774081059105AA
:102C700090F4C11110C0A8950E94F60A0E941A167D
:102C80008091BA038770833049F7C1E08091BB031C
:102C90008D13E3CFE3CF8C2FDF91CF91FF90EF9097
:102CA000DF90CF9008958F929F92AF92BF92CF9274
:102CB000DF92EF92FF924B015C010E94A9076B012A
:102CC0007C010E94A9076C197D098E099F0968156E
:102CD00079058A059B0530F4A8950E94F60A0E94A2
:102CE0001A16EFCFFF90EF90DF90CF90BF90AF908C
:102CF0009F908F900895EF92FF920F931F93CF9321
:102D00000E940E0568EC70E080E090E00E9453168F
:102D100084EE93E00E94450C80EA91E00E94F12944
:102D200091E0811101C090E09093330160E085E073
:102D30000E94150761E086E00E94150762E088E0C6
:102D40000E94150762E087E00E9415071092940325
:102D50008CE3809393031092B9008CE08093B800C9
:102D60001092840310928503EEEDF3E0E590F49069
:102D7000E0EEF3E0C491E1EEF3E0E491E09386034A
:102D8000E2EEF3E0E491E0938703E3EEF3E0E49115
:102D9000E093880310E000E00C1758F4F701E00F0F
:102DA000F11F649180E893E00E94E1080F5F1F4FDC
:102DB000F3CF10928B0310928A0360E480E893E0D3
:102DC0000E94E1080091870306950695069501503B
:102DD00040918603415020E060E080E893E00E944B
:102DE0002009E8EFF1E0F0938F03E0938E038491E4
:102DF000E9EFF1E0E491F82F319709F0D1C010929A
:102E000089036FEA80E893E00E94E10810928C0346
:102E100040E060E080E893E00E940E0961EF71E01D
:102E200080E893E00E9464058091EA0182FFBCC0C3
:102E30008BED91E00E94450C81E08093C50160ED2F
:102E400077E080E090E00E94531610927C0310928D
:102E50007B0310927A0310927903109278031092F8
:102E600077038DE991E090937E0380937D039091A9
:102E70006D03963108F047C02DEB30E030937803B6
:102E8000209377032BE931E030937A032093790381
:102E90002CE231E030937C0320937B032091680087
:102EA00084E0983048F031E09E3008F430E081E072
:102EB00001C0880F3A95EAF7822B809368002DE6CF
:102EC00030E0983050F02BE630E09E3030F02CE6C9
:102ED00030E0963110F030E020E03093750320931D
:102EE0007403292F30E0983008F063C081E001C0FE
:102EF000880F9A95EAF78093760380917D039091ED
:102F00007E030197F1F780917B0390917C03892BDD
:102F100049F1E0913102F091320283E0E136F807A5
:102F200009F1309739F0A389B4899C9185898095FE
:102F300089238C9380917F038E7F80937F031092EF
:102F40002F021092300281E693E090933202809338
:102F50003102E0917403F0917503808190917603C2
:102F6000892B808340913101415060E080E893E0FB
:102F70000E940E0962EC71E080E893E00E94640513
:102F800088E199E20FB6F894A895809360000FBE8F
:102F900090936000CF911F910F91FF90EF90089553
:102FA00081E0809389032DCF8BEC91E00E94450C4A
:102FB00046CF9E3040F42850310981E001C0880F8F
:102FC0002A95EAF798CF2E503109F7CF4F925F92AA
:102FD0006F927F928F929F92AF92BF92CF92DF9229
:102FE000EF92FF920F931F93CF93DF93CDB7DEB78E
:102FF00062970FB6F894DEBF0FBECDBF809134014B
:10300000882309F455C01092340183E0809346036D
:1030100090913301809143038770886080934303CC
:10302000809144038F71806280934403909347039F
:1030300060E080E493E00E94741164E670E080E058
:1030400090E00E94531680913301882389F112E0A9
:10305000109325036BE374E08FE193E00E94F20D7F
:1030600060E00E94741164E670E080E090E00E94ED
:1030700076072091D3013091D4012F3541E03407F8
:10308000BCF010930403809102038F7180648093DD
:103090000203809101038770806180930103309364
:1030A00006032093050361E08EEF92E00E94741105
:1030B00087E00E94BE06892BB9F48091DB0191E084
:1030C00089278093DB0164E478E080E492E00E9449
:1030D00064058091DB0190E00E94CD0C64EF71E00B
:1030E00080E090E00E94531688E00E94BE06892B83
:1030F00061F56091330181E068276093330180EAD4
:1031000091E00E94092A82E298E00E94450C64EF57
:1031100071E080E090E00E94531683E080934603C4
:1031200090913301809143038770886080934303BB
:10313000809144038F71806280934403909347038E
:1031400060E080E493E00E9474116091330180910B
:103150003201681749F16093320180EA91E00E94E0
:10316000092A6CEF77E080E492E00E946405809188
:10317000330190E00E94CD0C83E080934603909150
:10318000330180914303877088608093430380916B
:1031900044038F718062809344039093470360E0FF
:1031A00080E493E00E9474110E94A9070091D70166
:1031B0001091D8012091D9013091DA016B017C0185
:1031C000C01AD10AE20AF30A97018601093E1340A8
:1031D0002105310508F468C36093D7017093D801C5
:1031E0008093D9019093DA018091D5019091D60115
:1031F00001969093D6018093D501CC9774F06EE739
:1032000071E080E492E00E94360C8FEE97E00E941D
:10321000450C1092D6011092D501A89511E010939B
:10322000910340E064E680E893E00E940E098091FB
:10323000D5019091D6016CE370E0681B790B80E8B2
:1032400093E00E94EB0C80E893E00E94550983E034
:10325000809331018091D5019091D6018130910503
:1032600009F09FC481E693E00E9460088C010F3F43
:103270001007C1F789E0E3E4F1E0DE011196019067
:103280000D928A95E1F781E894E00E94450C49E0AF
:1032900050E0BE016F5F7F4F81E693E00E9488059A
:1032A0006E0193E1C90ED11CFE013A967F010E9486
:1032B000A9076093690370936A0380936B039093EB
:1032C0006C0381E693E00E94600897FF09C50E94A5
:1032D000A9078090690390906A03A0906B03B09057
:1032E0006C03681979098A099B098090650390909D
:1032F0006603A0906703B0906803681579058A0596
:103300009B05F8F28A858F3F09F4E5C282E694E0D6
:103310000E94450C1093D4010093D3016DED77E02A
:1033200080E492E00E9464058091D3019091D401E1
:103330000E94CD0C8091D3019091D4018F359140A2
:103340000CF4DBC08091D2018111D7C08091300193
:103350008F5F8093300166EB77E080E492E00E941B
:1033600064054091300150E070E060E02AE080E4C4
:1033700092E00E94580C6EE771E080E492E00E94B7
:10338000360C80913001853008F469C065E877E03B
:1033900080E492E00E9464058091D3019091D40171
:1033A0000E94CD0C1092300180902C0190902D0144
:1033B000A0902E01B0902F0140902801509029013B
:1033C00060902A0170902B01A3019201C501B40104
:1033D0000E947E2A6B017C0120E030E0A9010E945E
:1033E000BD28882311F120E030E040EF51E4C7010F
:1033F000B6010E94BD2887FF18C0C092CE01D092AE
:10340000CF01E092D001F092D1014092240150927C
:1034100025016092260170922701809220019092EE
:103420002101A0922201B09223016091D3017091F9
:10343000D401072E000C880B990B0E94C4286093BE
:1034400028017093290180932A0190932B016093A6
:103450002C0170932D0180932E0190932F01609188
:10346000D3017091D401072E000C880B990B0E9498
:10347000C4286B017C0120912801309129014091E1
:103480002A0150912B010E94BD2887FF4FC2C09294
:103490002801D0922901E0922A01F0922B0187E5C0
:1034A00097E00E94450C6DEC76E080E492E00E948B
:1034B0006405209128013091290140912A01509101
:1034C0002B0160912C0170912D0180912E01909122
:1034D0002F010E947E2A0E94F50C66EB76E080E4C4
:1034E00092E00E9464056091CE017091CF018091BD
:1034F000D0019091D1010E94F50C8091DB018823CD
:1035000009F430C284E996E00E94450C8091D20112
:10351000811145C08FE796E00E94450C81E08093C1
:10352000D20120E030E0A9016091CE017091CF017D
:103530008091D0019091D1010E94BD2881110CC0D1
:1035400080E090E0A0E8BFE38093CE019093CF01AC
:10355000A093D001B093D10180E090E0A0E0BFEB58
:1035600080931C0190931D01A0931E01B0931F0135
:103570006091D3017091D401072E000C880B990B38
:103580000E94C4286093CA017093CB018093CC0140
:103590009093CD018091D201882309F43AC120E0B3
:1035A00030E44CE156E46091CE017091CF018091FE
:1035B000D0019091D1010E9423290E945D2B6B01C3
:1035C0007C01C114D104E104F10441F00E94E02720
:1035D000A70196010E941B2A6B017C01C701B6015D
:1035E0000E94C42820E030E44CE156E40E94EB2A1B
:1035F0006093C6017093C7018093C8019093C9017D
:103600006DEF75E080E492E00E9464056091C60170
:103610007091C7018091C8019091C9010E94F50C79
:103620000E94E02722E030E040E050E00E941B2AA8
:103630000E94C4286B017C016EEE75E080E492E08C
:103640000E946405C701B6010E94F50C6EEC75E09E
:1036500080E492E00E94640560911C0170911D015C
:1036600080911E0190911F010E94F50C20911C0178
:1036700030911D0140911E0150911F01C701B601FB
:103680000E947F2A6B017C0165EB75E080E492E08B
:103690000E946405C701B6010E94F50CA7019601BE
:1036A0006091C6017091C7018091C8019091C901D4
:1036B0000E9423296093C6017093C7018093C801BB
:1036C0009093C9016DE875E080E492E00E94640582
:1036D0006091C6017091C7018091C8019091C901A4
:1036E0000E94F50C62E875E080E492E00E946405B7
:1036F000609124017091250180912601909127010C
:103700000E94F50C67E775E080E492E00E94640592
:1037100060912001709121018091220190912301FB
:103720000E94F50CC090C601D090C701E090C8017E
:10373000F090C90120E030E0A901C701B6010E9464
:10374000932B18160CF0B4C12091CA013091CB0113
:103750004091CC015091CD01C701B6010E947F2A52
:1037600020912001309121014091220150912301AB
:103770000E94932B18160CF09BC1F7FAF094F7F8FF
:10378000F094C092C601D092C701E092C801F092B5
:10379000C90183E991E00E94C90D60E575E080E40C
:1037A00092E00E9464056091C6017091C70180910A
:1037B000C8019091C9010E94F50C2091C601309179
:1037C000C7014091C8015091C9016091CA0170912F
:1037D000CB018091CC019091CD010E947F2A609312
:1037E000CA017093CB018093CC019093CD010E94CC
:1037F0005D2B7093D4016093D30166E375E080E4A0
:1038000092E00E9464058091D3019091D4010E94BE
:10381000CD0C82E0809391034091310160E080E81B
:1038200093E00E940E096091D3017091D4016F3F23
:10383000760709F070C16BE275E080E893E00E94C2
:10384000640580E893E00E94550981E0809391032C
:1038500040E062E480E893E00E940E099091DB0171
:103860008091D201992321F060EB74E0811106C0B0
:103870006EEA74E0981302C06CEA74E080E893E0AA
:103880000E94640540E068E480E893E00E940E092D
:10389000809133016AEA74E0811102C068EA74E041
:1038A00080E893E00E94640562960FB6F894DEBF4C
:1038B0000FBECDBFDF91CF911F910F91FF90EF9081
:1038C000DF90CF90BF90AF909F908F907F906F9040
:1038D0005F904F9008958B85863839F080E594E0AD
:1038E0000E94450C0EEF1FEF15CDFE013B962AE01E
:1038F00030E02C0F3D1F285F3F4F80E09191890FF2
:103900002E173F07D9F781959A89891719F08FE308
:1039100094E0E6CF0C85002E000C110B102F002731
:103920008D85080F111D87FD1A95F4CC20912C016F
:1039300030912D0140912E0150912F01C701B60108
:103940000E94932B18165CF4C0922C01D0922D018A
:10395000E0922E01F0922F018AE297E0A2CD87EE4D
:1039600096E09FCD8091D201882309F452CF6091D7
:10397000D3017091D401072E000C880B990B0E9483
:10398000C4286B017C018090CE019090CF01A09063
:10399000D001B090D101A50194010E947E2A6093CC
:1039A0002401709325018093260190932701A5019E
:1039B0009401C701B6010E947F2A60932001709391
:1039C000210180932201909323018090CA0190905D
:1039D000CB01A090CC01B090CD01A5019401C7010D
:1039E000B6010E94932B18160CF049C08DEC9CEC8C
:1039F000ACECBDEB80931C0190931D01A0931E01C4
:103A0000B0931F0181E596E00E94450C6091D301BF
:103A10007091D401072E000C880B990B0E94C428CA
:103A20009B01AC016091CA017091CB018091CC01E6
:103A30009091CD010E947E2A6B017C0120E030E054
:103A4000A9010E94932B181624F0F7FAF094F7F8C6
:103A5000F094A70196016091CE017091CF01809101
:103A6000D0019091D1010E94932B18160CF092CDA9
:103A700081E196E00E94450C1092D2018BCDA50108
:103A80009401C701B6010E94BD2887FFBFCF82E223
:103A900096E00E94450C86E696E6A6E6BFEB80938C
:103AA0001C0190931D01A0931E01B0931F01AECF86
:103AB00020E030E0A901C701B6010E94BD2887FFC0
:103AC00027C02091CA013091CB014091CC01509187
:103AD000CD01C701B6010E947F2A209124013091B7
:103AE000250140912601509127010E94BD2887FFA2
:103AF0000FC0F7FAF094F7F8F094C092C601D09294
:103B0000C701E092C801F092C90185E991E043CE76
:103B100087E991E040CE6E3F4FEF740719F460E201
:103B200075E08BCECB018F5591408A32924108F0DF
:103B30008CCE80E893E00E94EB0C80E893E00E943A
:103B40005509409131016CE380E893E00E940E0931
:103B50008091D3019091D4016AE175E0843FF1E056
:103B60009F070CF46ACE65E175E08C3B22E092077A
:103B70000CF463CE62E175E0883E43E094070CF4F8
:103B80005CCE6DE075E0803DE7E09E070CF455CE1D
:103B900069E075E0893893410CF44FCE62E075E03E
:103BA0004CCE8230910509F083C08091D301909171
:103BB000D4018D5291408736904108F046CE8091D5
:103BC0003301882309F46FC01092C5016EEE74E0D2
:103BD00080E492E00E9464058091D3019091D40129
:103BE0000E94CD0C1092C50182E0809304032091C5
:103BF000D3013091D401809102038F71806480934E
:103C000002038091010387708061809301033093E8
:103C100006032093050361E08EEF92E00E94741189
:103C200064E670E080E090E00E9453168091D3013A
:103C30009091D401823C41E094076CF485E080933C
:103C4000E30268EE74E08DED92E00E94F20D60E018
:103C50000E947411FACD8C3BE2E09E0734F485E0BB
:103C60008093E30263EE74E0EECF883EF3E09F07BB
:103C700034F485E08093E30260EE74E0E4CF803DAD
:103C800027E0920734F485E08093E3026BED74E063
:103C9000DACF883893410CF0D8CD85E08093E302E9
:103CA00067ED74E0D0CF86EB94E00E94450CCDCD5B
:103CB000039709F0CACD1093910340E060E580E8D6
:103CC00093E00E940E098091C50164EB74E08111BC
:103CD00002C062EB74E080E893E00E946405B5CD19
:103CE000F70181937F01CE16DF0609F0E0CA0ACB07
:103CF0001F93CF93DF938091DF0181FD2DC00E9440
:103D0000EC118091DF0181608093DF01C4E0DFEF7F
:103D10001AE180913C028093960310929703D0930E
:103D20009B0310939A0380919903807E8360809314
:103D3000990362E085E993E00E94EA0A0E945C111F
:103D40008BE10E942016811102C0C15011F78091B1
:103D5000DF0182608093DF01DF91CF911F91089591
:103D60008FEF8093EC01EAEEF1E090819860908310
:103D7000E5E9F3E090913C0291831282868388E129
:103D800085838481807E8360848361E0CF010E948B
:103D9000EA0A0C94241180913C028F3F21F50E9485
:103DA000A9076F3FE9F060933A0180913A01909141
:103DB0003C02909396031092970380939B0383E0B9
:103DC00080939A0380919903807E83608093990306
:103DD00060E871E085E993E00E94BB0E0C94241129
:103DE00010923A01E2CF0895EAEEF1E08081897FF6
:103DF00081608083ACE3B2E08FEF12968C931297D0
:103E000011968C931197E5E9F3E09C91918382835D
:103E1000868387E085838481807E8360848360E8F5
:103E200071E0CF010E94BB0E0C9424118F929F92DF
:103E3000AF92BF92CF92DF92EF92FF920F931F93B8
:103E4000CF93DF93CDB7DEB764970FB6F894DEBF9C
:103E50000FBECDBF8E010F5F1F4F80E1F8011192A1
:103E60008A95E9F760E170E08AE991E00E9495287F
:103E7000AC016AE971E0C8010E94D02B8AE090E0B1
:103E80009093D8038093D70340E1B80189ED93E084
:103E90000E94360550E040E080E190E0FF24F3947A
:103EA00020E1E22EBE016B5E7F4F3BE1B32ED82EA8
:103EB000FC01EB52FC4F9E012F5E3F4FD901C19098
:103EC000CD92A617B707D9F7DE1020C0D988F0E148
:103ED000EF0EEA89F0E0EE53FF4FE491EF25E98B16
:103EE000EB89F0E0EE53FF4FE491EA8BEC89F0E0D0
:103EF000EE53FF4FE491EB8BED2DF0E0EE53FF4FCF
:103F0000E491EC8BF7FECFC0FF0CFB24FC01E752E1
:103F1000FC4F4F01F901A1909F016401C81AD90A11
:103F2000C40ED51EF601D080DA24F401D1924F01DF
:103F30002A173B0779F704964C5F5F4F803B91054A
:103F400009F0B5CF80E1F80111928A95E9F7229A3C
:103F5000219A2A98299A1FB7F8948091A401811177
:103F600027C0E6EAF9E08491EAEBF9E09491E82FC2
:103F7000F0E0EE0FFF1FE659F64FA591B491EC91DA
:103F8000E92321F461E08AE00E94E70661E08AE02B
:103F90000E9415078CB580618CBD8CB580648CBD8A
:103FA00061E08DE00E94150761E08BE00E9415073B
:103FB0008091A4018F5F8093A4011FBF2A986EE0B7
:103FC00080E20E945B0E8BE496E40197F1F763E0D8
:103FD00083E20E945B0E6FE584E20E945B0E6CE45C
:103FE00085E20E945B0E67E086E20E945B0E64E061
:103FF0008DE30E945B0E8DE10E94AF0E843041F094
:1040000063E780E50E945B0E64E08DE30E945B0E37
:1040100086E00E94AF0E873009F04FC085E00E9415
:10402000AF0E8C3409F049C062E082E20E945B0E60
:1040300060E081E20E945B0E63E08CE30E945B0E15
:104040001FEF1093030120E045E063E071E08BE295
:104050000E94290E20E045E063E071E08AE20E94C0
:10406000290E20E045E063E071E080E30E94290E24
:1040700082EE0E94B50E81EE0E94B50E60E787E2E7
:104080000E945B0E8091EA0180618093EA01809139
:104090003F028E7F80933F0280913C028F3F29F444
:1040A00088E191E00CC0FF0C31CF9FEF980F9E3F4D
:1040B000D8F40E94950E8111F3CF88E091E00E9420
:1040C000140B64960FB6F894DEBF0FBECDBFDF9120
:1040D000CF911F910F91FF90EF90DF90CF90BF9005
:1040E000AF909F908F90089510933C02E6CF1F925F
:1040F0000F920FB60F9211242F933F934F935F931C
:104100006F937F938F939F93AF93BF93EF93FF939F
:1041100080E492E00E94FC05FF91EF91BF91AF9186
:104120009F918F917F916F915F914F913F912F91CF
:104130000F900FBE0F901F9018951F920F920FB601
:104140000F9211242F938F939F93EF93FF93E091FE
:104150005002F09151028081E0915602F091570295
:1041600082FD1BC09081809159028F5F8F732091D7
:104170005A02821741F0E0915902F0E0E05CFD4FF5
:10418000958F80935902FF91EF919F918F912F917D
:104190000F900FBE0F901F9018958081F4CF1F9243
:1041A0000F920FB60F9211242F933F938F939F93EB
:1041B000AF93BF938091340290913502A091360263
:1041C000B09137023091330223E0230F2D3758F599
:1041D0000196A11DB11D2093330280933402909368
:1041E0003502A0933602B093370280913802909145
:1041F0003902A0913A02B0913B020196A11DB11D76
:104200008093380290933902A0933A02B0933B0214
:10421000BF91AF919F918F913F912F910F900FBEC2
:104220000F901F90189526E8230F0296A11DB11D2F
:10423000D2CF1F920F920FB60F9211242F933F935C
:104240004F935F936F937F938F939F93AF93BF939E
:10425000EF93FF93E0913D01F0913E010995FF91AD
:10426000EF91BF91AF919F918F917F916F915F91EE
:104270004F913F912F910F900FBE0F901F90189567
:104280001F920F920FB60F9211242F933F934F93CB
:104290005F936F937F938F939F93AF93BF93EF93AE
:1042A000FF93E0913B01F0913C010995FF91EF9163
:1042B000BF91AF919F918F917F916F915F914F913E
:1042C0003F912F910F900FBE0F901F9018951F9246
:1042D0000F920FB60F9211242F933F934F935F933A
:1042E0006F937F938F939F93AF93BF93EF93FF93BE
:1042F000E0913102F0913202309749F0A685B785FE
:104300008585968D91FF14C09C918923A1F4FF911E
:10431000EF91BF91AF919F918F917F916F915F913D
:104320004F913F912F910F900FBE0F901F901895B6
:104330009C91892361F7A389B4899C918589809593
:1043400089238C93868997890197F1F7608D718D08
:10435000A685B785558538E020E0CB010197F1F7B8
:10436000822F90E095958795282F4C91452309F051
:104370002068315091F7868D81FD209580912F0224
:1043800090E001968F73992730913002381799F099
:10439000A0912F02B0E0A151BE4F2C9380932F0229
:1043A000828D938D0197F1F7A389B4898C919589BA
:1043B000892B8C93ACCF868D8160868FF1CF1F9235
:1043C0000F920FB60F9211240F900FBE0F901F90F7
:1043D0001895DB01FC0158E0149744E018960E9004
:1043E00001924A95E1F75A95C1F708958F929F92ED
:1043F000AF92BF92CF92DF920F931F93EDB7FEB7AC
:10440000B8970FB6F894EDBF0FBEFEBF9F938F9382
:1044100031968F0149015A016B01C801AAD2BB2014
:1044200011F4AA2059F0C801B601A1D030E4C30E9E
:10443000D11C32E0931AA108B108F1CFC801B6012E
:10444000A40115D08F919F91B801C3DFEDB7FEB7DE
:10445000B8960FB6F894EDBF0FBEFEBF1F910F9137
:10446000DF90CF90BF90AF909F908F900895523083
:1044700090F09F938F937F936F935F934F9377D039
:104480004F915F916F917F918F919F91525030E446
:10449000630F711DECCFEDB7FEB70FB6E054F040DF
:1044A000F894EDBF0FBEFEBF3196242F26952695BA
:1044B000269550FB25F9DB01222329F0122E0D90C1
:1044C00001921A94E1F730E8032E37E0342329F003
:1044D00006943A95E9F73C91032A019223952933F2
:1044E00008F421C030E4321B19F011923A95E9F733
:1044F000FF973197BF01FF93EF939F938F935F9344
:104500004F9335D04F915F918F919F91EF91FF9194
:10451000DC0191963C9132503D9326E03C91304035
:104520003D932A95D9F738E3321B21F011241192DB
:104530003A95E9F7DC01909638960D90040E0292B8
:104540000D90051E029236E00D90011C02923A95E4
:10455000D9F7F897BF010BD0EDB7FEB70FB6FF96AE
:104560003196F894EDBF0FBEFEBF112408954F920F
:104570005F926F927F928F929F92AF92BF92CF92F3
:10458000DF92EF92FF920F931F93CF93DF934DB77C
:104590005EB79A01FB0140525140DA010FB6F89420
:1045A0004DBF0FBE5EBF2F933F938F939F93119686
:1045B00040E171916191319121912D933D936D93E2
:1045C0007D934A95B1F740E3142EFD01FF97319793
:1045D0000191119121913191C190D190E190F1908F
:1045E0006D2D7E2D8F2D9C2D41E0E9D14B015C017D
:1045F000B701C60142E0F9D186269726A826B9263A
:1046000073E0F694E794D794C7947A95D1F78C2405
:104610009D24AE24BF24080D191D2A1D3B1D648D49
:10462000758D868D978D060F171F281F391FC0A8FF
:10463000D1A8E2A8F3A8B701C60141E0D6D15C0138
:104640004B0142E0D2D186269726A826B92672E0F1
:10465000F694E794D7947A95D9F78D249E24AF24C5
:10466000080D191D2A1D3B1D0D931D932D933D9380
:104670001A9409F0AACFFF91EF91EF93FF9390E284
:1046800011901D929A95E1F79097ED01E2E7F8E419
:10469000BA9590E4192E4C885D886E887F88688969
:1046A00079898A899B89C88CD98CEA8CFB8C4622B3
:1046B0005722682279226095709580959095C62240
:1046C000D722E822F9224C245D246E247F24F88826
:1046D000C988DA88EB88B601C70142E070D14B0186
:1046E0005C01B601C70143E080D186269726A82643
:1046F000B926B701C60141E078D186269726A826BB
:10470000B926480C591C6A1C7B1C8C8C9D8CAE8C69
:10471000BF8C480C591C6A1C7B1C8D909D90AD90E1
:10472000BD90480C591C6A1C7B1C85909590A590E7
:10473000B590480C591C6A1C7B1C688179818A8160
:104740009B818C809D80AE80BF8086229722A8228C
:10475000B922C884D984EA84FB846C217D218E210E
:104760009F2186269726A826B9266C817D818E8179
:104770009F816C217D218E219F2186269726A82648
:10478000B926C880D980EA80FB80B601C70142E023
:104790002CD18B019C01B701C60143E010D1062743
:1047A0001727282739276F2D7C2D8D2D9E2D42E030
:1047B00006D10627172728273927080D191D2A1D76
:1047C0003B1D5CE16C969A919C835A95E1F7C888F1
:1047D000D988EA88FB88C40CD51CE61CF71CC88A5B
:1047E000D98AEA8AFB8A040D151D261D371D088308
:1047F00019832A833B831A9409F04DCFFF91EF91DF
:1048000058E00081118122813381699179918991E8
:104810009991060F171F281F391F01931193219398
:1048200031935A9571F7319652E066E04081450F19
:104830004193552728F44081451F41936A95D1F74C
:104840005F914F910FB6F8944DBF0FBE5EBF11241C
:10485000DF91CF911F910F91FF90EF90DF90CF905C
:10486000BF90AF909F908F907F906F905F904F9090
:104870000895982F8A4291443771CFFBC0B5A5DBCC
:10488000B5E95BC25639F111F159A4823F92D55E68
:104890001CAB98AA07D8015B8312BE853124C37D67
:1048A0000C55745DBE72FEB1DE80A706DC9B74F110
:1048B0009BC1C1699BE48647BEEFC69DC10FCCA1D9
:1048C0000C246F2CE92DAA84744ADCA9B05CDA8828
:1048D000F97652513E986DC631A8C82703B0C77FFC
:1048E00059BFF30BE0C64791A7D55163CA066729A4
:1048F0002914850AB72738211B2EFC6D2C4D130D6A
:10490000385354730A65BB0A6A762EC9C281852C56
:104910007292A1E8BFA24B661AA8708B4BC2A3513A
:104920006CC719E892D1240699D685350EF470A08B
:104930006A1016C1A419086C371E4C774827B5BCFD
:10494000B034B30C1C394AAAD84E4FCA9C5BF36FE3
:104950002E68EE828F746F63A5781478C88408027D
:10496000C78CFAFFBE90EB6C50A4F7A3F9BEF278A7
:1049700071C6DC01E4E8F9E468E275917D936A951B
:10498000E1F7089567E6096A85AE67BB72F36E3C8E
:104990003AF54FA57F520E518C68059BABD9831F0A
:1049A00019CDE05B0000000000000000483038F046
:1049B000592F982F872F762F652F4850F7CF5527DF
:1049C0008894442339F0661F771F881F991F551F4D
:1049D0004A95C9F7652B0895483038F0562F672F50
:1049E000782F892F952F4850F7CF55278894442347
:1049F00039F0979587957795679557954A95C9F7B3
:104A0000952B0895AB01692F782F852F942F08954A
:104A1000CF93DF93FC0110821182128214821582DF
:104A20001682DC0117968AE1ED0119928A95E9F761
:104A300082E08383DF91CF910895CF92DF92EF924E
:104A4000FF920F931F93CF93DF93CDB7DEB72897D5
:104A50000FB6F894DEBF0FBECDBF10924302109286
:104A6000420298EEC92E93E0D92EE12CF12CC0928F
:104A70004402D0924502E0924602F092470280E55D
:104A800091E0909341028093400285EC90E09093F6
:104A90004D0280934C0284EC90E090934F028093FF
:104AA0004E0280EC90E0909351028093500281EC92
:104AB00090E0909353028093520282EC90E09093A6
:104AC00055028093540286EC90E0909357028093B5
:104AD00056021092590210925A0210925B021092E2
:104AE0005C0288E09E012F5F3F4FD901E82F1D92A5
:104AF000EA95E9F711E01093C9041092CA041092E4
:104B0000CB041092CC041092CD041092CE041092DB
:104B1000CF041092D0041092D8031092D7031092B1
:104B2000E2041092E1041092E4041092E304E9ED2F
:104B3000F3E090EFDF011D929A95E9F71887F901EC
:104B4000A1EDB4E0982F01900D929A95E1F7F9014B
:104B5000A9EDB4E0982F01900D929A95E1F710938A
:104B6000E50492E09093E60493E09093E70494E0E8
:104B70009093E80495E09093E90496E09093EA041A
:104B800097E09093EB048093EC0489E08093ED042C
:104B90008AE08093EE048BE08093EF048CE08093B6
:104BA000F0048DE08093F1048EE08093F2048FE0B6
:104BB0008093F30486EB93E00E94082585E993E057
:104BC0000E940825109283031092820310928C0396
:104BD00010928D0310928F0310928E031092900307
:104BE0001093910384E791E0909381038093800375
:104BF0001092640310926303C0926503D09266031F
:104C0000E0926703F092680382E691E0909362037A
:104C100080936103109278031092770310927A03C5
:104C20001092790310927C0310927B0310927E0302
:104C300010927D0380917F038E7F8D7F80937F0311
:104C400081FB662760F9612786E00E94E70661E044
:104C500086E00E941507E6EBF9E0E491E09371032A
:104C6000E2EAF9E0E491F0E0EE0FFF1FEE56F64FB6
:104C700085919491909373038093720360E085E033
:104C80000E94150780917F0381FD04C061E085E0EB
:104C90000E94E70615E010936D03E5EBF9E0E4915F
:104CA000E0936E03E1EAF9E0E491F0E0EE0FFF1F1C
:104CB000E857F64F859194919093700380936F031A
:104CC00080E493E00E94082583E08093460302E09D
:104CD000009345038FE193E00E94082581E08093D3
:104CE00025038BE2809324038EEF92E00E94082537
:104CF0000093040385E2809303038DED92E00E940C
:104D000008251093E3028FE28093E20228960FB603
:104D1000F894DEBF0FBECDBFDF91CF911F910F91F1
:104D2000FF90EF90DF90CF900895CF93DF93CDB7B2
:104D3000DEB7CA55D1090FB6F894DEBF0FBECDBF9E
:104D4000789484B5826084BD84B5816084BD85B566
:104D5000826085BD85B5816085BD80916E00816072
:104D600080936E0010928100809181008260809318
:104D7000810080918100816080938100809180001A
:104D80008160809380008091B10084608093B10045
:104D90008091B00081608093B00080917A0084603F
:104DA00080937A0080917A00826080937A0080916B
:104DB0007A00816080937A0080917A008068809385
:104DC0007A001092C100A89580E090E0892B11F044
:104DD0000E9400000E940E058091DF018D7F80936C
:104DE000DF0180E090E0892B11F00E94000040E29A
:104DF00050E063E671E0CE0101960E94E12940E1B6
:104E000050E06CE871E0CE0181960E94E12949E012
:104E100050E063E871E0CE01C1960E94E12941E0D3
:104E200050E06AE171E0CE01865A9F4F0E94E1296D
:104E300028EC31E040E050E0BE016F5F7F4FCE01D3
:104E4000CA960E94F62141E050E063E071E08EEDE9
:104E500091E00E94E1296FEF81E090E00E94092A31
:104E60008091EB018F788093EB011092E101109219
:104E7000E00185E391E00E94140B88E79EE19093A6
:104E8000DD018093DC010E94A9076B017C010E9477
:104E9000A9076C197D098E099F0960317742810548
:104EA0009105C8F00E947B16A89500E010E0A89537
:104EB0000E94F60A8091EA0184FD0E9444120E9439
:104EC000E6170115110599F30E94F205882379F37D
:104ED0000E940000ECCF0E94F60A0E941A168091F0
:104EE000EA0182FB882780F9A8958111DBCFCFCF1B
:104EF00082E691E090936203809361038091310296
:104F0000909132028156934071F4E0917403F091D4
:104F10007503908180917603809589238083109218
:104F200032021092310208958F929F92AF92BF92F7
:104F3000CF92DF92EF92FF92CF93DF93EC016881E3
:104F400079818A819B81611571058105910521F423
:104F500064E279ED8BE597E02DE133EF41E050E03D
:104F60000E941B2A49015A019B01AC01A7EAB1E446
:104F70000E943A2A6B017C01ACEEB4EFA5019401CA
:104F80000E94482AC60ED71EE81EF91EF7FE06C06C
:104F900081E0C81AD108E10880E8F80AC882D982FD
:104FA000EA82FB82C701B6019F77DF91CF91FF9024
:104FB000EF90DF90CF90BF90AF909F908F9008952B
:104FC0008F929F92AF92BF92CF92DF92EF92FF9219
:104FD00060913F01709140018091410190914201A7
:104FE000611571058105910521F464E279ED8BE588
:104FF00097E02DE133EF41E050E00E941B2A490188
:105000005A019B01AC01A7EAB1E40E943A2A6B0164
:105010007C01ACEEB4EFA50194010E94482AC60EB3
:10502000D71EE81EF91EF7FE06C081E0C81AD10897
:10503000E10880E8F80AC0923F01D0924001E09276
:105040004101F0924201C701B6019F77FF90EF90B6
:10505000DF90CF90BF90AF909F908F900895609316
:105060003F01709340018093410190934201089564
:10507000FC0188279927E89421912032E9F329300F
:1050800010F02E30C8F32B3241F02D3239F46894F1
:1050900004C00E94B528820F911D219120532A300F
:1050A000C0F31EF4909581959F4F08951F93FC01C6
:1050B00099278827BC01E89411911032E9F319303F
:1050C00010F01E30C8F31B3251F01D3249F46894C1
:1050D00006C00E94A028610F711D811D911D1191B4
:1050E00010531A30B0F33EF4909580957095619509
:1050F0007F4F8F4F9F4F1F910895FC010590002017
:10510000E9F7809590958E0F9F1F0895FB01DC01B4
:105110004150504048F005900D920020C9F701C061
:105120001D9241505040E0F70895FC0161507040DD
:1051300001900110D8F7809590958E0F9F1F0895CC
:10514000592F482F372F262F660F771F881F991F3B
:10515000660F771F881F991F620F731F841F951F8B
:10516000660F771F881F991F08957AE0979F902DEB
:10517000879F802D910D112408950E94FF2808F427
:1051800081E00895E89409C097FB3EF490958095DE
:10519000709561957F4F8F4F9F4F9923A9F0F92FFD
:1051A00096E9BB279395F695879577956795B7957B
:1051B000F111F8CFFAF4BB0F11F460FF1BC06F5F61
:1051C0007F4F8F4F9F4F16C0882311F096E911C073
:1051D000772321F09EE8872F762F05C0662371F094
:1051E00096E8862F70E060E02AF09A95660F771FA8
:1051F000881FDAF7880F9695879597F90895990F84
:105200000008550FAA0BE0E8FEEF16161706E80790
:10521000F907C0F012161306E407F50798F0621BB1
:10522000730B840B950B39F40A2661F0232B242B86
:10523000252B21F408950A2609F4A140A6958FEFA5
:10524000811D811D08950E9436290C94A7290E9472
:10525000992938F00E94A02920F0952311F00C9490
:1052600090290C94962911240C94DB290E94B829CA
:1052700070F3959FC1F3950F50E0551F629FF001A9
:10528000729FBB27F00DB11D639FAA27F00DB11DC2
:10529000AA1F649F6627B00DA11D661F829F22274B
:1052A000B00DA11D621F739FB00DA11D621F839FD2
:1052B000A00D611D221F749F3327A00D611D231FA8
:1052C000849F600D211D822F762F6A2F11249F57F6
:1052D00050409AF0F1F088234AF0EE0FFF1FBB1FF9
:1052E000661F771F881F91505040A9F79E3F5105B8
:1052F00080F00C9490290C94DB295F3FE4F3983EF6
:10530000D4F3869577956795B795F795E7959F5F61
:10531000C1F7FE2B880F911D9695879597F90895F3
:1053200097F99F6780E870E060E008959FEF80EC58
:10533000089500240A9416161706180609060895FB
:1053400000240A9412161306140605060895092E61
:105350000394000C11F4882352F0BB0F40F4BF2BD0
:1053600011F460FF04C06F5F7F4F8F4F9F4F089510
:1053700057FD9058440F551F59F05F3F71F0479506
:10538000880F97FB991F61F09F3F79F087950895EB
:10539000121613061406551FF2CF4695F1DF08C00A
:1053A000161617061806991FF1CF86957105610527
:1053B00008940895E894BB2766277727CB0197F9CF
:1053C0000895DC01CB01FC01F999FECF06C0F2BDC6
:1053D000E1BDF89A319600B40D9241505040B8F7B3
:1053E0000895F999FECF92BD81BDF89A992780B5AD
:1053F0000895DC01A40FB51F4150504048F0CB0187
:10540000840F951F2E910E940A2A41505040D0F7D8
:105410000895262FF999FECF92BD81BDF89A019784
:1054200000B4021639F01FBA20BD0FB6F894FA9AEC
:10543000F99A0FBE0895052E97FB1EF400940E9462
:10544000322A57FD07D00E944D2A07FC03D04EF4A4
:105450000C94322A50954095309521953F4F4F4FEF
:105460005F4F089590958095709561957F4F8F4F10
:105470009F4F08950E946F2AA59F900DB49F900D95
:10548000A49F800D911D11240895B7FF0C943A2A12
:105490000E943A2A821B930B0895A1E21A2EAA1B9E
:1054A000BB1BFD010DC0AA1FBB1FEE1FFF1FA217D4
:1054B000B307E407F50720F0A21BB30BE40BF50BD1
:1054C000661F771F881F991F1A9469F7609570955A
:1054D000809590959B01AC01BD01CF010895A29FDD
:1054E000B001B39FC001A39F700D811D1124911DB8
:1054F000B29F700D811D1124911D08955058BB2736
:10550000AA270E94962A0C94A7290E94992938F06C
:105510000E94A02920F039F49F3F19F426F40C943E
:1055200096290EF4E095E7FB0C949029E92F0E9450
:10553000B82958F3BA17620773078407950720F054
:1055400079F4A6F50C94DA290EF4E0950B2EBA2F17
:10555000A02D0B01B90190010C01CA01A001112479
:10556000FF27591B99F0593F50F4503E68F11A1625
:10557000F040A22F232F342F4427585FF3CF4695B6
:1055800037952795A795F0405395C9F77EF41F16D8
:10559000BA0B620B730B840BBAF09150A1F0FF0FA2
:1055A000BB1F661F771F881FC2F70EC0BA0F621F8E
:1055B000731F841F48F4879577956795B795F7957E
:1055C0009E3F08F0B0CF9395880F08F09927EE0F13
:1055D0009795879508950E94FF2A0C94A7290E9409
:1055E000A02958F00E94992940F029F45F3F29F042
:1055F0000C94902951110C94DB290C9496290E944B
:10560000B82968F39923B1F3552391F3951B550BF2
:10561000BB27AA2762177307840738F09F5F5F4F85
:10562000220F331F441FAA1FA9F335D00E2E3AF0C4
:10563000E0E832D091505040E695001CCAF72BD0DC
:10564000FE2F29D0660F771F881FBB1F261737072D
:105650004807AB07B0E809F0BB0B802DBF01FF275F
:1056600093585F4F3AF09E3F510578F00C94902983
:105670000C94DB295F3FE4F3983ED4F3869577954D
:105680006795B795F7959F5FC9F7880F911D969518
:10569000879597F90895E1E0660F771F881FBB1F74
:1056A000621773078407BA0720F0621B730B840B21
:1056B000BA0BEE1F88F7E09508950E94642B68945A
:1056C000B1110C94DB2908950E94C02988F09F57DE
:1056D00098F0B92F9927B751B0F0E1F0660F771F16
:1056E000881F991F1AF0BA95C9F714C0B13091F00C
:1056F0000E94DA29B1E008950C94DA29672F782FF7
:105700008827B85F39F0B93FCCF3869577956795D0
:10571000B395D9F73EF490958095709561957F4F3C
:105720008F4F9F4F08950E94FF2808F48FEF089530
:105730000E94FF28880B990B089597FB072E16F4FB
:10574000009407D077FD09D00E94B12B07FC05D04B
:105750003EF4909581959F4F0895709561957F4F88
:105760000895AA1BBB1B51E107C0AA1FBB1FA617A8
:10577000B70710F0A61BB70B881F991F5A95A9F7FA
:1057800080959095BC01CD010895EE0FFF1F059007
:10579000F491E02D099481E090E0F8940C94E82BCA
:1057A000FB01DC0102C001900D9241505040D8F73E
:1057B0000895FB01DC014150504048F001900D92EA
:1057C0000020C9F701C01D9241505040E0F70895F4
:1057D00014E0C3EED4E004C0FE010E94C52B219664
:0A57E000C43ED107C9F7F894FFCFCB
:1057EA00FFFFFF00FCE1A8A86C0E400BCB1EAB0B21
:1057FA00B01E7C0B6A0B600BF41EC50B000000BFC9
:10580A000000CD430000C8430000C8430000CD4358
:10581A000503010101DC0D161FFFFFB507B50701DE
:10582A00000000FF0186000000000079000000006F
:10583A001E068805B5056B06E605C405D8050000F1
:10584A000000EC078805310CEB0748086008D3070D
:10585A00000000007F098805310C300C8D080D0A04
:10586A00006E616E00696E66006F766600322E33D6
:10587A002E3100410042004343003051386A5373CD
:04588A006E45000067
:00000001FF
