:100000000C94E4010C9426100C94FF0F0C940C0239
:100010000C940C020C940C020C944D100C940C02D9
:100020000C940C020C940C020C940C020C940C0218
:100030000C940C020C940C020C940C020C940C0208
:100040000C94B50F0C940C020C94830F0C945D0F60
:100050000C940C020C940C020C940C020C940C02E8
:100060000C940C020C940C0200407A10F35A00A07D
:10007000724E18090010A5D4E80000E87648170071
:1000800000E40B54020000CA9A3B000000E1F505B1
:10009000000080969800000040420F000000A086FB
:1000A00001000000102700000000E803000000002D
:1000B0006400000000000A000000000001000000D1
:1000C00000002C76D888DC674F0823DFC1DFAE59EB
:1000D000E1B1B796E5E3E453C63AE651997696E87E
:1000E000E6C28426EB898C9B62ED407C6FFCEFBC02
:1000F0009C9F40F2BAA56FA5F490055A2AF75C932D
:100100006B6CF9676DC11BFCE0E40D47FEF520E662
:10011000B500D0ED902E0300943577050080841E45
:10012000080000204E0A000000C80C333333330FA0
:10013000986E12831141EF8D2114893BE65516CF3D
:10014000FEE6DB18D1844B381BF77C1D901DA4BB49
:10015000E424203284725E228100C9F124ECA1E5FE
:100160003D2725753B25753B25753B25753B25753D
:100170003B25730A00000000080002010000030490
:10018000070000000000000000637C777BF26B6FCB
:10019000C53001672BFED7AB76CA82C97DFA5947B5
:1001A000F0ADD4A2AF9CA472C0B7FD9326363FF742
:1001B000CC34A5E5F171D8311504C723C3189605D1
:1001C0009A071280E2EB27B27509832C1A1B6E5A2C
:1001D000A0523BD6B329E32F8453D100ED20FCB1CC
:1001E0005B6ACBBE394A4C58CFD0EFAAFB434D33A4
:1001F0008545F9027F503C9FA851A3408F929D38BE
:10020000F5BCB6DA2110FFF3D2CD0C13EC5F9744A6
:1002100017C4A77E3D645D197360814FDC222A906C
:100220008846EEB814DE5E0BDBE0323A0A4906245B
:100230005CC2D3AC629195E479E7C8376D8DD54E39
:10024000A96C56F4EA657AAE08BA78252E1CA6B4D5
:10025000C6E8DD741F4BBD8B8A703EB5664803F659
:100260000E613557B986C11D9EE1F8981169D98E86
:10027000949B1E87E9CE5528DF8CA1890DBFE642ED
:100280006841992D0FB054BB1652096AD53036A576
:1002900038BF40A39E81F3D7FB7CE339829B2FFFBD
:1002A00087348E4344C4DEE9CB547B9432A6C22308
:1002B0003DEE4C950B42FAC34E082EA16628D92478
:1002C000B2765BA2496D8BD12572F8F66486689888
:1002D00016D4A45CCC5D65B6926C704850FDEDB947
:1002E000DA5E154657A78D9D8490D8AB008CBCD3A1
:1002F0000AF7E45805B8B34506D02C1E8FCA3F0F45
:1003000002C1AFBD0301138A6B3A9111414F67DC03
:10031000EA97F2CFCEF0B4E67396AC7422E7AD352F
:1003200085E2F937E81C75DF6E47F11A711D29C5A2
:10033000896FB7620EAA18BE1BFC563E4BC6D27917
:10034000209ADBC0FE78CD5AF41FDDA8338807C79A
:1003500031B11210592780EC5F60517FA919B54A5D
:100360000D2DE57A9F93C99CEFA0E03B4DAE2AF599
:10037000B0C8EBBB3C83539961172B047EBA77D688
:1003800026E169146355210C7D000000002500283A
:10039000002B0000000000240027002A00040404B1
:1003A000040404040402020202020203030303031E
:1003B00003010204081020408001020408102001FB
:1003C000020408102000B01311241FBECFEFD8E0A4
:1003D000DEBFCDBF11E0A0E0B1E0E0EAFAE302C089
:1003E00005900D92AA35B107D9F724E0AAE5B1E04E
:1003F00001C01D92A43DB207E1F711E0C4EED1E0C7
:1004000004C02197FE010E94301DC33ED107C9F7E9
:100410000E945D140C944E1D0C94000090E0FC01B1
:10042000EF54FC4F249183569C4FFC018491882308
:1004300099F090E0880F991FFC01ED56FC4FA591B3
:10044000B491FC01E757FC4F859194918FB7F894D4
:10045000EC91E22BEC938FBF0895DB01FC01242F7C
:100460003C91308311963C911197318312963C91C7
:100470001297328313963C9113973383245014962A
:100480003496243068F72CEF240F2695269530E01B
:100490002F5F3F4F220F331F220F331F4370DB01AB
:1004A000A20FB31FFC01E20FF31F415018F08D9112
:1004B0008193FBCF0895AF92BF92CF92DF92EF92DC
:1004C000FF920F931F93CF93DF936C017B018B01FE
:1004D000040F151FEB015E01AE18BF08C017D1074E
:1004E00059F06991D601ED91FC910190F081E02DD8
:1004F000C6010995892B79F7C501DF91CF911F912D
:100500000F91FF90EF90DF90CF90BF90AF90089544
:10051000FC01538D448D252F30E0842F90E0821B09
:10052000930B541710F0CF96089501970895FC018E
:10053000918D828D981761F0A28DAE0FBF2FB11DE6
:100540005D968C91928D9F5F9F73928F90E008953E
:100550008FEF9FEF0895FC01918D828D981731F0F8
:10056000828DE80FF11D858D90E008958FEF9FEF4C
:100570000895FC01918D228D892F90E0805C9F4F22
:10058000821B91098F739927089587EB92E00E944F
:10059000B90221E0892B09F420E0822F0895FC01A3
:1005A000A48DA80FB92FB11DA35ABF4F2C91848DD4
:1005B00090E001968F739927848FA689B7892C9331
:1005C000A089B1898C91837080648C93938D848D84
:1005D000981306C00288F389E02D80818F7D808387
:1005E0000895EF92FF920F931F93CF93DF93EC0147
:1005F00081E0888F9B8D8C8D98131AC0E889F989CA
:10060000808185FF15C09FB7F894EE89FF896083CC
:10061000E889F98980818370806480839FBF81E04D
:1006200090E0DF91CF911F910F91FF90EF9008958F
:10063000F62E0B8D10E00F5F1F4F0F731127E02E6A
:100640008C8D8E110CC00FB607FCFACFE889F989A2
:10065000808185FFF5CFCE010E94CF02F1CFEB8DD7
:10066000EC0FFD2FF11DE35AFF4FF0829FB7F89476
:100670000B8FEA89FB8980818062CFCFCF93DF9394
:10068000EC01888D8823B9F0AA89BB89E889F989AA
:100690008C9185FD03C0808186FD0DC00FB607FCDF
:1006A000F7CF8C9185FFF2CF808185FFEDCFCE0112
:1006B0000E94CF02E9CFDF91CF91089580E090E0D2
:1006C000892B29F00E94C50281110C940000089525
:1006D0002FB7F8946091AF027091B0028091B1028F
:1006E0009091B2022FBF089508958091480281FD34
:1006F00004C08160826080934802089588E19FE091
:100700000FB6F894A895809360000FBE9093600098
:1007100008950F931F930E94680300913202109175
:1007200033022091340230913502601B710B820B31
:10073000930B683E73408105910558F00E94680351
:1007400060933202709333028093340290933502A7
:10075000A8951F910F9108950895FC0183818770DA
:100760008860838384818F71806284836783CF01F3
:100770000895E0913602F0913702309721F002801F
:10078000F381E02D099408959C01809136029091A7
:10079000370282179307F1F0909140029F71909376
:1007A00040023093370220933602E0913602F091F6
:1007B0003702309721F00190F081E02D09950E94D9
:1007C0006803609338027093390280933A029093E1
:1007D0003B02089580914002805E80934002E5CF05
:1007E0000F931F930E946803009138021091390201
:1007F00020913A0230913B02601B710B820B930BEC
:10080000209141022077203779F000E117E220E0C3
:1008100030E0061717072807390758F481E191E0FF
:100820001F910F910C94C40300E61AEE20E030E013
:10083000F0CF1F910F9108958091400284608093C2
:10084000400280914102807880934102E09145020C
:10085000F0914602309709F009940895CF93DF9301
:10086000FC01EB01DA019C01205F3F4F88819C91E4
:1008700089278083898111969C911197892781838B
:100880008A8112969C911297892782838B81139675
:100890009C91139789278383349624961496E217A4
:1008A000F30721F7DF91CF910895FC01DB019C0153
:1008B000205F3F4F80819C918927808381811196A1
:1008C0009C91119789278183828112969C9112971E
:1008D00089278283838113969C9113978927838329
:1008E00034961496E217F30729F708958091790357
:1008F000829586958770813019F480917C030895E4
:10090000811105C08CE793E00E94EB16089580E00A
:100910000895E0E4F2E08081877F8F7E80831092EB
:100920003C0210923D0210923E0210923F020E9441
:10093000680360932E0270932F028093300290938D
:1009400031021092060210920702109208021092D1
:10095000090244E050E070E060E08AE292E00C942A
:10096000BF1C0F931F93CF93DF93EC01E0E0611561
:10097000710551F0FB0101900020E9F73197E61B6A
:10098000F70BE931F10500F50E2F10E08B81877030
:10099000980193E0220F331F9A95E1F7822B8B8306
:1009A0008C818F718C83EE2329F0A801CE010796EC
:1009B0000E943F1DFE01E00FF11F1782CE01DF9163
:1009C000CF911F910F910895E9E1DECF91E59CBD94
:1009D00091E09DBD2998E3E2F0E03197F1F78EBDFB
:1009E00000000DB407FEFDCF8EB5FB019FEF415017
:1009F000C8F0222361F09EBD00000DB407FEFDCFBC
:100A00008EB56115710599F380833196F0CFDF01C2
:100A1000119680818EBD00000DB407FEFDCF8EB50E
:100A2000FD01E5CF299AE3E2F0E03197F1F708956F
:100A3000CF93DF931F92CDB7DEB7698320E041E00B
:100A4000BE016F5F7F4F0E94E6040F90DF91CF9150
:100A5000089580914102982F9077903759F0982F00
:100A600092959F709F5F97709295907F8F78892B5A
:100A700080934102809140028B7F8F7E8093400261
:100A80002A986CE080E20C9418056FE080E20E94E6
:100A90001805609108016F3F19F08AE20E9418055D
:100AA0002A9A089521E041E070E060E00C94E604A9
:100AB00020E040E070E060E00C94E6042F923F926A
:100AC0004F925F926F927F928F929F92AF92BF925E
:100AD000CF92DF92EF92FF920F931F93CF93DF930A
:100AE000CDB7DEB7A2970FB6F894DEBF0FBECDBF6D
:100AF0007C01FC0102818091400280FFFAC080E00D
:100B00000F3F09F0D1C11FEF80912A02F7018083C6
:100B1000038102FD01C1069506950695095FF091D6
:100B20002D02F9A3F170FAA3402F013208F040E240
:100B300050E0B7018AE092E00E94361D10929004C6
:100B400010929104109292041092930410929404C3
:100B500010929504109296041092970410929804A3
:100B60001092990410929A0410929B0410929C0483
:100B700010929D0410929E0410929F04109288047B
:100B80001092890410928A0410928B0410928C04A3
:100B900010928D0410928E0410928F04B0E19B2E5F
:100BA000013110F000E2902EC92CC294FFE0CF2258
:100BB000D12CAAE0AA2EA2E0BA2E7E0181E1E80E95
:100BC000F11C0BE1B50180E994E00E94550480918D
:100BD000960390919703892B09F41EC148E953E0CD
:100BE00060E974E0C7010E942E0488248394482D94
:100BF00050E08091960390919703481759070CF0A5
:100C00008DC09701DE0111966FE0362E7AE0472EF7
:100C1000E5E05E2EF701E50DF11D708084E0850DA5
:100C20008F70582EF701E40DF11D808194E0940D32
:100C30009F70492EF701E30DF11D908164E0630D73
:100C40006F70362EF9016081E62FF0E0E757FE4F16
:100C50007491E72DF0E0E757FE4F6491E82FF0E044
:100C6000E757FE4F8491E92FF0E0E757FE4F94914C
:100C7000672E660C77FD6026E62FEE0F67FDE027F6
:100C8000282E220C87FD2026792E770C97FD7026C2
:100C9000F62FF827F927F625FE27FC93F72FF827DC
:100CA000F927FE27F2251196FC93119767279627BF
:100CB0002926272412962C921297862768267624B6
:100CC00013967C9213972C5F3F4F1496EA16FB06FF
:100CD00009F0A0CF94E0440F551F9A95E1F74856CC
:100CE0005C4FBE016F5F7F4FC7010E942E0483944B
:100CF0007ECF10912B02002309F406CF0F3F09F499
:100D000002CF802F90E003960E94CF1C182F8F3FB8
:100D100009F0FACE102FF8CE00E201CFE989F0E019
:100D2000E757FE4FE491E98BED89F0E0E757FE4F7E
:100D3000E491ED8BE98DF0E0E757FE4FE491E98F08
:100D4000ED8DF0E0E757FE4FE491ED8F8A89EE8953
:100D5000F0E0E757FE4FE491EA8BEA8DF0E0E757C9
:100D6000FE4FE491EE8BEE8DF0E0E757FE4FE491FD
:100D7000EA8FE82FF0E0E757FE4FE491EE8F8B8982
:100D8000EB8DF0E0E757FE4FE491EB8BE82FF0E0BE
:100D9000E757FE4FE491EB8F8F89EF8DF0E0E75737
:100DA000FE4FE491EF8BE82FF0E0E757FE4FE49120
:100DB000EF8F88A1EC8DF0E0E757FE4FE491E8A3B8
:100DC000E88DF0E0E757FE4FE491EC8FEC89F0E01E
:100DD000E757FE4FE491E88FE82FF0E0E757FE4F2A
:100DE000E491EC8B84E0440F551F8A95E1F7485657
:100DF0005C4FB70180E994E00E942E0440E160E975
:100E000074E0C5010E942D02F0E1AF0EB11C81E03B
:100E1000C81AD10809F0D6CE2A9883E092E001974B
:100E2000F1F76EE080E20E9418058BE891E00197EF
:100E3000F1F7612F8AE20E941805612F80E30E947A
:100E4000180581EE0E9458051F3F19F0EAA180EABB
:100E5000E11180EB20E0492D6AE072E00E94E60497
:100E60002A9AF12CE12C8FEF0E945805082F8073ED
:100E700021F4F1E0EF1AF108B1F72A9860E387E274
:100E80000E94180504FF03C081EE0E9458050E94CD
:100E9000450505FF02C081E089A381E01F3F09F0FD
:100EA00080E099A19170892BA2960FB6F894DEBFCD
:100EB0000FBECDBFDF91CF911F910F91FF90EF90AB
:100EC000DF90CF90BF90AF909F908F907F906F906A
:100ED0005F904F903F902F9008952091400222FD07
:100EE0000C945E0580E00895CF92DF92EF92FF921E
:100EF000C0900602D0900702E0900802F09009022C
:100F0000C114D104E104F10431F50E946803609337
:100F100006027093070280930802909309021092D0
:100F200055038FEF8093560380935A0384E1809397
:100F3000590380915803807E83608093580367E54E
:100F400071E084E593E00E94B104FF90EF90DF90A0
:100F5000CF900C945E050E9468036C197D098E0980
:100F60009F0961387F448241910578F6FF90EF90A8
:100F7000DF90CF9008958F929F92AF92BF92CF92C1
:100F8000DF92EF92FF920F931F93CF93DF93CDB732
:100F9000DEB764970FB6F894DEBF0FBECDBF8E01EB
:100FA0000F5F1F4F80E1F80111928A95E9F760E128
:100FB00070E08BE291E00E943017AC016BE271E0CF
:100FC000C8010E94361D8AE090E0909397038093B9
:100FD000960340E1B80188E993E00E942D0250E0B9
:100FE00040E080E190E0FF24F39430E1E32EBE0185
:100FF0006B5E7F4FEBE1BE2ED82EFC01EC56FC4F12
:101000009E012F5E3F4FD901C190CD92A617B70721
:10101000D9F7DE1020C0D988F0E1EF0EEA89F0E0C0
:10102000E757FE4FE491EF25E98BEB89F0E0E757B6
:10103000FE4FE491EA8BEC89F0E0E757FE4FE49134
:10104000EB8BED2DF0E0E757FE4FE491EC8BF7FED4
:1010500010C1FF0CFB24FC01E856FC4F4F01F901C5
:10106000A1909F016401C81AD90AC40ED51EF601C9
:10107000D080DA24F401D1924F012A173B0779F787
:1010800004964C5F5F4F803B910509F0B5CF80E13E
:10109000F80111928A95E9F7229A219A2A98299AB9
:1010A0001FB7F89480910502811146C087EA93E04A
:1010B000FC0124914BEB53E0FA013491E22FF0E074
:1010C000EE0FFF1FED56FC4FA591B4912C913223EA
:1010D00021F5EFE7F1E02491FA014491FC019491AC
:1010E0009923D9F0222359F0233009F4CFC008F016
:1010F000C2C0213009F4D0C0223009F4D1C0E92F98
:10110000F0E0EE0FFF1FE757FC4FA591B4918FB7AA
:10111000F8949C91492B4C938FBF8AE00E940E0259
:101120008CB580618CBD8CB580648CBD8DE00E94D7
:101130000E028BE00E940E02809105028F5F809369
:1011400005021FBF2A986EE080E20E9418058BE41A
:1011500096E40197F1F763E083E20E9418056FE5DA
:1011600084E20E9418056CE485E20E94180567E09D
:1011700086E20E94180564E08DE30E9418058DE167
:101180000E945205843041F063E780E50E94180513
:1011900064E08DE30E94180586E00E9452058730C6
:1011A00009F08BC085E00E9452058C3409F085C09F
:1011B00062E082E20E94180560E081E20E94180568
:1011C00063E08CE30E9418058FEF8093030120E019
:1011D00045E063E071E08BE20E94E60420E045E038
:1011E00063E071E08AE20E94E60420E045E063E00B
:1011F00071E080E30E94E60482EE0E94580581EED1
:101200000E94580560E787E20E941805809140021D
:1012100080618093400280912D028E7F80932D0209
:1012200010922B0210922C0210922A0210920801A6
:1012300063E082E20E94180561E081E20E941805E5
:101240000E94450589E091E00E94C40364960FB6B0
:10125000F894DEBF0FBECDBFDF91CF911F910F91EC
:10126000FF90EF90DF90CF90BF90AF909F908F90C6
:101270000895FF0CF0CE2730B1F02830D1F02430A3
:1012800009F03DCF809180008F7D03C08091800068
:101290008F778093800033CF84B58F7784BD2FCF35
:1012A00084B58F7DFBCF8091B0008F778093B000A5
:1012B00026CF8091B0008F7DF9CF8DE091E0C4CF33
:1012C0000F931F93CF93DF93EC018C8182958695CA
:1012D0008770A9F44B8146954695469550E0BE012E
:1012E000695F7F4F82ED91E00E943F1DEB81E695A3
:1012F000E695E695F0E0EE52FE4F10820AC081308E
:1013000009F044C08F814AE062ED71E090E00E94F4
:1013100062178C8122ED31E03F932F939D811F92C4
:101320009F9384FB992790F91F929F9387701F9238
:101330008F938E811F928F9389811F928F9382E664
:1013400091E09F938F931F9288E78F93CAE5D1E036
:10135000DF93CF930E94D51709900020E9F7AE01E3
:101360004B5551406AE571E087EB92E00E945B02C9
:10137000EDB7FEB772960FB6F894FEBF0FBEEDBF85
:1013800081E0DF91CF911F910F910895823031F468
:101390004AE062ED71E08F819885B9CF833041F4E6
:1013A0004AE062ED71E08F8198850E94BB17B1CF52
:1013B000843051F46F81788589859A852AE042EDE1
:1013C00051E00E946D17A5CF853051F46F8178856B
:1013D00089859A852AE042ED51E00E94991799CFBC
:1013E000873051F1A2EDB1E09E01295F3F4F40E00F
:1013F000EB81E695E695E6954E1780F5B901F90182
:101400008081082E000C990B54E0959587955A958C
:10141000E1F78F708A30F0F4805D8C932F5F3F4F3F
:10142000FB0180818F708A30B8F4805D11968C93B7
:1014300011974F5F1296DCCF2B85293008F028E0FA
:101440006F81788589859A8502ED11E042E00E94DE
:10145000CD165FCF895CE1CF895CE8CFF0E0EE0F7D
:10146000FF1F49CFFC012281211102C00C946009A9
:101470000C946D07E4E5F3E0118212828FEF86830E
:1014800082E185838481807E848365E371E0CF017E
:101490000E94B1040C94320A0F931F93CF93DF93F1
:1014A00090917A03C0917603C111B5C09D3059F473
:1014B00088E198E00FB6F894A895809360000FBE7D
:1014C00090936000FFCF9B31A1F09630C1F49091D2
:1014D0007C0381E0992319F09D3409F080E080932A
:1014E000470241E050E063E071E087E492E00E944F
:1014F000D71C81E0DF91CF911F910F910895933117
:1015000019F40E943A0AF5CF923171F50E946803EE
:10151000009138021091390220913A0230913B0239
:10152000AB01BC01401B510B620B730B10925503B6
:10153000109256038FEF80935A0386E180935903EC
:1015400083EA809358038091570387708062809369
:10155000570340935B0350935C0360935D03709368
:101560005E0384E593E04EC0923019F2913011F59C
:1015700080E090E0892B09F4BCCF809179038295BB
:1015800086958770853059F460917C0370917D0356
:1015900080917E0390917F030E940000AACF811169
:1015A00005C08CE793E00E940917F6CF60E070E079
:1015B000CB01F2CF9A3049F580917C03833409F056
:1015C00098CFC3E0D0E06FEFCE010E94E71C2196D8
:1015D000C33081E0D807B9F7109255031092560333
:1015E0008FEF80935A038AE08093590380915803C8
:1015F000807E8360809358036BE371E084E593E021
:101600000E94B1040E94320A74CF81E09C3109F437
:1016100071CF80E06FCF9A31E1F70E94760410928B
:101620005503C09356039FEF90935A039BE1909309
:10163000590390915703977098609093570393E2E2
:101640009093580391E0823008F490E090935B030C
:1016500088CF2F923F924F925F926F927F928F929C
:101660009F92AF92BF92CF92DF92EF92FF920F9331
:101670001F93CF93DF93CDB7DEB7E9970FB6F894FA
:10168000DEBF0FBECDBF8091400284FFFDC30E942C
:10169000680300912E0210912F02209130023091A8
:1016A0003102601B710B820B930B613A7B4B8D40B7
:1016B0009105A0F00E94680360932E0270932F02A0
:1016C000809330029093310286E00E945205873069
:1016D00009F4C3C18DE091E00E94C40336E03BAB46
:1016E0001BE187E10E94520580FDCEC34BA941500A
:1016F0004BAB442309F4C8C321E041E070E060E053
:1017000080E60E94E604082F813220F082EE0E94DB
:10171000580500E021E0402F65E773E081E60E9474
:10172000E60460E487E20E9418051092900410928B
:1017300091041092920410929304109294041092C7
:1017400095041092960410929704109298041092A7
:10175000990410929A0410929B0410929C04109287
:101760009D0410929E0410929F041092880410927F
:10177000890410928A0410928B0410928C041092A7
:101780008D0410928E0410928F04013108F46CC104
:1017900082E090E09AAB89AB25E7222E23E0322E3F
:1017A00029A93AA9215031093AAB29AB2F3F3F4F24
:1017B00009F478C140E1B101CE0181960E942D0269
:1017C00040919603509197034115510509F46AC160
:1017D00094E0440F551F9A95E1F748565C4FB101CC
:1017E000CE0141960E942E04E989F0E0E757FD4FB3
:1017F000E491E98BED89F0E0E757FD4FE491ED8B43
:10180000E98DF0E0E757FD4FE491E98FED8DF0E0D1
:10181000E757FD4FE491ED8F8E8DEA8DF0E0E757AD
:10182000FD4FE491EE8FEE89F0E0E757FD4FE49134
:10183000EA8FEA89F0E0E757FD4FE491EE8BE82F5D
:10184000F0E0E757FD4FE491EA8B8B89EB8DF0E0F8
:10185000E757FD4FE491EB8BE82FF0E0E757FD4FA2
:10186000E491EB8F8F89EF8DF0E0E757FD4FE49126
:10187000EF8BE82FF0E0E757FD4FE491EF8F8C8975
:10188000E88DF0E0E757FD4FE491EC8BEC8DF0E054
:10189000E757FD4FE491E88FE8A1F0E0E757FD4FEF
:1018A000E491EC8FE82FF0E0E757FD4FE491E8A3D7
:1018B000009196031FAA1EAA8FEF800FE82FF0E079
:1018C000F9AFE8AF015009F4D4C048AD59AD2EA925
:1018D0003FA9421B530B84E0440F551F8A95E1F743
:1018E00048565C4FBE016F5E7F4FCE0101960E944D
:1018F0002E04CE0101967C019E012F5E3F4F3DAB31
:101900002CABA5E0B0E0F701908181813281238189
:10191000792F770F97FD7127B82EBB0C87FDB12665
:10192000C32ECC0C37FDC126622F660F27FD612721
:10193000472F440F77FD41274B2C440CB7FE04C0C2
:101940005B2D550F452E41269C2C990CC7FC9126EA
:10195000A62EAA0C67FDA126D42EDD0C47FF04C0DD
:10196000542F550FD52ED126542D550F47FC5127F6
:10197000F92DFF0F97FCF127EA2DEE0FA7FCE127C9
:10198000792E7D24582E5526832E8F26622E6E2684
:101990004D2554259F26AE26E32FE727EB25E42788
:1019A000E525E925E625F0E0E757FD4F3491ECA960
:1019B000FDA93083E22FEB25EC25E725E527E82577
:1019C000EA25F0E0E757FD4FD490FD01EF70FF27C7
:1019D00021E130E02C0F3D1FE20FF31FD0829C2548
:1019E00096274927542695246924E62DF0E0E757E9
:1019F000FD4F6490FD013596EF70FF2721E130E047
:101A00002C0F3D1FE20FF31F6082E82FE727E62728
:101A1000E7255E27E52FE825AE26EA2DF0E0E7571B
:101A2000FD4FA490FD013A96EF70FF27E20FF31FE0
:101A3000A08294E0E90EF11C2CA93DA92C5F3F4F38
:101A40003DAB2CAB1496A531B10509F05CCF8EA946
:101A50009FA901969FAB8EAB35CF85E00E945205C2
:101A60008C3409F037CE3ACEE1E0F0E0FAABE9ABE6
:101A700093CE48E953E0BE016F5E7F4FC1010E94E3
:101A80002E0460E974E0C1010E94550440E1BE01EA
:101A90006F5D7F4F80E994E00E942D0290E1290E56
:101AA000311C7ECEF09078038F2D8370823009F048
:101AB00018CEC090790300917A03E0907603A0904D
:101AC0007503B090770380912A02E81631F08E2DCD
:101AD00090E06A2D03960E94E71CEC2DE770CE2E55
:101AE0008091410280688093410290912A02B9124C
:101AF000C9C080917803282F2695269526952A31EE
:101B000008F029E1F8E02F9F900111248770822BC3
:101B100080937803EF2DE695E695E695EA3108F097
:101B2000E9E1F0E0EB58FC4F17828091790383FFE5
:101B300015C021E2E5E7F3E0A4E5B3E001900D92E2
:101B40002A95E1F7877F806180935803909355032E
:101B5000E092560384E593E00E946D07809179033B
:101B600084FD82C023E0C2127FC090917A039F302F
:101B7000E9F018F0923108F4B4CD083109F03FC013
:101B800010925503E09256038FEF80935A0389E138
:101B90008093590380915803807E8360809358031B
:101BA00061E084E593E00E94AD0357C09091760315
:101BB00010927603909377039FEF90937B03807E40
:101BC00083608093790367E571E085E793E00E9485
:101BD000B10480917803877080618093780380914D
:101BE00079038F71806C8093790381E080937C030B
:101BF00010927D0385E793E00E94320A72CD09318D
:101C000061F48091400283FF6CCD877F8093400216
:101C10000E9476048093420264CD0E3109F461CDB6
:101C20000D31F1F410925503109256038FEF80930B
:101C30005A038FE18093590383E480935803809182
:101C40005703877080618093570380E09FEF9093E4
:101C50005C0380935B0384E593E00E945E0541CDC5
:101C60000E944C0A81113DCD85E793E00E946009F6
:101C700080E090E0892B09F434CD85E793E00E9461
:101C800000002FCD3FEFB312E7C043E0E413D2C012
:101C90008091400282FFCBC0073009F0C8C080911C
:101CA0002B02E81609F41DCD0E94680340903C0207
:101CB00050903D0260903E0270903F026419750999
:101CC00086099709603177428105910530F180914D
:101CD000400283FB002700F983FD03CD90912A0287
:101CE00091114AC01092420280914002877F8093F6
:101CF0004002009142020F3F09F4F3CC0E946803B6
:101D000060933C0270933D0280933E0290933F02A9
:101D100080912C02801300932C020E946803609330
:101D20003C0270933D0280933E0290933F020E94DA
:101D300068034B015C0123E09222AA24BB240E9489
:101D400076132B013C0181149104A104B10409F024
:101D500062C010925503E09256038FEF80935A03AE
:101D600088E08093590380915803807E836080933C
:101D7000580360912C0215CF886080934002B09286
:101D800042021092550310925603B0925A0388E112
:101D90008093590380915803807E83608093580319
:101DA00061E084E593E00E94AD030E945E050E941D
:101DB00068034B015C0110927A030E946803681962
:101DC00079098A099B09603D77408105910508F0F2
:101DD0008BCF011189CF0E94290BA895809179039F
:101DE0008770833051F701E080917A03893129F3BC
:101DF00000E0E3CF31E0831A9108A108B10848EE72
:101E0000440E43E0541E611C711C81149104A10412
:101E1000B10409F498CF0E947613641975098609F4
:101E20009709683E73408105910520F78CCF0830F3
:101E300009F457CC80912B02A8120AC0E91641F090
:101E40008091400282FF04C085E793E00E945E0516
:101E5000F3E0CF1209CF45CC8091400282FF41CC04
:101E600023E0E2130EC088EE800F823050F40E940F
:101E700076048E3F31F061E0680F85E793E00E94C1
:101E8000AD0385E793E0E9CEE9960FB6F894DEBF9F
:101E90000FBECDBFDF91CF911F910F91FF90EF90BB
:101EA000DF90CF90BF90AF909F908F907F906F907A
:101EB0005F904F903F902F9008951F920F920FB612
:101EC0000F9211242F933F934F935F936F937F93C0
:101ED0008F939F93AF93BF93EF93FF9387EB92E022
:101EE0000E94CF02FF91EF91BF91AF919F918F918F
:101EF0007F916F915F914F913F912F910F900FBE06
:101F00000F901F9018951F920F920FB60F921124E9
:101F10002F938F939F93EF93FF93E091C702F091DC
:101F2000C8028081E091CD02F091CE0282FD1BC0FB
:101F300090818091D0028F5F8F732091D1028217A0
:101F400041F0E091D002F0E0E954FD4F958F80938D
:101F5000D002FF91EF919F918F912F910F900FBE23
:101F60000F901F9018958081F4CF1F920F920FB69B
:101F70000F9211242F933F938F939F93AF93BF930F
:101F80008091AF029091B002A091B102B091B202E3
:101F90003091AE0223E0230F2D3758F50196A11D95
:101FA000B11D2093AE028093AF029093B002A09334
:101FB000B102B093B2028091B3029091B402A091A9
:101FC000B502B091B6020196A11DB11D8093B30276
:101FD0009093B402A093B502B093B602BF91AF91B3
:101FE0009F918F913F912F910F900FBE0F901F9057
:101FF000189526E8230F0296A11DB11DD2CF1F927E
:102000000F920FB60F9211242F933F934F935F932C
:102010006F937F938F939F93AF93BF93EF93FF93B0
:10202000E0911701F09118010995FF91EF91BF918F
:10203000AF919F918F917F916F915F914F913F9160
:102040002F910F900FBE0F901F9018951F920F9217
:102050000FB60F9211242F933F934F935F936F937B
:102060007F938F939F93AF93BF93EF93FF93E091F1
:102070001501F09116010995FF91EF91BF91AF9174
:102080009F918F917F916F915F914F913F912F9190
:102090000F900FBE0F901F9018951F920F920FB6C2
:1020A0000F9211240F900FBE0F901F901895DB0117
:1020B000FC0158E0149744E018960E9001924A955E
:1020C000E1F75A95C1F708958F929F92AF92BF9210
:1020D000CF92DF920F931F93EDB7FEB7B8970FB66D
:1020E000F894EDBF0FBEFEBF9F938F9331968F0183
:1020F00049015A016B01C801AAD2BB2011F4AA20E0
:1021000059F0C801B601A1D030E4C30ED11C32E0B1
:10211000931AA108B108F1CFC801B601A40115D0E6
:102120008F919F91B801C3DFEDB7FEB7B8960FB698
:10213000F894EDBF0FBEFEBF1F910F91DF90CF90BF
:10214000BF90AF909F908F900895523090F09F93E2
:102150008F937F936F935F934F9377D04F915F915E
:102160006F917F918F919F91525030E4630F711D59
:10217000ECCFEDB7FEB70FB6E054F040F894EDBFEA
:102180000FBEFEBF3196242F26952695269550FB2F
:1021900025F9DB01222329F0122E0D9001921A94C9
:1021A000E1F730E8032E37E0342329F006943A951E
:1021B000E9F73C91032A01922395293308F421C0C1
:1021C00030E4321B19F011923A95E9F7FF973197F5
:1021D000BF01FF93EF939F938F935F934F9335D0FE
:1021E0004F915F918F919F91EF91FF91DC019196BB
:1021F0003C9132503D9326E03C9130403D932A95EE
:10220000D9F738E3321B21F0112411923A95E9F7FE
:10221000DC01909638960D90040E02920D90051EEA
:10222000029236E00D90011C02923A95D9F7F89788
:10223000BF010BD0EDB7FEB70FB6FF963196F894FD
:10224000EDBF0FBEFEBF112408954F925F926F92B3
:102250007F928F929F92AF92BF92CF92DF92EF9236
:10226000FF920F931F93CF93DF934DB75EB79A0101
:10227000FB0140525140DA010FB6F8944DBF0FBE3A
:102280005EBF2F933F938F939F93119640E171917F
:102290006191319121912D933D936D937D934A9559
:1022A000B1F740E3142EFD01FF9731970191119191
:1022B00021913191C190D190E190F1906D2D7E2DC1
:1022C0008F2D9C2D41E0E9D14B015C01B701C60186
:1022D00042E0F9D186269726A826B92673E0F6941F
:1022E000E794D794C7947A95D1F78C249D24AE2493
:1022F000BF24080D191D2A1D3B1D648D758D868D0B
:10230000978D060F171F281F391FC0A8D1A8E2A854
:10231000F3A8B701C60141E0D6D15C014B0142E010
:10232000D2D186269726A826B92672E0F694E7949D
:10233000D7947A95D9F78D249E24AF24080D191DC2
:102340002A1D3B1D0D931D932D933D931A9409F067
:10235000AACFFF91EF91EF93FF9390E211901D921E
:102360009A95E1F79097ED01EEE4F5E2BA9590E4E5
:10237000192E4C885D886E887F88688979898A895A
:102380009B89C88CD98CEA8CFB8C46225722682208
:1023900079226095709580959095C622D722E82283
:1023A000F9224C245D246E247F24F888C988DA88B9
:1023B000EB88B601C70142E070D14B015C01B60168
:1023C000C70143E080D186269726A826B926B70103
:1023D000C60141E078D186269726A826B926480C62
:1023E000591C6A1C7B1C8C8C9D8CAE8CBF8C480C41
:1023F000591C6A1C7B1C8D909D90AD90BD90480C23
:10240000591C6A1C7B1C85909590A590B590480C32
:10241000591C6A1C7B1C688179818A819B818C8014
:102420009D80AE80BF8086229722A822B922C884D0
:10243000D984EA84FB846C217D218E219F2186260C
:102440009726A826B9266C817D818E819F816C217B
:102450007D218E219F2186269726A826B926C88011
:10246000D980EA80FB80B601C70142E02CD18B0104
:102470009C01B701C60143E010D106271727282782
:1024800039276F2D7C2D8D2D9E2D42E006D10627FC
:10249000172728273927080D191D2A1D3B1D5CE128
:1024A0006C969A919C835A95E1F7C888D988EA88F6
:1024B000FB88C40CD51CE61CF71CC88AD98AEA8A9A
:1024C000FB8A040D151D261D371D088319832A83D9
:1024D0003B831A9409F04DCFFF91EF9158E00081B2
:1024E0001181228133816991799189919991060FA6
:1024F000171F281F391F01931193219331935A9568
:1025000071F7319652E066E04081450F41935527BF
:1025100028F44081451F41936A95D1F75F914F910F
:102520000FB6F8944DBF0FBE5EBF1124DF91CF915F
:102530001F910F91FF90EF90DF90CF90BF90AF90E1
:102540009F908F907F906F905F904F900895982FFD
:102550008A4291443771CFFBC0B5A5DBB5E95BC2B8
:102560005639F111F159A4823F92D55E1CAB98AA5D
:1025700007D8015B8312BE853124C37D0C55745D81
:10258000BE72FEB1DE80A706DC9B74F19BC1C169FF
:102590009BE48647BEEFC69DC10FCCA10C246F2CD7
:1025A000E92DAA84744ADCA9B05CDA88F976525124
:1025B0003E986DC631A8C82703B0C77F59BFF30B3B
:1025C000E0C64791A7D55163CA0667292914850A31
:1025D000B72738211B2EFC6D2C4D130D3853547327
:1025E0000A65BB0A6A762EC9C281852C7292A1E85F
:1025F000BFA24B661AA8708B4BC2A3516CC719E8D7
:1026000092D1240699D685350EF470A06A1016C1B1
:10261000A419086C371E4C774827B5BCB034B30CEE
:102620001C394AAAD84E4FCA9C5BF36F2E68EE82C3
:102630008F746F63A5781478C8840802C78CFAFF7A
:10264000BE90EB6C50A4F7A3F9BEF27871C6DC0122
:10265000E0E6F6E268E275917D936A95E1F7089508
:1026600067E6096A85AE67BB72F36E3C3AF54FA523
:102670007F520E518C68059BABD9831F19CDE05B4F
:102680000000000000000000483038F0592F982F5B
:10269000872F762F652F4850F7CF552788944423EE
:1026A00039F0661F771F881F991F551F4A95C9F774
:1026B000652B0895483038F0562F672F782F892FD3
:1026C000952F4850F7CF55278894442339F0979594
:1026D00087957795679557954A95C9F7952B0895EE
:1026E000AB01692F782F852F942F08953FB7F89469
:1026F0008091B3029091B402A091B502B091B6025C
:1027000026B5A89B05C02F3F19F00196A11DB11D4C
:102710003FBFBA2FA92F982F8827BC01CD01620F88
:10272000711D811D911D42E0660F771F881F991F43
:102730004A95D1F70895CF93DF93FC01108211825F
:102740001282148215821682DC0117968AE1ED014D
:1027500019928A95E9F782E08383DF91CF910895FA
:10276000CF93DF93CDB7DEB728970FB6F894DEBFCF
:102770000FBECDBFE7EBF2E01382128288EE93E04A
:10278000A0E0B0E084839583A683B7838DE191E0D8
:102790009183808385EC90E09587848784EC90E03A
:1027A0009787868780EC90E0918B808B81EC90E01E
:1027B000938B828B82EC90E0958B848B86EC90E0FF
:1027C000978B868B118E128E138E148E83EB94E072
:1027D0000E949B1398E09E012F5F3F4FD901E92F84
:1027E0001D92EA95E9F7E8E8F4E081E08083118240
:1027F0001282138214821582168217821092970316
:10280000109296031092A1041092A0041092A304B7
:102810001092A204E8E9F3E040EFDF011D924A952F
:10282000E9F7888748E0F901A0E9B4E001900D924A
:102830004A95E1F748E0F901A8E9B4E001900D926A
:102840004A95E1F78093A40482E08093A50483E095
:102850008093A60484E08093A70485E08093A80475
:1028600086E08093A90487E08093AA049093AB0448
:1028700089E08093AC048AE08093AD048BE0809380
:10288000AE048CE08093AF048DE08093B0048EE0C2
:102890008093B1048FE08093B20485E793E00E94B7
:1028A0009B1384E593E028960FB6F894DEBF0FBE25
:1028B000CDBFDF91CF910C949B13CF93DF93CDB716
:1028C000DEB7CA55D1090FB6F894DEBF0FBECDBF33
:1028D000789484B5826084BD84B5816084BD85B5FB
:1028E000826085BD85B5816085BD80916E00816007
:1028F00080936E00109281008091810082608093AD
:1029000081008091810081608093810080918000AE
:102910008160809380008091B10084608093B100D9
:102920008091B00081608093B00080917A008460D3
:1029300080937A0080917A00826080937A008091FF
:102940007A00816080937A0080917A008068809319
:102950007A001092C100A89580E090E0892B11F0D8
:102960000E940000E091C702F091C80282E08083DB
:10297000E091C302F091C4021082E091C502F0918F
:10298000C60280E180831092CF02E091CB02F091E9
:10299000CC0286E08083E091C902F091CA02808176
:1029A00080618083E091C902F091CA0280818860D1
:1029B0008083E091C902F091CA028081806880839F
:1029C000E091C902F091CA0280818F7D808380915D
:1029D00048028D7F8093480280E090E0892B11F0BF
:1029E0000E94000040E250E063E671E0CE010196F3
:1029F0000E94BF1C40E150E06CE871E0CE0181967E
:102A00000E94BF1C49E050E063E871E0CE01C1962E
:102A10000E94BF1C41E050E06AE171E0CE01865A9D
:102A20009F4F0E94BF1C28EC31E040E050E0BE0107
:102A30006F5F7F4FCE01CA960E94641041E050E064
:102A400063E071E087E492E00E94BF1C6FEF81E0D9
:102A500090E00E94E71C809141028F7880934102B0
:102A6000109237021092360281E191E00E94C40375
:102A700085E793E090934602809345020E946803A5
:102A80000E9468030E94B9030E94290B80914002B2
:102A900082FB882780F9A895882391F3109255032B
:102AA000109256038FEF80935A038EE08093590360
:102AB00080915803807E8360809358036EE371E0B9
:102AC00084E593E00E94B1040E9460090E943A0AE2
:102AD0000E947E03A89570E0E72E70E0F72EE0E0FC
:102AE000CE2EE0E0DE2E77247A94A89587EB92E054
:102AF0000E94B902892B09F4ADC087EB92E00E94D5
:102B000097029091AD02933608F033C1E92FF0E0BF
:102B1000E75BFD4F8A3009F027C11082AE01465CA9
:102B20005F4F68E571E089E492E00E943B17A12CB9
:102B300010E000E0B12C812C912C009709F485C0A5
:102B40000630110509F498C00330110509F44AC094
:102B5000B4F401301105A9F102301105B9F10E9458
:102B6000EB168093B5040F5F1F4FAE01465C5F4FBD
:102B700068E571E090E080E00E943B17DECF043012
:102B8000110509F43FC00530110549F724E0FC01A7
:102B9000A21249C08081882331F38A33C4F580535F
:102BA0008295807F91819A33C4F59053A1E0B0E083
:102BB000AC0FBD1FAB0DB11D890F8C93B394329632
:102BC000E9CF0E94EB168093B904CDCF0E94EB169B
:102BD000A82E8091B704887F9A2D9770892B8093B7
:102BE000B704C1CF2091B704622EE89463F80E9425
:102BF000EB16892B29F088E0682A6092B704B3CFDE
:102C000080E0FACF0E94EB168093B804ACCF8136F7
:102C100014F08755C5CF8753C3CF913614F097551D
:102C2000C5CF9753C3CF01900020E9F7E81BE250CE
:102C3000E80FF92FF11D20812D3009F41082208139
:102C40002A3009F410824C018ECF05301105A4F40E
:102C50001092AD020E94B9030E94290B0E948903C1
:102C6000C114D10409F441CF0E94C502882309F49C
:102C70003CCF0E94000039CF1092B4041092B304EC
:102C80008091B7048F7E8093B70494E0A91266C048
:102C90004B2D4A3108F049E19091B604977050E00D
:102CA0009A0163E0220F331F6A95E1F7922B90930C
:102CB000B6048F71806C8093B704BE016F5F7F4F45
:102CC0008AEB94E00E94361D1092AD0281E2E3EBA4
:102CD000F4E0A5E7B3E001900D928A95E1F78091C9
:102CE0007703811155C08091790383FF17C091E26A
:102CF000E5E7F3E0A4E5B3E001900D929A95E1F7E2
:102D0000877F8061809358031092550380917603EA
:102D10008093560384E593E00E94600980917903D3
:102D20008770833061F580917A03823029F51092A3
:102D300055031092560370925A0380935903809161
:102D40005803807E83608093580365E371E084E5D7
:102D500093E00E94B1040E9460097CCFB40183EB30
:102D600094E00E94B104B0CF80839F5F9093AD0246
:102D7000BDCE1092AD02BACE0E944C0A6BCFE114C8
:102D8000F10409F467CF85E793E00E94000062CF69
:102D900085E793E00E946D075DCFEF920F931F933D
:102DA000CF93DF93E80134E047FD34E1042E000CBB
:102DB000550B57FF03C0519541955109E32E022F42
:102DC000242FAE010E94DF19CE01DF91CF911F9118
:102DD0000F91EF900895FC0188279927E89421919D
:102DE0002032E9F3293010F02E30C8F32B3241F0B5
:102DF0002D3239F4689404C00E949117820F911DFE
:102E0000219120532A30C0F31EF4909581959F4F55
:102E100008951F93FC0199278827BC01E89411911C
:102E20001032E9F3193010F01E30C8F31B3251F0A4
:102E30001D3249F4689406C00E947C17610F711D11
:102E4000811D911D119110531A30B0F33EF49095ED
:102E50008095709561957F4F8F4F9F4F1F9108957B
:102E6000FC016150704001900110D8F78095909559
:102E70008E0F9F1F0895FA01A191B081009719F458
:102E80001097E1F0CD01DC01CD010D90002011F48F
:102E9000C00113C0FB012191222319F02015D9F79D
:102EA000F3CFFB012191201519F41E92119606C053
:102EB0002223C1F70D900020A1F7D001FA01A193C0
:102EC000B0830895BB274A3031F4992322F4BDE240
:102ED000909581959F4F0C94BC17BB272A3051F4D5
:102EE000992342F4BDE290958095709561957F4F4E
:102EF0008F4F9F4F0C949A17592F482F372F262FFB
:102F0000660F771F881F991F660F771F881F991FED
:102F1000620F731F841F951F660F771F881F991FED
:102F200008957AE0979F902D879F802D910D112411
:102F30000895BB27FA01A62F621771058105910537
:102F4000330B30FB66F0AA27660F771F881F991F87
:102F5000AA1FA21710F0A21B63953850A9F7A05D15
:102F6000AA3308F0A95DA19336F7B111B19310828D
:102F7000CA010C94211CBB27FB015527AA27880FE7
:102F8000991FAA1FA41710F0A41B83955051B9F7DD
:102F9000A05DAA3308F0A95DA193009779F7B1115C
:102FA000B1931192CB010C94211CAEE0B0E0EBED9B
:102FB000F7E10C94071D0D891E898F89988D2EE0ED
:102FC0002C831A83098397FF02C080E090E8019761
:102FD0009E838D83AE01455E5F4F698D7A8DCE01F4
:102FE00001960E9405184D815E8157FD0AC02F8110
:102FF0003885421753070CF49A01020F131FF8018A
:1030000010822E96E4E00C94231DABE0B0E0EBE0E0
:10301000F8E10C94F91C7C013B018A01FC01178248
:103020001682838181FFC8C1CE0101965C01F70140
:103030009381F30193FD859193FF81913F01882353
:1030400009F453C1853239F493FD859193FF819141
:103050003F01853229F4B70190E00E94311CE7CF8F
:10306000912C212C312CFFE1F31538F08B3211F12A
:1030700090F4803209F1833229F137FC3CC020ED15
:10308000280F2A3050F536FE20C08AE0989E200D89
:103090001124922E06C08D3291F0803371F768941E
:1030A00030F8F30193FD859193FF81913F018111E8
:1030B000DACF21C0689431F8689432F8F2CF68947E
:1030C00033F8EFCF689434F8ECCFEAE02E9E200D71
:1030D0001124222E689435F8E4CF8E3229F436FC80
:1030E00004C1689436F8DDCF8C3619F4689437F84B
:1030F000D8CF8836B1F2982F9F7D95549330E0F069
:103100008336A1F18337C1F1833509F063C028010B
:10311000F2E04F0E511CF801C080D180692D70E0A3
:1031200036FC02C06FEF7FEFC6010E94161C4C01F7
:10313000689437F882010AC00C5F1F4FFFE3F983E0
:1031400088248394912C6501E89437F833FE2DC0D0
:10315000522C8114910471F5552009F468CFB70100
:1031600080E290E00E94311C5A94F6CFF8018081F1
:1031700089830E5F1F4FE4CF2801F2E04F0E511CF0
:10318000F801C080D180692D70E036FC02C06FEF7D
:103190007FEFC6010E9430174C018201D5CFB701E5
:1031A00080E290E00E94311C2A942814190409F04E
:1031B000B0F7CECFF60137FC859137FE81916F01D4
:1031C000B70190E00E94311C51105A94F1E08F1A1F
:1031D0009108BFCF843619F0893609F077C0F8011D
:1031E00037FE6BC060817181828193810C5F1F4FBC
:1031F000F32DFF763F2E97FF09C09095809570952F
:1032000061957F4F8F4F9F4F689437F82AE030E0E9
:10321000A5010E94611CC82ECA188C2C432C36FEB6
:103220000CC0E89440F8C91440F434FE05C032FCE8
:1032300003C0F32DFE7E4F2E892C44FE95C0FE0167
:10324000EC0DF11D8081803309F087C0242D297E8B
:10325000422E842D8870582E43FC95C040FE8FC0AE
:103260009C2C821418F42C0C922C981844FE91C0BB
:10327000B70180E390E00E94311C42FE09C088E75C
:1032800090E041FE02C088E590E0B7010E94311C49
:10329000C91408F48AC0CA94D12C9FEFC91AD90A5C
:1032A000CA0CDB1CF60182916F01B70190E00E940D
:1032B000311CAC14BD04B1F74FCF60817181072E72
:1032C000000C880B990B0E5F1F4F92CFD32CE89404
:1032D000D4F82AE030E0853739F1232D297FD22E2A
:1032E0008F3601F148F48835A9F0F701868197817E
:1032F0002B96E2E10C94151D803749F08837A9F729
:10330000D4FE02C06894D2F820E130E00DC0689489
:10331000D4F8F6CF34FE03C0822F8660D82E20E189
:1033200032E002C028E030E0F801D7FE0FC0608133
:103330007181828193810C5F1F4FA5010E94611CE6
:10334000C82ECA183D2CE89437F867CF6081718188
:1033500090E080E00E5F1F4FF0CF42FC02C08394EC
:1033600078CF8394839475CF842D867809F471CFB8
:10337000F6CFB70180E290E00E94311C8394821462
:10338000C0F3512C73CF522C5818821408F46ECF0E
:10339000F8CF842D867809F47BCF8BE241FE80E262
:1033A00047FC8DE2B70190E071CFB70180E390E078
:1033B0000E94311C9A946CCF8FEF9FEF99CFA9E0B8
:1033C000B0E0E5EEF9E10C94FF1C6A01F22EB02E9C
:1033D000102FFBE3AF2EA01608F41BE31F5F012F95
:1033E00027E0AE014F5F5F4F0E943E1BBC01898109
:1033F000982F9970913009F43FC09BE2E1FC04C022
:103400009E2D9170E0FC3AC05E2D5071E82FE8705F
:1034100083FF46C084E0911101C083E0EF2DE81BDB
:103420008F1508F0E0E0D6018E2F20E2552351F1F0
:10343000992329F0D6019C93C60101966C0196014F
:103440002D5F3F4FE2FE24C08EE4D6018C9391E4C1
:1034500011969C93119712968C93D9018E2F90E21E
:1034600081111BC0E20FF32FF11D10828EEF9FEF31
:103470002996ECE00C941B1D9DE2C6CF90E2C4CFD0
:103480002D9381508111FCCFCE0ED11CE0E0D0CF26
:103490008EE6D6018C9391E6DBCF9D938150E0CFF1
:1034A000482F447082FF3DC084E0911101C083E049
:1034B0008F1510F4EF2DE81BD6018E2F20E2552337
:1034C00009F1992329F0D6019C93C60101966C015C
:1034D00096012D5F3F4FE2FE1BC089E4D6018C931D
:1034E0008EE411968C93119786E412968C93D901F1
:1034F0008E2F90E2882309F4B5CF9D938150FACFA7
:103500002D9381508111FCCFCE0ED11CE0E0D9CF9C
:1035100089E6D6018C938EE611968C93119786E6F8
:10352000E4CF9B0177FF02C030E020E0A1E0B0E0F3
:10353000911102C0B0E0A0E0F9013196AE0FBF1FBB
:103540008B2C912CBB2009F461C05401EFEFAE1A13
:10355000BE0AAA0DBB1DFA161B0619F014F04F2D5A
:103560004A1B511188C0E3FC59C07601A42FB0E278
:10357000A1114FC0C40ED11C992309F45BC040E0D7
:10358000D6011196F60190836D01552309F448C0C8
:10359000012F060F9A81582F507184FF03C0913379
:1035A00009F4015010160CF047C0093008F008E08B
:1035B000EEE2FE2E5B01A01AB10885019194819480
:1035C00091082F3F320729F4D601FC92F60131967B
:1035D0006F016217730794F1021713077CF5DB0183
:1035E000A21BB30BAA24A394B12CAC0EBD1EAA0D32
:1035F000BB1D11968C9121503109D60111962815C9
:103600003905F4F0F60180836D01DBCFB12CA12CDC
:10361000A0CFF701B1937F01A150AACF9111B0CFF4
:10362000D601942F50E302C05D9391509111FCCFCD
:10363000C40ED11C40E0ACCF01E0BACF80E3DBCFB9
:103640006217730731F4963388F4953311F45523D8
:1036500069F0F6018083FD01842F90E2811108C09A
:10366000A40FB11D1C9290E080E002CF81E3F1CF66
:1036700091938150F3CF911183CF8ACF283008F0F6
:1036800027E03327DA01990F311D87FD91600096FD
:103690006105710539F432602E5F3D9330E32A9560
:1036A000E1F708959F3F30F080387105610509F01A
:1036B0003C5F3C5F3D93913008F08068911DDF9343
:1036C000CF931F930F93FF92EF92192F987F9695A8
:1036D000E92F96959695E90FFF27EE53FF4F99270F
:1036E0003327EE24FF24A701E701059008940794EF
:1036F00028F4360FE71EF81E491F511D660F771F6D
:10370000881F991F0694A1F70590079428F4E70EE7
:10371000F81E491F561FC11D770F881F991F661F6E
:103720000694A1F70590079428F4F80E491F561F38
:10373000C71FD11D880F991F661F771F0694A1F719
:103740000590079420F4490F561FC71FD81F990FE3
:10375000661F771F881F0694A9F78491109517702C
:1037600041F0D695C79557954795F794E7941A95E4
:10377000C1F7E8E6F0E068941590159135916591F0
:10378000959105907FE27395E118F10A430B560B72
:10379000C90BD009C0F7E10CF11E431F561FC91F0A
:1037A000D01D7EF4703311F48A95E6CFE894015071
:1037B00030F0080F0AF40027021708F4202F239591
:1037C000022F7A3328F079E37D932A95E9F710C028
:1037D0007D932A9589F60694979567953795179561
:1037E0001794E118F10A430B560BC90BD00998F056
:1037F00023957E9173957A3308F070E37C932013C0
:10380000B8F77E9170617D9330F0839571E37D937D
:1038100070E32A95E1F71124EF90FF900F911F912B
:10382000CF91DF91992787FD90950895FC01059030
:10383000615070400110D8F7809590958E0F9F1FB2
:103840000895DC01FC01672F71917723E1F732972E
:1038500004C07C916D9370836291AE17BF07C8F36B
:1038600008950F931F93CF93DF93182F092FEB0128
:103870008B8181FD09C01FEF0FEF812F902FDF910A
:10388000CF911F910F91089582FF14C02E813F8127
:103890008C819D81281739073CF4E881F981CF019B
:1038A00001969983888310838E819F8101969F83DF
:1038B0008E83E3CFE885F985812F0995892BA1F3C4
:1038C000DACFFA01AA27283051F1203181F1E894AA
:1038D0006F936E7F6E5F7F4F8F4F9F4FAF4FB1E003
:1038E0003ED0B4E03CD0670F781F891F9A1FA11DFE
:1038F000680F791F8A1F911DA11D6A0F711D811DFF
:10390000911DA11D20D009F468943F912AE0269FC3
:1039100011243019305D3193DEF6CF010895462F22
:103920004770405D4193B3E00FD0C9F7F6CF462F03
:103930004F70405D4A3318F0495D31FD405241936C
:1039400002D0A9F7EACFB4E0A69597958795779529
:103950006795BA95C9F700976105710508959B01B0
:10396000AC010A2E06945795479537952795BA9539
:10397000C9F7620F731F841F951FA01D0895DC01F6
:10398000CB01FC01F999FECF06C0F2BDE1BDF89A6A
:10399000319600B40D9241505040B8F70895F9990E
:1039A000FECF92BD81BDF89A992780B50895DC01BC
:1039B000A40FB51F4150504048F0CB01840F951F14
:1039C0002E910E94E81C41505040D0F70895262FB8
:1039D000F999FECF92BD81BDF89A019700B4021605
:1039E00039F01FBA20BD0FB6F894FA9AF99A0FBEB3
:1039F00008952F923F924F925F926F927F928F9293
:103A00009F92AF92BF92CF92DF92EF92FF920F936D
:103A10001F93CF93DF93CDB7DEB7CA1BDB0B0FB677
:103A2000F894DEBF0FBECDBF09942A883988488834
:103A30005F846E847D848C849B84AA84B984C884CA
:103A4000DF80EE80FD800C811B81AA81B981CE0FC1
:103A5000D11D0FB6F894DEBF0FBECDBFED010895A6
:103A6000EE0FFF1F0590F491E02D0994FB01DC019E
:103A700002C001900D9241505040D8F70895FB01CB
:103A8000DC014150504048F001900D920020C9F7F0
:103A900001C01D9241505040E0F70895F894FFCFC7
:103AA000FFFFFF00FCE1A8A8FF1C0474072905F034
:103AB000038904BB077403740300000000F1025B78
:103AC0000288023E03B9029702AB02736D61727401
:103AD000686F6D6500322E332E31004F4B00476109
:103AE0007465776179207374617274757020636F87
:0A3AF0006D706C6574652E003B00DC
:00000001FF
