:100000000C941C040C945E260C9437260C948526C4
:100010000C9485260C9485260C94FD260C9444049F
:100020000C9444040C9444040C9444040C94440430
:100030000C9444040C9444040C9444040C94440420
:100040000C94ED250C9444040C94BB250C9495253C
:100050000C9444040C9444040C9444040C94440400
:100060000C9444040C9444042D416464696E67202C
:10007000746F20706C61796C697374002D526571B6
:10008000756573746564207374617475733A2000C8
:100090002D41636B00494E434F4D494E47204D451E
:1000A000535341474520666F72206368696C642032
:1000B0002300637C777BF26B6FC53001672BFED723
:1000C000AB76CA82C97DFA5947F0ADD4A2AF9CA4E1
:1000D00072C0B7FD9326363FF7CC34A5E5F171D851
:1000E000311504C723C31896059A071280E2EB273F
:1000F000B27509832C1A1B6E5AA0523BD6B329E362
:100100002F8453D100ED20FCB15B6ACBBE394A4C41
:1001100058CFD0EFAAFB434D338545F9027F503CC1
:100120009FA851A3408F929D38F5BCB6DA2110FFED
:10013000F3D2CD0C13EC5F974417C4A77E3D645DEA
:10014000197360814FDC222A908846EEB814DE5E77
:100150000BDBE0323A0A4906245CC2D3AC629195CB
:10016000E479E7C8376D8DD54EA96C56F4EA657A07
:10017000AE08BA78252E1CA6B4C6E8DD741F4BBDA8
:100180008B8A703EB5664803F60E613557B986C155
:100190001D9EE1F8981169D98E949B1E87E9CE5572
:1001A00028DF8CA1890DBFE6426841992D0FB0541C
:1001B000BB1648656C6C6F2C204920616D20612056
:1001C0005369676E616C204875622E0021204E4F86
:1001D000434F4E4E454354494F4E00486900436FCC
:1001E0006E6E656374656420746F206761746577F3
:1001F000617921000402FFFFEF030402EF446574FC
:1002000065637465642020005265706C61792020FC
:10021000202000446576696365207374617475738A
:1002200000312E31005369676E616C2048756200A1
:100230002C005061747465726E3A20002020444591
:10024000433A2000203E204845583A2000580031CB
:1002500000300043616E6E6F742068616E646C657F
:100260002074686973207369676E616C002C005399
:1002700069676E616C2073746F726564204F4B0008
:10028000207E7E3E2000456E6F756768207370612A
:100290006365206C656674005F5F53746F72696E8E
:1002A00067003E00656E746572696E672064656CF8
:1002B00065746520414C4C206D656E7500656E74EB
:1002C0006572696E672064656C657465206C617326
:1002D00074206D656E7500656E746572696E672059
:1002E0006D656E755F6E657700042000FFEF5F5FE0
:1002F0004D454E55004D4F52453E002C204F6666F1
:10030000002C204F6E002D416464696E6720746F6D
:1003100020706C61796C6973743A0045524153499D
:100320004E472053544F524544205349474E414C69
:10033000204441544100030600EF2D6E65772023D1
:1003400000506C6179696E67207369676E616C201B
:1003500066726F6D20706C61796C69737420230014
:100360004C6F77207175616C697479207369676E61
:10037000616C004E6F20726570656174696E6720F4
:100380007061727420666F756E64004572726F7270
:100390002073746F72696E67207369676E616C0099
:1003A0004572726F722073746F72696E6720736921
:1003B000676E616C004F4B0046696E6973686564D7
:1003C00020636F7079696E67004E6F7720706C6183
:1003D0007920746865204F4646207369676E616CAA
:1003E00000204E6F7720706C6179204F4646207355
:1003F00069676E616C0053746174652000446574B4
:1004000065637465642061206B6E6F776E2073691D
:10041000676E616C004D4154434800436F6D7061DD
:1004200072696E670020746F200053454E443A2075
:10043000546F67676C6520004D6174636800071135
:10044000204F4E2020EF0711204F464620EF071186
:1004500020504C4159EF44656C6574696E67206C9F
:100460006173742073746F726564207369676E6161
:100470006C004F4B005245504C4159494E4700418A
:100480006E6F6D616C7920696E7369646500506C84
:100490006179696E672E2E005F5F7265706C61799D
:1004A000696E675F0007117700200000EF07114DAC
:1004B000454E5520EF04200000EF07114D4F5245E7
:1004C0003EEFFF43414E43454C000000000000005A
:1004D000000000000000001E4E6577207369676E03
:1004E000616C000000000000000000002844656C02
:1004F000657465206C6173740000000000000000EA
:10050000003244656C65746520616C6C000000000D
:100510000000000000001F44657465637420736967
:100520006E676C6500000000000000204465746583
:100530006374206F6E202B206F6666000000000041
:10054000215265706C61792073696E676C6500007B
:100550000000000000225265706C6179206F6E20EF
:100560002B206F666600000000001F5265616C6CF6
:10057000792064656C657465206C61737400001F7C
:100580005265616C6C792064656C65746520414CC2
:100590004C0000000150726F63657373696E6700F1
:1005A000000000000000000000025369676E616CEB
:1005B000206D6174636865642100000000000352CF
:1005C00065706C6179696E672000000000000000B2
:1005D000000000045369676E616C207761732073BB
:1005E000746F72656400000005426164207369677E
:1005F0006E616C2074727920616761696E064F7557
:1006000074206F662073746F726167652073706108
:10061000636507506C617920746865207369676E43
:10062000616C000000000008506C6179204F4E2082
:100630007369676E616C00000000000009506C6116
:1006400079204F4646207369676E616C0000000098
:10065000000A44656C65746564206C617374000005
:100660000000000000000B44656C65746564206147
:100670006C6C0000000000000000007468726F776E
:10068000696E672061776179206C656674206F768A
:10069000657220746F7563685F73637265656E5F02
:1006A00073657269616C20627974653A00546F7584
:1006B00063682073637265656E20646964206E6F81
:1006C0007420726573706F6E6420746F20636F6D39
:1006D0006D616E64000306FFEF52096AD53036A5DE
:1006E00038BF40A39E81F3D7FB7CE339829B2FFF69
:1006F00087348E4344C4DEE9CB547B9432A6C223B4
:100700003DEE4C950B42FAC34E082EA16628D92423
:10071000B2765BA2496D8BD12572F8F66486689833
:1007200016D4A45CCC5D65B6926C704850FDEDB9F2
:10073000DA5E154657A78D9D8490D8AB008CBCD34C
:100740000AF7E45805B8B34506D02C1E8FCA3F0FF0
:1007500002C1AFBD0301138A6B3A9111414F67DCAF
:10076000EA97F2CFCEF0B4E67396AC7422E7AD35DB
:1007700085E2F937E81C75DF6E47F11A711D29C54E
:10078000896FB7620EAA18BE1BFC563E4BC6D279C3
:10079000209ADBC0FE78CD5AF41FDDA8338807C746
:1007A00031B11210592780EC5F60517FA919B54A09
:1007B0000D2DE57A9F93C99CEFA0E03B4DAE2AF545
:1007C000B0C8EBBB3C83539961172B047EBA77D634
:1007D00026E169146355210C7D00000000240027E8
:1007E000002A0000000008000201000003040700C6
:1007F0000000000000000000000000230026002987
:100800000000000000250028002B0004040404045C
:1008100004040402020202020203030303030301AD
:100820000204081020408001020408102001020484
:10083000081020003B2A722C11241FBECFEFD8E0F5
:10084000DEBFCDBF11E0A0E0B1E0EAE2F0E602C019
:1008500005900D92AA36B107D9F725E0AAE6B1E0D6
:1008600001C01D92A63CB207E1F714E0CBE1D4E051
:1008700004C02197FE010E94EA2FCA31D107C9F7AF
:100880000E94932B0C9408300C940000E8E4F3E0F1
:10089000A089B18982E08C93A485B5851C92A68538
:1008A000B78580E18C93108EA489B58986E08C93FE
:1008B000A289B3898C9180618C93A289B3898C9130
:1008C00088608C93A289B3898C9180688C9302880C
:1008D000F389E02D80818F7D80830895DB01FC0109
:1008E000242F3C91308311963C91119731831296BD
:1008F0003C911297328313963C9113973383245083
:1009000014963496243068F72CEF240F26952695FC
:1009100030E02F5F3F4F220F331F220F331F4370F2
:10092000DB01A20FB31FFC01E20FF31F415018F0CF
:100930008D918193FBCF0895AF92BF92CF92DF92BA
:10094000EF92FF920F931F93CF93DF936C017B0184
:100950008B01040F151FEB015E01AE18BF08C01715
:10096000D10759F06991D601ED91FC910190F08188
:10097000E02DC6010995892B79F7C501DF91CF914B
:100980001F910F91FF90EF90DF90CF90BF90AF90AD
:100990000895FC01538D448D252F30E0842F90E085
:1009A000821B930B541710F0CF960895019708956A
:1009B000FC01918D828D981761F0A28DAE0FBF2F33
:1009C000B11D5D968C91928D9F5F9F73928F90E089
:1009D00008958FEF9FEF0895FC01918D828D9817F8
:1009E00031F0828DE80FF11D858D90E008958FEF35
:1009F0009FEF0895FC01918D228D892F90E0805CFE
:100A00009F4F821B91098F739927089588E493E083
:100A10000E94FA0421E0892B09F420E0822F089536
:100A2000FC01A48DA80FB92FB11DA35ABF4F2C9163
:100A3000848D90E001968F739927848FA689B7895A
:100A40002C93A089B1898C91837080648C93938D51
:100A5000848D981306C00288F389E02D80818F7DF4
:100A600080830895EF92FF920F931F93CF93DF93AC
:100A7000EC0181E0888F9B8D8C8D98131AC0E889DA
:100A8000F989808185FF15C09FB7F894EE89FF89A9
:100A90006083E889F98980818370806480839FBF47
:100AA00081E090E0DF91CF911F910F91FF90EF9047
:100AB0000895F62E0B8D10E00F5F1F4F0F73112757
:100AC000E02E8C8D8E110CC00FB607FCFACFE88992
:100AD000F989808185FFF5CFCE010E941005F1CF05
:100AE000EB8DEC0FFD2FF11DE35AFF4FF0829FB706
:100AF000F8940B8FEA89FB8980818062CFCF0F93B6
:100B00001F93CF93DF938C01D0E0C0E0F801EC0F8E
:100B1000FD1F6491662341F088E493E00E94320552
:100B2000892B11F02196F2CFCE01DF91CF911F9149
:100B30000F910895CF93DF93EC01888D8823B9F04E
:100B4000AA89BB89E889F9898C9185FD03C08081D8
:100B500086FD0DC00FB607FCF7CF8C9185FFF2CF55
:100B6000808185FFEDCFCE010E941005E9CFDF9196
:100B7000CF91089580E090E0892B29F00E9406052E
:100B800081110C940000089590E0FC01ED51F84FA4
:100B90002491FC01E15EF74F3491FC01E55FF74FD2
:100BA000E491EE23C9F0222339F0233001F1A8F4B7
:100BB000213019F1223029F1F0E0EE0FFF1FEF5F35
:100BC000F74FA591B4918FB7F894EC91611126C0BD
:100BD00030953E233C938FBF08952730A9F02830ED
:100BE000C9F0243049F7809180008F7D03C0809147
:100BF00080008F7780938000DFCF84B58F7784BDAE
:100C0000DBCF84B58F7DFBCF8091B0008F77809351
:100C1000B000D2CF8091B0008F7DF9CF3E2BDACFDC
:100C2000CF93DF9390E0FC01E15EF74F2491855F65
:100C3000974FFC0184918823C9F090E0880F991F99
:100C4000FC01E752F84FA591B491FC01EF5FF74F1B
:100C5000C591D49161110DC09FB7F8948C912095E6
:100C600082238C938881282328839FBFDF91CF9193
:100C70000895623051F49FB7F8943C91822F80958B
:100C800083238C93E8812E2BEFCF8FB7F894EC91D0
:100C90002E2B2C938FBFEACF3FB7F894809140035F
:100CA00090914103A0914203B091430326B5A89BC4
:100CB00005C02F3F19F00196A11DB11D3FBFBA2FEE
:100CC000A92F982F8827BC01CD01620F711D811DAE
:100CD000911D42E0660F771F881F991F4A95D1F733
:100CE00008952FB7F89460913C0370913D03809173
:100CF0003E0390913F032FBF08950895209139033B
:100D000030913A032817390771F490913803809194
:100D10003703981741F0E0913803F0E0E950FD4FB8
:100D2000808190E008958FEF9FEF08950895EF92EE
:100D3000FF920F931F93CF93DF93DC015C96ED90AE
:100D4000FC905D97E114F10479F481E090E0139652
:100D50009C938E93129790E080E0DF91CF911F914A
:100D60000F91FF90EF9008955196ED91FC9152975D
:100D700050968C915097982F90950FB75E962C9126
:100D80005E97122F127021FD6095F8942081112337
:100D900019F1282B2083E7012197F1F728E0462F4E
:100DA00050E0308160FF1AC0382B3083E701219773
:100DB000F1F7BA0175956795215089F7112381F0F4
:100DC0008081892380830FBF5C968D919C910197D0
:100DD000F1F781E090E0C1CF2923DCCF3923E5CFC3
:100DE0009081892BEFCF2091390330913A03281756
:100DF000390771F4809137032091380390E0805CCB
:100E00009F4F821B910960E470E00E94B42F089507
:100E100090E080E008952091390330913A0328173B
:100E20003907B9F49091380380913703981789F006
:100E3000E0913803F0E0E950FD4F808120913803C4
:100E400030E02F5F3F4F2F7333272093380390E01C
:100E500008958FEF9FEF089590E080E00895FC01E2
:100E6000838187708860838384818F7180628483AB
:100E70006783CF010895E091E802F091E90230978D
:100E800021F00280F381E02D099408950F931F93C0
:100E90000E9471060091EA021091EB022091EC028F
:100EA0003091ED02601B710B820B930B1F910F9120
:100EB00008959C018091E8029091E90282179307BE
:100EC000F1F09091F2029F719093F2023093E90257
:100ED0002093E802E091E802F091E902309721F0D6
:100EE0000190F081E02D09950E9471066093EA025D
:100EF0007093EB028093EC029093ED020895809141
:100F0000F202805E8093F202E5CF0F931F930E945E
:100F100046072091F3022077203779F000E117E2AD
:100F200020E030E0061717072807390758F48FE14B
:100F300091E01F910F910C94590700E61AEE20E002
:100F400030E0F0CF1F910F9108958091F3028F70E0
:100F5000863020F088E191E00C9459070895809143
:100F6000F20284608093F2028091F3028078809391
:100F7000F302E0919A01F0919B01309709F00994F6
:100F80000895CF93C091F402CF3FA1F00E94710663
:100F90006093EE027093EF028093F0029093F1025F
:100FA00080914603C813C093460384E191E0CF913A
:100FB0000C9459070E944607613D774081059105D1
:100FC00068F08091F202803618F480E191E0EFCF72
:100FD000877F8093F20288E191E0E9CFCF91089575
:100FE000809144038F3F21F080E191E00C945907F8
:100FF0000E944607613D77408105910550F0809140
:10100000F202803618F48CE091E0F0CF88E091E0B5
:10101000EDCF08950E944607613D77408105910517
:1010200020F48091F20281FF17C0809145038F3F29
:1010300049F08091F2028E7F8093F2028CE091E081
:101040000C9459078091F202803618F488E191E0FF
:10105000F7CF88E091E0F4CF0895CF93DF93FC01C0
:10106000EB01DA019C01205F3F4F88819C91892729
:101070008083898111969C911197892781838A8128
:1010800012969C911297892782838B8113969C914B
:10109000139789278383349624961496E217F307CF
:1010A00021F7DF91CF910895FC01DB019C01205FC6
:1010B0003F4F80819C9189278083818111969C91EB
:1010C000119789278183828112969C911297892793
:1010D0008283838113969C91139789278383349607
:1010E0001496E217F30729F70895ECEAF1E08CE291
:1010F00091E0DF019C011D9221503040E1F71092F8
:101100002D0110922C018BE291E090932B018093A2
:101110002A018FEF809329011092AB011092AA014E
:101120001092A50181E0809328011092A4010E94F1
:101130004C066093A6017093A7018093A801909339
:10114000A90108958F929F92AF92BF920F931F9320
:10115000CF93DF93CDB7DEB7A1970FB6F894DEBF7C
:101160000FBECDBF19A2423008F44AE08E010F5DD8
:101170001F4F842E912CB12CA12CA50194010E940B
:10118000C82FE62FB901CA01EA3044F5E05DD80165
:10119000EE938D01232B242B252B79F790E080E013
:1011A000109769F0FD0101900020E9F73197AF0138
:1011B0004A1B5B0BBD0188E493E00E949C04A1964E
:1011C0000FB6F894DEBF0FBECDBFDF91CF911F9158
:1011D0000F91BF90AF909F908F900895E95CD7CF0B
:1011E000CF92DF92EF92FF92CF93DF936B017C015E
:1011F0006DE288E493E00E943205EC0166277727D0
:10120000CB016C197D098E099F094AE00E94A20852
:101210008C0F9D1FDF91CF91FF90EF90DF90CF90CB
:101220000895BC01990F880B990B97FD0C94F00859
:101230004AE00C94A20842E050E068E571E088E4DE
:1012400093E00C949C04CF93DF930E947F05EC0104
:101250000E941B098C0F9D1FDF91CF9108950E9462
:10126000460482EB91E00C942309CF93DF93682F1F
:1012700070E090E080E04AE00E94A208EC010E9449
:101280001B098C0F9D1FDF91CF91089588E494E096
:101290000E94F306892B51F088E494E00E940B072A
:1012A000682F88E493E00E943205F0CF0C941B096C
:1012B0001F93CF93DF93EC01162F0E944E2E181729
:1012C00039F0612FCE01DF91CF911F910C94782ED0
:1012D000DF91CF911F9108950C944E2E91E59CBD06
:1012E00091E09DBD2A98E3E2F0E03197F1F78EBDE1
:1012F00000000DB407FEFDCF8EB5FB019FEF4150FE
:10130000C8F0222361F09EBD00000DB407FEFDCFA2
:101310008EB56115710599F380833196F0CFDF01A9
:10132000119680818EBD00000DB407FEFDCF8EB5F5
:10133000FD01E5CF2A9AE3E2F0E03197F1F7089555
:10134000CF93DF931F92CDB7DEB7698320E041E0F2
:10135000BE016F5F7F4F0E946E090F90DF91CF91AA
:1013600008958091F302982F9077903759F0982F35
:1013700092959F709F5F97709295907F8F78892B41
:101380008093F3028091F2028B7F8F7E8093F20232
:1013900029986CE080E20C94A0096FE080E20E9442
:1013A000A00960912E016F3F19F08AE20E94A00906
:1013B000299A0895CF93C82F809344038F3F51F00B
:1013C00080932E0163E082E20E94A00961E081E245
:1013D0000E94A0090E94CD096C2F90E080E00E943D
:1013E000662E81E0CF91089521E041E070E060E059
:1013F0000C946E0920E040E070E060E00C946E090F
:10140000E2EFF2E08081877F8F7E80831092EE0290
:101410001092EF021092F0021092F10244E050E0BC
:1014200070E060E084E493E00C943E2EEF92FF9233
:101430000F931F93CF93DF93EC017B0180E0611545
:10144000710531F0CB010E94DA2C8931910518F534
:10145000082F10E09B819770980143E0220F331F03
:101460004A95E1F7922B9B839C819F719C838823F3
:1014700031F0A801B701CE0107960E94E32CFE01CE
:10148000E00FF11F1782CE01DF91CF911F910F91D5
:10149000FF90EF90089589E1DBCF0F931F93CF93D7
:1014A000DF93EC01E0E06115710551F0FB01019063
:1014B0000020E9F73197E61BF70BE931F10500F55C
:1014C0000E2F10E08B818770980193E0220F331F5D
:1014D0009A95E1F7822B8B838C818F718C83EE231D
:1014E00029F0A801CE0107960E94F92FFE01E00F16
:1014F000F11F1782CE01DF91CF911F910F910895B7
:10150000E9E1DECFFC012481229526952770213068
:1015100011F487810895211104C007960E948E2C32
:10152000089580E00895CF92DF92EF92FF921F938B
:10153000CF93DF93EC0185E990E00E947F058E81D7
:101540000E9435098C8184FF0BC080E990E0DF9117
:10155000CF911F91FF90EF90DF90CF900C942309D3
:101560008D818230B1F58CE790E00E947F05CE013D
:101570000E94820AC12CD12C7601C394811103C030
:10158000C12CD12C76014AE0C701B6010E94A20805
:101590000E941B098E818A508A35D8F4809191016E
:1015A0008630B8F488E690E00E94230920919101EA
:1015B00011E0120F10939101CE010E94820A9E81C8
:1015C000212F30E025573E4F81110BC09950F90172
:1015D0009083DF91CF911F91FF90EF90DF90CF909C
:1015E0000895955AF4CF2F923F924F925F926F9247
:1015F0007F928F929F92AF92BF92CF92DF92EF92A3
:10160000FF920F931F93CF93DF93CDB7DEB7A297CF
:101610000FB6F894DEBF0FBECDBFB82E8091440345
:10162000FB018083138112FDEDC01695169516956A
:10163000195FF0914703F9A3F170FAA3412F11321A
:1016400008F040E250E08BE691E00E94F02F10920B
:10165000A3051092A4051092A5051092A60510925C
:10166000A7051092A8051092A9051092AA0510923C
:10167000AB051092AC051092AD051092AE0510921C
:10168000AF051092B0051092B1051092B2051092FC
:101690009B0510929C0510929D0510929E0510923C
:1016A0009F051092A0051092A1051092A20500E2DC
:1016B000902E113110F410E1912EE92CE294FFE00C
:1016C000EF22F12CABE6CA2EA1E0DA2E8E010F5EDE
:1016D0001F4FBBE1AB2EB60183EA95E00E94540890
:1016E0008091A9049091AA04892B09F40BC14BEABB
:1016F00054E063EA75E0C8010E942D0888248394B1
:10170000482D50E08091A9049091AA0448175907E8
:101710000CF07AC09801DE0111966FE0362E7AE067
:10172000572EE5E04E2EF801E40DF11D708084E0A7
:10173000840D8F70482EF801E50DF11D808194E035
:10174000950D9F70592EF801E30DF11D908164E015
:10175000630D6F70362EF9016081E62FF0E0EE54D4
:10176000FF4F7491E72DF0E0EE54FF4F6491E82FA6
:10177000F0E0EE54FF4F8491E92FF0E0EE54FF4F7C
:101780009491672E660C77FD6A24E62FEE0F67FDB5
:10179000EA25282E220C87FD2A24792E770C97FD26
:1017A0007A24F62FF827F927F625FE27FC93F72F42
:1017B000F827F927FE27F2251196FC931197672742
:1017C00096272926272412962C9212978627682678
:1017D000762413967C9213972C5F3F4F14960A172A
:1017E0001B0709F0A0CF94E0440F551F9A95E1F72D
:1017F00045555B4FBE016F5F7F4FC8010E942D08AA
:1018000083947ECF10E215CFE989F0E0EE54FF4FCC
:10181000E491E98BED89F0E0EE54FF4FE491ED8B1C
:10182000E98DF0E0EE54FF4FE491E98FED8DF0E0AB
:10183000EE54FF4FE491ED8F8A89EE89F0E0EE548B
:10184000FF4FE491EA8BEA8DF0E0EE54FF4FE49114
:10185000EE8BEE8DF0E0EE54FF4FE491EA8FE82F2F
:10186000F0E0EE54FF4FE491EE8F8B89EB8DF0E0CA
:10187000EE54FF4FE491EB8BE82FF0E0EE54FF4F76
:10188000E491EB8F8F89EF8DF0E0EE54FF4FE49100
:10189000EF8BE82FF0E0EE54FF4FE491EF8F88A13B
:1018A000EC8DF0E0EE54FF4FE491E8A3E88DF0E01A
:1018B000EE54FF4FE491EC8FEC89F0E0EE54FF4FD3
:1018C000E491E88FE82FF0E0EE54FF4FE491EC8BC9
:1018D00084E0440F551F8A95E1F745555B4FB801E9
:1018E00083EA95E00E942D0840E163EA75E0C601B5
:1018F0000E946E04F0E1CF0ED11C81E0E81AF108DD
:1019000009F0E9CE299883E092E00197F1F76EE0C3
:1019100080E20E94A0098BE891E00197F1F76B2D1E
:101920008AE20E94A0096B2D80E30E94A00981EE4B
:101930000E94FA09EFEFBE1619F0FAA180EAF11140
:1019400080EB20E0492D6BE671E00E946E09299A38
:10195000F12CE12C8FEF0E94FA09182F807321F4EB
:1019600081E0E81AF108B1F7299860E387E20E9464
:10197000A00914FF03C081EE0E94FA090E94CD095C
:1019800015FF02C0E1E0E9A391E0FFEFBF1290E094
:1019900089A18170892BA2960FB6F894DEBF0FBE85
:1019A000CDBFDF91CF911F910F91FF90EF90DF900E
:1019B000CF90BF90AF909F908F907F906F905F90EF
:1019C0004F903F902F9008950F931F93CF938C01CA
:1019D000FC0182819091F20290FF04C08F3F51F58B
:1019E000CFEF04C0811116C0C0914503B8018C2F00
:1019F0000E94F30A909145039C1313C09091F30247
:101A0000811113C021E0290F2F70907F922B9093AA
:101A1000F30207C08F3F21F3B8010E94F30A882325
:101A200019F3CF911F910F910895907F9093F30236
:101A300081E0F7CF80E0F5CF2091F20222FD0C94F7
:101A4000E40C80E008959091440390936804109210
:101A5000690480936D0460936C0490916B04907E94
:101A600090936B048F3F11F44BE551E0BA0187E688
:101A700094E00E944D0A0C941C0D20914403FC013B
:101A80002183F8E06F9FB00111246160FC01248183
:101A9000207F622B64832091E70220FD0C941C0DB3
:101AA00080E008951F93CF93DF93CDB7DEB72B97D8
:101AB0000FB6F894DEBF0FBECDBF0E944B158091CC
:101AC000440380936804109269041FEF10936D041F
:101AD0008BE080936C0480916B04807E83608093A4
:101AE0006B0465E272E087E694E00E94160A0E94A9
:101AF0001C0D809144038093680410926904109334
:101B00006D048CE080936C0480916B04807E836014
:101B100080936B0461E272E087E694E00E94160A0B
:101B20000E941C0D60E971E080E090E00E948C1240
:101B300080914403809368041092690481E080934B
:101B40006D0484E280936C0480916B04807E8093AA
:101B50006B0463E172E087E694E00E94160A0E943B
:101B60001C0D60E971E080E090E00E948C1268E05A
:101B700072E0CE0101960E94D32C1AE08091A3015D
:101B800090E009961817190609F094F487E2810F7E
:101B90008887AE014F5F5F4F63E0812F0E94230D66
:101BA00060E971E080E090E00E948C121F5FE6CF58
:101BB0006DEF71E0CE0101960E94D32C14E6809166
:101BC0009D019091A301891B990B8D599F4F181767
:101BD000190609F094F48DEC810F8A87AE014F5FEE
:101BE0005F4F60E0812F0E94230D60E971E080E08B
:101BF00090E00E948C121F5FE2CF81E080931C0175
:101C00002B960FB6F894DEBF0FBECDBFDF91CF91FC
:101C10001F910895FF920F931F93CF93DF93C7E611
:101C2000D4E004E413E0F801808189831A82FF2460
:101C3000FA94FE828FE08D838C81807E83608C831A
:101C40006AE571E0CE010E944D0A8B818770806148
:101C50008B838C818F71806C8C8381E08F8318865D
:101C6000CE010E941C0D8FE00E9459124AE551E0FE
:101C700061E18FEF0E94230DF801808189831A8230
:101C8000FE8286E08D838C81807E83608C8361817F
:101C9000CE010E942F070E941C0D86E00E9459125F
:101CA000DF91CF911F910F91FF900C94520D2F92C5
:101CB0003F924F925F926F927F928F929F92AF92DC
:101CC000BF92CF92DF92EF92FF920F931F93CF9329
:101CD000DF93CDB7DEB7E9970FB6F894DEBF0FBE3E
:101CE000CDBF26E02BAB1BE187E10E94F40980FD0C
:101CF000C1C33BA931503BAB332309F4BBC321E043
:101D000041E070E060E080E60E946E09082F8132B9
:101D100020F082EE0E94FA0900E021E0402F68E8FE
:101D200074E081E60E946E0960E487E20E94A009E7
:101D30001092A3051092A4051092A5051092A60575
:101D40001092A7051092A8051092A9051092AA0555
:101D50001092AB051092AC051092AD051092AE0535
:101D60001092AF051092B0051092B1051092B20515
:101D700010929B0510929C0510929D0510929E0555
:101D800010929F051092A0051092A1051092A20535
:101D9000013108F463C182E090E09AAB89ABE8E8D6
:101DA0002E2EE4E03E2EE9A9FAA93197FAABE9AB71
:101DB000319609F471C140E1B101CE0181960E94D2
:101DC0006E044091A9045091AA044115510509F4EB
:101DD00063C174E0440F551F7A95E1F745555B4F99
:101DE000B101CE0141960E942D08E989F0E0E75249
:101DF000F94FE491E98BED89F0E0E752F94FE49176
:101E0000ED8BE98DF0E0E752F94FE491E98FED8D2C
:101E1000F0E0E752F94FE491ED8F8E8DEA8DF0E01E
:101E2000E752F94FE491EE8FEE89F0E0E752F94F77
:101E3000E491EA8FEA89F0E0E752F94FE491EE8B02
:101E4000E82FF0E0E752F94FE491EA8B8B89EB8DB4
:101E5000F0E0E752F94FE491EB8BE82FF0E0E75226
:101E6000F94FE491EB8F8F89EF8DF0E0E752F94F56
:101E7000E491EF8BE82FF0E0E752F94FE491EF8F18
:101E80008C89E88DF0E0E752F94FE491EC8BEC8D12
:101E9000F0E0E752F94FE491E88FE8A1F0E0E75273
:101EA000F94FE491EC8FE82FF0E0E752F94FE4911D
:101EB000E8A30091A9041FAA1EAA8FEF800FA82FE4
:101EC000B0E0B9AFA8AF015009F4CDC048AD59ADED
:101ED000EEA9FFA94E1B5F0B64E0440F551F6A95E6
:101EE000E1F745555B4FBE016F5E7F4FCE01019616
:101EF0000E942D089E012F5F3F4F7901CE01419630
:101F00009DAB8CABA5E0B0E0F7019081818132817F
:101F10002381792F770F97FD7127B82EBB0C87FD92
:101F2000B126C32ECC0C37FDC126622F660F27FDCC
:101F30006127472F440F77FD41274B2C440CB7FEF8
:101F400004C05B2D550F452E41269C2C990CC7FCD7
:101F50009126A62EAA0C67FDA126D42EDD0C47FFE4
:101F600004C0542F550FD52ED126542D550F47FCA4
:101F70005127F92DFF0F97FCF127EA2DEE0FA7FC53
:101F8000E127792E7D24582E5526832E8F26622E0A
:101F90006E264D2554259F26AE26E32FE727EB25F9
:101FA000E427E525E925E625F0E0E752F94F3491ED
:101FB000ECA9FDA93083E22FEB25EC25E725E527E9
:101FC000E825EA25F0E0E752F94FD490FD01EF70E3
:101FD000FF2721E130E02C0F3D1FE20FF31FD082DD
:101FE0009C2596274927542695246924E62DF0E060
:101FF000E752F94F6490FD013596EF70FF2721E11C
:1020000030E02C0F3D1FE20FF31F6082E82FE7271F
:10201000E627E7255E27E52FE825AE26EA2DF0E046
:10202000E752F94FA490FD013A96EF70FF27E20FB7
:10203000F31FA08294E0E90EF11C2CA93DA92C5FAE
:102040003F4F3DAB2CAB1496A531B10509F05CCFE9
:102050008EA99FA901969FAB8EAB35CFA1E0B0E0D2
:10206000BAABA9AB9CCE4BEA54E0BE016F5E7F4F8A
:10207000C1010E942D0863EA75E0C1010E94540865
:1020800040E1BE016F5D7F4F83EA95E00E946E04E0
:1020900090E1290E311C87CE30918B04832F837001
:1020A000823009F021CE20918C04A22FA770EA2E55
:1020B00000918D04F09089048091880440918A04F5
:1020C0009091F30290689093F30290914403491326
:1020D00076C1832F8695869586958A3108F089E1A9
:1020E00090E03770BC0153E0660F771F5A95E1F717
:1020F000362B30938B0488579B4FFC01178223FFAC
:1021000015C081E2E8E8F4E0A7E6B4E001900D92A2
:102110008A95E1F7277F206120936B044093680440
:10212000F092690487E694E00E941C0D90918C0463
:1021300094FD3DC1F3E0EF123AC180918D0421EF8F
:10214000280F233008F4D0CD0430C1F480918E04E0
:1021500090912F01891719F08F3F09F0C5CD88E8BC
:1021600094E00E94820A9FEF980F9E3F18F40E940D
:10217000DA09BACD8FEF80934403B6CD0830D9F495
:102180000091F20200FFB0CD88E894E00E94820A3C
:102190008F3F09F4A9CD8F5F8F3F09F4A5CD9091B2
:1021A0004603891708F0A0CD01FD9ECD809346031C
:1021B000F092450399CD0831C1F480914403809396
:1021C0006804F09269048FEF80936D0489E1809335
:1021D0006C0480916B04807E836080936B0461E06B
:1021E00087E694E00E942F0732C0093171F4809194
:1021F000F20283FF79CD877F8093F20288E894E032
:102200000E94820A8093F4026FCD0E3109F46CCDE6
:102210000D3101F5809144038093680410926904A4
:102220008FEF80936D048FE180936C0483E480933F
:102230006B0480916A048770806180936A0480E0F7
:102240009FEF90936F0480936E0487E694E00E9462
:10225000E40C4ACD209189042111AEC08D3059F48F
:1022600088E198E00FB6F894A895809360000FBEBF
:1022700090936000FFCF8B3179F488E894E00E945E
:10228000820A91E0811101C090E08091E70290FB09
:1022900080F98093E70228CD863099F490918F04DD
:1022A00081E0992319F09D3409F080E08093E602E3
:1022B00041E050E063E071E086EE92E00E94562E2D
:1022C00013CD833119F40E940A0E0ECD823121F50F
:1022D0000E944607209144032093680410926904E9
:1022E0002FEF20936D0426E120936C0423EA2093C2
:1022F0006B0420916A042770206220936A04609323
:102300006E0470936F04809370049093710487E659
:1023100094E00E941C0DE8CC823009F590914403B2
:1023200090936804109269049FEF90936D048093DA
:102330006C0483EA80936B0480916A0487708062E6
:1023400080936A048FEF91E0A3E0B2E080936E0483
:1023500090936F04A0937004B0937104D8CF813030
:1023600001F520E030E0232B09F4BECC9295969540
:102370009770953059F460918F047091900480911A
:102380009104909192040E940000AECC911105C07E
:102390008FE894E00E94AC2CF6CF60E070E0CB01B7
:1023A000F2CF8A3009F4A0CC8C3109F49DCC88E8B6
:1023B00094E00E94930A98CC8A31C9F795CC4F3F9C
:1023C00009F092CC93E0A91350C09091F20292FFD1
:1023D00003C0073009F488CC043109F085CC909112
:1023E0004503891381CC0E9471064B015C01A3E077
:1023F0009A22AA24BB240E944C062B013C01811482
:102400009104A104B10429F58091440380936804E8
:10241000F09269048FEF80936D0485E180936C04E2
:1024200080916B04807E836080936B046091450390
:10243000D7CEB1E08B1A9108A108B108E8EE4E0E94
:10244000E3E05E1E611C711C81149104A104B104BF
:10245000B1F20E944C066419750986099709683E15
:1024600073408105910528F7CACF909145038913E0
:102470003BCC9DCFE9960FB6F894DEBF0FBECDBF23
:10248000DF91CF911F910F91FF90EF90DF90CF9050
:10249000BF90AF909F908F907F906F905F904F9084
:1024A0003F902F9008958091F20284FD0C94570E76
:1024B0000895CF92DF92EF92FF92CF93DF93D82FC0
:1024C0000E9471066B017C0110928D04C0E00E9495
:1024D00071066C197D098E099F09603D7740810561
:1024E000910590F4C11110C0A8950E943B070E946D
:1024F000531280918C048770833049F7C1E080913A
:102500008D048D13E3CFE3CF8C2FDF91CF91FF901C
:10251000EF90DF90CF9008958F929F92AF92BF92ED
:10252000CF92DF92EF92FF924B015C010E94710605
:102530006B017C010E9471066C197D098E099F094F
:10254000681579058A059B0530F4A8950E943B071C
:102550000E945312EFCFFF90EF90DF90CF90BF908B
:10256000AF909F908F900895CF93C0E088E494E05F
:102570000E94F306892B51F4CA3F41F0CF5F61E01E
:1025800070E080E090E00E948C12F0CF88E494E04C
:102590000E94F3061816190694F46AE070E080E0D1
:1025A00090E00E948C1288E494E00E94F3061816D2
:1025B000190664F488E494E00E940B07F4CFCA3F44
:1025C00029F48DEA96E0CF910C942309CF910895D8
:1025D000EF92FF920F931F93CF937C0188E494E0D6
:1025E0000E94F306892B11F00E9446096EE788E4E9
:1025F00094E00E949706C0E087010C0F111DF801BE
:10260000649188E494E00E949706F80104910F3EDB
:1026100009F4C0E1CF5FC03178F3CF911F910F91E2
:10262000FF90EF900C94B4128091E502811104C0E8
:1026300085ED96E00E94E8128FEF8093E502089501
:102640008F929F92AF92BF92EF92FF920F931F9340
:10265000CF93DF9300D0CDB7DEB788E494E00E943B
:10266000F3069A83898389819A8105970CF4D0C0F7
:1026700088E494E00E947E068E3709F0B1C010E035
:10268000E12C01E0FF24FA9488E494E00E94F30630
:10269000892B09F4BDC088E494E00E940B07EE206A
:1026A00069F0E12FF0E0E352FD4F8F3E61F080834F
:1026B0001F5F183008F017E0EE24E3948E3721F7FF
:1026C000EE24E394E1CF10828091DD02863009F0A0
:1026D00081C08091DE02873009F07CC06091DF020A
:1026E000862F90E0982F88276091E002680F792F5D
:1026F000711D60557109072E000C880B990B0E9403
:10270000212D2DEC3CEC4CE650E40E94F32E4B01C5
:102710005C0120E030E0A9010E941A2D70E060E029
:1027200087FD10C020E030E040E753E4C501B4016C
:102730000E949B2F60EF70E0181624F0C501B401D1
:102740000E94652F7093DC026093DB026091E102CE
:10275000862F90E0982F88276091E202680F792FEA
:10276000711D64567109072E000C880B990B0E948D
:10277000212D23E333E343E350E40E94F32E4B0186
:102780005C0120E030E0A9010E941A2D70E060E0B9
:1027900087FD10C020E030E040EA53E4C501B401F9
:1027A0000E949B2F60E471E0181624F0C501B4016B
:1027B0000E94652F7093DA026093D9028091E5023E
:1027C00081110BC085ED96E00E94E812F092E502BF
:1027D0000E94460910E0E12C57CF0093D802F6CFB3
:1027E00088E494E00E940B07182F8BE796E00E9484
:1027F0007F05812F0F900F90DF91CF911F910F9147
:10280000FF90EF90BF90AF909F908F900C94350900
:102810000F900F90DF91CF911F910F91FF90EF904C
:10282000BF90AF909F908F900895EF92FF920F937B
:102830001F93CF93DF93CDB7DEB728970FB6F894E9
:10284000DEBF0FBECDBF2EE7298326E02A8323E11A
:102850002B8321E02C832AE02D832FEE28879E8373
:102860008F838E010F5F1F4F7E0189E0E80EF11C00
:102870000E151F0541F0F80161918F0188E494E085
:102880000E949706F5CF28960FB6F894DEBF0FBECC
:10289000CDBFDF91CF911F910F91FF90EF900C94DE
:1028A000B412EF92FF920F931F93CF93DF93CDB7A4
:1028B000DEB728970FB6F894DEBF0FBECDBF9EE7F8
:1028C000998396E09A8391E09B839FEE98871C8280
:1028D0008D837E836F838E010F5F1F4F7E0189E0A2
:1028E000E80EF11C0E151F0541F0F80161918F01F2
:1028F00088E494E00E949706F5CF28960FB6F894E6
:10290000DEBF0FBECDBFDF91CF911F910F91FF9022
:10291000EF900C94B412FF920F931F93CF93DF9319
:1029200095E1899F800111240D531B4FC8010E941E
:10293000DA2CF82E6EE788E494E00E94970662E0B5
:102940006F0D88E494E00E94970661E188E494E0CA
:102950000E949706D0E0C0E0CF1550F4F801EC0FCC
:10296000FD1F649188E494E00E9497062196F4CFBD
:102970006FEE88E494E00E949706DF91CF911F915B
:102980000F91FF900C94B412EF92FF920F931F934C
:10299000CF93DF93CDB7DEB760970FB6F894DEBF65
:1029A0000FBECDBF9EE799839EE09A839CE29B83F6
:1029B0009FEE988B1C828D837E836F831886498758
:1029C0001A8622502B871C860D87FE86EF868E0185
:1029D0000F5F1F4F7E0181E1E80EF11C0E151F05F0
:1029E00041F0F80161918F0188E494E00E9497061C
:1029F000F5CF60960FB6F894DEBF0FBECDBFDF9166
:102A0000CF911F910F91FF90EF900C94B412EF9221
:102A1000FF920F931F93CF93DF93CDB7DEB72C9721
:102A20000FB6F894DEBF0FBECDBFFE01339626E091
:102A3000DF011D922A95E9F72EE729832AE02A83F0
:102A400023E22B8320EF29872FEF2A872B872FEE76
:102A50002C879E838F838E010F5F1F4F7E01BDE009
:102A6000EB0EF11C0E151F0541F0F80161918F016D
:102A700088E494E00E949706F5CF2C960FB6F89460
:102A8000DEBF0FBECDBFDF91CF911F910F91FF90A1
:102A9000EF900C94B4122F923F924F925F926F92EC
:102AA0007F928F929F92AF92BF92CF92DF92EF92DE
:102AB000FF920F931F93CF93DF9310929D018FEF9F
:102AC00091E09093250180932401C0E0D0E0C09074
:102AD0002401D090250186010F5F1F4FC8010E947D
:102AE0006C09882E8FEF880D8E3F08F02CC19090D6
:102AF0002601A82CB12C29E2921220C0C8018A0D0F
:102B00009B1D0E946C098F3FC9F486E594E00E94EA
:102B10002309C0912401D09125012196809124019F
:102B20009091250101968A0D9B1DC817D9070CF0BD
:102B300020C16FEFCE010E945809EFCF80919D0117
:102B40008F5F80939D01C60102960E946C09582EEA
:102B50008071482E54FE13C0CF5F93E099124DC090
:102B6000809127018C130BC010932D0100932C0131
:102B7000CA0CDB1CD0922B01C0922A01D82D809167
:102B8000240190912501A80EB91EB0922501A092B2
:102B90002401809126018F3F09F099CFD11197CF61
:102BA000411095CF53FA222420F8312C6090230154
:102BB000712C062D10E004551E4F7214130411F0F1
:102BC0000CF085CF98016501769CC018D1081124BE
:102BD000C01AD10A8CEA91E08217930709F4CBC09E
:102BE000F90142904F01C601820F931F0E946C09A8
:102BF0009401481679F37394E0CFEDEF9E12BFCFA6
:102C000020919C01220F220F2C1708F0B8CFCC2E58
:102C1000D12C30E02C5F3F4F2C153D050CF4AFCF8D
:102C2000F1E0CF1AD10823E0C222DD24C6010196CB
:102C3000E5E3E89F4001E99F900C11243401F3E1A2
:102C40006F0E711C8FEEE82E8BE7F82E01E110E07D
:102C500025E330E053FC1CC040EF50E0B40190E0AD
:102C600080E00E94C414B30183E190E00E945114FB
:102C700080919C0124E0829FC00111248C0D9D1D38
:102C800001960E9415148EE494E00E94E81277CF1A
:102C900048E750E0B40190E080E00E94C414B30122
:102CA00083E190E00E94511480919C01E4E08E9FAA
:102CB000C00111248C0D9D1D01960E94151486E4FF
:102CC00094E00E94E81225E330E048E750E0B401C8
:102CD00088E790E00E94C414B3018BE890E00E9462
:102CE000511480919C01F4E08F9FC00111248C0D40
:102CF0009D1D01960E9415148EE394E0C6CF2D59B8
:102D00002C1B2093EB03977098609093E8038F71CE
:102D100080628093E90381E0711080E08093EC038E
:102D200061E085EE93E00E943D0D8093A20160E991
:102D300071E080E090E00E948C1282E00E941B17FC
:102D4000D0919D01C4CEC093A3018D2FDF91CF916F
:102D50001F910F91FF90EF90DF90CF90BF90AF90B9
:102D60009F908F907F906F905F904F903F902F90AB
:102D70000895D1E0EACF88E394E00E9423098AE233
:102D800094E00E947F0580919D018C1B990B8D59C9
:102D90009F4F0E94110985E294E00E947F05872DD4
:102DA0000E94350920919D019091E8038091E903EB
:102DB00053FCA5CF2D592C1B2093EB038F718064FE
:102DC0008093E903977090619093E80381E090E02D
:102DD0009093ED038093EC0361E085EE93E00E9415
:102DE0003D0D8093A20160E971E080E090E00E94D7
:102DF0008C1260ED77E080E090E00E948C12809170
:102E00009D018D598C1B8093EB038091E9038F7199
:102E100080648093E9038091E803877080618093E8
:102E2000E8031092ED031092EC0361E085EE93E06D
:102E30000E943D0D7CCFEF92FF920F931F93CF9393
:102E4000C82F0E9446090E941413CF3F09F046C0C4
:102E500085EB94E00E94E8122FE1E22EF12C0AE1CA
:102E600010E025E330E048E750E070E060E090E0FB
:102E700080E00E94C41463E170E083E190E00E946E
:102E800051148DEA94E00E94E8128DEF80932601A0
:102E90000E944B15C09326018091A301853050F00C
:102EA0006CE171E083E190E00E9451148AEB94E0C0
:102EB0000E94E8128091A201882309F4C7C063E14F
:102EC00070E082ED90E00E94511485EA94E0CF9189
:102ED0001F910F91FF90EF900C94E8128EEF8C0FE2
:102EE000823008F058C062E370E080E090E00E9419
:102EF0008C1290E8E92E9CEFF92E10E000E027E319
:102F000030E040EF50E069E071E090E080E00E9446
:102F1000C41462E370E080E090E00E948C126CE1E7
:102F200071E083E190E00E94511462E370E080E080
:102F300090E00E948C12C23029F58BE00E948B1425
:102F400060ED77E080E090E00E948C12F12CE12CA3
:102F500010E000E027E330E040EF50E069E071E08E
:102F600090E080E00E94C4148091A301853008F4B1
:102F70006DC06CE171E083E190E00E9451148AEB36
:102F800094E0A5CF8CE00E948B148091270190E003
:102F90000E941514D5CF809126018F518831E0F41D
:102FA00085EB94E00E94E8128FE1E82EF12C0AE014
:102FB00010E025E330E048E750E070E060E090E0AA
:102FC00080E00E94C41463E170E083E190E00E941D
:102FD000511480E00E948B1468E470E083E190E07B
:102FE0000E945114C13211F0CF3141F480E1CF91F0
:102FF0001F910F91FF90EF900C948B148C2F8D7F6D
:10300000803211F481E1F3CF8AED8C0F823010F41D
:1030100082E1EDCF8DE0C43061F08EE0C53039F350
:103020008FE0C63031F083E1C93219F0CB3071F452
:1030300084E10E948B1468EB7BE080E090E0CF910C
:103040001F910F91FF90EF900C948C12CF911F91D4
:103050000F91FF90EF9008958F929F92AF92BF9241
:10306000CF92DF92EF92FF920F931F93CF93DF9354
:10307000C82FE62E88E994E00E947F058C2F0E94DD
:10308000350983E080932601C0932701109229011E
:10309000CC2309F48EC10E944B15D82F882309F444
:1030A00079C18091A301882309F474C18C2F90E029
:1030B0006E2D83569E4F0E94662EC75FC0930C04F0
:1030C00080910904877088608093090480910A04C4
:1030D0008F71806280930A04E0920D0460E086E0C4
:1030E00094E00E943D0D60E971E080E090E00E9474
:1030F0008C1281E080932D046EE874E087E294E006
:103100000E94160A60E00E943D0D83E00E941B179A
:103110001092DD021092DE021092DF021092E002A5
:103120001092E1021092E2021092E3021092E40285
:1031300000912C0110912D01C80101960E946C098B
:10314000F82E8170A82E8093A10181E09F2D9470AC
:10315000892EF2FE80E08093A0018CEF8D0F80938A
:103160002901C80102960E946C09C82F8093DD02D4
:10317000C80103960E946C098093DE02F5FCAAC088
:103180008093DF02C093E002D4E0EF2DE0749E2E26
:10319000C0E0F6FE17C0809129018250809329017A
:1031A000C8018D0F911D0E946C098093AC0181E0D4
:1031B0008D0F800F912F911D0E946C098093AD019E
:1031C000DE5FC2E0BF2CBB1CBB24BB1CF1E0BF1206
:1031D0001DC080912901825080932901C8018D0F63
:1031E000911D0E946C09EC2FF0E0E455FE4F8083A6
:1031F00081E08D0F800F912F911D0E946C09E1E0FD
:10320000EC0FF0E0E455FE4F8083CE5FF3FE05C087
:1032100080912901869580932901C0902A01D09040
:103220002B012091290130E06E2D70E06F5F7F4F00
:10323000629FC001639F900D729F900D11248601C3
:10324000081B190B0F5F1F4F821B930BC81AD90A5B
:10325000C016D1060CF44FC0DC2FF12CE12CC801B4
:103260000E946C09AD2FB0E0A455BE4FE82FF0E0EE
:103270000E2C02C0F595E7950A94E2F7E170FF275E
:10328000EE0FFF1FE352FD4F80818C93C8010E9417
:103290006C09A1E0AD0FB0E0A455BE4FE82FF0E0FF
:1032A0000E2C02C0F595E7950A94E2F7E170FF272E
:1032B000EE0FFF1FE352FD4F81818C93DE5F8FEF96
:1032C000E81AF80A98E0E916F10449F6C05F0F5FC2
:1032D0001F4FBECFC80104960E946C098093DF0285
:1032E000C80105960E946C098093E002D650D093E5
:1032F0002901D6E04ACFA110C850882051F08FE7AD
:1033000094E00E9423099110C250E1E0BE1201C076
:10331000C25085E794E00E94230948E0F42ED0E0F3
:1033200052E3E52E0CEA11E020E0C8018C5A9140EE
:103330008C179D0714F52223D1F060E084E00E94F1
:10334000C40520E0F80181918F018E9DC0011124F8
:1033500090939F0180939E018230910534F3880FF2
:10336000991F880F991F05970197F1F7DECF61E04C
:1033700084E00E94C40521E0E5CFFA94F110D2CF99
:1033800060E084E00E94C4056CE271E080E090E0BF
:103390000E948C1281E080932D0462E774E087E242
:1033A00094E00E94160A60E00E943D0D8FEF80932A
:1033B0002601DF91CF911F910F91FF90EF90DF9049
:1033C000CF90BF90AF909F908F90089562E083E080
:1033D0000E94100661E084E00E94100660E084E034
:1033E0000E94C40560ED77E080E090E00E948C12BE
:1033F00010926304109262041092610410926004AF
:1034000010925F0410925E048DE991E09093650440
:103410008093640490915404963108F047C02DEBDA
:1034200030E030935F0420935E042BE931E0309369
:103430006104209360042CE231E030936304209314
:1034400062042091680084E0983048F031E09E30BA
:1034500008F430E081E001C0880F3A95EAF7822B4A
:10346000809368002DE630E0983050F02BE630E095
:103470009E3030F02CE630E0963110F030E020E065
:1034800030935C0420935B04292F30E0983008F0DF
:103490006BC081E001C0880F9A95EAF780935D04C4
:1034A00080916404909165040197F1F78091620422
:1034B00090916304892B49F1E0913903F0913A032B
:1034C00084E0E834F80709F1309739F0A389B4892A
:1034D0009C918589809589238C93809166048E7F49
:1034E00080936604109237031092380388E494E0C6
:1034F00090933A0380933903E0915B04F0915C046C
:10350000808190915D04892B808360ED77E080E07D
:1035100090E00E948C1285ED96E00E94E81289EFFF
:1035200091E00E94E81284EF91E00E94E8128091FD
:10353000F20282FF26C08EED91E00E94230981E015
:103540008093A20180932D046BED71E087E294E0FB
:103550000E94160A60E00E943D0D8FEF80932601C5
:103560000E941B170C9475089E3040F428503109B6
:1035700081E001C0880F2A95EAF790CF2E503109DB
:10358000F7CF8CEC91E00E9423091092A201E5CFC5
:103590002F923F924F925F926F927F928F929F9263
:1035A000AF92BF92CF92DF92EF92FF920F931F9351
:1035B000CF93DF93CDB7DEB72C970FB6F894DEBF6D
:1035C0000FBECDBF8091A5018111EFC08091A601F2
:1035D0009091A701A091A801B091A901892B8A2BF4
:1035E0008B2B51F40E944C066093A6017093A701A7
:1035F0008093A8019093A9014B99FECF0E944C069D
:10360000609396017093970180939801909399012C
:103610002091A6013091A701621B730B70939F014B
:1036200060939E01CB01855691098B3B9D4408F028
:1036300080C02091AA013091AB0137FD0AC0F90189
:10364000E455FE4F633A40E3740708F46BC089EF1A
:1036500080832F5F3F4F3093AB012093AA0180916D
:1036600028018823E1F180919E0190919F014B995F
:1036700004C0803355E79507D0F30E944C06609351
:10368000A6017093A7018093A8019093A9012091AE
:10369000960130919701621B730B70939F016093A9
:1036A0009E01CB01855691098B3B9D4408F05CC07F
:1036B0002091AA013091AB011216130654F4F901BE
:1036C000E455FE4F633AB0E37B0708F446C089EF48
:1036D00080832F5F3F4F3093AB012093AA018091ED
:1036E000AA019091AB018A3291401CF081E0809355
:1036F000A5012C960FB6F894DEBF0FBECDBFDF91AB
:10370000CF911F910F91FF90EF90DF90CF90BF90DE
:10371000AF909F908F907F906F905F904F903F9071
:103720002F900895CB0162E370E00E94A02F608388
:1037300090CF1092AB011092AA011092280181E063
:103740008093A5010E944C066093A6017093A70187
:103750008093A8019093A90182CFCB0162E370E02E
:103760000E94A02F6083B5CF60337547B0F081E031
:103770008093A5018091AA019091AB0197FF04C0AD
:103780001092AB011092AA011092A6011092A7010B
:103790001092A8011092A901A2CF1092AB01109231
:1037A000AA0181E08093A5019ACF1092A5010E9401
:1037B000201300912801002309F496C58091AA01E5
:1037C0009091AB01813691050CF48EC580912A0150
:1037D00090912B01FC01E455FE4F2081211104C082
:1037E000019780339105B4F790932B0180932A01C0
:1037F00020902C0130902D0180902A0190902B0177
:103800005401A218B308C5016AE070E00E94B42F09
:1038100019861A8610E09B01770F440B550B2983FC
:103820003A834B835C83A5010B2C000C660B770B52
:103830004D835E836F837887F101E455FE4FD12C71
:10384000C12CCF018C5A9140881699063CF0819189
:103850008113F7CF5FEFC51AD50AF3CF11110BC053
:1038600062E0C616D1040CF452C0F984F092A401AF
:1038700080E693E029C372E0C716D1041CF0898565
:103880008F5F8987113009F442C00D2C000CEE08BF
:10389000FF0869817A818B819C810E94212D20E023
:1038A00030E040E05FE3A7EFAA16AFEFBA060CF4F2
:1038B0009BC00E94872E0E94652F6C157D058E058A
:1038C0009F052CF56D817E818F8198850E94212D29
:1038D0002DEC3CEC4CE45FE30E94802D2B013C017D
:1038E00020E030E0A9010E949B2F20E030E040E082
:1038F0005FE387FD7CC0C301B2010E94872E0E9456
:10390000652FC616D706E806F9060CF40A871F5F6E
:103910001F3F09F091CFF984F092A401FA84FF20AF
:1039200009F4A6CF29852250223108F0A1CF1092A8
:10393000DD021092DE021092DF021092E00210927D
:10394000E1021092E2021092E3021092E402662475
:103950006A944AEFA42EB12CF0E0E0E0512C7724D9
:10396000739490E080E000E0C72CD12C482F50E009
:103970005E834D832A2D30E02C5F3F4F241735079F
:103980000CF478C09401A40170E060E022153305C6
:103990009CF1D901A455BE4FFC908F1122C06F5FDE
:1039A0007F4FB1E07B16E1F09230D0F06A307105C4
:1039B000BCF47401A3E0EA1AF1084E155F0584F423
:1039C0007A01E21AF30AB1E3EB16F1044CF06E143B
:1039D0001F0431F02CF0642E621AA82E4A0119013E
:1039E000A90121503109D2CF0E94862E64CFC30194
:1039F000B2010E94862E83CF61157105A9F121E0E5
:103A0000290F309771F1002361F1081750F5AD814E
:103A1000BE81A01BB109CA16DB061CF19101245519
:103A20003E4F6E177F0774F4F9019F012C5A314005
:103A300082169306ACF021918213F7CFDF01119724
:103A40000C93F3CFF9019F012C5A31408216930653
:103A50003CF021910213F7CFDF0111978C93F3CF44
:103A6000292F082FB82E02C0292FBF018F5F922F58
:103A7000FB017CCF951509F440C03AEFF32EAF144B
:103A800011F0953038F029E02B1520F4592E35E04F
:103A9000731267CF30922D0120922C0190922B014E
:103AA00080922A019093A40160922901A0921E01A4
:103AB0003AEFA31267C0809126018F51893008F038
:103AC00010C4C401821993098E3391050CF409C402
:103AD000811542E094071CF495958795182F80E294
:103AE000482E212F30E0842D90E003968217930713
:103AF0000CF084C054E0450EF6CF7394C4CF2F5F12
:103B00003F4FBD81B23008F474C090E080E09F0167
:103B10002C5A3140821693063CF03191D6012C91FB
:103B20003213F5CF0196F3CF40970CF0DAC382E35E
:103B300092E00E947F05F801E455FE4F6F01D60127
:103B40006D916D0170E090E080E04AE00E94A20873
:103B500080E392E00E947F05C601801B910B8C5A86
:103B600091408E159F055CF30E941B09409229012C
:103B700010932D0100932C010E0D1F1D10932B018E
:103B800000932A0160912901362F36953250809199
:103B90002C0190912D0170E08C01060F171FB0E0F1
:103BA000A0E019821D826C01E4E0CE0ED11CC81683
:103BB000D9060CF4E3C0AC01612C512C412CF12C42
:103BC000912CB12C812CA12C19821D8240175107F8
:103BD0000CF084C0FA01E455FE4F20812A1145C043
:103BE000E180E81042C0F981FF5FF9834E5F5F4FCB
:103BF000EDCF0F5F1F4F15C0BCEF4B0E60E3641598
:103C000008F06FC3F101E455FE4F9F0181016F0180
:103C1000E42CF12CA4014E195F09570171E0A71A99
:103C2000B1084017510744F3C1011D8248175907D5
:103C30000CF465CFDC01A455BE4FBC87AB87B9013E
:103C4000712CDB015D90BD01AB85BC856D90BC879F
:103C5000AB87561008C073944710F3CF6D816F5F28
:103C60006D838A0D9B1D0196E1CFB21207C0E180E2
:103C70009E1004C029812F5F2983B8CFA11006C0F0
:103C80008180E981EF5FE983A22EB0CFB11006C039
:103C90009180F981FF5FF983B22EA8CFF11018C08F
:103CA00041807D8073942980231680F0270C332473
:103CB000331C7101EE0CFF1CE616F70664F452800B
:103CC0006380ED81EE5FED83F22E90CFF22E7D8248
:103CD00048EE53E08BCFF22E7D8288CFA092DD029A
:103CE0008092DE02B092DF029092E002F092E10256
:103CF0004092E2025092E3026092E402298023168D
:103D000008F4C6C020912A0130912B01A20FB31FE5
:103D1000B0932B01A0932A0190932D0180932C0145
:103D20000E941B090E941B0900912C0110912D017A
:103D3000980124553E4F790180912A0190912B01E1
:103D400080179107BCF0D7016D917D0170E090E084
:103D500080E04AE00E94A2088DE692E00E947F0582
:103D6000C80187709927892B11F40E941B090F5FE6
:103D70001F4FE2CF0E941B090E941B098091DD02A8
:103D80002091DE0241E050E0821711F050E040E067
:103D90009091DF029417150641F49091E0022917E3
:103DA00020F49093DE028093E00299819695969597
:103DB000969590932301898187701092A1011092AA
:103DC000A001882349F09F5F90932301843009F07C
:103DD00068C081E08093A1011D82812C912C540147
:103DE0008394809123013D80381608F08BC019829E
:103DF000F12CE12C00912C0110912D01F801E455DA
:103E0000FE4F8081240135010E2C04C0440C551C4A
:103E1000661C771C0A94D2F79091DD02891357C073
:103E200021819091DE02291352C081E592E00E9427
:103E30007F05842D80952980282229820E5F1F4FBF
:103E400010932D0100932C012FEFE21AF20A38E0B3
:103E5000E316F10479F62D80E22DF0E0E455FE4FF3
:103E60003980308284E492E00E947F05632D70E007
:103E700090E080E040E10E94A2088CE392E00E9482
:103E80007F0589810E9435092D812F5F2D83A9CF60
:103E900011960F5F1F4FA530B10509F456C001966A
:103EA00086CE2D80820D9927991F8430910531F49B
:103EB00081E08093A1018093A0018ECF089711F437
:103EC00081E0F9CF83E592E00E9423093EC0909102
:103ED000DF0289130DC091818091E002981308C020
:103EE0008FE492E00E947F05398034283982A6CF82
:103EF0008DE492E00E947F05842D80952980282200
:103F00002982A2CF0E941B090E941B092090260132
:103F10002982222D2F3F09F062C08BE194E00E949C
:103F200023090E944B15882381F085E194E00E94CB
:103F3000230981E080932D046DEF73E087E294E024
:103F40000E94160A60E00E943D0D0E947508809153
:103F50001C01882309F404C210921C011AE080910C
:103F6000A30190E009961817190611F00CF0C2C1D0
:103F700027EF210F422F50E043565E4F5A8349836B
:103F8000CA010E944E2E823028F060E089819A8119
:103F90000E94662E89819A810E944E2E10930C04F5
:103FA00090910904977098609093090490910A0485
:103FB0009F71906290930A0491E0811101C090E09A
:103FC00090930D0460E086E094E00E943D0D60E96E
:103FD00071E080E090E00E948C121F5FC0CF898169
:103FE0008F51893008F0B1CF86EF93E00E947F05B2
:103FF00089810E943509809126018652823030F4F1
:104000009091230180911D0198134EC188E992E09F
:104010000E942309809126019AED980F923008F4AE
:1040200075C02090A1012D829091A001992319F0D3
:10403000222D24602D83309123013983982F9D7F79
:10404000903209F045C04D8148604D83330F3E5F8B
:1040500039838152823060F58D8180614091DF0229
:104060002091E0023091DD029091DE02491334C0CC
:10407000231332C069816E5F69838D838091E10271
:104080008823B1F08091E202882391F08D818064D1
:1040900099819E5F2091E3022223A9F12091E402FD
:1040A000222389F1BD81B06CBD83E981EC5FE98396
:1040B000298021102EC080EA93E00E94230986E027
:1040C0000E941B1781E080932D046BE873E000C110
:1040D00059815E5F5983BDCF81E090E0431711F0B5
:1040E00090E080E02817190639F47D8172617D83A4
:1040F00089818E5F8983C2CF9D8190639D83A981D1
:10410000AC5FA983BBCF99838D83D2CF22E0298373
:104110001D8280912401909125012980820D911D9D
:104120008115944040F686E892E00E942309809130
:1041300026018652823008F451C08091240190916A
:1041400025010196909325018093240169810E94A5
:1041500058098091240190912501019690932501A1
:10416000809324016D810E9458092D80E22CF12C4E
:1041700024FE34C00DED12E024E030E03A832983C0
:10418000C701098002C0959587950A94E2F780FFE0
:104190001AC08091240190912501019690932501E8
:1041A00080932401D8016C910E94580980912401C8
:1041B0009091250101969093250180932401F801A7
:1041C00061810E94580929813A812F5F3F4F3A83CC
:1041D00029830E5F1F4F2830310591F61982809197
:1041E00023012980281618F580912401909125013A
:1041F000019690932501809324010E94110980E883
:1042000092E00E947F05022D10E004551E4FD80158
:104210008C910E943509F801608180912401909170
:1042200025010E945809F981FF5FF983D8CF809159
:1042300026018652823028F080919D018F5F809305
:104240009D012224239420922D046FE672E087E2E0
:1042500094E00E94160A60E00E943D0D80912601C4
:104260008D7F803231F581EE93E00E9423098091A9
:10427000230180931D0120922D0469EC73E087E2F5
:1042800094E00E94160A60E00E943D0D8091260194
:10429000823219F487E280932601809126018032D0
:1042A00019F486E280932601809126010E941B1753
:1042B0004CCE84E00E941B170E94520D88EB93E0C5
:1042C0000E9423093324339430922D0465EB73E06C
:1042D00087E294E00E94160A60E00E943D0D8FEF95
:1042E000E1CF83E793E0F0CD1092A50181E08093C8
:1042F00028012DCE60E971E080E090E00E948C12F0
:1043000064E6698380919D019091A301891B990BBB
:104310008D599F4F29802816190609F00CF5209217
:10432000EB038091E9038F7180648093E9038091AE
:10433000E803877080618093E8031092ED03109288
:10434000EC0360E085EE93E00E943D0D60E971E0D2
:1043500080E090E00E948C1229812F5F2983D2CFC8
:104360000E94710600919201109193012091940195
:1043700030919501601B710B820B930B65367105B3
:104380008105910508F4B5C90E94710660939201F8
:1043900070939301809394019093950120909101E3
:1043A0002982222011F181E493E00E947F05898116
:1043B0000E943509E0919101F0E0E557FE4F8081C0
:1043C00060E0853610F061E084560E942C18309031
:1043D0009101232D21502983209391018AE393E0B9
:1043E0000E947F0589810E9435098091E502823013
:1043F00008F483C081508093E5028091D80288231D
:1044000009F477C90E9414130E9446098091D902C9
:104410009091DA0265E370E00E94B42F6093270167
:104420001092D8026111FFC08EEE92E00E94230923
:1044300088EC8093260164E670E080E090E00E94C2
:104440008C120E94460980E491E09093DA028093F6
:10445000D90281E08093D80225E3C22ED12C3EE11F
:10446000E32E48E2B42E52E3A52E62E370E080E032
:1044700090E00E948C120E9420138091D802882321
:10448000A1F31092D8020E9446098091D90290911E
:10449000DA02B6010E94B42F60932701611137C080
:1044A0008FEF8093260180912601833309F0B0C0FD
:1044B0008BE193E00E94230910929C018BE00E9403
:1044C0001B1720E032E03A8329836FEF89819A81BC
:1044D0000E94580949815A814F5F5F4F5A8349832F
:1044E0004130544091F70E944B158FEF8093260185
:1044F000809126010E941B17D8C0813009F07DCF22
:104500001092E50286E393E00E94E81276CF89EEEE
:1045100092E00E94E81263E170E083E190E00E9483
:10452000511480E00E948B1485E390E00E940715EF
:104530009091260180912701983C09F067C09091E5
:104540009D01992309F43FC033E03D83FF24F39498
:10455000813051F487ED92E00E942309E092260118
:1045600054E05D8394E0F92E80912701823051F46C
:104570008DEB92E00E942309B092260161E06D83E9
:1045800088E0F82E80912701833001F584EA92E0DB
:104590000E942309A092260182EA92E00E947F05F0
:1045A00080E00E94350968E470E083E190E00E94B9
:1045B000511489E00E948B148AE690E00E9407154E
:1045C0000E94460952CF41E04D83C0CF198208E4D2
:1045D00010E082EA92E00E947F0589810E943509FD
:1045E000B80183E190E00E94511489818F0D0E94EF
:1045F0008B14C80182960E94071579817F5F7983A9
:104600000B5C1F4F2D807211E4CFDACF890F49CF99
:10461000893209F06DCF10929C010E944B1589E2FE
:104620000E941B1762CF653008F069C0CB01992743
:104630009A83898300919C0194E0099F8001112451
:104640008091A30190E0801B910B29803A80821514
:1046500093055CF180919101863038F586E093E016
:104660000E947F05C101800F911F0E941109809156
:1046700091018F5F809391018091DB029091DC0228
:104680008937910564F181E093E00E942309E0916C
:104690009101F0E0E557FE4F80919C01880F880F53
:1046A000909127019C59890F80832C960FB6F8941E
:1046B000DEBF0FBECDBFDF91CF911F910F91FF9055
:1046C000EF90DF90CF90BF90AF909F908F907F90B2
:1046D0006F905F904F903F902F900C9475088BEFE8
:1046E00092E00E942309E0919101F0E0E557FE4F2E
:1046F00080919C01880F880F90912701D4CF85EF7E
:1047000092E00E94230980919C018F5F80939C011D
:1047100024E0829FC00111242091A30128171906CB
:1047200011F00CF0E5CE10929C01E2CE1F93CF93D6
:10473000DF938091E70281FD2DC00E940A0E8091D7
:10474000E70281608093E702C4E0DFEF1AE1809125
:1047500044038093680410926904D0936D0410930D
:104760006C0480916B04807E836080936B0462E0B4
:1047700087E694E00E942F070E941C0D8BE10E94A7
:104780005912811102C0C15011F78091E702826075
:104790008093E702DF91CF911F9108958FEF80936F
:1047A000F402E2EFF2E0908198609083E7E6F4E0B3
:1047B0009091440391831282868388E1858384816A
:1047C000807E8360848361E0CF010E942F070C9478
:1047D000E40C809144038F3F21F50E9471066F3FE6
:1047E000E9F060932F0180912F0190914403909301
:1047F00068041092690480936D0483E080936C04D4
:1048000080916B04807E836080936B046AE571E025
:1048100087E694E00E944D0A0C94E40C10922F015C
:10482000E2CF0895E2EFF2E08081897F81608083AA
:10483000A4E4B3E08FEF12968C93129711968C93A9
:104840001197E7E6F4E09C9191838283868387E069
:1048500085838481807E836084836AE571E0CF01F3
:104860000E944D0A0C94E40C8F929F92AF92BF92DB
:10487000CF92DF92EF92FF920F931F93CF93DF932C
:10488000CDB7DEB764970FB6F894DEBF0FBECDBFCD
:104890008E010F5F1F4F80E1F80111928A95E9F7B1
:1048A00060E170E081E691E00E94F22CAC0161E6EB
:1048B00071E0C8010E94F02F8AE090E09093AA0472
:1048C0008093A90440E1B8018BEA94E00E946E0451
:1048D00050E040E080E190E0FF24F39420E1E22EFC
:1048E000BE016B5E7F4F3BE1B32ED82EFC01E95534
:1048F000FB4F9E012F5E3F4FD901C190CD92A6176D
:10490000B707D9F7DE1020C0D988F0E1EF0EEA89A9
:10491000F0E0EE54FF4FE491EF25E98BEB89F0E0F6
:10492000EE54FF4FE491EA8BEC89F0E0EE54FF4F38
:10493000E491EB8BED2DF0E0EE54FF4FE491EC8B26
:10494000F7FECFC0FF0CFB24FC01E555FB4F4F01E8
:10495000F901A1909F016401C81AD90AC40ED51E9D
:10496000F601D080DA24F401D1924F012A173B07D7
:1049700079F704964C5F5F4F803B910509F0B5CF06
:1049800080E1F80111928A95E9F7219A229A2998F3
:104990002A9A1FB7F89480916A01811127C0E5E136
:1049A000F8E08491E9E2F8E09491E82FF0E0EE0F6E
:1049B000FF1FE752F84FA591B491EC91E92321F440
:1049C00061E08AE00E94C40561E08AE00E9410066E
:1049D0008CB580618CBD8CB580648CBD61E08DE050
:1049E0000E94100661E08BE00E94100680916A012F
:1049F0008F5F80936A011FBF29986EE080E20E945A
:104A0000A0098BE496E40197F1F763E083E20E944A
:104A1000A0096FE584E20E94A0096CE485E20E948F
:104A2000A00967E086E20E94A00964E08DE30E948D
:104A3000A0098DE10E94F409843041F063E780E52C
:104A40000E94A00964E08DE30E94A00986E00E9414
:104A5000F409873009F04FC085E00E94F4098C34D6
:104A600009F049C062E082E20E94A00960E081E2B0
:104A70000E94A00963E08CE30E94A0091FEF10933D
:104A8000030120E045E063E071E08BE20E946E09E3
:104A900020E045E063E071E08AE20E946E0920E0D8
:104AA00045E063E071E080E30E946E0982EE0E94BF
:104AB000FA0981EE0E94FA0960E787E20E94A009E4
:104AC0008091F20280618093F202809147038E7F91
:104AD00080934703809144038F3F29F488E191E05C
:104AE0000CC0FF0C31CF9FEF980F9E3FD8F40E946F
:104AF000DA098111F3CF88E091E00E9459076496AA
:104B00000FB6F894DEBF0FBECDBFDF91CF911F91DE
:104B10000F91FF90EF90DF90CF90BF90AF909F905C
:104B20008F90089510934403E6CF1F920F920FB613
:104B30000F9211242F933F934F935F936F937F9323
:104B40008F939F93AF93BF93EF93FF9388E493E08A
:104B50000E941005FF91EF91BF91AF919F918F91AE
:104B60007F916F915F914F913F912F910F900FBE69
:104B70000F901F9018951F920F920FB60F9211244D
:104B80002F938F939F93EF93FF93E0915803F091AE
:104B900059038081E0915E03F0915F0382FD1BC0A9
:104BA0009081809161038F5F8F73209162038217E0
:104BB00041F0E0916103F0E0E85BFC4F958F80935A
:104BC0006103FF91EF919F918F912F910F900FBEF5
:104BD0000F901F9018958081F4CF1F920F920FB6FF
:104BE0000F9211242F933F938F939F93AF93BF9373
:104BF00080913C0390913D03A0913E03B0913F030F
:104C000030913B0323E0230F2D3758F50196A11D6A
:104C1000B11D20933B0380933C0390933D03A093ED
:104C20003E03B0933F038091400390914103A091D4
:104C30004203B09143030196A11DB11D809340032F
:104C400090934103A0934203B0934303BF91AF916C
:104C50009F918F913F912F910F900FBE0F901F90BA
:104C6000189526E8230F0296A11DB11DD2CF1F92E1
:104C70000F920FB60F9211242F933F934F935F9390
:104C80006F937F938F939F93AF93BF93EF93FF9314
:104C9000E0913201F09133010995FF91EF91BF91BD
:104CA000AF919F918F917F916F915F914F913F91C4
:104CB0002F910F900FBE0F901F9018951F920F927B
:104CC0000FB60F9211242F933F934F935F936F93DF
:104CD0007F938F939F93AF93BF93EF93FF93E09155
:104CE0003001F09131010995FF91EF91BF91AF91A2
:104CF0009F918F917F916F915F914F913F912F91F4
:104D00000F900FBE0F901F9018951F920F920FB625
:104D10000F9211242F933F934F935F936F937F9341
:104D20008F939F93AF93BF93EF93FF93E0913903DA
:104D3000F0913A03309749F0A685B7858585968D21
:104D400091FF14C09C918923A1F4FF91EF91BF9131
:104D5000AF919F918F917F916F915F914F913F9113
:104D60002F910F900FBE0F901F9018959C91892343
:104D700061F7A389B4899C918589809589238C9357
:104D8000868997890197F1F7608D718DA685B78522
:104D9000558538E020E0CB010197F1F7822F90E0B4
:104DA00095958795282F4C91452309F0206831501F
:104DB00091F7868D81FD20958091370390E00196D3
:104DC0008F73992730913803381799F0A0913703E2
:104DD000B0E0A950BD4F2C9380933703828D938D03
:104DE0000197F1F7A389B4898C919589892B8C93CC
:104DF000ACCF868D8160868FF1CF1F920F920FB658
:104E00000F9211240F900FBE0F901F901895DB0189
:104E1000FC0158E0149744E018960E9001924A95D0
:104E2000E1F75A95C1F708958F929F92AF92BF9282
:104E3000CF92DF920F931F93EDB7FEB7B8970FB6DF
:104E4000F894EDBF0FBEFEBF9F938F9331968F01F5
:104E500049015A016B01C801AAD2BB2011F4AA2052
:104E600059F0C801B601A1D030E4C30ED11C32E024
:104E7000931AA108B108F1CFC801B601A40115D059
:104E80008F919F91B801C3DFEDB7FEB7B8960FB60B
:104E9000F894EDBF0FBEFEBF1F910F91DF90CF9032
:104EA000BF90AF909F908F900895523090F09F9355
:104EB0008F937F936F935F934F9377D04F915F91D1
:104EC0006F917F918F919F91525030E4630F711DCC
:104ED000ECCFEDB7FEB70FB6E054F040F894EDBF5D
:104EE0000FBEFEBF3196242F26952695269550FBA2
:104EF00025F9DB01222329F0122E0D9001921A943C
:104F0000E1F730E8032E37E0342329F006943A9590
:104F1000E9F73C91032A01922395293308F421C033
:104F200030E4321B19F011923A95E9F7FF97319767
:104F3000BF01FF93EF939F938F935F934F9335D070
:104F40004F915F918F919F91EF91FF91DC0191962D
:104F50003C9132503D9326E03C9130403D932A9560
:104F6000D9F738E3321B21F0112411923A95E9F771
:104F7000DC01909638960D90040E02920D90051E5D
:104F8000029236E00D90011C02923A95D9F7F897FB
:104F9000BF010BD0EDB7FEB70FB6FF963196F89470
:104FA000EDBF0FBEFEBF112408954F925F926F9226
:104FB0007F928F929F92AF92BF92CF92DF92EF92A9
:104FC000FF920F931F93CF93DF934DB75EB79A0174
:104FD000FB0140525140DA010FB6F8944DBF0FBEAD
:104FE0005EBF2F933F938F939F93119640E17191F2
:104FF0006191319121912D933D936D937D934A95CC
:10500000B1F740E3142EFD01FF9731970191119103
:1050100021913191C190D190E190F1906D2D7E2D33
:105020008F2D9C2D41E0E9D14B015C01B701C601F8
:1050300042E0F9D186269726A826B92673E0F69491
:10504000E794D794C7947A95D1F78C249D24AE2405
:10505000BF24080D191D2A1D3B1D648D758D868D7D
:10506000978D060F171F281F391FC0A8D1A8E2A8C7
:10507000F3A8B701C60141E0D6D15C014B0142E083
:10508000D2D186269726A826B92672E0F694E79410
:10509000D7947A95D9F78D249E24AF24080D191D35
:1050A0002A1D3B1D0D931D932D933D931A9409F0DA
:1050B000AACFFF91EF91EF93FF9390E211901D9291
:1050C0009A95E1F79097ED01EEEAF2E5BA9590E452
:1050D000192E4C885D886E887F88688979898A89CD
:1050E0009B89C88CD98CEA8CFB8C4622572268227B
:1050F00079226095709580959095C622D722E822F6
:10510000F9224C245D246E247F24F888C988DA882B
:10511000EB88B601C70142E070D14B015C01B601DA
:10512000C70143E080D186269726A826B926B70175
:10513000C60141E078D186269726A826B926480CD4
:10514000591C6A1C7B1C8C8C9D8CAE8CBF8C480CB3
:10515000591C6A1C7B1C8D909D90AD90BD90480C95
:10516000591C6A1C7B1C85909590A590B590480CA5
:10517000591C6A1C7B1C688179818A819B818C8087
:105180009D80AE80BF8086229722A822B922C88443
:10519000D984EA84FB846C217D218E219F2186267F
:1051A0009726A826B9266C817D818E819F816C21EE
:1051B0007D218E219F2186269726A826B926C88084
:1051C000D980EA80FB80B601C70142E02CD18B0177
:1051D0009C01B701C60143E010D1062717272827F5
:1051E00039276F2D7C2D8D2D9E2D42E006D106276F
:1051F000172728273927080D191D2A1D3B1D5CE19B
:105200006C969A919C835A95E1F7C888D988EA8868
:10521000FB88C40CD51CE61CF71CC88AD98AEA8A0C
:10522000FB8A040D151D261D371D088319832A834B
:105230003B831A9409F04DCFFF91EF9158E0008124
:105240001181228133816991799189919991060F18
:10525000171F281F391F01931193219331935A95DA
:1052600071F7319652E066E04081450F4193552732
:1052700028F44081451F41936A95D1F75F914F9182
:105280000FB6F8944DBF0FBE5EBF1124DF91CF91D2
:105290001F910F91FF90EF90DF90CF90BF90AF9054
:1052A0009F908F907F906F905F904F900895982F70
:1052B0008A4291443771CFFBC0B5A5DBB5E95BC22B
:1052C0005639F111F159A4823F92D55E1CAB98AAD0
:1052D00007D8015B8312BE853124C37D0C55745DF4
:1052E000BE72FEB1DE80A706DC9B74F19BC1C16972
:1052F0009BE48647BEEFC69DC10FCCA10C246F2C4A
:10530000E92DAA84744ADCA9B05CDA88F976525196
:105310003E986DC631A8C82703B0C77F59BFF30BAD
:10532000E0C64791A7D55163CA0667292914850AA3
:10533000B72738211B2EFC6D2C4D130D3853547399
:105340000A65BB0A6A762EC9C281852C7292A1E8D1
:10535000BFA24B661AA8708B4BC2A3516CC719E849
:1053600092D1240699D685350EF470A06A1016C124
:10537000A419086C371E4C774827B5BCB034B30C61
:105380001C394AAAD84E4FCA9C5BF36F2E68EE8236
:105390008F746F63A5781478C8840802C78CFAFFED
:1053A000BE90EB6C50A4F7A3F9BEF27871C6DC0195
:1053B000E0ECF3E568E275917D936A95E1F7089575
:1053C00067E6096A85AE67BB72F36E3C3AF54FA596
:1053D0007F520E518C68059BABD9831F19CDE05BC2
:1053E0000000000000000000483038F0592F982FCE
:1053F000872F762F652F4850F7CF55278894442361
:1054000039F0661F771F881F991F551F4A95C9F7E6
:10541000652B0895483038F0562F672F782F892F45
:10542000952F4850F7CF55278894442339F0979506
:1054300087957795679557954A95C9F7952B089560
:10544000AB01692F782F852F942F0895CF93DF9389
:10545000FC01108211821282148215821682DC01F4
:1054600017968AE1ED0119928A95E9F782E0838324
:10547000DF91CF910895CF92DF92EF92FF921F9329
:10548000CF93DF93CDB7DEB728970FB6F894DEBF82
:105490000FBECDBF10924B0310924A0398EEC92E57
:1054A00093E0D92EE12CF12CC0924C03D0924D0305
:1054B000E0924E03F0924F0388E391E0909349030A
:1054C0008093480385EC90E09093550380935403B8
:1054D00084EC90E0909357038093560380EC90E027
:1054E000909359038093580381EC90E090935B0371
:1054F00080935A0382EC90E090935D0380935C0369
:1055000086EC90E090935F0380935E0310926103BA
:1055100010926203109263031092640388E09E016C
:105520002F5F3F4FD901E82F1D92EA95E9F711E06F
:1055300010939B0510929C0510929D0510929E055C
:1055400010929F051092A0051092A1051092A2053D
:105550001092AA041092A9041092B4051092B305F7
:105560001092B6051092B505EBEAF4E090EFDF017A
:105570001D929A95E9F71887F901A3EAB5E0982FEB
:1055800001900D929A95E1F7F901ABEAB5E0982FF9
:1055900001900D929A95E1F71093B70592E09093E0
:1055A000B80593E09093B90594E09093BA0595E01F
:1055B0009093BB0596E09093BC0597E09093BD0552
:1055C0008093BE0589E08093BF058AE08093C00583
:1055D0008BE08093C1058CE08093C2058DE08093C1
:1055E000C3058EE08093C4058FE08093C50588E8ED
:1055F00094E00E94262A87E694E00E94262A1092D0
:105600004B0410924A04C0924C04D0924D04E09294
:105610004E04F0924F048AE491E090934904809301
:10562000480410925F0410925E041092610410927C
:105630006004109263041092620410926504109248
:105640006404809166048E7F8D7F8093660481FB65
:10565000662760F9612786E00E94C40561E086E064
:105660000E941006E5E2F8E0E491E0935804E1E1DD
:10567000F8E0E491F0E0EE0FFF1FEF5FF74F859148
:10568000949190935A048093590460E085E00E94BD
:1056900010068091660481FD04C061E085E00E94EF
:1056A000C40585E080935404E4E2F8E0E491E093DB
:1056B0005504E0E1F8E0E491F0E0EE0FFF1FE9505F
:1056C000F84F85919491909357048093560487E204
:1056D00094E00E94262A81E080932D048FE280933B
:1056E0002C0486E094E00E94262A83E080930C0438
:1056F00082E080930B0485EE93E00E94262A8AE0E4
:105700008093EB0380E18093EA0328960FB6F89428
:10571000DEBF0FBECDBFDF91CF911F91FF90EF9005
:10572000DF90CF900895CF93DF93CDB7DEB7CA5502
:10573000D1090FB6F894DEBF0FBECDBF789484B503
:10574000826084BD84B5816084BD85B5826085BD7D
:1057500085B5816085BD80916E00816080936E000B
:1057600010928100809181008260809381008091FD
:1057700081008160809381008091800081608093AE
:1057800080008091B10084608093B1008091B0006E
:1057900081608093B00080917A00846080937A0069
:1057A00080917A00826080937A0080917A00816093
:1057B00080937A0080917A00806880937A001092BA
:1057C000C100A89580E090E0892B11F00E940000B4
:1057D0000E9446048091E7028D7F8093E7020E9439
:1057E0002F0940E250E063E671E0CE0101960E948D
:1057F0003E2E40E150E06CE871E0CE0181960E94BF
:105800003E2E49E050E063E871E0CE01C1960E946F
:105810003E2E41E050E06AE171E0CE01865A9F4F92
:105820000E943E2E28EC31E040E050E0BE016F5F68
:105830007F4FCE01CA960E94142741E050E063E0FA
:1058400071E086EE92E00E943E2E6FEF81E090E0E4
:105850000E94662E8091F3028F788093F30210925B
:10586000E9021092E8028FE191E00E94590786E96F
:1058700093E290939B0180939A010E9471066B01C1
:105880007C010E9471066C197D098E099F096031A7
:10589000774281059105C8F00E94E619A89500E0BD
:1058A00010E0A8950E943B078091F20284FD0E94BF
:1058B000570E0E94C81A0115110599F30E9406059A
:1058C000882379F30E940000ECCF0E943B070E94DE
:1058D00053128091F20282FB882780F9A8958111EA
:1058E000DBCFCFCF8AE491E09093490480934804C2
:1058F0008091390390913A038854944071F4E09177
:105900005B04F0915C04908180915D048095892313
:10591000808310923A03109239030895FC0188277E
:105920009927E89421912032E9F3293010F02E30A4
:10593000C8F32B3241F02D3239F4689404C00E9430
:10594000122D820F911D219120532A30C0F31EF495
:10595000909581959F4F08951F93FC019927882763
:10596000BC01E89411911032E9F3193010F01E30A7
:10597000C8F31B3251F01D3249F4689406C00E94EE
:10598000FD2C610F711D811D911D119110531A3055
:10599000B0F33EF490958095709561957F4F8F4F51
:1059A0009F4F1F910895FB01DC0105900D9200208F
:1059B000E1F70895FC0105900020E9F780959095A6
:1059C0008E0F9F1F0895FB01DC014150504048F0AD
:1059D00005900D920020C9F701C01D924150504022
:1059E000E0F70895FC016150704001900110D8F774
:1059F000809590958E0F9F1F0895592F482F372F10
:105A0000262F660F771F881F991F660F771F881F25
:105A1000991F620F731F841F951F660F771F881FC2
:105A2000991F08957AE0979F902D879F802D910D63
:105A3000112408950E945C2D08F481E00895E894F3
:105A400009C097FB3EF490958095709561957F4FC6
:105A50008F4F9F4F9923A9F0F92F96E9BB27939574
:105A6000F695879577956795B795F111F8CFFAF484
:105A7000BB0F11F460FF1BC06F5F7F4F8F4F9F4FB5
:105A800016C0882311F096E911C0772321F09EE813
:105A9000872F762F05C0662371F096E8862F70E079
:105AA00060E02AF09A95660F771F881FDAF7880F53
:105AB0009695879597F90895990F0008550FAA0BA9
:105AC000E0E8FEEF16161706E807F907C0F0121611
:105AD0001306E407F50798F0621B730B840B950B14
